:020000040800F2
:1000000020140220FD3702083F3802084338020856
:10001000473802084B3802084F3802080000000039
:10002000000000000000000000000000E93B0108A3
:100030005338020800000000913B01081D350208FA
:10004000573802085B3802085F3802086338020834
:10005000673802086B380208413502086F38020819
:1000600073380208773802087B3802087F380208A4
:1000700083380208873802088B3802088F38020854
:1000800093380208973802089B3802089F38020804
:10009000A3380208A7380208AB380208AF380208B4
:1000A000B3380208B7380208BB380208BF38020864
:1000B000C3380208C7380208CB380208CF38020814
:1000C000D3380208D7380208DB380208DF380208C4
:1000D000E3380208E7380208EB380208EF38020874
:1000E000F3380208F7380208FB380208FF38020824
:1000F00003390208073902080B3902080F390208D0
:1001000013390208173902081B3902081F3902087F
:100110002339020827390208213502082B39020841
:100120002F39020833390208373902083B390208EF
:10013000273502083F3902084339020847390208C7
:100140004B3902084F39020853390208573902085F
:100150005B3902085F39020863390208673902080F
:100160006B3902086F3902087339020877390208BF
:100170007B3902082D3502087F3902080000000093
:1001800083390208873902088B3902088F3902083F
:1001900093390208973902089B3902089F390208EF
:1001A000A3390208A7390208AB3902080000000091
:1001B000000000000000000000000000000000003F
:1001C000000000000000000000000000000000002F
:1001D000000000000000000000000000000000001F
:1001E000000000000000000000000000000000000F
:1001F00000000000000000000000038000038000F9
:10020000038000038000038000038000038000035C
:1002100080000380000100000100000000000000D9
:1002200000038000038000000000000000000000C8
:1002300000000000000000000000000000000000BE
:1002400000000000000E70000E70000E7000042010
:100250000004200004200004200000000000000032
:10026000000000000000000000000000000000008E
:10027000000000000000000000000000000000007E
:1002800000000000000000000000066000066000A2
:100290000660000660000660003FF8003FF80006B8
:1002A00060000CC0003FF8003FF8000CC0000CC01C
:1002B000000CC0000CC0000CC000000000000000DA
:1002C000000000000000000000000000000000012D
:1002D000800001800007B0000FF000187000187057
:1002E000001C00000F800007E00000F00018300044
:1002F0001C30001C70001FE0001BC00001800001CA
:10030000800001800001800000000000000000006B
:10031000000000000000000000000780000FC00087
:100320001CE0001860001860001CE0000FF80007D7
:10033000E0001FF000073800061800061800073814
:100340000003F00001E000000000000000000000D9
:10035000000000000000000000000000000000009D
:10036000000000000000000003F00007F0000C6037
:10037000000C00000C00000600000700000F9C00AD
:100380001DFC0018F0001870000FFC0007DC0000D6
:10039000000000000000000000000000000000005D
:1003A00000000000000000000000000000038000CA
:1003B0000380000380000100000100000100000133
:1003C000000000000000000000000000000000002D
:1003D000000000000000000000000000000000001D
:1003E000000000000000000000000000000000000D
:1003F000000000180000380000700000F00000E06D
:100400000000E00001C00001C00001C00001C00008
:1004100001C00001C00000E00000E000007000002A
:10042000700000380000180000000000000000000C
:10043000000000000000000000001800001C000088
:100440000E00000E000007000007000003800003FC
:100450008000038000038000038000038000070009
:10046000000700000F00000E00001C000018000034
:10047000000000000000000000000000000000007C
:1004800000000180000180000180001DB8001FF8FD
:100490000007E00003C00003C00006600006600023
:1004A000000000000000000000000000000000004C
:1004B000000000000000000000000000000000003C
:1004C000000000000000000000000000000000002C
:1004D0000180000180000180000180000180003F58
:1004E000FC003FFC000180000180000180000180D1
:1004F000000180000000000000000000000000007B
:1005000000000000000000000000000000000000EB
:1005100000000000000000000000000000000000DB
:1005200000000000000000000000000000000000CB
:1005300000000000000000E00000C00001C0000159
:1005400080000180000300000300000000000000A4
:10055000000000000000000000000000000000009B
:100560000000000000000000000000000000001F6C
:10057000F8001FF80000000000000000000000006C
:10058000000000000000000000000000000000006B
:10059000000000000000000000000000000000005B
:1005A000000000000000000000000000000000004B
:1005B000000000000000000000000000000000003B
:1005C00000000000000003C00003C00003C00000E2
:1005D000000000000000000000000000000000001B
:1005E0000000000000180000180000380000300073
:1005F00000700000600000600000C00000C000014A
:1006000080000180000300000300000600000600D7
:10061000000E00000C00001C000018000018000074
:1006200000000000000000000000000000000000CA
:10063000000003C00007E0000C30000C3000181868
:1006400000181800181800181800181800181800BA
:100650001818000C30000C300007E00003C0000048
:10066000000000000000000000000000000000008A
:100670000000000000000000000000800007800073
:100680001F80001D800001800001800001800001AA
:100690008000018000018000018000018000018055
:1006A000001FF8001FF8000000000000000000001C
:1006B000000000000000000000000000000000003A
:1006C000000007C0001FF00038300030180030185C
:1006D0000000180000300000600001C0000380002E
:1006E0000600000C00001800003FF8003FF8000072
:1006F00000000000000000000000000000000000FA
:100700000000000000000000000003C0000FE00037
:100710000C700000300000300000600003C00003D7
:10072000E0000070000018000018000018001838E1
:10073000001FF0000FC000000000000000000000DB
:1007400000000000000000000000000000000000A9
:10075000000000E00001E00001E00003600006602E
:10076000000660000C60000C600018600030600043
:100770003FF8003FF80000600003F80003F80000B5
:100780000000000000000000000000000000000069
:10079000000000000000000000001FF0001FF0003B
:1007A0001800001800001800001BC0001FF0001CFB
:1007B0003000001800001800001800001800303049
:1007C000003FF0000FC0000000000000000000002B
:1007D0000000000000000000000000000000000019
:1007E000000000F80003F8000700000E00000C00F5
:1007F000001800001BC0001FF0001C30001818007B
:100800001818001818000C38000FF00003E0000062
:1008100000000000000000000000000000000000D8
:10082000000000000000000000001FF8001FF8009A
:100830001818001838000030000030000070000068
:10084000600000600000E00000C00000C00001C0C7
:100850000001800001800000000000000000000096
:100860000000000000000000000000000000000088
:10087000000007E0000FF0001C38001818001818DE
:10088000000C300007E00007E0000C3000181800F2
:100890001818001818001C38000FF00007E00000BE
:1008A0000000000000000000000000000000000048
:1008B0000000000000000000000007C0000FF00072
:1008C0001C30001818001818001818000C38000FF9
:1008D000F80003D80000180000300000700000E0AD
:1008E000001FC0001F00000000000000000000000A
:1008F00000000000000000000000000000000000F8
:10090000000000000000000000000000000003C024
:100910000003C00003C00000000000000000000051
:1009200000000000000003C00003C00003C000007E
:1009300000000000000000000000000000000000B7
:1009400000000000000000000000000000000000A7
:1009500000000000000000F00000F00000F00000C7
:10096000000000000000000000000000E00001C0E6
:100970000001800001800003000002000000000070
:100980000000000000000000000000000000000067
:100990000000000000000000001C00003C0000F00F
:1009A0000003C0000F00003C0000F000003C00000D
:1009B0000F000003C00000F000003C00001C00001D
:1009C0000000000000000000000000000000000027
:1009D0000000000000000000000000000000000017
:1009E0000000000000000000007FFC007FFC000011
:1009F00000000000007FFC007FFC00000000000001
:100A000000000000000000000000000000000000E6
:100A100000000000000000000000000000000000D6
:100A200000000000000000007000007800001E00C0
:100A30000007800001E000007800001E0000780040
:100A400001E0000780001E00007800007000000038
:100A50000000000000000000000000000000000096
:100A60000000000000000000000000000007C000BF
:100A70000FE00018700018300018300000700000FF
:100A8000E00003C00003800003000000000000003D
:100A90000007000007000000000000000000000048
:100AA0000000000000000000000000000000000046
:100AB000000003E00007F0000E38000C1800187862
:100AC0000018F80019D80019980019980019980012
:100AD00018F8001878001800000C00000E18000725
:100AE000F80003E00000000000000000000000002B
:100AF000000000000000000000000000001F800057
:100B00001FC00001C0000360000360000630000643
:100B100030000C30000FF8001FF800180C00300CEB
:100B200000FC7F00FC7F00000000000000000000CF
:100B300000000000000000000000000000000000B5
:100B400000000000007FE0007FF000183800181857
:100B5000001818001838001FF0001FF800181C00BB
:100B6000180C00180C00180C007FF8007FF0000033
:100B70000000000000000000000000000000000075
:100B80000000000000000000000000000003EC0076
:100B90000FFC001C1C00180C00300C003000003052
:100BA0000000300000300000300000180C001C1C59
:100BB000000FF80003F0000000000000000000003B
:100BC0000000000000000000000000000000000025
:100BD00000000000007FC0007FF0001838001818E7
:100BE00000180C00180C00180C00180C00180C0051
:100BF000180C001818001838007FF0007FE0000083
:100C000000000000000000000000000000000000E4
:100C1000000000000000000000000000007FF8005D
:100C20007FF8001818001818001998001980001F84
:100C300080001F80001980001998001818001818EB
:100C4000007FF8007FF800000000000000000000B6
:100C50000000000000000000000000000000000094
:100C600000000000003FFC003FFC000C0C000C0CDE
:100C7000000CCC000CC0000FC0000FC0000CC00066
:100C80000CC0000C00000C00003FC0003FC0000082
:100C90000000000000000000000000000000000054
:100CA0000000000000000000000000000003EC0055
:100CB0000FFC001C1C00180C00300C003000003031
:100CC000000030FE0030FE00300C00380C001C1C10
:100CD000000FFC0003F00000000000000000000016
:100CE0000000000000000000000000000000000004
:100CF00000000000007E7E007E7E0018180018189C
:100D0000001818001818001FF8001FF80018180025
:100D10001818001818001818007E7E007E7E00004B
:100D200000000000000000000000000000000000C3
:100D3000000000000000000000000000001FF8009C
:100D40001FF8000180000180000180000180000187
:100D5000800001800001800001800001800001808E
:100D6000001FF8001FF80000000000000000000055
:100D70000000000000000000000000000000000073
:100D8000000000000007FE0007FE000030000030F9
:100D90000000300000300000300030300030300003
:100DA0003030003030003060003FE0000F80000045
:100DB0000000000000000000000000000000000033
:100DC000000000000000000000000000007F3E0066
:100DD0007F3E0018300018600018C0001980001B0A
:100DE00080001FC0001CE000187000183000183888
:100DF000007F1F007F1F00000000000000000000B7
:100E000000000000000000000000000000000000E2
:100E100000000000007F80007F80000C00000C00BC
:100E2000000C00000C00000C00000C00000C0C007A
:100E30000C0C000C0C000C0C007FFC007FFC000074
:100E400000000000000000000000000000000000A2
:100E500000000000000000000000000000F00F0093
:100E6000F81F00381C003C3C003C3C00366C00364F
:100E70006C0033CC0033CC00318C00300C00300CD3
:100E800000FE7F00FE7F0000000000000000000068
:100E90000000000000000000000000000000000052
:100EA000000000000078FE0078FE001C18001E18EC
:100EB000001F18001B18001B980019D80018D80034
:100EC00018F8001878001838007F18007F18000004
:100ED0000000000000000000000000000000000012
:100EE0000000000000000000000000000003C0003F
:100EF0000FF0001C3800181800381C00300C0030AF
:100F00000C00300C00300C00381C001818001C3885
:100F1000000FF00003C0000000000000000000000F
:100F200000000000000000000000000000000000C1
:100F300000000000003FF0003FF8000C1C000C0C0B
:100F4000000C0C000C0C000C18000FF8000FE00057
:100F50000C00000C00000C00003FC0003FC000006F
:100F60000000000000000000000000000000000081
:100F70000000000000000000000000000003C000AE
:100F80000FF0001C3800181800381C00300C00301E
:100F90000C00300C00300C00381C001818001C38F5
:100FA000000FF00007C00007CC000FFC000C380059
:100FB0000000000000000000000000000000000031
:100FC00000000000007FE0007FF0001838001818D3
:100FD000001818001838001FF0001FC00018E000AB
:100FE0001870001830001838007F1E007F0E0000B7
:100FF00000000000000000000000000000000000F1
:101000000000000000000000000000000007D80001
:101010000FF8001C38001818001818001E00000FE8
:10102000C00003F0000078001818001818001C38E1
:10103000001FF0001BE000000000000000000000A6
:1010400000000000000000000000000000000000A0
:1010500000000000003FFC003FFC00318C00318CA0
:1010600000318C00318C0001800001800001800083
:101070000180000180000180000FF0000FF00000EF
:101080000000000000000000000000000000000060
:10109000000000000000000000000000007E7E0054
:1010A0007E7E00181800181800181800181800186C
:1010B00018001818001818001818001818000C301C
:1010C000000FF00003C0000000000000000000005E
:1010D0000000000000000000000000000000000010
:1010E00000000000007F7F007F7F00180C000C18BC
:1010F000000C18000C1800063000063000036000D9
:1011000003600003600001C00001C0000080000017
:1011100000000000000000000000000000000000CF
:1011200000000000000000000000000000FE3F8002
:10113000FE3F8030060030060030860019CC0019D2
:10114000CC001B6C001B6C001E7C000E38000E389F
:10115000000C18000C180000000000000000000047
:10116000000000000000000000000000000000007F
:1011700000000000007E7E007E7E001818000C300B
:101180000006600003C00001800001800003C00071
:101190000660000C30001818007E7E007E7E000085
:1011A000000000000000000000000000000000003F
:1011B000000000000000000000000000007C7E0035
:1011C0007C7E001818000C300006600006600003EA
:1011D000C0000180000180000180000180000180CA
:1011E000000FF0000FF00000000000000000000001
:1011F00000000000000000000000000000000000EF
:1012000000000000001FF8001FF800181800183038
:101210000018600018C000018000030000061800DC
:101220000C18001818003018003FF8003FF80000B4
:1012300000000000000000000000000000000000AE
:101240000000000000000000000001F00001F000BC
:101250000180000180000180000180000180000108
:101260008000018000018000018000018000018079
:101270000001800001800001800001F00001F00009
:10128000000000000000000000000000180000182E
:1012900000001C00000C00000E000006000006000C
:1012A0000003000003000001800001800000C00076
:1012B00000C000006000006000007000003000000E
:1012C00038000018000018000000000000000000B6
:1012D000000000000000000000000F80000F8000F0
:1012E0000180000180000180000180000180000178
:1012F00080000180000180000180000180000180E9
:10130000000180000180000180000F80000F80003C
:1013100000000000000000000000000000000000CD
:10132000800001C00003E0000770000630000C18C8
:1013300000180C0010040000000000000000000075
:10134000000000000000000000000000000000009D
:10135000000000000000000000000000000000008D
:10136000000000000000000000000000000000007D
:10137000000000000000000000000000000000006D
:10138000000000000000000000000000000000005D
:10139000000000000000000000000000000000004D
:1013A000000000000000FFFF00FFFF00000000033E
:1013B000000003800000E00000600000000000006A
:1013C000000000000000000000000000000000001D
:1013D000000000000000000000000000000000000D
:1013E00000000000000000000000000000000000FD
:1013F00000000000000000000000000000000000ED
:101400000000000000000FC0001FE00000300000DE
:10141000300007F0001FF00038300030300030702E
:10142000001FFC000FBC00000000000000000000D6
:1014300000000000000000000000000000000000AC
:1014400000007800007800001800001800001BE081
:10145000001FF8001C1800180C00180C00180C00D5
:10146000180C00180C001C18007FF8007BE000002E
:10147000000000000000000000000000000000006C
:10148000000000000000000000000000000000005C
:1014900000000000000003EC000FFC001C1C0038E2
:1014A0000C00300C00300000300000380C001C1C18
:1014B000000FF80003F00000000000000000000032
:1014C000000000000000000000000000000000001C
:1014D000000000780000780000180000180007D80D
:1014E000001FF800183800301800301800301800BD
:1014F0003018003018001838001FFE0007DE00000A
:1015000000000000000000000000000000000000DB
:1015100000000000000000000000000000000000CB
:1015200000000000000007E0001FF800181800305D
:101530000C003FFC003FFC00300000300000180CA5
:10154000001FFC0007F00000000000000000000089
:10155000000000000000000000000000000000008B
:10156000000001FC0003FC000600000600003FF83C
:10157000003FF8000600000600000600000600001C
:101580000600000600000600003FF0003FF00000EB
:10159000000000000000000000000000000000004B
:1015A000000000000000000000000000000000003B
:1015B00000000000000007DE001FFE0018380030A9
:1015C0001800301800301800301800301800183893
:1015D000001FF80007D800001800001800003800AD
:1015E0000FF0000FC000000000000000000000002D
:1015F00000007800007800001800001800001BE0D0
:10160000001FF0001C3800181800181800181800E7
:101610001818001818001818007E7E007E7E000042
:1016200000000000000000000000000000000000BA
:1016300000000000000000000000018000018000A8
:101640000000000000001F80001F800001800001DA
:101650008000018000018000018000018000018085
:10166000003FFC003FFC0000000000000000000004
:10167000000000000000000000000000000000006A
:10168000000000C00000C0000000000000001FF0CB
:10169000001FF0000030000030000030000030007B
:1016A000003000003000003000003000003000004A
:1016B00030000030000070001FE0001F80000000BC
:1016C000000000000000000000003C00003C0000A2
:1016D0000C00000C00000CF8000CF8000CC0000D11
:1016E00080000F80000F00000F80000DC0000CE094
:1016F000003C7C003C7C000000000000000000007A
:1017000000000000000000000000000000000000D9
:1017100000001F80001F8000018000018000018008
:101720000001800001800001800001800001800034
:101730000180000180000180003FFC003FFC0000B0
:101740000000000000000000000000000000000099
:101750000000000000000000000000000000000089
:10176000000000000000F77800FFFC0039CC0031D9
:101770008C00318C00318C00318C00318C00318C2C
:1017800000FDEF00FDEF0000000000000000000081
:101790000000000000000000000000000000000049
:1017A00000000000000000000000000000007BE0DE
:1017B000007FF0001C3800181800181800181800D6
:1017C0001818001818001818007E7E007E7E000091
:1017D0000000000000000000000000000000000009
:1017E00000000000000000000000000000000000F9
:1017F00000000000000003C0000FF0001C3800389B
:101800001C00300C00300C00300C00381C001C3860
:10181000000FF00003C00000000000000000000006
:1018200000000000000000000000000000000000B8
:1018300000000000000000000000000000007BE04D
:10184000007FF8001C1800180C00180C00180C0081
:10185000180C00180C001C18001FF8001BE00018E2
:1018600000001800001800007F00007F000000004A
:101870000000000000000000000000000000000068
:1018800000000000000007DE001FFE0018380030D6
:1018900018003018003018003018003018001838C0
:1018A000001FF80007D800001800001800001800FA
:1018B00000FE0000FE00000000000000000000002C
:1018C00000000000000000000000000000003E7862
:1018D000003EFC0007CC00070000060000060000E8
:1018E0000600000600000600003FF0003FF0000088
:1018F00000000000000000000000000000000000E8
:1019000000000000000000000000000000000000D7
:1019100000000000000007F8000FF8001818001879
:1019200018001F80000FF00000F800181800183889
:10193000001FF0001FE00000000000000000000099
:101940000000000000000000000000000000000097
:1019500000000C00000C00000C00000C00003FF028
:10196000003FF0000C00000C00000C00000C000018
:101970000C00000C00000C1C0007FC0003F0000031
:101980000000000000000000000000000000000057
:101990000000000000000000000000000000000047
:1019A000000000000000787800787800181800180F
:1019B00018001818001818001818001818001838FF
:1019C000000FFE0007DE0000000000000000000025
:1019D0000000000000000000000000000000000007
:1019E00000000000000000000000000000007C3E3D
:1019F000007C3E001818001818000C30000C300055
:101A000006600006600007E00003C00003C000009D
:101A100000000000000000000000000000000000C6
:101A200000000000000000000000000000000000B6
:101A3000000000000000783C00783C0031180033C2
:101A400098003398001AB0001EF0001EF0001C60D1
:101A5000000C60000C6000000000000000000000AE
:101A60000000000000000000000000000000000076
:101A700000000000000000000000000000003E7CAC
:101A8000003E7C000C300006600003C000018000B6
:101A900003C0000660000C30003E7C003E7C00006D
:101AA0000000000000000000000000000000000036
:101AB0000000000000000000000000000000000026
:101AC0000000000000007E1F007E1F00180C000CAC
:101AD00018000C180006300006300003600003E018
:101AE0000001C00000C00001800001800003000070
:101AF0003FC0003FC00000000000000000000000E8
:101B000000000000000000000000000000001FF8BE
:101B1000001FF80018300018600000C000018000AD
:101B20000300000618000C18001FF8001FF8000042
:101B300000000000000000000000000000000000A5
:101B40000000000000000000000000E00001E000D4
:101B500001800001800001800001800001800001FF
:101B600080000380000700000380000180000180E6
:101B70000001800001800001800001E00000E00021
:101B80000000000000000000000000000000000055
:101B900000000180000180000180000180000180C0
:101BA00000018000018000018000018000018000B0
:101BB000018000018000018000018000018000019F
:101BC0008000018000018000000000000000000093
:101BD0000000000000000000000007000007800077
:101BE000018000018000018000018000018000016F
:101BF000800001C00000E00001C000018000018001
:101C000000018000018000018000078000070000C3
:101C100000000000000000000000000000000000C4
:101C200000000000000000000000000000000000B4
:101C3000000000000E00001F18003BB80031F0004B
:101C400000E00000000000000000000000000000B4
:101C50000000000000000000000000000000000084
:101C60000000000000000000000000000000000074
:101C70000000000000000000000000000000000064
:101C80000000000000000C000C000C000C000C0018
:101C90000C000C000C0000000C0000000000000014
:101CA00000000000000000001DC01DC0088008806A
:101CB000088000000000000000000000000000009C
:101CC0000000000000000D800D800D800D803FC0E1
:101CD0001B003FC01B001B001B001B00000000007E
:101CE0000000000004001F803180318038001E0099
:101CF0000F000380318031803F00040004000000A9
:101D000000000000000018002400240018C0078014
:101D10001E003180024002400180000000000000EF
:101D200000000000000000000F001800180018005C
:101D30000C001D80370033001D80000000000000F3
:101D40000000000000000000070007000200020081
:101D50000200000000000000000000000000000081
:101D60000000000000000300030006000E000C004D
:101D70000C000C000C000E00060003000300000025
:101D8000000000000000180018000C00060006000B
:101D900006000600060006000C001C0018000000EB
:101DA000000000000000060006003FC03FC00F001A
:101DB0001F801980000000000000000000000000EB
:101DC0000000000000000000000004000400040007
:101DD0003F80040004000400000000000000000038
:101DE00000000000000000000000000000000000F3
:101DF000000000000000060004000C0008000800BD
:101E000000000000000000000000000000000000D2
:101E10003F80000000000000000000000000000003
:101E200000000000000000000000000000000000B2
:101E30000000000000000C000C000000000000008A
:101E40000000000000C000C001800180030003000A
:101E500006000C000C0018001800300030000000D4
:101E60000000000000000E001B0031803180318036
:101E70003180318031801B000E0000000000000026
:101E800000000000000006003E00060006000600FC
:101E900006000600060006003FC00000000000002B
:101EA0000000000000000F00198031803180030025
:101EB00006000C00180030003F8000000000000009
:101EC0000000000000003F006180018003001F004F
:101ED00003800180018061803F000000000000005D
:101EE000000000000000070007000F000B001B00AF
:101EF000130033003F8003000F800000000000004B
:101F00000000000000001F801800180018001F00CB
:101F100011800180018021801F000000000000006E
:101F200000000000000007801C001800300037008F
:101F300039803180318019800F00000000000000DE
:101F40000000000000007F004300030006000600C0
:101F5000060006000C000C000C0000000000000051
:101F60000000000000001F003180318031801F0020
:101F700031803180318031801F000000000000007E
:101F80000000000000001E003300318031803380EB
:101F90001D800180030007003C00000000000000DD
:101FA0000000000000000000000000000C000C0019
:101FB0000000000000000C000C0000000000000009
:101FC000000000000000000000000000030003000B
:101FD00000000000000006000400080008000000E7
:101FE000000000000000000000C003000400180012
:101FF000600018000400030000C0000000000000A2
:1020000000000000000000000000000000007FC091
:1020100000007FC000000000000000000000000081
:102020000000000000000000600018000400030031
:1020300000C0030004001800600000000000000061
:1020400000000000000000001F003180318001808E
:1020500007000C000C0000000C0000000000000055
:102060000000000000000E001100210021002700E8
:10207000290029002700200011000E0000000000A8
:1020800000000000000000003F000F000900198060
:1020900019801F8030C030C079E0000000000000CF
:1020A00000000000000000007F003180318031809E
:1020B0003F003180318031807F000000000000004F
:1020C00000000000000000001F4030C060406000C1
:1020D00060006000604030801F00000000000000D1
:1020E00000000000000000007F00318030C030C0E0
:1020F00030C030C030C031807F00000000000000E0
:1021000000000000000000007F803080308032003E
:102110003E003200308030807F80000000000000F0
:1021200000000000000000007FC03040304032005E
:102130003E003200300030007C0000000000000053
:1021400000000000000000001E8031806080600000
:10215000600067C0618031801F0000000000000047
:1021600000000000000000007BC031803180318021
:102170003F803180318031807BC000000000000052
:1021800000000000000000003FC00600060006003E
:1021900006000600060006003FC000000000000028
:1021A00000000000000000001FC003000300030047
:1021B00003006300630063003E00000000000000B5
:1021C00000000000000000007BC0318033003600BA
:1021D0003C003E003300318079C000000000000068
:1021E00000000000000000007E0018001800180029
:1021F00018001840184018407FC000000000000080
:102200000000000000000000E0E060C071C07BC082
:102210006AC06EC064C060C0FBE000000000000047
:10222000000000000000000073C0318039803D8054
:1022300035803780338031807980000000000000D5
:1022400000000000000000001F00318060C060C07E
:1022500060C060C060C031801F000000000000004E
:1022600000000000000000007F00318031803180DC
:1022700031803F00300030007E0000000000000090
:1022800000000000000000001F00318060C060C03E
:1022900060C060C060C031801F000CC01F800000A3
:1022A00000000000000000007F003180318031809C
:1022B0003E003300318031807CE0000000000000EF
:1022C00000000000000000001F80318031803800D5
:1022D0001F000380318031803F00000000000000BB
:1022E00000000000000000007F804C804C804C808B
:1022F0000C000C000C000C003F000000000000006F
:1023000000000000000000007BC03180318031807F
:1023100031803180318031801F00000000000000DA
:1023200000000000000000007BC0318031801B00F5
:102330001B001B000A000E000E0000000000000041
:102340000000000000000000FBE060C064C06EC040
:102350006EC02A803B803B8031800000000000007E
:1023600000000000000000007BC031801B000E0058
:102370000E000E001B0031807BC00000000000003A
:10238000000000000000000079E030C019800F005C
:1023900006000600060006001F8000000000000086
:1023A00000000000000000003F80218023000600A4
:1023B00004000C00188030803F8000000000000006
:1023C000000000000000078006000600060006006E
:1023D0000600060006000600060006000780000052
:1023E0000000000030003000180018000C000C0045
:1023F0000600030003000180018000C000C000004F
:102400000000000000001E00060006000600060096
:102410000600060006000600060006001E0000007A
:102420000000000004000A000A0011002080208043
:10243000000000000000000000000000000000009C
:10244000000000000000000000000000000000008C
:10245000000000000000000000000000000000007C
:102460000000FFE00800040002000000000000007F
:10247000000000000000000000000000000000005C
:102480000000000000000000000000001F000180AC
:1024900001801F80318033801DC0000000000000DB
:1024A000000000000000700030003000370039806C
:1024B00030C030C030C0398077000000000000001C
:1024C0000000000000000000000000001E803180BD
:1024D00060806000608031801F000000000000000C
:1024E0000000000000000380018001801D80338017
:1024F00061806180618033801DC0000000000000A9
:102500000000000000000000000000001F003180FB
:1025100060C07FC0600030C01F800000000000006D
:1025200000000000000007E00C000C003F800C00E1
:102530000C000C000C000C003F80000000000000AC
:102540000000000000000000000000001DC03380FB
:1025500061806180618033801D80018001801F0067
:1025600000000000000070003000300037003980AB
:1025700031803180318031807BC00000000000005C
:102580000000000000000600060000001E0006001B
:1025900006000600060006003FC000000000000024
:1025A0000000000000000600060000003F000300DD
:1025B00003000300030003000300030003003E00C8
:1025C000000000000000700030003000378036004E
:1025D0003C003C003600330077C0000000000000E3
:1025E0000000000000001E000600060006000600B5
:1025F00006000600060006003FC0000000000000C4
:102600000000000000000000000000007F8036C0D5
:1026100036C036C036C036C076E00000000000008C
:10262000000000000000000000000000770039807A
:1026300031803180318031807BC00000000000009B
:102640000000000000000000000000001F003180BA
:1026500060C060C060C031801F000000000000004A
:10266000000000000000000000000000770039803A
:1026700030C030C030C039803700300030007C00BE
:102680000000000000000000000000001DC03380BA
:1026900061806180618033801D800180018007C07E
:1026A0000000000000000000000000007B801CC053
:1026B00018001800180018007F000000000000003B
:1026C0000000000000000000000000001F803180BA
:1026D0003C001F00038031803F000000000000002C
:1026E0000000000000001800180018007F0018000B
:1026F00018001800180018800F00000000000000EB
:102700000000000000000000000000007380318025
:1027100031803180318033801DC000000000000016
:102720000000000000000000000000007BC03180BD
:1027300031801B001B000E000E0000000000000096
:10274000000000000000000000000000F1E060C098
:1027500064C06EC03B803B80318000000000000000
:102760000000000000000000000000007BC01B0013
:102770000E000E000E001B007BC0000000000000D9
:1027800000000000000000000000000079E030C000
:10279000198019800B000F00060006000C003E0097
:1027A0000000000000000000000000003F802180C9
:1027B00003000E00180030803F8000000000000081
:1027C00000000000000006000C000C000C000C00D3
:1027D0000C0018000C000C000C000C00060000009F
:1027E00000000000000006000600060006000600CB
:1027F00006000600060006000600060006000000AF
:102800000000000000000C000600060006000600A4
:102810000600030006000600060006000C0000008B
:102820000000000000000000000000000000180090
:1028300024800300000000000000000000000000F1
:102840000000000000000000000000000000000088
:10285000001010101010000010000000006C48481C
:102860000000000000000000001414287C287C28D0
:1028700050500000001038404038487010100000E0
:10288000002050200C700814080000000000001800
:1028900020205448340000000010101010000000E8
:1028A00000000000000808101010101010080800A8
:1028B00000202010101010101020200000107C109C
:1028C00028280000000000000000101010FE10106A
:1028D0001000000000000000000000181030200070
:1028E00000000000007C000000000000000000006C
:1028F0000000003030000000000404080810102020
:10290000204000000038444444444444380000005F
:1029100000301010101010107C000000003844042B
:10292000081020447C0000000038440418040444CB
:1029300038000000000C141424447E040E00000033
:10294000003C20203804044438000000001C2040D3
:102950007844444438000000007C4404080808100F
:10296000100000000038444438444444380000005B
:1029700000384444443C040870000000000000306B
:10298000300000303000000000000018180000186F
:102990003020000000000C10608060100C0000006F
:1029A000000000007C007C00000000000000C0204F
:1029B00018041820C00000000000182404081000AB
:1029C000300000003844444C54544C40443800001B
:1029D0000030102828287C44EE00000000F8444411
:1029E00078444444F8000000003C444040404044E7
:1029F0003800000000F0484444444448F00000001F
:102A000000FC445070504044FC000000007E22282E
:102A10003828202070000000003C4440404E4444D0
:102A20003800000000EE44447C444444EE000000C2
:102A3000007C1010101010107C000000003C0808F2
:102A4000084848483000000000EE444850704844B0
:102A5000E600000000702020202024247C000000DC
:102A600000EE6C6C54544444EE00000000EE6464CC
:102A70005454544CEC000000003844444444444452
:102A80003800000000782424243820207000000042
:102A90000038444444444444381C000000F8444492
:102AA00044784844E200000000344C403804046498
:102AB0005800000000FE92101010101038000000A6
:102AC00000EE4444444444443800000000EE4444D2
:102AD000282828101000000000EE44445454545498
:102AE0002800000000C6442810102844C60000003A
:102AF00000EE44282810101038000000007C440824
:102B0000101020447C0000000038202020202020CD
:102B10002020380000402020201010080808000065
:102B200000380808080808080808380000101028AD
:102B30004400000000000000000000000000000051
:102B4000000000FE0010080000000000000000006F
:102B500000000038443C44443E00000000C040589F
:102B600064444444F80000000000003C44404044F9
:102B700038000000000C04344C4444443E00000083
:102B800000000038447C40403C000000001C207CD9
:102B9000202020207C000000000000364C444444EB
:102BA0003C04380000C0405864444444EE00000037
:102BB00000100070101010107C0000000010007851
:102BC000080808080808700000C0405C48705048B9
:102BD000DC00000000301010101010107C0000000D
:102BE000000000E854545454FE000000000000D8D7
:102BF00064444444EE00000000000038444444446F
:102C000038000000000000D8644444447840E000EC
:102C1000000000364C4444443C040E000000006CAC
:102C2000302020207C0000000000003C4438044498
:102C3000780000000000207C202020221C000000E2
:102C4000000000CC4444444C36000000000000EE7C
:102C50004444282810000000000000EE445454545E
:102C600028000000000000CC48303048CC000000B4
:102C7000000000EE44242818101078000000007CAA
:102C8000481020447C000000000810101010201094
:102C9000101008000010101010101010101000007C
:102CA000002010101010081010102000000000006C
:102CB00000245800000000000068DFF8C01B8842B4
:102CC00007D1DFF83C0D816C4165C16C8165016DF8
:102CD000C165704730B5A3B002F02AF800F0F2F8F1
:102CE00000F05AFB00F040FB00F027FA00F074FA05
:102CF00000F0C1FA00F001FB00F0FAF900F0C4F9AD
:102D000000F0E3F900F054F900F0ABF9DFF8F44C0F
:102D10000021204602F064F80021204602F020FB4A
:102D20000421204602F05CF80421204602F018FB42
:102D3000DFF8985C0021284602F052F8002128466E
:102D400002F00EFB0821284602F04AF80821284626
:102D500002F006FBDFF8B05C0421284602F040F8E0
:102D60000421284602F0FCFA002002F04DFB01206D
:102D700002F04AFB0121002002F05BFB02F0D0FDD3
:102D8000054602F0CBFD294689B280B203F04CFA29
:102D900003F0CEFF03F0D9FF1EA80FF29C0114220E
:102DA00004F010F800211EA804F074F8E06319A8DC
:102DB0000FF29801142204F005F8002119A804F07C
:102DC00069F8206414A80FF29801142203F0FAFFA6
:102DD000002114A804F05EF860640FA80FF29401BB
:102DE000142203F0EFFF00210FA804F053F8A064B1
:102DF0000AA80FF29401142203F0E4FF00210AA8AC
:102E000004F048F8E06405A80FF29001142203F0E2
:102E1000D9FF002105A804F03DF8206568460FF2AF
:102E20009001142203F0CEFF0021684604F032F82E
:102E3000606504F01DF8FEE714340208E339000869
:102E4000FEFF000000000000000100002034020826
:102E5000593A000802000000000000008000000055
:102E60002C34020825410008FFFF0000000000008C
:102E70008000000038340208B5410008010000005D
:102E800000000000800000004434020819460008D9
:102E90000000000000000000800000005434020820
:102EA0008D470008000000000000000080000000C6
:102EB0005C340208F1470008FEFF0000000000003B
:102EC0000001000010B59EB000200090DFF8440B18
:102ED000016841F080510160006800F0805000906E
:102EE000009800200090DFF8300B016841F4404169
:102EF0000160006800F440400090009801201290AA
:102F00004FF480341394022018904FF480001990ED
:102F100004201A90A8201B9002201C9007201D90CE
:102F200012A804F059F8002805D040F2BB110FF2A6
:102F3000084001F0BDFE0F20019002200290002009
:102F400003904FF4A05004904FF480500590052159
:102F500001A804F0CBF9002805D040F2C9110FF206
:102F6000D83001F0A5FE0820069054200A900720D2
:102F70000C900F9406A804F0B3FA002805D04FF483
:102F8000E9710FF2B43001F093FE04F037FA4FF418
:102F90007A71B0FBF1F004F02DFC042004F02BFC5E
:102FA00000220F214FF0FF3004F014FC1EB010BDC2
:102FB0001FB5DFF84C4ADFF8C40820604FF48030BA
:102FC00060600020A06001202061A06100202062DC
:102FD000E062DFF8480AA0620020E0600320E061C0
:102FE000012020636061204604F01EFC002805D00B
:102FF00040F2F7110FF2403001F05AFE0D20009020
:103000000120019002906946204604F0BFFC002890
:1030100005D040F201210FF2203001F049FEDFF827
:10302000000A0090022001906946204604F0AEFCA0
:10303000002805D040F20A210FF2FC2001F038FEF2
:1030400011200090032001906946204604F09EFC68
:10305000002805D040F213210FF2DC2001F028FEF9
:103060001FBD80B5DFF8BC09DFF8BC19016004F0B2
:103070000AFE002807D040F21F210FF2BC20BDE855
:10308000044001F015BE01BD80B5DFF8A009DFF8EE
:10309000A0190160DFF89C19416000218160C160C6
:1030A0004FF480410161002141618161C161016290
:1030B00004F0FCFD002807D040F233210FF2782005
:1030C000BDE8044001F0F4BD01BD80B5DFF868093A
:1030D000DFF86819016005F0D7FA002807D040F240
:1030E0003F210FF25420BDE8044001F0E1BD01BDD5
:1030F00080B5DFF84C09DFF84C1901604FF482719C
:10310000416000218160C160016141614FF4007143
:1031100081610021C1610162416281620A21C16253
:1031200005F0CAFA002807D040F257210FF2082014
:10313000BDE8044001F0BCBD01BD18B589B0DFF8A1
:10314000C4484FF0804020600D2060600020A060E7
:103150004EF66020E06000202061204601F027FE4E
:10316000002805D040F26A210FF2CC1001F0A0FD3A
:103170000020009001906946204602F003F90028E3
:1031800005D040F271210FF2B01001F091FD6020E6
:1031900002900020039004900690024602A9204667
:1031A00001F0EBFE002805D040F27A210FF28810E2
:1031B00001F07EFD042202A9204601F0DEFE002877
:1031C00005D040F27F210FF2701001F071FD204612
:1031D00005F04FFD0AB010BD18B589B0DFF8EC4717
:1031E000DFF8640820600D2060600020A0604EF6CB
:1031F0006020E06000202061204601F0D8FD00281A
:1032000005D04FF425710FF2301001F051FD002070
:10321000009001906946204602F0B4F8002805D0DD
:1032200040F29B210FF2101001F042FD602002904D
:103230000020039004900690024602A9204601F067
:103240009CFE002805D04FF429710FF2EC0001F02C
:103250002FFD082202A9204601F08FFE002805D08C
:1032600040F2A9210FF2D00001F022FD204605F026
:1032700000FD0AB010BD18B589B0DFF88C47DFF843
:10328000CC0720600D2060600020A0604EF660201A
:10329000E06000202061204601F089FD002805D073
:1032A00040F2BE210FF2900001F002FD00200090DC
:1032B00001906946204602F065F8002805D040F2EA
:1032C000C5210FF2740001F0F3FC60200290002091
:1032D000039004900690042202A9204601F04DFEBE
:1032E000002805D040F2CE210FF24C0001F0E0FCA6
:1032F000204605F0BEFC0AB010BD80B5DFF85007CF
:10330000DFF8101E01604FF4E1314160002181605F
:10331000C16001610C21416100218161C16105F041
:1033200073FD002807D040F2E3210FF20C00BDE846
:10333000044001F0BDBC01BD433A5C4749545C52B6
:103340006F626F7441726D326B31375C53544D3321
:103350003246345C526F626F7441726D5C537263BB
:103360005C6D61696E2E630080B500200090DFF80F
:10337000E406016841F480010160006800F4800007
:1033800000900098002211463C2004F023FA3C20D3
:10339000BDE8024004F02DBA2DE9F04186B00020CE
:1033A0000590DFF8B006016841F004010160016892
:1033B00001F004010591059900210591016841F092
:1033C00020010160016801F02001059105990021AB
:1033D0000591016841F080010160016801F0800100
:1033E0000591059900210591016841F001010160F5
:1033F000016801F00101059105990021059101681D
:1034000041F002010160016801F002010591059996
:1034100000210591016841F040010160016801F05F
:1034200040010591059900210591016841F01001C5
:103430000160016801F010010591059900210591D5
:10344000016841F008010160006800F00800059083
:103450000598DFF8084D00221621204605F0CFFF21
:10346000DFF8FC5C00228021284605F0C8FFDFF869
:10347000F46C00224FF44051304605F0C0FFDFF8F5
:10348000E87C00224FF4C041384605F0B8FF162012
:103490000090012001900020029003906946204690
:1034A00005F022FE48F207000090DFF8C08CCDF84E
:1034B0000480002002906946284605F015FE802011
:1034C0000090012001900020029003906946284658
:1034D00005F00AFE20200090CDF804800020029024
:1034E0006946204605F000FE04200090002001906F
:1034F00002906946DFF8780C05F0F6FD4FF40060A5
:1035000000900020019002906946304605F0ECFDE5
:103510004FF4405000900120019000200290039051
:103520006946304605F0E0FD4FF4C04000900120B0
:1035300001900020029003906946384605F0D4FDC2
:1035400006B0BDE8F08190ED001AB4EE401AF1EE3D
:1035500010FA02D5B0EE401A06E0F4EE410AF1EEA0
:1035600010FA01D5B0EE601A80ED001A7047B5EE82
:10357000400AF1EE10FA03D5FFEE000A20EE200A11
:10358000704780B510EE100A05F070FFDFF8E42BED
:10359000DFF8E43B05F08EFF0022DFF8E03B06F0A9
:1035A0005BF806F07DF900EE100A01BD80B5DFED95
:1035B000710A20EE200A10EE100A05F057FFDFF81E
:1035C000B42BDFF8B43B06F047F806F069F900EEDB
:1035D000100A01BDDFED670A30EEC00ADFF8A00B6C
:1035E000D0ED000A80EE200A70470000F0EE400A9D
:1035F000DFF88C0B90ED001A9FED5E0A00EEC10A19
:10360000704780B506F080F90022DFF8783B06F0BD
:1036100023F80022DFF8703B06F084F906F040F949
:1036200000EE100A01BD80B510EE100A05F01EFF75
:1036300000224FF07F5305F03DFF0022DFF84C3BA6
:1036400006F070F94FF06632DFF8443B06F06AF995
:1036500006F026F900EE100A01BD80B5B1EE400A71
:1036600010EE100A05F002FF0022DFF8283B05F0FB
:10367000F3FF0022DFF8143B06F054F94FF0333229
:10368000DFF8143B06F04EF906F00AF900EE100AD6
:1036900001BD80B510EE100A05F0E8FE0022DFF84B
:1036A000FC3A06F03FF90022DFF8F43A05F002FF99
:1036B00006F0F6F800EE100A01BD80B506F024F918
:1036C0000022DFF8E03A05F0F5FE0022DFF8D83AF4
:1036D00006F028F906F0E4F800EE100A01BD38B54E
:1036E0002DED068BB0EE409AF0EE608AB0EE418A86
:1036F000DFF8B84AD4ED039AB0EE680AFFF741FF4D
:1037000006F0B8FA69EE809A94ED02AAB0EE480A83
:10371000FFF737FFDFF8985A06F0ACFA4AEE009A46
:10372000C5ED019AD4ED039AB0EE680AFFF729FFC0
:1037300006F0A2FA69EE808AD4ED029AB0EE480A49
:10374000FFF71FFF06F098FA49EEC08AC5ED028A1E
:10375000B0EE490AFFF715FF06F090FAD5ED010A21
:1037600020EE200A85ED000A95EC030ABDEC068BDD
:1037700031BD00000000344310B52DED048BB0EED8
:10378000608ADFF8284A84ED040A84ED058A20EE79
:10379000000A08EE080A06F04FFBB0EE409A84EDEE
:1037A000069A88EE090A06F057FBF0EE409AC4ED3F
:1037B000079A94ED030AD4ED030A94ED021AD4EDAE
:1037C000021A29EE098AF0EE008AB0EE482A00EECD
:1037D000202A01EE612A94ED030A20EE280A20EE49
:1037E000090A82EE000A06F065FB84ED080A39EE4C
:1037F000809AB0EE490AFFF7D9FE84ED000A94EDF5
:10380000030AD4ED030A94ED021AD4ED021A94EDE2
:10381000032A20EE200A01EE210A30EE480A62EE69
:10382000280A94ED021A60EE810A80EE200A06F062
:1038300041FBB0EE408A84ED098ADFED748AB0EE78
:10384000490AFFF7B3FE38EEC00A84ED0A0A38EEE3
:10385000C00A84ED0B0ADFED6E0A70EEC08AB0EE8E
:10386000480AFFF7A3FE38EEC00A84ED0C0A206B6D
:10387000606094EC020ABDEC048B10BD0020014096
:1038800038B52DED048BB0EE409AB0EE608AF0EEC4
:10389000418ADFF8804D84ED039A84ED048A89EE35
:1038A000080A06F039FBFFF781FE84ED000A28EED6
:1038B000080A09EE090A06F0BFFA84ED050A20EEAF
:1038C000000A08EEA80A06F0B7FAB0EE409A84EDB6
:1038D000069A88EE890A06F0BFFAF0EE409AC4ED27
:1038E000079ADFF8C85895ED030AD5ED030A95ED60
:1038F000021AD5ED021A29EE098AF0EE008AB0EE1E
:10390000482A00EE202A01EE612A95ED030A20EEF6
:10391000280A20EE090A82EE000A06F0CBFA84EDAE
:10392000080A39EE809AB0EE490AFFF73FFE84EDAF
:10393000020A95ED030AD5ED030A95ED021AD5EDBD
:10394000021A95ED032A20EE200A01EE210A30EE3C
:10395000480A62EE280A95ED021A60EE810A80EEAE
:10396000200A06F0A7FAB0EE408A84ED098ADFED5E
:10397000278AB0EE490AFFF719FE38EEC00A84ED37
:103980000A0A38EEC00A84ED0B0ADFED210A70EE58
:10399000C08AB0EE480AFFF709FE38EEC00A84ED8F
:1039A0000C0A206B606094EC030ABDEC048B31BD03
:1039B00080B505F0A9FF0022DFF8CC3D05F04CFEF4
:1039C00005F06EFF00EE100A01BD0000100C022091
:1039D0000246002000E0401C80B2115C0029FAD1B0
:1039E000704780B506F0BCFA06F0D6FA4FF4FA70CC
:1039F00003F069FADFF8E00D0168491C0160F5E7A2
:103A000084090220A00A02204C0C02200000B442CB
:103A10000000344340380240007000400100000FB5
:103A200012000010940D022000300240F80A02201B
:103A3000005C0040A0860100680D022000080650CE
:103A4000480A0220005001400004004000080040E5
:103A5000D00B0220303802402DE9F8432DED028BC7
:103A600082B0DFF8785D05F1210605F13808DFF84E
:103A7000709D2CE005F114020FF29C6105F15800D5
:103A800006F0B8FA05F15800FFF7A2FF014605F16C
:103A9000580006F021FB0FE05028EBD1687D452847
:103AA000E8D1A87D4E28E5D1287E0D28E2D1E87D19
:103AB000303800B24946C8660020F0714FF47A7081
:103AC00003F001FA05F138000168491C016000208B
:103AD00001F0A5FCF0790128F0D1287D532840F0B1
:103AE0006D81297E3B2940F06981297F3B2940F087
:103AF000658195F820103B2940F06081F1780D290F
:103B000040F05C81DFF8DC4C0A2064216A7D12FB06
:103B100001F2AB7D13FB0022EB7DD718E71905F10D
:103B20002A0217806B7E13FB01F395F81AC01CFB69
:103B3000003395F81BC06344E318538095F81DC00B
:103B40001CFB01FC95F81EE01EFB00CC95F81FE065
:103B5000F444A444A2F804C096F800E01EFB01F16E
:103B600096F801E01EFB0010B17840182418D480AC
:103B70001BB200EE103AB8EEC00AF2EE040A80EE74
:103B8000200A88ED010A0FFA8CFC00EE90CAF8EECC
:103B9000E00A9FEDC31A70EE810AB2EE041AC0EE7D
:103BA000810AC8ED020AD9F86000002840F09F821F
:103BB0009FED3D1AC0EE810A80EE010AFFF7DCFDA1
:103BC00085EC020AFFF706FD89ED0D0A95ED010A65
:103BD000FFF700FD89ED0C0A384680B2FFF711FDB2
:103BE00089ED0B0A204680B2FFF767FD89ED0E0ACA
:103BF00099ED0C0AD9ED100A30EE600AFFF7B7FC18
:103C0000B0EE408A99ED0D0AD9ED110A30EE600A46
:103C1000FFF7ADFCB4EE408AF1EE10FA46D599ED0F
:103C20000B0AD9ED0F0A30EE600AFFF7A0FCB0EEE8
:103C3000408A99ED0D0AD9ED110A30EE600AFFF7BE
:103C400096FCB4EE408AF1EE10FA2FD5D8F81800A1
:103C5000C9F8540099ED0D0AD9ED110A30EE600A49
:103C6000FFF785FCD8ED060A80EE200A88ED070AEA
:103C700099ED0C0A98ED078AD9ED100A30EE600A2A
:103C8000FFF775FC80EE080A89ED140A99ED0B0A1E
:103C9000D9ED0F0A30EE600AFFF769FC80EE080AE2
:103CA00089ED130A23E200BF0000C84299ED0D0A16
:103CB000D9ED110A30EE600AFFF759FCB0EE408AE8
:103CC00099ED0C0AD9ED100A30EE600AFFF74FFCAF
:103CD000B4EE408AF1EE10FA43D599ED0B0AD9ED16
:103CE0000F0A30EE600AFFF742FCB0EE408A99ED11
:103CF0000C0AD9ED100A30EE600AFFF738FCB4EE7A
:103D0000408AF1EE10FA2CD5D8F81800C9F8500006
:103D100099ED0C0AD9ED100A30EE600AFFF727FC86
:103D2000D8ED060A80EE200A88ED070A99ED0D0A03
:103D300098ED078AD9ED110A30EE600AFFF717FCFB
:103D400080EE080A89ED150A99ED0B0AD9ED0F0AE4
:103D500030EE600AFFF70BFC80EE080A89ED130ACB
:103D6000C5E1D8F81800C9F84C0099ED0B0AD9ED57
:103D70000F0A30EE600AFFF7FAFBD8ED060A80EE74
:103D8000200A88ED070A99ED0D0A98ED078AD9ED0A
:103D9000110A30EE600AFFF7EAFB80EE080A89EDAF
:103DA000150A99ED0C0AD9ED100A30EE600AFFF7FA
:103DB000DEFB80EE080A89ED140A98E150287FF4B2
:103DC0006BAE297E3B297FF467AE297F3B297FF4C8
:103DD00063AE95F820100D297FF45EAEDFF8040A7B
:103DE0000A2164226B7D13FB02F3AC7D14FB0133CB
:103DF000EC7D1B19C31805F12A0423816F7E17FB84
:103E000002F795F81AC01CFB017795F81BC06744B0
:103E1000C719678195F81DC01CFB02F295F81EC0FA
:103E20001CFB0121EA7F89184018A0811BB200EE1B
:103E3000103AB8EEC00ADFEDC70A30EE200AF2EE03
:103E4000040AC0EE201A05F13804C4ED031A3FB28B
:103E500000EE107AB8EEC00A80EE200A84ED040A63
:103E600000B200EE900AF8EEE00A9FED0D1A70EE37
:103E7000810AB2EE041AC0EE810AC4ED050A4F466B
:103E8000386E002840F033819FEDB31A80EE811A1E
:103E9000DFEDB10AC0EE200A9FEDAF0A02E000BFDD
:103EA000000048C281EE800AFFF7EAFC05F1080035
:103EB00080EC030A95ED040AFFF78CFB87ED0D0AF1
:103EC00095ED030AFFF786FB87ED0C0A95ED028A54
:103ED000B0EE480AFFF7A7FB87ED0B0AB0EE480AE1
:103EE000FFF7BBFB87ED0E0ADFF8AC0DA06197ED85
:103EF0000C0AD7ED100A30EE600AFFF738FBB0EE7F
:103F0000408A97ED0D0AD7ED110A30EE600AFFF7EF
:103F10002EFBB4EE408AF1EE10FA4DD597ED0B0A68
:103F2000D7ED0F0A30EE600AFFF721FBB0EE408AB2
:103F300097ED0D0AD7ED110A30EE600AFFF717FB77
:103F4000B4EE408AF1EE10FA36D5A069786597EDA7
:103F50000D0AD7ED110A30EE600AFFF708FBD4ED29
:103F6000060A80EE200A84ED070A97ED0C0A94ED0C
:103F7000078AD7ED100A30EE600AFFF7F8FA80EEF4
:103F8000080A87ED140A97ED0B0AD7ED0F0A30EEF9
:103F9000600AFFF7ECFA80EE080A87ED130A97ED46
:103FA0000E0AD7ED120A30EE600AFFF7E0FA80EE53
:103FB000080A87ED160A9AE097ED0D0AD7ED110A67
:103FC00030EE600AFFF7D3FAB0EE408A97ED0C0AA4
:103FD000D7ED100A30EE600AFFF7C9FAB4EE408A56
:103FE000F1EE10FA4DD597ED0B0AD7ED0F0A30EE32
:103FF000600AFFF7BCFAB0EE408A97ED0C0AD7EDE5
:10400000100A30EE600AFFF7B2FAB4EE408AF1EE21
:1040100010FA36D5A069386597ED0C0AD7ED100A6D
:1040200030EE600AFFF7A3FAD4ED060A80EE200A0C
:1040300084ED070A97ED0D0A94ED078AD7ED110A72
:1040400030EE600AFFF793FA80EE080A87ED150A52
:1040500097ED0B0AD7ED0F0A30EE600AFFF787FAEB
:1040600080EE080A87ED130A97ED0E0AD7ED120AC3
:1040700030EE600AFFF77BFA80EE080A87ED160A39
:1040800035E0A069F86497ED0B0AD7ED0F0A30EE22
:10409000600AFFF76CFAD4ED060A80EE200A84ED80
:1040A000070A97ED0D0A94ED078AD7ED110A30EE55
:1040B000600AFFF75CFA80EE080A87ED150A97EDB3
:1040C0000C0AD7ED100A30EE600AFFF750FA80EEC6
:1040D000080A87ED140A97ED0E0AD7ED120A30EEA2
:1040E000600AFFF744FA80EE080A87ED160A05F128
:1040F00014020FF6C03105F1580005F07BFF05F101
:104100005800FFF765FC014605F1580005F0E4FF93
:10411000D2E40000005000404552523A2025730D71
:104120000000000010B5DFF8084B032204F148013D
:10413000204603F0A5FB606DFFF73AFCDFF8300B7B
:1041400080ED1A0A0A2002F0BEFE206E401C206696
:10415000F1E700000000C8C20000C84200080240A9
:1041600000000240000C0240001802400000121043
:104170000004024097D17E5AFB210940008066402E
:10418000AC000020000034400000044000001E404D
:104190006666E63F00002C403333EBBF00001EC0D4
:1041A000000020400000B03F00001440000000204C
:1041B000740D022038B5DFF82846DFF8785A84E01D
:1041C000E86020E095ED120AD4ED1A0A95ED131A75
:1041D00070EEC10AB4EE600AF1EE10FA606CEFD531
:1041E00005F044F9DFF8602ADFF84C3A05F09AFB55
:1041F00005F056FBE860D5ED0E0A95ED090A05F1CC
:104200000C00FFF7A0F995ED030AD5ED090AB4EE0D
:10421000600AF1EE10FA08D095ED030AD5ED0E0A0A
:10422000B4EE600AF1EE10FA01D10020E066DFF88A
:104230000C0A9FED490AD5ED010A60EE800A9FED58
:10424000471AC0EE810AFDEEE00AC0ED000AD5ED86
:10425000020A60EE800AC0EE810AFDEEE00AC0EDBF
:10426000010ADFF8DC09D5ED030A60EE800AC0EE32
:10427000810AFDEEE00AC0ED000AD5ED040A60EE09
:10428000800AC0EE810AFDEEE00AC0ED020AD5ED1B
:10429000050A20EE800ADFED310A80EE200ABDEE2D
:1042A000C00ADFF8A00980ED000A6868E063A8682A
:1042B0002064E86860642869A0646869A8610A20CD
:1042C00002F001FE286D401C2865D5ED0C0A95ED25
:1042D000070A04F12C00FFF736F9D5ED0D0A95ED2C
:1042E000080A04F13000FFF72EF9D5ED0E0A95ED1E
:1042F000090A04F13400FFF726F9D5ED0F0A95ED10
:104300000A0A04F13800FFF71EF9D5ED100A95ED01
:104310000B0A2846FFF717F994ED0F0AD4ED0B0AA4
:10432000B4EE600AF1EE10FA1DD594ED0F0AD4ED4B
:10433000130A30EE200AD4ED0B0AB4EE600AF1EE57
:1043400010FA0DD594ED0F0AD4ED130A30EE200AC1
:1043500085ED010A28E000BF0060EA470000C8427E
:10436000E06A686020E094ED0B0AD4ED0F0AB4EE29
:10437000600AF1EE10FA17D594ED0B0AD4ED0F0A8E
:1043800094ED131A70EEC10AB4EE600AF1EE10FA61
:1043900008D594ED0F0AD4ED130A30EE600A85EDCE
:1043A000010A01E0E06A686094ED100AD4ED0C0A9D
:1043B000B4EE600AF1EE10FA18D594ED100AD4EDBF
:1043C000140A30EE200AD4ED0C0AB4EE600AF1EEC5
:1043D00010FA08D594ED100AD4ED140A30EE200A34
:1043E00085ED020A23E0206BA86020E094ED0C0A22
:1043F000D4ED100AB4EE600AF1EE10FA17D594ED80
:104400000C0AD4ED100A94ED141A70EEC10AB4EE41
:10441000600AF1EE10FA08D594ED100AD4ED140AF2
:1044200030EE600A85ED020A01E0206BA86094ED91
:10443000110AD4ED0D0AB4EE600AF1EE10FA18D5A7
:1044400094ED110AD4ED150A30EE200AD4ED0D0AD0
:10445000B4EE600AF1EE10FA08D594ED110AD4ED2D
:10446000150A30EE200A85ED030A23E0606BE86050
:1044700020E094ED0D0AD4ED110AB4EE600AF1EEDD
:1044800010FA17D594ED0D0AD4ED110A94ED151A12
:1044900070EEC10AB4EE600AF1EE10FA08D594EDA0
:1044A000110AD4ED150A30EE600A85ED030A01E029
:1044B000606BE86094ED120AD4ED0E0AB4EE600A67
:1044C000F1EE10FA18D594ED120AD4ED160A30EE7A
:1044D000200AD4ED0E0AB4EE600AF1EE10FA08D507
:1044E00094ED120AD4ED160A30EE200A85ED040A86
:1044F00023E0A06B286120E094ED0E0AD4ED120AAF
:10450000B4EE600AF1EE10FA17D594ED0E0AD4ED70
:10451000120A94ED161A70EEC10AB4EE600AF1EEBA
:1045200010FA08D594ED120AD4ED160A30EE600A9E
:1045300085ED040A01E0A06B286195ED060AD5ED32
:10454000000AB4EE600AF1EE10FA18D595ED060AED
:10455000D5ED110A30EE200AD5ED000AB4EE600A5E
:10456000F1EE10FA08D595ED060AD5ED110A30EEF8
:10457000200A85ED050A23E02868686120E095EDB2
:10458000000AD5ED060AB4EE600AF1EE10FA17D56E
:1045900095ED000AD5ED060A95ED111A70EEC10AE7
:1045A000B4EE600AF1EE10FA08D595ED060AD5EDE5
:1045B000110A30EE600A85ED050A01E0286868619D
:1045C000E06E01287FF433AE94ED1A0AD5ED130A9C
:1045D00030EE600AD5ED120AF1EE600AB4EE600A20
:1045E000F1EE10FA7FF5EEAD606C04F03FFFDFF8FE
:1045F0005826DFF8A83605F095F905F051F9E8607E
:10460000D5ED0E0A95ED090A05F10C00FEF79BFFAA
:10461000F9E50000C40C0220F8B500264FF47A74C6
:1046200027466F4D09E0DFF82406286385ED0D0A63
:10463000761C4FF4FA7002F046FCE86D00EBD07186
:104640004910A0EB410001280DD19FED670A06EB50
:10465000D6704010B6EB4000E5D14FF082402863A1
:1046600085ED0D0AE4E7286E012840F084800C20D7
:1046700096FBF0F000EB4001B6EB810008D15A4800
:104680006863DFF81C06A8635848E86427466AE0B8
:10469000012804D1DFF8B8052863274663E0022823
:1046A00005D1DFF8B005E8624FF4FA675BE0032854
:1046B00008D1DFF8AC05E862DFF8980528634FF40D
:1046C000FA6750E004283FD0052805D1DFF88805B7
:1046D000A86340F2DC5746E0062810D1DFF87405E5
:1046E000E862DFF8780528633F4868639FED3F0A7A
:1046F00085ED140A85ED150A40F6C41733E0072846
:104700000AD1DFF8580528634FF0824068633748C4
:1047100028654FF4FA7726E0082806D1DFF83C0533
:1047200028633148686327461DE009280AD1DFF86D
:104730003005E862DFF81C0528632C4828654FF433
:10474000FA6710E00A2805D1DFF81805686340F21F
:10475000DC5708E00B2806D124482865DFF840051F
:10476000A86347F23057761C384602F0ACFB286F3E
:10477000401C286761E74FF4FA7002F0A4FB286F31
:10478000401C286759E7000000407F401CB5DFF857
:104790001445684601F063FDBDF802002060BDF8D5
:1047A00004006060BDF8000000280ED04FF0FF202C
:1047B00001F0BDF80322616889B2206880B201F07F
:1047C00030FA4FF07F4001F0B2F8642002F07BFB3A
:1047D000A068401CA060DCE7D00D0220040100208E
:1047E0003400002030EBFFFF9A99D9408FC2F53C8E
:1047F0002DE9F84F2DED088B88B00027DFED199AD1
:104800009FED18AADFED17AA4FF47A7002F05BFB58
:10481000384601F088F84FF07F4001F0A2F84FF0E1
:104820007F4001F08CF86FF47F0001F080F8DFF832
:1048300038B4584601F08CF840F23F13EF22394665
:10484000084601F0D4F903230FF270420821052035
:1048500001F0B8F8DFF814A4504601F068F8DFF86A
:10486000106430E00000000004F000FE02460B4639
:104870000FF2B441684605F0BDFB10E0DFEDE70A3A
:10488000B4EE600AF1EE10FAB06AEDDB04F0EEFD72
:1048900002460B460FF28841684605F0ABFBDFF895
:1048A000D40301F055F803236A464FF496710F20A4
:1048B00001F088F8584601F04BF8642002F003FB41
:1048C000706F401C7067002000F0FBFD01280DD1C7
:1048D0000A2F0BDD306E80F001003066326E303210
:1048E000D2B21921052001F054F80027642F00DA14
:1048F0007F1C96ED110AFEF779FE86ED090A96ED0A
:10490000100AFEF773FE86ED080AF06B04F0AEFDA8
:104910004FF06632D84B05F005F804F0C1FF00EE09
:10492000100AFEF7B6FE86ED0A0A96ED081AD6EDD5
:10493000090A96ED0A0AFEF7D2FEB0EE408AF0EEC2
:10494000608AB0EE419A504600F0F1FF9FEDCBBA7D
:1049500028EE0B0A10EE100A04F088FD02460B4602
:104960000FF27031684605F045FB03236A462D219E
:10497000052001F027F828EE8B0A10EE100A04F04B
:1049800075FD02460B460FF25C31684605F032FBBE
:1049900003236A463C21052001F014F829EE0B0A96
:1049A00010EE100A04F062FD02460B460FF244318D
:1049B000684605F01FFB03236A464B21052001F0E2
:1049C00001F8B06E04F052FD02460B460FF234318E
:1049D000684605F00FFB03236A465A21052000F0C4
:1049E000F1FF96ED090AF4EE409AF1EE10FA0ED1BD
:1049F00096ED080AB4EE40AAF1EE10FA07D196ED52
:104A00000A0AF4EE40AAF1EE10FA3FF456AF706EC7
:104A100000283FF452AF4FF07F4000F088FFB423EE
:104A2000E6228721052001F093F9504600F07FFF30
:104A3000D6ED099A96ED08AAD6ED0AAA2D20308067
:104A4000FA2070803720B080FA20F08096ED090AB5
:104A5000FEF797FD9FED8A8B05F00CF910EE100A1A
:104A600004F004FD53EC182B04F024FD0022864BC7
:104A700004F058FF05F04EFBB08196ED090AFEF7F1
:104A800080FD05F0F9F810EE100A04F0EFFC53EC8D
:104A9000182B04F00FFD02460B4600207B4905F061
:104AA00057FB05F037FBF081B5890A353581B6F93A
:104AB0000E40748135827482B58204F10A00F0825E
:104AC00096ED080AFEF75DFDB0EE408A9FED70BBE3
:104AD0002DB2284605F0AEFB80468946B0EE480A66
:104AE00005F0C8F810EE100A04F0C0FC53EC1B2BC4
:104AF00004F0E0FC42464B4604F014FF05F00AFBCC
:104B0000B08396ED080AFEF73CFDB0EE408A2046E1
:104B100005F090FB04460D46B0EE480A05F0ACF8EF
:104B200010EE100A04F0A2FC53EC1B2B04F0C2FCA4
:104B300022462B4604F0F6FE05F0ECFAF083B08B2B
:104B40003083F08B0A30708328231A46FA211E2006
:104B500001F0FEF80421304601F0F5F9042106F1D8
:104B6000100001F0F0F90A231E22F08B0146B08BF1
:104B700001F0EEF80A22FA21322001F014F90A229B
:104B8000B6F90E10491D89B2B6F90C00401D80B26D
:104B900001F009F90A22B6F91E10491D89B2B08B3D
:104BA00001F001F94FF07F4000F0C1FE0522FA212B
:104BB000322001F0F8F80522B6F90E10491D89B22D
:104BC000B6F90C00401D80B201F0EDF80522B6F9EF
:104BD0001E10491D89B2B08B01F0E5F8504600F077
:104BE000A6FE96ED0A0ADFED300AB4EE600AF1EE99
:104BF00010FA96ED0A0A7FF541AEFFEE000A20EEAC
:104C0000200A10EE100A04F031FC02460B460FF2A7
:104C10000411684605F0EEF941E60000CDCCCC3D2C
:104C200000682249884201D105F016BB7047000098
:104C300084090220B0000020E17A94BF34000040D3
:104C400034040040380800407B14AE470000204187
:104C5000000010410000F0403333134133332B4147
:104C600000004040000014419002002000A5FFFF1A
:104C700034000020980200206666E6BF0000C842AB
:104C800000000000009052400080464000406F400D
:104C90000000000000A05440A69BC43CE17A943F71
:104CA0000000C040800D0220CCCCCCBD00100040E4
:104CB000FEE700004F4B3A2025730D00526F626FE4
:104CC0007441726D20436F6E74726F6C20322E309F
:104CD00000000000583A20252E316620636D202008
:104CE00020200000593A20252E316620636D2020B7
:104CF000202000005A3A20252E316620636D2020A6
:104D000020200000413A20252E3166206D6D2020A4
:104D100020200000202020252E3166202D3E00007E
:104D20003C2D20252E316600202020252E316600C6
:104D300080B50B48016841F400710160016841F4DD
:104D400080610160016841F480710160032002F01C
:104D500040FD002005F088FA03F03EFE002002BD71
:104D6000003C024038B5040001D1012032BD04F1FD
:104D700038056878002804D100202870204600F00B
:104D8000B1FA02206870211D206800F05FF901204F
:104D90006870002032BD0168CA6842F00102CA6032
:104DA0000068016841F0010101600020704738B5DA
:104DB000040001D1012032BD04F1380568780028D3
:104DC00004D100202870204603F020FF02206870E4
:104DD000211D206800F03AF901206870002032BDE2
:104DE00010B504460122206800F0D0F92068DFF8F1
:104DF0003010884203D0DFF82C10884201D1012105
:104E000000E00021002903D0416C41F400414164DD
:104E10002068016841F001010160002010BD000020
:104E2000000001400004014010B5044620680169FB
:104E3000890717D5C168890714D56FF00201016190
:104E4000012020762068806910F0030F204602D0F0
:104E500005F04AFA04E005F048FA204605F046FA63
:104E60000020207620680169490717D5C1684907E5
:104E700014D56FF00401016102202076206880695A
:104E800010F4407F204602D005F02EFA04E005F031
:104E90002CFA204605F02AFA0020207620680169C5
:104EA000090717D5C168090714D56FF0080101611A
:104EB000042020762068C06910F0030F204602D03D
:104EC00005F012FA04E005F010FA204605F00EFA9B
:104ED0000020207620680169C90617D5C168C90677
:104EE00014D56FF010010161082020762068C06998
:104EF00010F4407F204602D005F0F6F904E005F0FA
:104F0000F4F9204605F0F2F90020207620680169C6
:104F1000C90708D5C168C90705D56FF0010101614E
:104F20002046FFF77DFE20680169090608D5C168A3
:104F3000090605D56FF080010161204605F0D7F91B
:104F400020680169490608D5C168490605D56FF092
:104F500040010161204605F0CBF92068016989060E
:104F60000AD5C168890607D56FF020010161204686
:104F7000BDE8104005F0BDB910BD70B506460D4640
:104F800006F138042078012801D1022070BD0120EB
:104F9000207002206070002A06D0042A17D0082A48
:104FA00029D00C2A3AD04CE0306800F0FDF8306887
:104FB000816941F0080181613068816921F0040153
:104FC000816131688A69286902438A6139E0306801
:104FD00000F0A9F83068816941F4006181613068AE
:104FE000816921F480618161306881692A6941EABF
:104FF0000221816125E0306800F004F93068C16960
:1050000041F00801C1613068C16921F00401C1614A
:105010003168CA6928690243CA6112E0306800F049
:1050200022F93068C16941F40061C1613068C16929
:1050300021F48061C1613068C1692A6941EA0221B5
:10504000C161012060700020207070BD18B4046838
:10505000DFF86432984212D0B0F1804F0FD0DFF801
:105060005C2290420BD0DFF85822904207D0DFF844
:105070005422904203D0DFF85022904201D1012205
:1050800000E00022002A03D024F070044A68144390
:1050900098422AD0B0F1804F27D0DFF820229042EA
:1050A00023D0DFF81C2290421FD0DFF81822904254
:1050B0001BD0DFF81422904217D0DFF81022904264
:1050C00013D0DFF80C2290420FD0DFF80822904274
:1050D0000BD0DFF80422904207D0DFF80022904284
:1050E00003D0DFF8FC21904201D1012200E0002230
:1050F000002A03D024F44074CA68144304608A6808
:10510000C2620A688262984202D06F4A904201D11C
:10511000012200E00022002A01D009690163012177
:10512000416111BC704770B4026A22F01002026241
:10513000036A4468856925F4E6450A6845EA02255C
:1051400023F020038A6843EA02135B4A904202D0AC
:105150005D4A904201D1012200E00022002A0DD0D8
:1051600023F08003CA6843EA021323F0400324F4C7
:1051700040644E698A69164344EA86044460856146
:1051800049688163036270BC7047000010B4036A11
:1051900001248C40A3430362036A02FA01F119431C
:1051A000016210BC7047000030B4026A520852001D
:1051B0000262036A4468856925F073050A6815432D
:1051C00023F002038A6813433B4A904202D03E4ACE
:1051D000904201D1012200E00022002A0BD023F0EE
:1051E0000803CA68134323F0040324F440744A6993
:1051F00014438A69144344608561496841630362CA
:1052000030BC704770B4026A22F480720262036A92
:105210004468C56925F073050A68154323F40073D3
:105220008A6843EA0223244A904202D0264A9042E6
:1052300001D1012200E00022002A0DD023F40063F6
:10524000CA6843EA022323F4806324F440544E697D
:105250008A69164344EA06144460C5614968C1631B
:10526000036270BC704730B4026A22F4805202625A
:10527000026A4368C46924F4E6440D6844EA0524DC
:1052800022F400528D6842EA05320B4DA84202D04A
:105290000D4DA84201D1012500E00025002D04D0CC
:1052A00023F480434D6943EA85134360C461496830
:1052B0000164026230BC70470000014000040040FD
:1052C00000080040000C0040000401400040014084
:1052D000004401400048014000180040001C00400C
:1052E000002000407047F0B402461068956813181B
:1052F000506803EB5004C00721D54D441FE0F0BCBB
:1053000002F10C00704713F8017B05F8017B491E80
:10531000F9D1A0B1B60813F8011B06F00306032E5D
:1053200008BF13F8016B01EB06214942801C294498
:1053300005D011F8016B05F8016B401EF9D1A342AD
:10534000DDD013F8016B16F0030104BF13F8011B45
:10535000C91C30090F28DAD113F8010B0F30D6E73A
:1053600010B504460422206800F032F82068416C31
:1053700041F4004141642068016841F0010101608D
:10538000002010BD30B400F138031A78012A01D191
:1053900002201BE001221A7002225A70026854682F
:1053A00024F070045460046865680A6815436560F9
:1053B0000268946824F080049460026894684868E5
:1053C00004439460012058700020187030BC70476E
:1053D00010B4036A04248C40A3430362036A02FAF4
:1053E00001F11943016210BC7047010401F47F010F
:1053F00000F47F421143C0F3074200F07F401143A5
:1054000080F07F400843704701220FF2E84131F8F5
:105410001010DFF8A43453F8200003F0F0BF0FF2AF
:10542000D44131F81010DFF8902452F8200003F036
:10543000EFBF38B586B004460D4620000CD10020E1
:105440000090DFF87004016841F00101016000681C
:1054500000F0010000900098280010D10FF2984051
:1054600030F8140001900020029002200390049074
:1054700001A9DFF8480450F8240003F035FE012D9F
:105480001DD10FF2744030F81400019000200390F9
:10549000DFF82C04029001A9DFF8200450F8240062
:1054A00003F022FE0FF25440045D00220F2120463B
:1054B00040B202F08FF9204640B202F09AF907B0EC
:1054C00030BD0FF2344131F81010DFF8F02352F8FC
:1054D000200003F08CBF0068DFF8E813884200D09A
:1054E000704710B586B000200090DFF8DC432069DB
:1054F00040F004002061206900F004000090009852
:1055000000200090206940F001002061206900F037
:105510000100009000984FF48070019012200290DA
:1055200000200390022004900420059001A9DFF8D8
:105530009C0303F0D9FD4FF40070019001A9DFF83E
:10554000900303F0D1FD00200090206A40F4000099
:105550002062206A00F4000000900098206840F467
:1055600000002060206820F40000206000220F214D
:10557000482002F02FF9482002F03BF900220F21C9
:10558000492002F027F9492002F033F906B010BD96
:1055900010B5DFF84043204602F038FE002818D14D
:1055A000DFF820032060DFF8300360600020A06097
:1055B000E0604FF48040206100206061A061E06104
:1055C00020622046FFF787FF2046BDE8104002F02A
:1055D0006DBB10BD80B586B000200090DFF8D4020E
:1055E000016841F001010160006800F001000090D5
:1055F00000984FF400400190012003900020049097
:10560000DFF8D802029001A9DFF8C00203F06CFDB8
:1056100000220F21282002F0DDF8282002F0E9F80E
:1056200007B000BD14B583B00A46DFF8A842616D2B
:1056300002910121019103A9009101230146204615
:1056400002F0CCFB002801D000F030F81FBD1FB5E0
:105650000A4600218DF80C10DFF87842616D029146
:105660000121019103A9009101230146204602F086
:1056700065FC002801D000F019F89DF80C0004B07A
:1056800010BD3EB5DFF84C42656D02950193009266
:1056900001230A460146204602F050FC002801D1B1
:1056A00000203EBD00F002F801203EBD80B5DFF8CD
:1056B000240202F076FBBDE8014069E710B5DFF88F
:1056C0002042204603F027F900281ED1DFF81402FB
:1056D00020601820E0610020A06060612061A0626D
:1056E0000720E0620020E06020624FF40070A061BB
:1056F000002060624FF482706060204600F019F86C
:105700002046BDE8104002F0D7BF10BD01B5744877
:10571000836D0122694603F024F8002801D000F0CF
:1057200001F801BD80B56E4803F006F8BDE8014000
:10573000C4E780B586B0002000905E48416941F41E
:1057400080114161416901F48011009100990021AB
:105750000091016841F020010160006800F0200024
:10576000009000984FF46070019002200290039026
:10577000012004900520059001A95B4803F0B4FCCA
:1057800007B000BD59490878002800D0704738B5E7
:1057900086B00120087000200090464C206840F040
:1057A00008002060206800F00800009000984FF486
:1057B00000500190012002900020039002200490EC
:1057C0004B4D01A9284603F08FFC00200090206873
:1057D00040F008002060206800F008000090009869
:1057E0004FF480500190012002900020039002208D
:1057F000049001A9284603F077FC0020009020685F
:1058000040F004002060206800F004000090009840
:1058100004200190012002900020039002200490B7
:105820002B4C01A9204603F05FFC002204212046F6
:1058300003F0E5FD01220421204603F0E0FDFFF71F
:105840003DFF07B030BD38B5044601224FF400518A
:10585000274803F0D4FD1E4D00220421284603F002
:10586000CEFD2046FFF752FF012204212846BDE865
:10587000384003F0C4BD38B5044600224FF400514F
:105880001B4803F0BCFD124D00220421284603F002
:10589000B6FD2046FFF73AFF012204212846BDE865
:1058A000384003F0ACBD73E694E6BBE6CFE6E8E62D
:1058B00004F020BD30380240A8010020B0010020D3
:1058C00000001110005C004020380240000002403F
:1058D00000080240B4010020A08601000000211051
:1058E0000C0200200050014000140240190E02205A
:1058F000000C024000200040010000000600B1F54D
:10590000807F02D34FF0FF30704701700120704755
:105910000078401E8041C043C00F7047F0207047A0
:105920004FF4A0707047DFF8C81788617047DFF840
:10593000EC188A6902EB42039A0088507047DFF83E
:10594000DC188A6902EB420301EB8301486070476F
:10595000DFF89C178A6902EB420301EB8301886040
:1059600070473EB50446FFF7DBFF0546FFF7D6FF5D
:105970000246DFF87C0780690194002100912B46E4
:10598000DFF87017342444432144C96D00F019FC3A
:1059900037BD30B4DFF858379C6904EB440503EB9E
:1059A00085039B689C88E41D1D68203ADB885A4368
:1059B00023469B1004EB5374E41062432A4430BC2A
:1059C00000F09ABB2DE9F84F82460E4615469946DF
:1059D0000024A346284601E00BF1010B10F8011B3F
:1059E0000029F9D1FFF79AFFDFF804774FF00C0890
:1059F00007F10801BA6908FB02F289588988B0FBEF
:105A0000F1F0B9F1010F03D0B9F1020F07D01CE09A
:105A1000A0EB0B0B01FB0BFB0AEB5B0A15E0A0EB09
:105A20000B0B01FB0BFBDA440FE015F8012B3146A1
:105A3000504680B2FFF7ADFF07F10800B96908FBD7
:105A400001F1405880888244641C2878B0F1010933
:105A500069EB09096FEA09094FEAD979FFF75EFF97
:105A600007F10801BA6908FB02F289588988A4B2D3
:105A700001FB140080B288428041C043494611EACC
:105A8000D07FD2D1BDE8F18F2DE9FE4304460D460B
:105A90001646DFF85C76D7F81880DFF85806342110
:105AA00001FB08F10844D0F85C90FFF737FF05FBD5
:105AB000004409EB840908EB480080003858019045
:105AC00000200090012332464946404600F079FB11
:105AD000BDE8F7832DE9FE43074688461446DFF804
