:020000040800F2
:1000000018570020E50701080F0801081308010828
:10001000170801081B0801081F080108000000005C
:10002000000000000000000000000000D1CA00082D
:10003000230801080000000079CA00081907010818
:10004000270801082B0801082F08010833080108B8
:10005000370801083B0801083D0701083F0801086F
:1000600043080108470801084B0801084F08010828
:1000700053080108570801085B0801085F080108D8
:1000800063080108670801086B0801086F08010888
:1000900073080108770801087B0801087F08010838
:1000A00083080108870801088B0801088F080108E8
:1000B00093080108970801089B0801089F08010898
:1000C000A3080108A7080108AB080108AF08010848
:1000D000B3080108B7080108BB080108BF080108F8
:1000E000C3080108C7080108CB080108CF080108A8
:1000F000D3080108D7080108DB080108DF08010858
:10010000E3080108E7080108EB080108EF08010807
:10011000F3080108F70801081D070108FB0801089A
:10012000FF08010803090108070901080B09010874
:10013000230701080F09010813090108170901081D
:100140001B0901081F0901082309010827090108E3
:100150002B0901082F090108330901083709010893
:100160003B0901083F090108430901084709010843
:100170004B090108290701084F0901080000000088
:1001800053090108570901085B0901085F090108C3
:1001900063090108670901086B0901086F09010873
:1001A00073090108770901087B09010800000000B4
:1001B000000000000000000000000000000000003F
:1001C000000000000000000000000000000000002F
:1001D000000000000000000000000000000000001F
:1001E000000000000000000000000000000000000F
:1001F00000000000000000000000038000038000F9
:10020000038000038000038000038000038000035C
:1002100080000380000100000100000000000000D9
:1002200000038000038000000000000000000000C8
:1002300000000000000000000000000000000000BE
:1002400000000000000E70000E70000E7000042010
:100250000004200004200004200000000000000032
:10026000000000000000000000000000000000008E
:10027000000000000000000000000000000000007E
:1002800000000000000000000000066000066000A2
:100290000660000660000660003FF8003FF80006B8
:1002A00060000CC0003FF8003FF8000CC0000CC01C
:1002B000000CC0000CC0000CC000000000000000DA
:1002C000000000000000000000000000000000012D
:1002D000800001800007B0000FF000187000187057
:1002E000001C00000F800007E00000F00018300044
:1002F0001C30001C70001FE0001BC00001800001CA
:10030000800001800001800000000000000000006B
:10031000000000000000000000000780000FC00087
:100320001CE0001860001860001CE0000FF80007D7
:10033000E0001FF000073800061800061800073814
:100340000003F00001E000000000000000000000D9
:10035000000000000000000000000000000000009D
:10036000000000000000000003F00007F0000C6037
:10037000000C00000C00000600000700000F9C00AD
:100380001DFC0018F0001870000FFC0007DC0000D6
:10039000000000000000000000000000000000005D
:1003A00000000000000000000000000000038000CA
:1003B0000380000380000100000100000100000133
:1003C000000000000000000000000000000000002D
:1003D000000000000000000000000000000000001D
:1003E000000000000000000000000000000000000D
:1003F000000000180000380000700000F00000E06D
:100400000000E00001C00001C00001C00001C00008
:1004100001C00001C00000E00000E000007000002A
:10042000700000380000180000000000000000000C
:10043000000000000000000000001800001C000088
:100440000E00000E000007000007000003800003FC
:100450008000038000038000038000038000070009
:10046000000700000F00000E00001C000018000034
:10047000000000000000000000000000000000007C
:1004800000000180000180000180001DB8001FF8FD
:100490000007E00003C00003C00006600006600023
:1004A000000000000000000000000000000000004C
:1004B000000000000000000000000000000000003C
:1004C000000000000000000000000000000000002C
:1004D0000180000180000180000180000180003F58
:1004E000FC003FFC000180000180000180000180D1
:1004F000000180000000000000000000000000007B
:1005000000000000000000000000000000000000EB
:1005100000000000000000000000000000000000DB
:1005200000000000000000000000000000000000CB
:1005300000000000000000E00000C00001C0000159
:1005400080000180000300000300000000000000A4
:10055000000000000000000000000000000000009B
:100560000000000000000000000000000000001F6C
:10057000F8001FF80000000000000000000000006C
:10058000000000000000000000000000000000006B
:10059000000000000000000000000000000000005B
:1005A000000000000000000000000000000000004B
:1005B000000000000000000000000000000000003B
:1005C00000000000000003C00003C00003C00000E2
:1005D000000000000000000000000000000000001B
:1005E0000000000000180000180000380000300073
:1005F00000700000600000600000C00000C000014A
:1006000080000180000300000300000600000600D7
:10061000000E00000C00001C000018000018000074
:1006200000000000000000000000000000000000CA
:10063000000003C00007E0000C30000C3000181868
:1006400000181800181800181800181800181800BA
:100650001818000C30000C300007E00003C0000048
:10066000000000000000000000000000000000008A
:100670000000000000000000000000800007800073
:100680001F80001D800001800001800001800001AA
:100690008000018000018000018000018000018055
:1006A000001FF8001FF8000000000000000000001C
:1006B000000000000000000000000000000000003A
:1006C000000007C0001FF00038300030180030185C
:1006D0000000180000300000600001C0000380002E
:1006E0000600000C00001800003FF8003FF8000072
:1006F00000000000000000000000000000000000FA
:100700000000000000000000000003C0000FE00037
:100710000C700000300000300000600003C00003D7
:10072000E0000070000018000018000018001838E1
:10073000001FF0000FC000000000000000000000DB
:1007400000000000000000000000000000000000A9
:10075000000000E00001E00001E00003600006602E
:10076000000660000C60000C600018600030600043
:100770003FF8003FF80000600003F80003F80000B5
:100780000000000000000000000000000000000069
:10079000000000000000000000001FF0001FF0003B
:1007A0001800001800001800001BC0001FF0001CFB
:1007B0003000001800001800001800001800303049
:1007C000003FF0000FC0000000000000000000002B
:1007D0000000000000000000000000000000000019
:1007E000000000F80003F8000700000E00000C00F5
:1007F000001800001BC0001FF0001C30001818007B
:100800001818001818000C38000FF00003E0000062
:1008100000000000000000000000000000000000D8
:10082000000000000000000000001FF8001FF8009A
:100830001818001838000030000030000070000068
:10084000600000600000E00000C00000C00001C0C7
:100850000001800001800000000000000000000096
:100860000000000000000000000000000000000088
:10087000000007E0000FF0001C38001818001818DE
:10088000000C300007E00007E0000C3000181800F2
:100890001818001818001C38000FF00007E00000BE
:1008A0000000000000000000000000000000000048
:1008B0000000000000000000000007C0000FF00072
:1008C0001C30001818001818001818000C38000FF9
:1008D000F80003D80000180000300000700000E0AD
:1008E000001FC0001F00000000000000000000000A
:1008F00000000000000000000000000000000000F8
:10090000000000000000000000000000000003C024
:100910000003C00003C00000000000000000000051
:1009200000000000000003C00003C00003C000007E
:1009300000000000000000000000000000000000B7
:1009400000000000000000000000000000000000A7
:1009500000000000000000F00000F00000F00000C7
:10096000000000000000000000000000E00001C0E6
:100970000001800001800003000002000000000070
:100980000000000000000000000000000000000067
:100990000000000000000000001C00003C0000F00F
:1009A0000003C0000F00003C0000F000003C00000D
:1009B0000F000003C00000F000003C00001C00001D
:1009C0000000000000000000000000000000000027
:1009D0000000000000000000000000000000000017
:1009E0000000000000000000007FFC007FFC000011
:1009F00000000000007FFC007FFC00000000000001
:100A000000000000000000000000000000000000E6
:100A100000000000000000000000000000000000D6
:100A200000000000000000007000007800001E00C0
:100A30000007800001E000007800001E0000780040
:100A400001E0000780001E00007800007000000038
:100A50000000000000000000000000000000000096
:100A60000000000000000000000000000007C000BF
:100A70000FE00018700018300018300000700000FF
:100A8000E00003C00003800003000000000000003D
:100A90000007000007000000000000000000000048
:100AA0000000000000000000000000000000000046
:100AB000000003E00007F0000E38000C1800187862
:100AC0000018F80019D80019980019980019980012
:100AD00018F8001878001800000C00000E18000725
:100AE000F80003E00000000000000000000000002B
:100AF000000000000000000000000000001F800057
:100B00001FC00001C0000360000360000630000643
:100B100030000C30000FF8001FF800180C00300CEB
:100B200000FC7F00FC7F00000000000000000000CF
:100B300000000000000000000000000000000000B5
:100B400000000000007FE0007FF000183800181857
:100B5000001818001838001FF0001FF800181C00BB
:100B6000180C00180C00180C007FF8007FF0000033
:100B70000000000000000000000000000000000075
:100B80000000000000000000000000000003EC0076
:100B90000FFC001C1C00180C00300C003000003052
:100BA0000000300000300000300000180C001C1C59
:100BB000000FF80003F0000000000000000000003B
:100BC0000000000000000000000000000000000025
:100BD00000000000007FC0007FF0001838001818E7
:100BE00000180C00180C00180C00180C00180C0051
:100BF000180C001818001838007FF0007FE0000083
:100C000000000000000000000000000000000000E4
:100C1000000000000000000000000000007FF8005D
:100C20007FF8001818001818001998001980001F84
:100C300080001F80001980001998001818001818EB
:100C4000007FF8007FF800000000000000000000B6
:100C50000000000000000000000000000000000094
:100C600000000000003FFC003FFC000C0C000C0CDE
:100C7000000CCC000CC0000FC0000FC0000CC00066
:100C80000CC0000C00000C00003FC0003FC0000082
:100C90000000000000000000000000000000000054
:100CA0000000000000000000000000000003EC0055
:100CB0000FFC001C1C00180C00300C003000003031
:100CC000000030FE0030FE00300C00380C001C1C10
:100CD000000FFC0003F00000000000000000000016
:100CE0000000000000000000000000000000000004
:100CF00000000000007E7E007E7E0018180018189C
:100D0000001818001818001FF8001FF80018180025
:100D10001818001818001818007E7E007E7E00004B
:100D200000000000000000000000000000000000C3
:100D3000000000000000000000000000001FF8009C
:100D40001FF8000180000180000180000180000187
:100D5000800001800001800001800001800001808E
:100D6000001FF8001FF80000000000000000000055
:100D70000000000000000000000000000000000073
:100D8000000000000007FE0007FE000030000030F9
:100D90000000300000300000300030300030300003
:100DA0003030003030003060003FE0000F80000045
:100DB0000000000000000000000000000000000033
:100DC000000000000000000000000000007F3E0066
:100DD0007F3E0018300018600018C0001980001B0A
:100DE00080001FC0001CE000187000183000183888
:100DF000007F1F007F1F00000000000000000000B7
:100E000000000000000000000000000000000000E2
:100E100000000000007F80007F80000C00000C00BC
:100E2000000C00000C00000C00000C00000C0C007A
:100E30000C0C000C0C000C0C007FFC007FFC000074
:100E400000000000000000000000000000000000A2
:100E500000000000000000000000000000F00F0093
:100E6000F81F00381C003C3C003C3C00366C00364F
:100E70006C0033CC0033CC00318C00300C00300CD3
:100E800000FE7F00FE7F0000000000000000000068
:100E90000000000000000000000000000000000052
:100EA000000000000078FE0078FE001C18001E18EC
:100EB000001F18001B18001B980019D80018D80034
:100EC00018F8001878001838007F18007F18000004
:100ED0000000000000000000000000000000000012
:100EE0000000000000000000000000000003C0003F
:100EF0000FF0001C3800181800381C00300C0030AF
:100F00000C00300C00300C00381C001818001C3885
:100F1000000FF00003C0000000000000000000000F
:100F200000000000000000000000000000000000C1
:100F300000000000003FF0003FF8000C1C000C0C0B
:100F4000000C0C000C0C000C18000FF8000FE00057
:100F50000C00000C00000C00003FC0003FC000006F
:100F60000000000000000000000000000000000081
:100F70000000000000000000000000000003C000AE
:100F80000FF0001C3800181800381C00300C00301E
:100F90000C00300C00300C00381C001818001C38F5
:100FA000000FF00007C00007CC000FFC000C380059
:100FB0000000000000000000000000000000000031
:100FC00000000000007FE0007FF0001838001818D3
:100FD000001818001838001FF0001FC00018E000AB
:100FE0001870001830001838007F1E007F0E0000B7
:100FF00000000000000000000000000000000000F1
:101000000000000000000000000000000007D80001
:101010000FF8001C38001818001818001E00000FE8
:10102000C00003F0000078001818001818001C38E1
:10103000001FF0001BE000000000000000000000A6
:1010400000000000000000000000000000000000A0
:1010500000000000003FFC003FFC00318C00318CA0
:1010600000318C00318C0001800001800001800083
:101070000180000180000180000FF0000FF00000EF
:101080000000000000000000000000000000000060
:10109000000000000000000000000000007E7E0054
:1010A0007E7E00181800181800181800181800186C
:1010B00018001818001818001818001818000C301C
:1010C000000FF00003C0000000000000000000005E
:1010D0000000000000000000000000000000000010
:1010E00000000000007F7F007F7F00180C000C18BC
:1010F000000C18000C1800063000063000036000D9
:1011000003600003600001C00001C0000080000017
:1011100000000000000000000000000000000000CF
:1011200000000000000000000000000000FE3F8002
:10113000FE3F8030060030060030860019CC0019D2
:10114000CC001B6C001B6C001E7C000E38000E389F
:10115000000C18000C180000000000000000000047
:10116000000000000000000000000000000000007F
:1011700000000000007E7E007E7E001818000C300B
:101180000006600003C00001800001800003C00071
:101190000660000C30001818007E7E007E7E000085
:1011A000000000000000000000000000000000003F
:1011B000000000000000000000000000007C7E0035
:1011C0007C7E001818000C300006600006600003EA
:1011D000C0000180000180000180000180000180CA
:1011E000000FF0000FF00000000000000000000001
:1011F00000000000000000000000000000000000EF
:1012000000000000001FF8001FF800181800183038
:101210000018600018C000018000030000061800DC
:101220000C18001818003018003FF8003FF80000B4
:1012300000000000000000000000000000000000AE
:101240000000000000000000000001F00001F000BC
:101250000180000180000180000180000180000108
:101260008000018000018000018000018000018079
:101270000001800001800001800001F00001F00009
:10128000000000000000000000000000180000182E
:1012900000001C00000C00000E000006000006000C
:1012A0000003000003000001800001800000C00076
:1012B00000C000006000006000007000003000000E
:1012C00038000018000018000000000000000000B6
:1012D000000000000000000000000F80000F8000F0
:1012E0000180000180000180000180000180000178
:1012F00080000180000180000180000180000180E9
:10130000000180000180000180000F80000F80003C
:1013100000000000000000000000000000000000CD
:10132000800001C00003E0000770000630000C18C8
:1013300000180C0010040000000000000000000075
:10134000000000000000000000000000000000009D
:10135000000000000000000000000000000000008D
:10136000000000000000000000000000000000007D
:10137000000000000000000000000000000000006D
:10138000000000000000000000000000000000005D
:10139000000000000000000000000000000000004D
:1013A000000000000000FFFF00FFFF00000000033E
:1013B000000003800000E00000600000000000006A
:1013C000000000000000000000000000000000001D
:1013D000000000000000000000000000000000000D
:1013E00000000000000000000000000000000000FD
:1013F00000000000000000000000000000000000ED
:101400000000000000000FC0001FE00000300000DE
:10141000300007F0001FF00038300030300030702E
:10142000001FFC000FBC00000000000000000000D6
:1014300000000000000000000000000000000000AC
:1014400000007800007800001800001800001BE081
:10145000001FF8001C1800180C00180C00180C00D5
:10146000180C00180C001C18007FF8007BE000002E
:10147000000000000000000000000000000000006C
:10148000000000000000000000000000000000005C
:1014900000000000000003EC000FFC001C1C0038E2
:1014A0000C00300C00300000300000380C001C1C18
:1014B000000FF80003F00000000000000000000032
:1014C000000000000000000000000000000000001C
:1014D000000000780000780000180000180007D80D
:1014E000001FF800183800301800301800301800BD
:1014F0003018003018001838001FFE0007DE00000A
:1015000000000000000000000000000000000000DB
:1015100000000000000000000000000000000000CB
:1015200000000000000007E0001FF800181800305D
:101530000C003FFC003FFC00300000300000180CA5
:10154000001FFC0007F00000000000000000000089
:10155000000000000000000000000000000000008B
:10156000000001FC0003FC000600000600003FF83C
:10157000003FF8000600000600000600000600001C
:101580000600000600000600003FF0003FF00000EB
:10159000000000000000000000000000000000004B
:1015A000000000000000000000000000000000003B
:1015B00000000000000007DE001FFE0018380030A9
:1015C0001800301800301800301800301800183893
:1015D000001FF80007D800001800001800003800AD
:1015E0000FF0000FC000000000000000000000002D
:1015F00000007800007800001800001800001BE0D0
:10160000001FF0001C3800181800181800181800E7
:101610001818001818001818007E7E007E7E000042
:1016200000000000000000000000000000000000BA
:1016300000000000000000000000018000018000A8
:101640000000000000001F80001F800001800001DA
:101650008000018000018000018000018000018085
:10166000003FFC003FFC0000000000000000000004
:10167000000000000000000000000000000000006A
:10168000000000C00000C0000000000000001FF0CB
:10169000001FF0000030000030000030000030007B
:1016A000003000003000003000003000003000004A
:1016B00030000030000070001FE0001F80000000BC
:1016C000000000000000000000003C00003C0000A2
:1016D0000C00000C00000CF8000CF8000CC0000D11
:1016E00080000F80000F00000F80000DC0000CE094
:1016F000003C7C003C7C000000000000000000007A
:1017000000000000000000000000000000000000D9
:1017100000001F80001F8000018000018000018008
:101720000001800001800001800001800001800034
:101730000180000180000180003FFC003FFC0000B0
:101740000000000000000000000000000000000099
:101750000000000000000000000000000000000089
:10176000000000000000F77800FFFC0039CC0031D9
:101770008C00318C00318C00318C00318C00318C2C
:1017800000FDEF00FDEF0000000000000000000081
:101790000000000000000000000000000000000049
:1017A00000000000000000000000000000007BE0DE
:1017B000007FF0001C3800181800181800181800D6
:1017C0001818001818001818007E7E007E7E000091
:1017D0000000000000000000000000000000000009
:1017E00000000000000000000000000000000000F9
:1017F00000000000000003C0000FF0001C3800389B
:101800001C00300C00300C00300C00381C001C3860
:10181000000FF00003C00000000000000000000006
:1018200000000000000000000000000000000000B8
:1018300000000000000000000000000000007BE04D
:10184000007FF8001C1800180C00180C00180C0081
:10185000180C00180C001C18001FF8001BE00018E2
:1018600000001800001800007F00007F000000004A
:101870000000000000000000000000000000000068
:1018800000000000000007DE001FFE0018380030D6
:1018900018003018003018003018003018001838C0
:1018A000001FF80007D800001800001800001800FA
:1018B00000FE0000FE00000000000000000000002C
:1018C00000000000000000000000000000003E7862
:1018D000003EFC0007CC00070000060000060000E8
:1018E0000600000600000600003FF0003FF0000088
:1018F00000000000000000000000000000000000E8
:1019000000000000000000000000000000000000D7
:1019100000000000000007F8000FF8001818001879
:1019200018001F80000FF00000F800181800183889
:10193000001FF0001FE00000000000000000000099
:101940000000000000000000000000000000000097
:1019500000000C00000C00000C00000C00003FF028
:10196000003FF0000C00000C00000C00000C000018
:101970000C00000C00000C1C0007FC0003F0000031
:101980000000000000000000000000000000000057
:101990000000000000000000000000000000000047
:1019A000000000000000787800787800181800180F
:1019B00018001818001818001818001818001838FF
:1019C000000FFE0007DE0000000000000000000025
:1019D0000000000000000000000000000000000007
:1019E00000000000000000000000000000007C3E3D
:1019F000007C3E001818001818000C30000C300055
:101A000006600006600007E00003C00003C000009D
:101A100000000000000000000000000000000000C6
:101A200000000000000000000000000000000000B6
:101A3000000000000000783C00783C0031180033C2
:101A400098003398001AB0001EF0001EF0001C60D1
:101A5000000C60000C6000000000000000000000AE
:101A60000000000000000000000000000000000076
:101A700000000000000000000000000000003E7CAC
:101A8000003E7C000C300006600003C000018000B6
:101A900003C0000660000C30003E7C003E7C00006D
:101AA0000000000000000000000000000000000036
:101AB0000000000000000000000000000000000026
:101AC0000000000000007E1F007E1F00180C000CAC
:101AD00018000C180006300006300003600003E018
:101AE0000001C00000C00001800001800003000070
:101AF0003FC0003FC00000000000000000000000E8
:101B000000000000000000000000000000001FF8BE
:101B1000001FF80018300018600000C000018000AD
:101B20000300000618000C18001FF8001FF8000042
:101B300000000000000000000000000000000000A5
:101B40000000000000000000000000E00001E000D4
:101B500001800001800001800001800001800001FF
:101B600080000380000700000380000180000180E6
:101B70000001800001800001800001E00000E00021
:101B80000000000000000000000000000000000055
:101B900000000180000180000180000180000180C0
:101BA00000018000018000018000018000018000B0
:101BB000018000018000018000018000018000019F
:101BC0008000018000018000000000000000000093
:101BD0000000000000000000000007000007800077
:101BE000018000018000018000018000018000016F
:101BF000800001C00000E00001C000018000018001
:101C000000018000018000018000078000070000C3
:101C100000000000000000000000000000000000C4
:101C200000000000000000000000000000000000B4
:101C3000000000000E00001F18003BB80031F0004B
:101C400000E00000000000000000000000000000B4
:101C50000000000000000000000000000000000084
:101C60000000000000000000000000000000000074
:101C70000000000000000000000000000000000064
:101C80000000000000000C000C000C000C000C0018
:101C90000C000C000C0000000C0000000000000014
:101CA00000000000000000001DC01DC0088008806A
:101CB000088000000000000000000000000000009C
:101CC0000000000000000D800D800D800D803FC0E1
:101CD0001B003FC01B001B001B001B00000000007E
:101CE0000000000004001F803180318038001E0099
:101CF0000F000380318031803F00040004000000A9
:101D000000000000000018002400240018C0078014
:101D10001E003180024002400180000000000000EF
:101D200000000000000000000F001800180018005C
:101D30000C001D80370033001D80000000000000F3
:101D40000000000000000000070007000200020081
:101D50000200000000000000000000000000000081
:101D60000000000000000300030006000E000C004D
:101D70000C000C000C000E00060003000300000025
:101D8000000000000000180018000C00060006000B
:101D900006000600060006000C001C0018000000EB
:101DA000000000000000060006003FC03FC00F001A
:101DB0001F801980000000000000000000000000EB
:101DC0000000000000000000000004000400040007
:101DD0003F80040004000400000000000000000038
:101DE00000000000000000000000000000000000F3
:101DF000000000000000060004000C0008000800BD
:101E000000000000000000000000000000000000D2
:101E10003F80000000000000000000000000000003
:101E200000000000000000000000000000000000B2
:101E30000000000000000C000C000000000000008A
:101E40000000000000C000C001800180030003000A
:101E500006000C000C0018001800300030000000D4
:101E60000000000000000E001B0031803180318036
:101E70003180318031801B000E0000000000000026
:101E800000000000000006003E00060006000600FC
:101E900006000600060006003FC00000000000002B
:101EA0000000000000000F00198031803180030025
:101EB00006000C00180030003F8000000000000009
:101EC0000000000000003F006180018003001F004F
:101ED00003800180018061803F000000000000005D
:101EE000000000000000070007000F000B001B00AF
:101EF000130033003F8003000F800000000000004B
:101F00000000000000001F801800180018001F00CB
:101F100011800180018021801F000000000000006E
:101F200000000000000007801C001800300037008F
:101F300039803180318019800F00000000000000DE
:101F40000000000000007F004300030006000600C0
:101F5000060006000C000C000C0000000000000051
:101F60000000000000001F003180318031801F0020
:101F700031803180318031801F000000000000007E
:101F80000000000000001E003300318031803380EB
:101F90001D800180030007003C00000000000000DD
:101FA0000000000000000000000000000C000C0019
:101FB0000000000000000C000C0000000000000009
:101FC000000000000000000000000000030003000B
:101FD00000000000000006000400080008000000E7
:101FE000000000000000000000C003000400180012
:101FF000600018000400030000C0000000000000A2
:1020000000000000000000000000000000007FC091
:1020100000007FC000000000000000000000000081
:102020000000000000000000600018000400030031
:1020300000C0030004001800600000000000000061
:1020400000000000000000001F003180318001808E
:1020500007000C000C0000000C0000000000000055
:102060000000000000000E001100210021002700E8
:10207000290029002700200011000E0000000000A8
:1020800000000000000000003F000F000900198060
:1020900019801F8030C030C079E0000000000000CF
:1020A00000000000000000007F003180318031809E
:1020B0003F003180318031807F000000000000004F
:1020C00000000000000000001F4030C060406000C1
:1020D00060006000604030801F00000000000000D1
:1020E00000000000000000007F00318030C030C0E0
:1020F00030C030C030C031807F00000000000000E0
:1021000000000000000000007F803080308032003E
:102110003E003200308030807F80000000000000F0
:1021200000000000000000007FC03040304032005E
:102130003E003200300030007C0000000000000053
:1021400000000000000000001E8031806080600000
:10215000600067C0618031801F0000000000000047
:1021600000000000000000007BC031803180318021
:102170003F803180318031807BC000000000000052
:1021800000000000000000003FC00600060006003E
:1021900006000600060006003FC000000000000028
:1021A00000000000000000001FC003000300030047
:1021B00003006300630063003E00000000000000B5
:1021C00000000000000000007BC0318033003600BA
:1021D0003C003E003300318079C000000000000068
:1021E00000000000000000007E0018001800180029
:1021F00018001840184018407FC000000000000080
:102200000000000000000000E0E060C071C07BC082
:102210006AC06EC064C060C0FBE000000000000047
:10222000000000000000000073C0318039803D8054
:1022300035803780338031807980000000000000D5
:1022400000000000000000001F00318060C060C07E
:1022500060C060C060C031801F000000000000004E
:1022600000000000000000007F00318031803180DC
:1022700031803F00300030007E0000000000000090
:1022800000000000000000001F00318060C060C03E
:1022900060C060C060C031801F000CC01F800000A3
:1022A00000000000000000007F003180318031809C
:1022B0003E003300318031807CE0000000000000EF
:1022C00000000000000000001F80318031803800D5
:1022D0001F000380318031803F00000000000000BB
:1022E00000000000000000007F804C804C804C808B
:1022F0000C000C000C000C003F000000000000006F
:1023000000000000000000007BC03180318031807F
:1023100031803180318031801F00000000000000DA
:1023200000000000000000007BC0318031801B00F5
:102330001B001B000A000E000E0000000000000041
:102340000000000000000000FBE060C064C06EC040
:102350006EC02A803B803B8031800000000000007E
:1023600000000000000000007BC031801B000E0058
:102370000E000E001B0031807BC00000000000003A
:10238000000000000000000079E030C019800F005C
:1023900006000600060006001F8000000000000086
:1023A00000000000000000003F80218023000600A4
:1023B00004000C00188030803F8000000000000006
:1023C000000000000000078006000600060006006E
:1023D0000600060006000600060006000780000052
:1023E0000000000030003000180018000C000C0045
:1023F0000600030003000180018000C000C000004F
:102400000000000000001E00060006000600060096
:102410000600060006000600060006001E0000007A
:102420000000000004000A000A0011002080208043
:10243000000000000000000000000000000000009C
:10244000000000000000000000000000000000008C
:10245000000000000000000000000000000000007C
:102460000000FFE00800040002000000000000007F
:10247000000000000000000000000000000000005C
:102480000000000000000000000000001F000180AC
:1024900001801F80318033801DC0000000000000DB
:1024A000000000000000700030003000370039806C
:1024B00030C030C030C0398077000000000000001C
:1024C0000000000000000000000000001E803180BD
:1024D00060806000608031801F000000000000000C
:1024E0000000000000000380018001801D80338017
:1024F00061806180618033801DC0000000000000A9
:102500000000000000000000000000001F003180FB
:1025100060C07FC0600030C01F800000000000006D
:1025200000000000000007E00C000C003F800C00E1
:102530000C000C000C000C003F80000000000000AC
:102540000000000000000000000000001DC03380FB
:1025500061806180618033801D80018001801F0067
:1025600000000000000070003000300037003980AB
:1025700031803180318031807BC00000000000005C
:102580000000000000000600060000001E0006001B
:1025900006000600060006003FC000000000000024
:1025A0000000000000000600060000003F000300DD
:1025B00003000300030003000300030003003E00C8
:1025C000000000000000700030003000378036004E
:1025D0003C003C003600330077C0000000000000E3
:1025E0000000000000001E000600060006000600B5
:1025F00006000600060006003FC0000000000000C4
:102600000000000000000000000000007F8036C0D5
:1026100036C036C036C036C076E00000000000008C
:10262000000000000000000000000000770039807A
:1026300031803180318031807BC00000000000009B
:102640000000000000000000000000001F003180BA
:1026500060C060C060C031801F000000000000004A
:10266000000000000000000000000000770039803A
:1026700030C030C030C039803700300030007C00BE
:102680000000000000000000000000001DC03380BA
:1026900061806180618033801D800180018007C07E
:1026A0000000000000000000000000007B801CC053
:1026B00018001800180018007F000000000000003B
:1026C0000000000000000000000000001F803180BA
:1026D0003C001F00038031803F000000000000002C
:1026E0000000000000001800180018007F0018000B
:1026F00018001800180018800F00000000000000EB
:102700000000000000000000000000007380318025
:1027100031803180318033801DC000000000000016
:102720000000000000000000000000007BC03180BD
:1027300031801B001B000E000E0000000000000096
:10274000000000000000000000000000F1E060C098
:1027500064C06EC03B803B80318000000000000000
:102760000000000000000000000000007BC01B0013
:102770000E000E000E001B007BC0000000000000D9
:1027800000000000000000000000000079E030C000
:10279000198019800B000F00060006000C003E0097
:1027A0000000000000000000000000003F802180C9
:1027B00003000E00180030803F8000000000000081
:1027C00000000000000006000C000C000C000C00D3
:1027D0000C0018000C000C000C000C00060000009F
:1027E00000000000000006000600060006000600CB
:1027F00006000600060006000600060006000000AF
:102800000000000000000C000600060006000600A4
:102810000600030006000600060006000C0000008B
:102820000000000000000000000000000000180090
:1028300024800300000000000000000000000000F1
:102840000000000000000000000000000000000088
:10285000001010101010000010000000006C48481C
:102860000000000000000000001414287C287C28D0
:1028700050500000001038404038487010100000E0
:10288000002050200C700814080000000000001800
:1028900020205448340000000010101010000000E8
:1028A00000000000000808101010101010080800A8
:1028B00000202010101010101020200000107C109C
:1028C00028280000000000000000101010FE10106A
:1028D0001000000000000000000000181030200070
:1028E00000000000007C000000000000000000006C
:1028F0000000003030000000000404080810102020
:10290000204000000038444444444444380000005F
:1029100000301010101010107C000000003844042B
:10292000081020447C0000000038440418040444CB
:1029300038000000000C141424447E040E00000033
:10294000003C20203804044438000000001C2040D3
:102950007844444438000000007C4404080808100F
:10296000100000000038444438444444380000005B
:1029700000384444443C040870000000000000306B
:10298000300000303000000000000018180000186F
:102990003020000000000C10608060100C0000006F
:1029A000000000007C007C00000000000000C0204F
:1029B00018041820C00000000000182404081000AB
:1029C000300000003844444C54544C40443800001B
:1029D0000030102828287C44EE00000000F8444411
:1029E00078444444F8000000003C444040404044E7
:1029F0003800000000F0484444444448F00000001F
:102A000000FC445070504044FC000000007E22282E
:102A10003828202070000000003C4440404E4444D0
:102A20003800000000EE44447C444444EE000000C2
:102A3000007C1010101010107C000000003C0808F2
:102A4000084848483000000000EE444850704844B0
:102A5000E600000000702020202024247C000000DC
:102A600000EE6C6C54544444EE00000000EE6464CC
:102A70005454544CEC000000003844444444444452
:102A80003800000000782424243820207000000042
:102A90000038444444444444381C000000F8444492
:102AA00044784844E200000000344C403804046498
:102AB0005800000000FE92101010101038000000A6
:102AC00000EE4444444444443800000000EE4444D2
:102AD000282828101000000000EE44445454545498
:102AE0002800000000C6442810102844C60000003A
:102AF00000EE44282810101038000000007C440824
:102B0000101020447C0000000038202020202020CD
:102B10002020380000402020201010080808000065
:102B200000380808080808080808380000101028AD
:102B30004400000000000000000000000000000051
:102B4000000000FE0010080000000000000000006F
:102B500000000038443C44443E00000000C040589F
:102B600064444444F80000000000003C44404044F9
:102B700038000000000C04344C4444443E00000083
:102B800000000038447C40403C000000001C207CD9
:102B9000202020207C000000000000364C444444EB
:102BA0003C04380000C0405864444444EE00000037
:102BB00000100070101010107C0000000010007851
:102BC000080808080808700000C0405C48705048B9
:102BD000DC00000000301010101010107C0000000D
:102BE000000000E854545454FE000000000000D8D7
:102BF00064444444EE00000000000038444444446F
:102C000038000000000000D8644444447840E000EC
:102C1000000000364C4444443C040E000000006CAC
:102C2000302020207C0000000000003C4438044498
:102C3000780000000000207C202020221C000000E2
:102C4000000000CC4444444C36000000000000EE7C
:102C50004444282810000000000000EE445454545E
:102C600028000000000000CC48303048CC000000B4
:102C7000000000EE44242818101078000000007CAA
:102C8000481020447C000000000810101010201094
:102C9000101008000010101010101010101000007C
:102CA000002010101010081010102000000000006C
:102CB00000245800000000000068DFF8A41C8842CF
:102CC00007D1DFF8AC0DC16B8164016CC164416C4C
:102CD0000165704730B5A3B002F030F800F02EF96E
:102CE00000F060FC00F0F6FB00F0F5FA00F042FBAB
:102CF00000F08FFB00F0CFFB00F0C8FA00F033FAD1
:102D000000F0B1FA00F09AF900F0F1F900F002FADF
:102D100000F0F8FB00F048FADFF8544D002120469F
:102D200002F064F80021204602F020FB0421204636
:102D300002F05CF80421204602F018FBDFF8345D55
:102D40000021284602F052F80021284602F00EFB2E
:102D50000821284602F04AF80821284602F006FB1E
:102D6000DFF8145D0421284602F040F804212846CB
:102D700002F0FCFA002002F04DFB012002F04AFBB9
:102D80000121002002F05BFB02F0F8FDDFF8D41B0C
:102D9000002002F00FFE002002F04BFE4FF07F40BB
:102DA00002F065FE4FF07F4002F04FFE6FF47F00AF
:102DB00002F043FEDFF8C40C02F050FE40F23F1375
:102DC000EF220021084602F093FF03230FF2C8020E
:102DD0000821052002F07CFEDFF8A40C02F02DFE95
:102DE0004FF4A071F02003F0A3FA032204F13C0198
:102DF000DFF8C00D03F04CFB1EA80FF2B401142243
:102E000003F05AFD00211EA803F0A6FD606519A875
:102E10000FF2B001142203F04FFD002119A803F0B6
:102E20009BFDA06514A80FF2B001142203F044FD2D
:102E3000002114A803F090FDE0650FA80FF2AC018B
:102E4000142203F039FD00210FA803F085FD206650
:102E50000AA80FF2AC01142203F02EFD00210AA8EB
:102E600003F07AFD606605A80FF2A801142203F0B2
:102E700023FD002105A803F06FFDA06668460FF250
:102E8000A801142203F018FD0021684603F064FD38
:102E9000E06603F05CFDFEE7526F626F7441726D95
:102EA00020436F6E74726F6C20322E300000000071
:102EB00080060108273C0008FEFF0000000000001B
:102EC000000100008C060108393C000802000000E7
:102ED0000000000080000000980601082943000857
:102EE000FFFF00000000000080000000A4060108B1
:102EF00035430008010000000000000080000000D1
:102F0000B0060108E94600080000000000000000CB
:102F100080000000C00601084B48000800000000C7
:102F20000000000080000000C80601088548000875
:102F3000FEFF0000000000000001000010B59EB080
:102F400000200090DFF8740C016841F080510160AE
:102F5000006800F080500090009800200090DFF89A
:102F6000600C016841F440410160006800F4404099
:102F700000900098012012904FF4803413940220A6
:102F800018904FF48000199004201A90B4201B90E0
:102F900002201C9004201D9012A803F007FD0028B9
:102FA00005D04FF4D8710FF2CC5001F097FE03F02A
:102FB00087FE002805D040F2B7110FF2B85001F09B
:102FC0008DFE0F20019002200290002003904FF40C
:102FD000A05004904FF480500590052101A803F003
:102FE000A7FE002805D040F2C5110FF2885001F06D
:102FF00075FE0820069054200A9007200C900F942C
:1030000006A803F08FFF002805D04FF4E7710FF2F8
:10301000645001F063FE03F013FF4FF47A71B0FBCC
:10302000F1F004F009F9042004F007F900220F215F
:103030004FF0FF3004F0F0F81EB010BD1FB5DFF800
:10304000744BDFF81C0920604FF480306060002072
:10305000A06001202061A06100202062E062DFF812
:10306000640BA0620020E0600320E0610120206387
:103070006061204603F0E0F9002805D040F2F3112A
:103080000FF2F04001F02AFE0D2000900120019087
:1030900002906946204603F081FA002805D040F2EC
:1030A000FD110FF2D04001F019FEDFF8200B009067
:1030B000022001906946204603F070FA002805D0EE
:1030C00040F206210FF2AC4001F008FE1120009002
:1030D000032001906946204603F060FA002805D0DD
:1030E00040F20F210FF28C4001F0F8FD1FBD80B5BA
:1030F000DFF8DC0ADFF8DC1A016004F0B7F800281A
:1031000007D040F21B210FF26C40BDE8044001F0F3
:10311000E5BD01BD1CB5DFF8C04ADFF8C00A20607C
:1031200000206060A060E060A062E0622063FF2099
:103130006063204604F0AEF8002805D040F22E214E
:103140000FF2304001F0CAFD0121204604F081F960
:10315000002807D040F233210FF21840BDE81C4090
:1031600001F0BCBD13BD80B5DFF8740ADFF8741A36
:103170000160DFF8741A416000218160C1604FF482
:1031800080410161002141618161C161016204F0FE
:10319000FDF9002807D040F247210FF2D830BDE8F2
:1031A000044001F09BBD01BD18B58DB0DFF83C4A6D
:1031B000DFF83C0A206000206060A060E0602061D1
:1031C000092060610120A0611D20E06103202062D0
:1031D00040F20D10606240F24310A06240F21710FE
:1031E000E06240F24710206304F1340000210180C6
:1031F0008170204604F0B8FE002805D04FF4197104
:103200000FF2703001F06AFD00200090F020019074
:10321000002002904FF4A070039000210491FF2140
:103220000591002106914FF4C06107910721089193
:10323000DFF8C0190991F0210A910B900020ADF838
:1032400030000CA8002181700A466946204604F02F
:1032500000FF002805D04FF41E710FF2183001F066
:103260003DFD0EB010BD80B5DFF88C09DFF88C197C
:10327000016004F0E7FF002807D04FF421710FF23E
:10328000F420BDE8044001F029BD01BD80B5DFF8A0
:103290007009DFF8701901604FF4827141600021FC
:1032A0008160C160016141614FF400718161002161
:1032B000C1610162416281620A21C16204F0DAFFE8
:1032C000002807D04FF427710FF2A820BDE8044072
:1032D00001F004BD01BD18B589B0DFF894474FF087
:1032E00080402060032060600020A0604EF66020D7
:1032F000E06000202061204601F05FFD002805D03D
:1033000040F2AF210FF26C2001F0E8FC00200090A9
:1033100001906946204602F03BF8002805D040F2B3
:10332000B6210FF2502001F0D9FC6020029000205D
:10333000039004900690024602A9204601F023FE65
:10334000002805D040F2BF210FF2282001F0C6FC72
:10335000042202A9204601F016FE002805D04FF4F1
:1033600031710FF2102001F0B9FC204605F0A5FCE8
:103370000AB010BD18B589B0DFF8F846DFF8880844
:103380002060032060600020A0604EF66020E060B6
:1033900000202061204601F010FD002805D040F2F9
:1033A000D9210FF2D01001F099FC0020009001907B
:1033B0006946204601F0ECFF002805D04FF4387133
:1033C0000FF2B01001F08AFC602002900020039000
:1033D00004900690024602A9204601F0D4FD002880
:1033E00005D040F2E9210FF28C1001F077FC0822A1
:1033F00002A9204601F0C7FD002805D040F2EE21C9
:103400000FF2701001F06AFC204605F056FC0AB07D
:1034100010BD18B589B0DFF86046DFF8F00720600E
:10342000032060600020A0604EF66020E060002075
:103430002061204601F0C1FC002805D040F2033194
:103440000FF2301001F04AFC002000900190694614
:10345000204601F09DFF002805D040F20A310FF20E
:10346000141001F03BFC60200290002003900490B7
:103470000690042202A9204601F085FD002805D00F
:1034800040F213310FF2EC0001F028FC204605F069
:1034900014FC0AB010BD80B5DFF87407DFF8241EF5
:1034A00001604FF4E131416000218160C160016140
:1034B0000C21416100218161C16105F045FD0028B9
:1034C00007D04FF44A710FF2AC00BDE8044001F0A0
:1034D00005BC01BD80B500200090DFF8EC0D01684F
:1034E00041F480010160006800F4800000900098C1
:1034F000002211463C2003F08FFE3C20BDE8024034
:1035000003F099BE00B587B0DFF8C00DDFF8C01D2D
:10351000016001214160002181600421C16010210E
:103520000161402141614FF4C07181610021C1619D
:103530004FF400610162002141624FF40051816249
:103540000221009107210191042102910721039199
:1035500003210491022105910691694605F064FE5C
:10356000002805D040F259310FF2080001F0B6FBF7
:1035700007B000BD433A5C4749545C526F626F74B8
:1035800041726D326B31375C53544D333246345C8B
:10359000526F626F7441726D5C5372635C6D6169EE
:1035A0006E2E63002DE9F04186B000200590DFF813
:1035B000180D016841F004010160016801F0040187
:1035C0000591059900210591016841F020010160F4
:1035D000016801F02001059105990021059101681C
:1035E00041F080010160016801F0800105910599B9
:1035F00000210591016841F001010160016801F0BD
:1036000001010591059900210591016841F0020130
:103610000160016801F00201059105990021059101
:10362000016841F040010160016801F0400105912D
:10363000059900210591016841F0100101600168C0
:1036400001F010010591059900210591016841F0F3
:1036500008010160006800F0080005900598DFF897
:103660007C4C00221621204605F0B7FFDFF8705C85
:1036700000228021284605F0B0FFDFF8686C0022A8
:103680004FF44051304605F0A8FFDFF85C7C002283
:103690004FF4C041384605F0A0FF162000900120ED
:1036A00001900020029003906946204605F00AFE32
:1036B00048F207000090DFF8348CCDF80480002039
:1036C00002906946284605F0FDFD8020009001200B
:1036D00001900020029003906946284605F0F2FD13
:1036E00020200090CDF804800020029069462046FA
:1036F00005F0E8FD0420009000200190029069464A
:10370000DFF8EC0B05F0DEFD4FF4006000900020C8
:10371000019002906946304605F0D4FD4FF44050C8
:1037200000900120019000200290039069463046ED
:1037300005F0C8FD4FF4C04000900120019000202A
:10374000029003906946384605F0BCFD06B0BDE81E
:10375000F08190ED001AB4EE401AF1EE10FA02D5A5
:10376000B0EE401A06E0F4EE410AF1EE10FA01D58F
:10377000B0EE601A80ED001A7047B5EE400AF1EE27
:1037800010FA03D5FFEE000A20EE200A704780B53C
:1037900010EE100A05F056FFDFF8582BDFF8583B03
:1037A00005F074FF0022DFF8543B06F041F806F004
:1037B00063F900EE100A01BD80B5DFEDAC0A20EE22
:1037C000200A10EE100A05F03DFFDFF8282BDFF885
:1037D000283B06F02DF806F04FF900EE100A01BD67
:1037E000DFEDA20A30EEC00ADFF8140BD0ED000ABC
:1037F00080EE200A70470000F0EE400ADFF8000B70
:1038000090ED001A9FED990A00EEC10A704780B54D
:1038100006F066F90022DFF8EC3A06F009F800221B
:10382000DFF8E43A06F06AF906F026F900EE100A2D
:1038300001BD80B510EE100A05F004FF00224FF024
:103840007F5305F023FF0022DFF8C03A06F056F957
:103850004FF06632DFF8703E06F050F906F00CF9D2
:1038600000EE100A01BD80B5B1EE400A10EE100A5C
:1038700005F0E8FE0022DFF8983A05F0D9FF0022B3
:10388000DFF8883A06F03AF94FF03332DFF83C3E81
:1038900006F034F906F0F0F800EE100A01BD80B52C
:1038A00010EE100A05F0CEFE0022DFF8243E06F0EE
:1038B00025F90022DFF81C3E05F0E8FE06F0DCF8F2
:1038C00000EE100A01BD80B506F00AF90022DFF80B
:1038D000083E05F0DBFE0022DFF8003E06F00EF9A0
:1038E00006F0CAF800EE100A01BD38B52DED048BC4
:1038F000F0EE408AB0EE608ADFF8E44D94ED039A72
:10390000FFF745FF06F0A2FA29EE009AD4ED029ADD
:10391000B0EE480AFFF73BFFDFF8C85D06F096FA05
:1039200009EE809A85ED009A94ED039AB0EE680A4C
:10393000FFF72DFF06F08CFA69EE008A94ED029AEB
:10394000B0EE480AFFF723FF06F082FA49EE408AFC
:10395000C5ED018A95EC020ABDEC048B31BD000077
:1039600000200140000013D010B52DED048BB0EE07
:10397000608ADFF86C4D84ED040A84ED058A20EE40
:10398000000A08EE080A06F065FAB0EE409A84EDE7
:10399000069A88EE090A06F06DFAF0EE409AC4ED38
:1039A000079A94ED030AD4ED030A94ED021AD4EDBC
:1039B000021A29EE098AF0EE008AB0EE482A00EEDB
:1039C000202A01EE612A94ED030A20EE280A20EE57
:1039D000090A82EE000A06F07BFA84ED080A39EE45
:1039E000809AB0EE490AFFF7E7FE84ED000A94EDF5
:1039F000030AD4ED030A94ED021AD4ED021A94EDF1
:103A0000032A20EE200A01EE210A30EE480A62EE77
:103A1000280A94ED021A60EE810A80EE200A06F070
:103A200057FAB0EE408A84ED098ADFED638AB0EE82
:103A3000490AFFF7C1FE38EEC00A84ED0A0A38EEE3
:103A4000C00A84ED0B0ADFED090A70EEC08AB0EE01
:103A5000480AFFF7B1FE38EEC00A84ED0C0A206B6D
:103A6000606094EC020ABDEC048B10BD000034438E
:103A7000FC4C0020804F0020BC4F0020880200201A
:103A800000A5FFFF38B52DED048BB0EE409AB0EEE7
:103A9000608AF0EE418ADFF8D44D84ED039A84ED1C
:103AA000048A89EE080A06F045FAFFF785FE84EDE0
:103AB000000A28EE080A09EE090A06F0CBF984ED9F
:103AC000050A20EE000A08EEA80A06F0C3F9B0EED7
:103AD000409A84ED069A88EE890A06F0CBF9F0EE5A
:103AE000409AC4ED079ADFF8F85B95ED030AD5ED2F
:103AF000030A95ED021AD5ED021A29EE098AF0EEB5
:103B0000008AB0EE482A00EE202A01EE612A95EDE7
:103B1000030A20EE280A20EE090A82EE000A06F0C7
:103B2000D7F984ED080A39EE809AB0EE490AFFF71A
:103B300043FE84ED020A95ED030AD5ED030A95EDE7
:103B4000021AD5ED021A95ED032A20EE200A01EEA5
:103B5000210A30EE480A62EE280A95ED021A60EE5C
:103B6000810A80EE200A06F0B3F9B0EE408A84EDB7
:103B7000098ADFED118AB0EE490AFFF71DFE38EE23
:103B8000C00A84ED0A0A38EEC00A84ED0B0ADFEDA4
:103B90000E0A70EEC08AB0EE480AFFF70DFE38EE4E
:103BA000C00A84ED0C0A206B606094EC030ABDEC43
:103BB000048B31BD784E00200000B44240380240F2
:103BC000007000400100000F00003443120000109C
:103BD000E050002000300240C04E002000B0024003
:103BE000244E0020005C0040A0860100A84A00206E
:103BF00000680140000020D0D4500020000806508A
:103C0000CC4D00200050014000040040000800405E
:103C1000004F00200246002000E0401C80B2115CF2
:103C20000029FAD1704780B506F0A8F94FF4FA7070
:103C300002F0A9FEFAE700002DE9F8432DED028B12
:103C400082B0DFF8305C05F1210605F13808DFF8B5
:103C5000289C5EE005F114020FF2B86105F15400F2
:103C600006F0A8F905F15400FFF7D4FF014605F16D
:103C7000540006F011FA46E06069786697ED000A94
:103C8000D7ED0A0A30EE600AFFF777FDD4ED050A9A
:103C900080EE200A84ED060A97ED020A94ED068A6A
:103CA000D7ED0C0A30EE600AFFF767FD80EE080AD8
:103CB00087ED1B0A97ED010AD7ED0B0A30EE600A7B
:103CC000FFF75BFD80EE080A87ED1A0A97ED030AFD
:103CD000D7ED0D0A30EE600AFFF74FFD80EE080ABF
:103CE00087ED1C0A05F114020FF2346105F154004E
:103CF00006F060F905F15400FFF78CFF014605F16D
:103D0000540006F0C9F90020F0714FF47A7002F007
:103D10003AFEF0790128F8D1287D532840F06C81D3
:103D2000297E3B2940F06881297F3B2940F064814E
:103D300095F820103B2940F05F81F1780D2940F083
:103D40005B816420DFF8384B0A216A7D12FB00F2A8
:103D5000AB7D13FB0122EB7DD718E71905F12A0291
:103D600017806B7E13FB00F395F81AC01CFB013320
:103D700095F81BC06344E318538095F81DC01CFBE5
:103D800000FC95F81EE01EFB01CC95F81FE0F44402
:103D9000A444A2F804C096F800E01EFB00F096F8D8
:103DA00001E01EFB0100B17840182418D4801BB23A
:103DB00000EE103AB8EEC00AF2EE040A80EE200AD5
:103DC00088ED000A0FFA8CFC00EE90CAF8EEE00ACB
:103DD0009FEDC21A70EE810AB2EE041AC0EE810A9B
:103DE000C8ED010AD9F87C0000287FF47BAF9FED75
:103DF0003D1AC0EE810A80EE010AFFF7B5FD85ECA1
:103E0000020AFFF7EDFC89ED020A95ED010AFFF7C2
:103E1000E7FC89ED010A384680B2FFF7F8FC89ED2E
:103E2000000A204680B2FFF74EFD89ED030A99EDA6
:103E3000010AD9ED0B0A30EE600AFFF79EFCB0EEE6
:103E4000408A99ED020AD9ED0C0A30EE600AFFF7BC
:103E500094FCB4EE408AF1EE10FA45D599ED000AD3
:103E6000D9ED0A0A30EE600AFFF787FCB0EE408A0F
:103E700099ED020AD9ED0C0A30EE600AFFF77DFCDD
:103E8000B4EE408AF1EE10FA2ED5D8F81400C9F835
:103E90006C0099ED020AD9ED0C0A30EE600AFFF7CA
:103EA0006CFCD8ED050A80EE200A88ED060A99ED33
:103EB000010A98ED068AD9ED0B0A30EE600AFFF789
:103EC0005CFC80EE080A89ED1A0A99ED000AD9ED2A
:103ED0000A0A30EE600AFFF750FC80EE080A89ED0E
:103EE000190AFFE60000C84299ED020AD9ED0C0A52
:103EF00030EE600AFFF741FCB0EE408A99ED010A0E
:103F0000D9ED0B0A30EE600AFFF737FCB4EE408AB9
:103F1000F1EE10FA43D599ED000AD9ED0A0A30EE18
:103F2000600AFFF72AFCB0EE408A99ED010AD9ED4C
:103F30000B0A30EE600AFFF720FCB4EE408AF1EE87
:103F400010FA2CD5D8F81400C9F8680099ED010AC8
:103F5000D9ED0B0A30EE600AFFF70FFCD8ED050A29
:103F600080EE200A88ED060A99ED020A98ED068A8D
:103F7000D9ED0C0A30EE600AFFF7FFFB80EE080A6D
:103F800089ED1B0A99ED000AD9ED0A0A30EE600AA4
:103F9000FFF7F3FB80EE080A89ED190AA2E6D8F8CC
:103FA0001400C9F8640099ED000AD9ED0A0A30EE50
:103FB000600AFFF7E2FBD8ED050A80EE200A88EDE3
:103FC000060A99ED020A98ED068AD9ED0C0A30EE40
:103FD000600AFFF7D2FB80EE080A89ED1B0A99ED13
:103FE000010AD9ED0B0A30EE600AFFF7C6FB80EE3E
:103FF000080A89ED1A0A75E650287FF42BAE287E50
:104000003B287FF427AE287F3B287FF423AE95F82A
:1040100020000D287FF41EAE6421DFF864080A2218
:104020006B7D13FB01F3AC7D14FB0233EC7D1B199C
:10403000C31805F12A0423816F7E17FB01F795F859
:104040001AC01CFB027795F81BC06744C71967812B
:1040500095F81DC01CFB01F195F81EC01CFB021158
:10406000EA7F89184018A0811BB200EE103AB8EE22
:10407000C00ADFED980A30EE200AF2EE040AC0EE24
:10408000201A05F13804C4ED021A3FB200EE107A8E
:10409000B8EEC00A80EE200A84ED030A00B200EEFA
:1040A000900AF8EEE00A9FED0D1A70EE810AB2EE6A
:1040B000041AC0EE810AC4ED040A4F46F86F0028C6
:1040C0007FF410AE9FED841A80EE811ADFED820A34
:1040D000C0EE200A9FED800A02E000BF000048C247
:1040E00081EE800AFFF7CEFC05F1080080EC030AA0
:1040F00095ED040AFFF774FB87ED020A95ED030ABC
:10410000FFF76EFB87ED010A95ED028AB0EE480AD3
:10411000FFF78FFB87ED000AB0EE480AFFF7A3FB1D
:1041200087ED030ADFF89C0B606197ED010AD7ED7C
:104130000B0A30EE600AFFF720FBB0EE408A97EDE5
:10414000020AD7ED0C0A30EE600AFFF716FBB4EE58
:10415000408AF1EE10FA4DD597ED000AD7ED0A0A24
:1041600030EE600AFFF709FBB0EE408A97ED020AD5
:10417000D7ED0C0A30EE600AFFF7FFFAB4EE408A82
:10418000F1EE10FA36D56069F86697ED020AD7EDC0
:104190000C0A30EE600AFFF7F0FAD4ED050A80EE63
:1041A000200A84ED060A97ED010A94ED068AD7ED00
:1041B0000B0A30EE600AFFF7E0FA80EE080A87ED9E
:1041C0001A0A97ED000AD7ED0A0A30EE600AFFF7E7
:1041D000D4FA80EE080A87ED190A97ED030AD7EDA5
:1041E0000D0A30EE600AFFF7C8FA80EE080A87ED84
:1041F0001C0A77E597ED020AD7ED0C0A30EE600A4B
:10420000FFF7BBFAB0EE408A97ED010AD7ED0B0A33
:1042100030EE600AFFF7B1FAB4EE408AF1EE10FA20
:104220007FF52AAD97ED000AD7ED0A0A30EE600A55
:10423000FFF7A3FAB0EE408A97ED010AD7ED0B0A1B
:1042400030EE600AFFF799FAB4EE408AF1EE10FA08
:104250007FF512AD6069B86697ED010AD7ED0B0ADC
:1042600030EE600AFFF789FAD4ED050A80EE200AE5
:1042700084ED060A97ED020A94ED068AD7ED0C0A42
:1042800030EE600AFFF779FA80EE080A87ED1B0A24
:1042900097ED000AD7ED0A0A30EE600AFFF76DFAD3
:1042A00080EE080A87ED190A97ED030AD7ED0D0A8B
:1042B00030EE600AFFF761FA80EE080A87ED1C0A0B
:1042C00010E500000050004030380240345000201B
:1042D000400100A00000C8C20000C842000802401F
:1042E00000000240000C02400018024000001210C2
:1042F0000004024097D17E5AFB21094000806640AD
:104300009C000020000034400000044000001E40DB
:1043100000002C404552523A2025730D0000000049
:104320004F4B3A2025730D0080B50A2002F02BFB7D
:10433000FBE7000010B5DFF840456BE020696062E4
:104340001DE094ED040AD4ED0E0AB4EE600AF1EE1D
:1043500010FA14D594ED040AD4ED0E0A94ED1D1A4A
:1043600070EEC10AB4EE600AF1EE10FAE6D594EDF3
:104370000E0AD4ED1D0A30EE600A84ED090ADFF85A
:10438000EC089FEDCF0AD4ED050A60EE800A9FEDA0
:10439000CD1AC0EE810AFDEEE00AC0ED000AD4EDB0
:1043A000060A60EE800AC0EE810AFDEEE00AC0ED6A
:1043B000010ADFF8BC08D4ED070A60EE800AC0EEFF
:1043C000810AFDEEE00AC0ED000AD4ED080A60EEB5
:1043D000800AC0EE810AFDEEE00AC0ED020AD4EDCB
:1043E000090A20EE800ADFEDB70A80EE200ABDEE52
:1043F000C00ADFF8D40880ED000A6069A062A069F5
:10440000E062E0692063206A6063606AA0630A205A
:1044100002F0B9FAD4ED140A94ED0F0A2046FFF722
:1044200098F9D4ED150A94ED100A201DFFF791F9C3
:10443000D4ED160A94ED110A04F10800FFF789F98A
:10444000D4ED170A94ED120A04F10C00FFF781F97C
:10445000D4ED180A94ED130A04F11000FFF779F96E
:1044600094ED0A0AD4ED000AB4EE600AF1EE10FAF7
:1044700018D594ED0A0AD4ED190A30EE200AD4EDCD
:10448000000AB4EE600AF1EE10FA08D594ED0A0ABB
:10449000D4ED190A30EE200A84ED050A23E02068E5
:1044A000606120E094ED000AD4ED0A0AB4EE600ADF
:1044B000F1EE10FA17D594ED000AD4ED0A0A94ED46
:1044C000191A70EEC10AB4EE600AF1EE10FA08D5BE
:1044D00094ED0A0AD4ED190A30EE600A84ED050A5B
:1044E00001E02068606194ED0B0AD4ED010AB4EE9E
:1044F000600AF1EE10FA18D594ED0B0AD4ED1A0A01
:1045000030EE200AD4ED010AB4EE600AF1EE10FAA2
:1045100008D594ED0B0AD4ED1A0A30EE200A84ED8A
:10452000060A23E06068A06120E094ED010AD4ED62
:104530000B0AB4EE600AF1EE10FA17D594ED010AF9
:10454000D4ED0B0A94ED1A1A70EEC10AB4EE600AAB
:10455000F1EE10FA08D594ED0B0AD4ED1A0A30EEFC
:10456000600A84ED060A01E06068A06194ED0C0A1F
:10457000D4ED020AB4EE600AF1EE10FA18D594ED0B
:104580000C0AD4ED1B0A30EE200AD4ED020AB4EE78
:10459000600AF1EE10FA08D594ED0C0AD4ED1B0A6E
:1045A00030EE200A84ED070A23E0A068E06120E0F5
:1045B00094ED020AD4ED0C0AB4EE600AF1EE10FAA2
:1045C00017D594ED020AD4ED0C0A94ED1B1A70EE87
:1045D000C10AB4EE600AF1EE10FA08D594ED0C0AA7
:1045E000D4ED1B0A30EE600A84ED070A01E0A068F2
:1045F000E06194ED0D0AD4ED030AB4EE600AF1EE29
:1046000010FA18D594ED0D0AD4ED1C0A30EE200AEC
:10461000D4ED030AB4EE600AF1EE10FA08D594ED79
:104620000D0AD4ED1C0A30EE200A84ED080A23E0BE
:10463000E068206220E094ED030AD4ED0D0AB4EEA8
:10464000600AF1EE10FA17D594ED030AD4ED0D0AC5
:1046500094ED1C1A70EEC10AB4EE600AF1EE10FA85
:1046600008D594ED0D0AD4ED1C0A30EE600A84EDF5
:10467000080A01E0E068206294ED0E0AD4ED040A15
:10468000B4EE600AF1EE10FA7FF55BAE94ED0E0A1F
:10469000D4ED1D0A30EE200AD4ED040AB4EE600A0F
:1046A000F1EE10FA08D594ED0E0AD4ED1D0A30EEA5
:1046B000200A84ED090A62E6206960625FE6000074
:1046C0000060EA470000C8426666E63F3333EBBF4E
:1046D00000001EC0000022400000B03F0000144057
:1046E00038000020E85000207CB500254FF47A7493
:1046F000264609E0DFF87C05486081ED020A6D1C62
:104700004FF4FA7002F03FF95B49886F00EBD0720A
:104710005210A0EB420001280DD19FED550A05EB88
:10472000D5704010B5EB4000E4D14FF082404860B6
:1047300081ED020AE3E7C86F012840F081800C2078
:1047400095FBF0F000EB4002B5EB820008D1484841
:104750008860DFF87805C8604848486626466AE001
:10476000012804D1DFF810054860264663E00228DE
:1047700005D1DFF8080508604FF4FA665BE003280E
:1047800008D1DFF804050860DFF8F00448604FF452
:10479000FA6650E004283FD0052805D1DFF8E00490
:1047A000C86040F2DC5646E0062810D1DFF8CC04A1
:1047B0000860DFF8D00448602D4888609FED2F0A1C
:1047C00081ED1A0A81ED1B0A40F6C41633E0072872
:1047D0000AD1DFF8B00448604FF082408860274873
:1047E00088664FF4FA7626E0082806D1DFF89404AC
:1047F00048601F48886026461DE009280AD1DFF876
:1048000088040860DFF8740448601C4888664FF428
:10481000FA6610E00A2805D1DFF87004886040F2DB
:10482000DC5608E00B2806D114488866DFF89C04A3
:10483000C86047F230566D1C304602F0A4F863E7BA
:104840004FF4FA7002F09FF85EE7E0B5684601F0B9
:104850008AFDDFF87C04BDF802100160BDF8041089
:1048600041600A2002F08FF8F0E700006850002055
:104870009A99D94020010020A00000208FC2F53C69
:1048800030EBFFFF2DE9F8432DED088B88B00024B5
:104890009FED049ADFED039A9FED02AADFF8F05333
:1048A0002EE000BF0000000004F0CCFE02460B46E4
:1048B0000FF28041684605F07DFB10E0DFEDE60A6F
:1048C000B4EE600AF1EE10FAA86AEDDB04F0BAFE6D
:1048D00002460B460FF25441684605F06BFBED486B
:1048E00001F0BCF803236A464FF496710F2001F0E3
:1048F000EFF8E94801F0B2F84FF4FA7002F043F82B
:10490000012000F092FD002000F0E1FD01280ED111
:104910000A2C0CDDE148C16F81F00101C167C26F53
:104920003032D2B21921052001F0B9F80024642CEC
:1049300000DA641CD94E96ED0C0AFEF75DFF85ED9A
:10494000090A96ED0B0AFEF757FF85ED080AB06AD3
:1049500004F078FE4FF06632D14B05F0CFF805F049
:104960008BF800EE100AFEF79AFF85ED0A0A686AD6
:1049700004F068FE02460B460FF26431684605F00B
:1049800019FB03236A462D21052001F0A1F8286AAE
:1049900004F058FE02460B460FF25831684605F007
:1049A00009FB03236A463C21052001F091F8D5ED6F
:1049B000080A95ED090AFEF798FFB0EE408AF0EE7E
:1049C000608ADFEDB8AA28EE2A0A10EE100A04F079
:1049D00039FE02460B460FF23031684605F0EAFA1E
:1049E00003236A464B21052001F072F828EEAA0A3B
:1049F00010EE100A04F026FE02460B460FF21431A8
:104A0000684605F0D7FA03236A465A21052001F0CB
:104A10005FF895ED090AB4EE409AF1EE10FA0ED166
:104A200095ED080AF4EE409AF1EE10FA07D195EDF3
:104A30000A0AB4EE40AAF1EE10FA3FF45DAFE86A5C
:104A400000283FF459AF4FF07F4000F0F6FFB42349
:104A5000E6228721052001F0FCF9934E304600F054
:104A6000ECFF95ED099AD5ED089A95ED0AAA2D204F
:104A70002880FA2068803720A880FA20E88095ED09
:104A8000090AFEF784FE9FED898B05F0DFF910EE31
:104A9000100A04F0D7FD53EC182B04F0F7FD0022A8
:104AA000844B05F02BF805F015FBA88195ED090A5C
:104AB000FEF76DFE05F0CCF910EE100A04F0C2FD11
:104AC00053EC182B04F0E2FD02460B4600207A4915
:104AD00005F01EFB05F0FEFAE881B5F80C8008F140
:104AE0000A08A5F80880B5F90E706F81A5F8108046
:104AF0006F82A5F8148007F10A00E88295ED080A94
:104B0000FEF745FEB0EE408A9FED6CBB0FFA88F8C9
:104B1000404605F06FFB80468946B0EE480A05F036
:104B200095F910EE100A04F08DFD53EC1B2B04F0E8
:104B3000ADFD42464B4604F0E1FF05F0CBFAA883F9
:104B400095ED080AFEF723FEB0EE408A384605F0E0
:104B500051FB80468946B0EE480A05F079F910EE1F
:104B6000100A04F06FFD53EC1B2B04F08FFD42463E
:104B70004B4604F0C3FF05F0ADFAE883A88B288309
:104B8000E88B0A30688328231A46FA211E2001F098
:104B900060F90421284601F058FA042105F11000BB
:104BA00001F053FA0A231E22E88B0146A88B01F07C
:104BB00050F90A22FA21322001F077F90A22B5F9D8
:104BC0000E10491D89B2B5F90C00401D80B201F0EC
:104BD0006CF90A22B5F91E10491D89B2A88B01F0A3
:104BE00064F94FF07F4000F028FF0522FA213220BF
:104BF00001F05BF90522B5F90E10491D89B2B5F92E
:104C00000C00401D80B201F050F90522B5F91E10CC
:104C1000491D89B2A88B01F048F9304600F00DFF1C
:104C200095ED0A0ADFED2B0AB4EE600AF1EE10FAF8
:104C300095ED0A0A7FF542AEFFEE000A20EE200A4B
:104C400010EE100A04F0FEFC02460B460FF2D001F3
:104C5000684605F0AFF942E6CDCCCC3D00681E4970
:104C6000884201D105F0D8BA7047000034000040F6
:104C70003404004000002041000010410000F040DA
:104C80003333134133332B410000404000001441C3
:104C90006C0000209002002088020020A00000206C
:104CA0006666E6BF0000C84200A5FFFF00000000E6
:104CB000009052400080464000406F4000000000DD
:104CC00000A05440A69BC43C380800400000C040EF
:104CD000F0500020CCCCCCBD00100040FEE700001E
:104CE00056206A6F696E743A20252E3266206465FC
:104CF0006700000048206A6F696E743A20252E32E2
:104D00006620646567000000583A20252E31662031
:104D1000636D0000593A20252E316620636D000036
:104D2000202020252E3166202D3E00003C2D202500
:104D30002E316600202020252E31660080B50B48DC
:104D4000016841F400710160016841F48061016013
:104D5000016841F480710160032002F05CFA0020D8
:104D600005F062FA03F0ACFD002002BD003C0240F9
:104D700038B5040001D1012032BD04F1380568784E
:104D8000002804D100202870204600F0B1FA02204B
:104D90006870211D206800F05FF901206870002014
:104DA00032BD0168CA6842F00102CA600068016849
:104DB00041F0010101600020704738B5040001D1C5
:104DC000012032BD04F138056878002804D10020A4
:104DD0002870204603F03EFF02206870211D2068E5
:104DE00000F03AF901206870002032BD10B5044689
:104DF0000122206800F0D0F92068DFF830108842E6
:104E000003D0DFF82C10884201D1012100E00021FD
:104E1000002903D0416C41F40041416420680168DD
:104E200041F001010160002010BD000000000140C0
:104E30000004014010B5044620680169890717D5B0
:104E4000C168890714D56FF0020101610120207645
:104E50002068806910F0030F204602D005F024FA84
:104E600004E005F022FA204605F020FA0020207622
:104E700020680169490717D5C168490714D56FF043
:104E800004010161022020762068806910F4407FCF
:104E9000204602D005F008FA04E005F006FA2046A4
:104EA00005F004FA0020207620680169090717D56B
:104EB000C168090714D56FF008010161042020764C
:104EC0002068C06910F0030F204602D005F0ECF90D
:104ED00004E005F0EAF9204605F0E8F90020207624
:104EE00020680169C90617D5C168C90614D56FF0D5
:104EF00010010161082020762068C06910F4407F0D
:104F0000204602D005F0D0F904E005F0CEF92046A5
:104F100005F0CCF90020207620680169C90708D582
:104F2000C168C90705D56FF0010101612046FFF78F
:104F300095FE20680169090608D5C168090605D5EE
:104F40006FF080010161204605F0B1F92068016928
:104F5000490608D5C168490605D56FF040010161D1
:104F6000204605F0A5F92068016989060AD5C168BF
:104F7000890607D56FF0200101612046BDE8104089
:104F800005F097B910BD70B506460D4606F1380418
:104F90002078012801D1022070BD0120207002205C
:104FA0006070002A06D0042A17D0082A29D00C2ABB
:104FB0003AD04CE0306800F0FDF83068816941F08B
:104FC000080181613068816921F0040181613168E3
:104FD0008A69286902438A6139E0306800F0A9F8DB
:104FE0003068816941F4006181613068816921F430
:104FF00080618161306881692A6941EA02218161A9
:1050000025E0306800F004F93068C16941F008011A
:10501000C1613068C16921F00401C1613168CA69A8
:1050200028690243CA6112E0306800F022F9306852
:10503000C16941F40061C1613068C16921F48061D6
:10504000C1613068C1692A6941EA0221C161012058
:1050500060700020207070BD18B40468DFF86432FE
:10506000984212D0B0F1804F0FD0DFF85C2290420E
:105070000BD0DFF85822904207D0DFF8542290423C
:1050800003D0DFF85022904201D1012200E000223B
:10509000002A03D024F070044A68144398422AD0AE
:1050A000B0F1804F27D0DFF82022904223D0DFF8E4
:1050B0001C2290421FD0DFF8182290421BD0DFF84C
:1050C0001422904217D0DFF81022904213D0DFF85C
:1050D0000C2290420FD0DFF8082290420BD0DFF86C
:1050E0000422904207D0DFF80022904203D0DFF87C
:1050F000FC21904201D1012200E00022002A03D0CD
:1051000024F44074CA68144304608A68C2620A685E
:105110008262984202D06F4A904201D1012200E09F
:105120000022002A01D0096901630121416111BCFB
:10513000704770B4026A22F010020262036A446887
:10514000856925F4E6450A6845EA022523F020032F
:105150008A6843EA02135B4A904202D05D4A904259
:1051600001D1012200E00022002A0DD023F08003AB
:10517000CA6843EA021323F0400324F440644E69F2
:105180008A69164344EA86044460856149688163FC
:10519000036270BC7047000010B4036A01248C40A5
:1051A000A3430362036A02FA01F11943016210BCCE
:1051B0007047000030B4026A520852000262036A6B
:1051C0004468856925F073050A68154323F00203D6
:1051D0008A6813433B4A904202D03E4A904201D132
:1051E000012200E00022002A0BD023F00803CA6845
:1051F000134323F0040324F440744A6914438A6976
:1052000014434460856149684163036230BC704760
:1052100070B4026A22F480720262036A4468C5694B
:1052200025F073050A68154323F400738A6843EA7E
:105230000223244A904202D0264A904201D1012200
:1052400000E00022002A0DD023F40063CA6843EA7C
:10525000022323F4806324F440544E698A69164380
:1052600044EA06144460C5614968C163036270BCC6
:10527000704730B4026A22F480520262026A4368C4
:10528000C46924F4E6440D6844EA052422F400527B
:105290008D6842EA05320B4DA84202D00D4DA8425E
:1052A00001D1012500E00025002D04D023F4804326
:1052B0004D6943EA85134360C46149680164026231
:1052C00030BC70470000014000040040000800406E
:1052D000000C004000040140004001400044014037
:1052E0000048014000180040001C00400020004021
:1052F0007047F0B40246106895681318506803EBC5
:105300005004C00721D54D441FE0F0BC02F10C0051
:10531000704713F8017B05F8017B491EF9D1A0B154
:10532000B60813F8011B06F00306032E08BF13F896
:10533000016B01EB06214942801C294405D011F87C
:10534000016B05F8016B401EF9D1A342DDD013F8C3
:10535000016B16F0030104BF13F8011BC91C3009CF
:105360000F28DAD113F8010B0F30D6E710B5044639
:105370000422206800F032F82068416C41F40041BA
:1053800041642068016841F001010160002010BD06
:1053900030B400F138031A78012A01D102201BE051
:1053A00001221A7002225A700268546824F07004B4
:1053B0005460046865680A6815436560026894680B
:1053C00024F0800494600268946848680443946000
:1053D000012058700020187030BC704710B4036A68
:1053E00004248C40A3430362036A02FA01F11943C7
:1053F000016210BC7047B1F5807F02D34FF0FF30DF
:1054000070470170012070470078401E8041C04302
:10541000C00F704701220FF2505131F81010DFF821
:105420000C3553F8200004F0D8B80FF23C5131F895
:105430001010DFF8F82452F8200004F0D7B838B57F
:1054400086B004460D4620000CD100200090DFF805
:10545000D804016841F001010160006800F001001A
:1054600000900098280010D10FF2005030F814007E
:1054700001900020029002200390049001A9DFF81F
:10548000B00450F8240003F01DFF012D1DD10FF2D0
:10549000DC4030F81400019000200390DFF8940401
:1054A000029001A9DFF8880450F8240003F00AFFF5
:1054B0000FF2BC40045D00220F21204640B201F0F3
:1054C000ABFE204640B201F0B6FE07B030BD0FF291
:1054D0009C4131F81010DFF8582452F8200004F0F5
:1054E00074B80068DFF85014884200D0704710B5D7
:1054F00086B000200090DFF84444206940F00400AA
:105500002061206900F004000090009800200090C5
:10551000206940F001002061206900F00100009046
:1055200000984FF4807001901220029000200390A8
:10553000022004900420059001A9DFF8040403F080
:10554000C1FE4FF40070019001A9DFF8F80303F0E9
:10555000B9FE00200090206A40F400002062206A1A
:1055600000F4000000900098206840F400002060E3
:10557000206820F40000206000220F21482001F064
:105580004BFE482001F057FE00220F21492001F078
:1055900043FE492001F04FFE06B010BD10B5DFF804
:1055A000A843204602F0A2FA002818D1DFF88803A9
:1055B0002060DFF8980360600020A060E0604FF496
:1055C0008040206100206061A061E061206220468F
:1055D000FFF787FF2046BDE8104001F0D7BF10BDA0
:1055E00080B586B000200090DFF83C03016841F0F0
:1055F00001010160006800F00100009000984FF484
:10560000004001900120039000200490DFF8400347
:10561000029001A9DFF8280303F054FE00220F21B5
:10562000282001F0F9FD282001F005FE07B000BD9B
:1056300014B583B00A46DFF81043616D0291012171
:10564000019103A9009101230146204602F036F89A
:10565000002801D000F030F81FBD1FB50A46002118
:105660008DF80C10DFF8E042616D0291012101918B
:1056700003A9009101230146204602F0CFF800283B
:1056800001D000F019F89DF80C0004B010BD3EB533
:10569000DFF8B442656D02950193009201230A463A
:1056A0000146204602F0BAF8002801D100203EBD94
:1056B00000F002F801203EBD80B5DFF88C0201F059
:1056C000E0FFBDE8014069E710B5DFF888422046F9
:1056D00003F094F800281ED1DFF87C022060182027
:1056E000E0610020A06060612061A0620720E062AC
:1056F0000020E06020624FF40070A0610020606232
:105700004FF482706060204600F026F82046BDE825
:10571000104002F0AFBD10BD80B502468D48836DCC
:10572000694602F0D6FE002801D000F00EF800987D
:1057300002BD01B58748836D0122694602F0EFFD85
:10574000002801D000F001F801BD80B5814802F0C9
:10575000D1FDBDE80140B7E780B586B000200090DC
:105760007148416941F480114161416901F480113E
:105770000091009900210091016841F02001016031
:10578000006800F02000009000984FF460700190D5
:10579000022002900390012004900520059001A9A9
:1057A0006E4803F08FFD07B000BD6D4908780028F2
:1057B00000D0704738B586B00120087000200090F6
:1057C000594C206840F008002060206800F0080074
:1057D000009000984FF400500190012002900020AA
:1057E0000390022004905F4D01A9284603F06AFD52
:1057F00000200090206840F008002060206800F041
:105800000800009000984FF4805001900120029011
:10581000002003900220049001A9284603F052FDC5
:1058200000200090206840F004002060206800F014
:1058300004000090009804200190012002900020B4
:105840000390022004903F4C01A9204603F03AFD4A
:1058500000220421204603F0C0FE0122042120463C
:1058600003F0BBFEFFF730FF07B030BD38B504468C
:1058700001224FF400513B4803F0AFFE314D0022AE
:105880000421284603F0A9FE2046FFF752FF01221B
:1058900004212846BDE8384003F09FBE38B50446D1
:1058A00000224FF400512F4803F097FE254D0022AF
:1058B0000421284603F091FE2046FFF73AFF01221B
:1058C00004212846BDE8384003F087BEF8B50446F9
:1058D0000D461C4E00220421304603F07EFE214F6F
:1058E00000224FF40051384603F077FE2046FFF7C0
:1058F00020FF2846FFF710FF044601224FF4005115
:10590000384603F06AFE01220421304603F065FEAA
:105910002046F2BD04F0CEBC40E661E688E69CE697
:10592000B5E604F0C7BC000030380240A0010020FA
:10593000A801002000001110005C00402038024047
:105940000000024000080240AC010020A0860100D7
:105950000000211004020020005001400014024009
:105960000E510020000C0240002000400100000009
:1059700006000268531C03601170704710B5DFF811
:105980007448DFF87408E0610068804740F26A50AC
:1059900004F0A4FC04F1200000F060F8002010BD29
:1059A000DFF85008C069806A0047DFF84808C0691E
:1059B000C06A004730B58DB004460D460020009007
:1059C000FFF7EEFF019000200290FFF7EEFF03903B
:1059D000002004900995FF20059000200690ADF866
:1059E00030000CA8002181704FF4C06007900720A0
:1059F0000890FFF7D5FF0A90FFF7D7FF0B90DFF86D
:105A0000FC5722466946284602F023FBDFF8E407EC
:105A100004EB440100EB81014FF0FF324A6020307B
:105A200088604FF07F400860284602F034FB0DB0DC
:105A300030BDDFF8C01788617047DFF8E8188A6961
:105A400002EB42039A0088507047DFF8D8188A6941
:105A500002EB420301EB830148607047DFF89417C3
:105A60008A6902EB420301EB8301886070473EB50F
:105A70000446FFF79AFF0546FFF792FF0246DFF85C
:105A8000740780690194002100912B46DFF86C17A0
:105A9000342444432144C96D00F017FC37BD30B4B1
:105AA000DFF850379C6904EB440503EB85039B68E2
:105AB0009C88E41D1D68203ADB885A4323469B10CE
:105AC00004EB5374E41062432A4430BC00F098BBEA
:105AD0002DE9F84F82460E46154699460024A34606
