:020000040800F2
:1000000010140220E111020823120208271202082C
:100010002B1202082F1202083312020800000000FF
:10002000000000000000000000000000653F010823
:1000300037120208000000000D3F0108F90E020807
:100040003B1202083F12020843120208471202083C
:100050004B1202084F120208250F02085312020821
:10006000571202085B1202085F12020863120208AC
:10007000671202086B1202086F120208731202085C
:10008000771202087B1202087F120208831202080C
:10009000871202088B1202088F12020893120208BC
:1000A000971202089B1202089F120208A31202086C
:1000B000A7120208AB120208AF120208B31202081C
:1000C000B7120208BB120208BF120208C3120208CC
:1000D000C7120208CB120208CF120208D31202087C
:1000E000D7120208DB120208DF120208E31202082C
:1000F000E7120208EB120208EF120208F3120208DC
:10010000F7120208FB120208FF120208031302088A
:10011000071302080B130208FD0E02080F13020852
:1001200013130208171302081B1302081F130208F7
:10013000030F020823130208271302082B130208D7
:100140002F13020833130208371302083B13020867
:100150003F13020843130208471302084B13020817
:100160004F13020853130208571302085B130208C7
:100170005F130208090F0208631302080000000061
:10018000671302086B1302086F1302087313020847
:10019000771302087B1302087F13020883130208F7
:1001A000871302088B1302080F0F020800000000DB
:1001B000000000000000000000000000000000003F
:1001C000000000000000000000000000000000002F
:1001D000000000000000000000000000000000001F
:1001E000000000000000000000000000000000000F
:1001F00000000000000000000000038000038000F9
:10020000038000038000038000038000038000035C
:1002100080000380000100000100000000000000D9
:1002200000038000038000000000000000000000C8
:1002300000000000000000000000000000000000BE
:1002400000000000000E70000E70000E7000042010
:100250000004200004200004200000000000000032
:10026000000000000000000000000000000000008E
:10027000000000000000000000000000000000007E
:1002800000000000000000000000066000066000A2
:100290000660000660000660003FF8003FF80006B8
:1002A00060000CC0003FF8003FF8000CC0000CC01C
:1002B000000CC0000CC0000CC000000000000000DA
:1002C000000000000000000000000000000000012D
:1002D000800001800007B0000FF000187000187057
:1002E000001C00000F800007E00000F00018300044
:1002F0001C30001C70001FE0001BC00001800001CA
:10030000800001800001800000000000000000006B
:10031000000000000000000000000780000FC00087
:100320001CE0001860001860001CE0000FF80007D7
:10033000E0001FF000073800061800061800073814
:100340000003F00001E000000000000000000000D9
:10035000000000000000000000000000000000009D
:10036000000000000000000003F00007F0000C6037
:10037000000C00000C00000600000700000F9C00AD
:100380001DFC0018F0001870000FFC0007DC0000D6
:10039000000000000000000000000000000000005D
:1003A00000000000000000000000000000038000CA
:1003B0000380000380000100000100000100000133
:1003C000000000000000000000000000000000002D
:1003D000000000000000000000000000000000001D
:1003E000000000000000000000000000000000000D
:1003F000000000180000380000700000F00000E06D
:100400000000E00001C00001C00001C00001C00008
:1004100001C00001C00000E00000E000007000002A
:10042000700000380000180000000000000000000C
:10043000000000000000000000001800001C000088
:100440000E00000E000007000007000003800003FC
:100450008000038000038000038000038000070009
:10046000000700000F00000E00001C000018000034
:10047000000000000000000000000000000000007C
:1004800000000180000180000180001DB8001FF8FD
:100490000007E00003C00003C00006600006600023
:1004A000000000000000000000000000000000004C
:1004B000000000000000000000000000000000003C
:1004C000000000000000000000000000000000002C
:1004D0000180000180000180000180000180003F58
:1004E000FC003FFC000180000180000180000180D1
:1004F000000180000000000000000000000000007B
:1005000000000000000000000000000000000000EB
:1005100000000000000000000000000000000000DB
:1005200000000000000000000000000000000000CB
:1005300000000000000000E00000C00001C0000159
:1005400080000180000300000300000000000000A4
:10055000000000000000000000000000000000009B
:100560000000000000000000000000000000001F6C
:10057000F8001FF80000000000000000000000006C
:10058000000000000000000000000000000000006B
:10059000000000000000000000000000000000005B
:1005A000000000000000000000000000000000004B
:1005B000000000000000000000000000000000003B
:1005C00000000000000003C00003C00003C00000E2
:1005D000000000000000000000000000000000001B
:1005E0000000000000180000180000380000300073
:1005F00000700000600000600000C00000C000014A
:1006000080000180000300000300000600000600D7
:10061000000E00000C00001C000018000018000074
:1006200000000000000000000000000000000000CA
:10063000000003C00007E0000C30000C3000181868
:1006400000181800181800181800181800181800BA
:100650001818000C30000C300007E00003C0000048
:10066000000000000000000000000000000000008A
:100670000000000000000000000000800007800073
:100680001F80001D800001800001800001800001AA
:100690008000018000018000018000018000018055
:1006A000001FF8001FF8000000000000000000001C
:1006B000000000000000000000000000000000003A
:1006C000000007C0001FF00038300030180030185C
:1006D0000000180000300000600001C0000380002E
:1006E0000600000C00001800003FF8003FF8000072
:1006F00000000000000000000000000000000000FA
:100700000000000000000000000003C0000FE00037
:100710000C700000300000300000600003C00003D7
:10072000E0000070000018000018000018001838E1
:10073000001FF0000FC000000000000000000000DB
:1007400000000000000000000000000000000000A9
:10075000000000E00001E00001E00003600006602E
:10076000000660000C60000C600018600030600043
:100770003FF8003FF80000600003F80003F80000B5
:100780000000000000000000000000000000000069
:10079000000000000000000000001FF0001FF0003B
:1007A0001800001800001800001BC0001FF0001CFB
:1007B0003000001800001800001800001800303049
:1007C000003FF0000FC0000000000000000000002B
:1007D0000000000000000000000000000000000019
:1007E000000000F80003F8000700000E00000C00F5
:1007F000001800001BC0001FF0001C30001818007B
:100800001818001818000C38000FF00003E0000062
:1008100000000000000000000000000000000000D8
:10082000000000000000000000001FF8001FF8009A
:100830001818001838000030000030000070000068
:10084000600000600000E00000C00000C00001C0C7
:100850000001800001800000000000000000000096
:100860000000000000000000000000000000000088
:10087000000007E0000FF0001C38001818001818DE
:10088000000C300007E00007E0000C3000181800F2
:100890001818001818001C38000FF00007E00000BE
:1008A0000000000000000000000000000000000048
:1008B0000000000000000000000007C0000FF00072
:1008C0001C30001818001818001818000C38000FF9
:1008D000F80003D80000180000300000700000E0AD
:1008E000001FC0001F00000000000000000000000A
:1008F00000000000000000000000000000000000F8
:10090000000000000000000000000000000003C024
:100910000003C00003C00000000000000000000051
:1009200000000000000003C00003C00003C000007E
:1009300000000000000000000000000000000000B7
:1009400000000000000000000000000000000000A7
:1009500000000000000000F00000F00000F00000C7
:10096000000000000000000000000000E00001C0E6
:100970000001800001800003000002000000000070
:100980000000000000000000000000000000000067
:100990000000000000000000001C00003C0000F00F
:1009A0000003C0000F00003C0000F000003C00000D
:1009B0000F000003C00000F000003C00001C00001D
:1009C0000000000000000000000000000000000027
:1009D0000000000000000000000000000000000017
:1009E0000000000000000000007FFC007FFC000011
:1009F00000000000007FFC007FFC00000000000001
:100A000000000000000000000000000000000000E6
:100A100000000000000000000000000000000000D6
:100A200000000000000000007000007800001E00C0
:100A30000007800001E000007800001E0000780040
:100A400001E0000780001E00007800007000000038
:100A50000000000000000000000000000000000096
:100A60000000000000000000000000000007C000BF
:100A70000FE00018700018300018300000700000FF
:100A8000E00003C00003800003000000000000003D
:100A90000007000007000000000000000000000048
:100AA0000000000000000000000000000000000046
:100AB000000003E00007F0000E38000C1800187862
:100AC0000018F80019D80019980019980019980012
:100AD00018F8001878001800000C00000E18000725
:100AE000F80003E00000000000000000000000002B
:100AF000000000000000000000000000001F800057
:100B00001FC00001C0000360000360000630000643
:100B100030000C30000FF8001FF800180C00300CEB
:100B200000FC7F00FC7F00000000000000000000CF
:100B300000000000000000000000000000000000B5
:100B400000000000007FE0007FF000183800181857
:100B5000001818001838001FF0001FF800181C00BB
:100B6000180C00180C00180C007FF8007FF0000033
:100B70000000000000000000000000000000000075
:100B80000000000000000000000000000003EC0076
:100B90000FFC001C1C00180C00300C003000003052
:100BA0000000300000300000300000180C001C1C59
:100BB000000FF80003F0000000000000000000003B
:100BC0000000000000000000000000000000000025
:100BD00000000000007FC0007FF0001838001818E7
:100BE00000180C00180C00180C00180C00180C0051
:100BF000180C001818001838007FF0007FE0000083
:100C000000000000000000000000000000000000E4
:100C1000000000000000000000000000007FF8005D
:100C20007FF8001818001818001998001980001F84
:100C300080001F80001980001998001818001818EB
:100C4000007FF8007FF800000000000000000000B6
:100C50000000000000000000000000000000000094
:100C600000000000003FFC003FFC000C0C000C0CDE
:100C7000000CCC000CC0000FC0000FC0000CC00066
:100C80000CC0000C00000C00003FC0003FC0000082
:100C90000000000000000000000000000000000054
:100CA0000000000000000000000000000003EC0055
:100CB0000FFC001C1C00180C00300C003000003031
:100CC000000030FE0030FE00300C00380C001C1C10
:100CD000000FFC0003F00000000000000000000016
:100CE0000000000000000000000000000000000004
:100CF00000000000007E7E007E7E0018180018189C
:100D0000001818001818001FF8001FF80018180025
:100D10001818001818001818007E7E007E7E00004B
:100D200000000000000000000000000000000000C3
:100D3000000000000000000000000000001FF8009C
:100D40001FF8000180000180000180000180000187
:100D5000800001800001800001800001800001808E
:100D6000001FF8001FF80000000000000000000055
:100D70000000000000000000000000000000000073
:100D8000000000000007FE0007FE000030000030F9
:100D90000000300000300000300030300030300003
:100DA0003030003030003060003FE0000F80000045
:100DB0000000000000000000000000000000000033
:100DC000000000000000000000000000007F3E0066
:100DD0007F3E0018300018600018C0001980001B0A
:100DE00080001FC0001CE000187000183000183888
:100DF000007F1F007F1F00000000000000000000B7
:100E000000000000000000000000000000000000E2
:100E100000000000007F80007F80000C00000C00BC
:100E2000000C00000C00000C00000C00000C0C007A
:100E30000C0C000C0C000C0C007FFC007FFC000074
:100E400000000000000000000000000000000000A2
:100E500000000000000000000000000000F00F0093
:100E6000F81F00381C003C3C003C3C00366C00364F
:100E70006C0033CC0033CC00318C00300C00300CD3
:100E800000FE7F00FE7F0000000000000000000068
:100E90000000000000000000000000000000000052
:100EA000000000000078FE0078FE001C18001E18EC
:100EB000001F18001B18001B980019D80018D80034
:100EC00018F8001878001838007F18007F18000004
:100ED0000000000000000000000000000000000012
:100EE0000000000000000000000000000003C0003F
:100EF0000FF0001C3800181800381C00300C0030AF
:100F00000C00300C00300C00381C001818001C3885
:100F1000000FF00003C0000000000000000000000F
:100F200000000000000000000000000000000000C1
:100F300000000000003FF0003FF8000C1C000C0C0B
:100F4000000C0C000C0C000C18000FF8000FE00057
:100F50000C00000C00000C00003FC0003FC000006F
:100F60000000000000000000000000000000000081
:100F70000000000000000000000000000003C000AE
:100F80000FF0001C3800181800381C00300C00301E
:100F90000C00300C00300C00381C001818001C38F5
:100FA000000FF00007C00007CC000FFC000C380059
:100FB0000000000000000000000000000000000031
:100FC00000000000007FE0007FF0001838001818D3
:100FD000001818001838001FF0001FC00018E000AB
:100FE0001870001830001838007F1E007F0E0000B7
:100FF00000000000000000000000000000000000F1
:101000000000000000000000000000000007D80001
:101010000FF8001C38001818001818001E00000FE8
:10102000C00003F0000078001818001818001C38E1
:10103000001FF0001BE000000000000000000000A6
:1010400000000000000000000000000000000000A0
:1010500000000000003FFC003FFC00318C00318CA0
:1010600000318C00318C0001800001800001800083
:101070000180000180000180000FF0000FF00000EF
:101080000000000000000000000000000000000060
:10109000000000000000000000000000007E7E0054
:1010A0007E7E00181800181800181800181800186C
:1010B00018001818001818001818001818000C301C
:1010C000000FF00003C0000000000000000000005E
:1010D0000000000000000000000000000000000010
:1010E00000000000007F7F007F7F00180C000C18BC
:1010F000000C18000C1800063000063000036000D9
:1011000003600003600001C00001C0000080000017
:1011100000000000000000000000000000000000CF
:1011200000000000000000000000000000FE3F8002
:10113000FE3F8030060030060030860019CC0019D2
:10114000CC001B6C001B6C001E7C000E38000E389F
:10115000000C18000C180000000000000000000047
:10116000000000000000000000000000000000007F
:1011700000000000007E7E007E7E001818000C300B
:101180000006600003C00001800001800003C00071
:101190000660000C30001818007E7E007E7E000085
:1011A000000000000000000000000000000000003F
:1011B000000000000000000000000000007C7E0035
:1011C0007C7E001818000C300006600006600003EA
:1011D000C0000180000180000180000180000180CA
:1011E000000FF0000FF00000000000000000000001
:1011F00000000000000000000000000000000000EF
:1012000000000000001FF8001FF800181800183038
:101210000018600018C000018000030000061800DC
:101220000C18001818003018003FF8003FF80000B4
:1012300000000000000000000000000000000000AE
:101240000000000000000000000001F00001F000BC
:101250000180000180000180000180000180000108
:101260008000018000018000018000018000018079
:101270000001800001800001800001F00001F00009
:10128000000000000000000000000000180000182E
:1012900000001C00000C00000E000006000006000C
:1012A0000003000003000001800001800000C00076
:1012B00000C000006000006000007000003000000E
:1012C00038000018000018000000000000000000B6
:1012D000000000000000000000000F80000F8000F0
:1012E0000180000180000180000180000180000178
:1012F00080000180000180000180000180000180E9
:10130000000180000180000180000F80000F80003C
:1013100000000000000000000000000000000000CD
:10132000800001C00003E0000770000630000C18C8
:1013300000180C0010040000000000000000000075
:10134000000000000000000000000000000000009D
:10135000000000000000000000000000000000008D
:10136000000000000000000000000000000000007D
:10137000000000000000000000000000000000006D
:10138000000000000000000000000000000000005D
:10139000000000000000000000000000000000004D
:1013A000000000000000FFFF00FFFF00000000033E
:1013B000000003800000E00000600000000000006A
:1013C000000000000000000000000000000000001D
:1013D000000000000000000000000000000000000D
:1013E00000000000000000000000000000000000FD
:1013F00000000000000000000000000000000000ED
:101400000000000000000FC0001FE00000300000DE
:10141000300007F0001FF00038300030300030702E
:10142000001FFC000FBC00000000000000000000D6
:1014300000000000000000000000000000000000AC
:1014400000007800007800001800001800001BE081
:10145000001FF8001C1800180C00180C00180C00D5
:10146000180C00180C001C18007FF8007BE000002E
:10147000000000000000000000000000000000006C
:10148000000000000000000000000000000000005C
:1014900000000000000003EC000FFC001C1C0038E2
:1014A0000C00300C00300000300000380C001C1C18
:1014B000000FF80003F00000000000000000000032
:1014C000000000000000000000000000000000001C
:1014D000000000780000780000180000180007D80D
:1014E000001FF800183800301800301800301800BD
:1014F0003018003018001838001FFE0007DE00000A
:1015000000000000000000000000000000000000DB
:1015100000000000000000000000000000000000CB
:1015200000000000000007E0001FF800181800305D
:101530000C003FFC003FFC00300000300000180CA5
:10154000001FFC0007F00000000000000000000089
:10155000000000000000000000000000000000008B
:10156000000001FC0003FC000600000600003FF83C
:10157000003FF8000600000600000600000600001C
:101580000600000600000600003FF0003FF00000EB
:10159000000000000000000000000000000000004B
:1015A000000000000000000000000000000000003B
:1015B00000000000000007DE001FFE0018380030A9
:1015C0001800301800301800301800301800183893
:1015D000001FF80007D800001800001800003800AD
:1015E0000FF0000FC000000000000000000000002D
:1015F00000007800007800001800001800001BE0D0
:10160000001FF0001C3800181800181800181800E7
:101610001818001818001818007E7E007E7E000042
:1016200000000000000000000000000000000000BA
:1016300000000000000000000000018000018000A8
:101640000000000000001F80001F800001800001DA
:101650008000018000018000018000018000018085
:10166000003FFC003FFC0000000000000000000004
:10167000000000000000000000000000000000006A
:10168000000000C00000C0000000000000001FF0CB
:10169000001FF0000030000030000030000030007B
:1016A000003000003000003000003000003000004A
:1016B00030000030000070001FE0001F80000000BC
:1016C000000000000000000000003C00003C0000A2
:1016D0000C00000C00000CF8000CF8000CC0000D11
:1016E00080000F80000F00000F80000DC0000CE094
:1016F000003C7C003C7C000000000000000000007A
:1017000000000000000000000000000000000000D9
:1017100000001F80001F8000018000018000018008
:101720000001800001800001800001800001800034
:101730000180000180000180003FFC003FFC0000B0
:101740000000000000000000000000000000000099
:101750000000000000000000000000000000000089
:10176000000000000000F77800FFFC0039CC0031D9
:101770008C00318C00318C00318C00318C00318C2C
:1017800000FDEF00FDEF0000000000000000000081
:101790000000000000000000000000000000000049
:1017A00000000000000000000000000000007BE0DE
:1017B000007FF0001C3800181800181800181800D6
:1017C0001818001818001818007E7E007E7E000091
:1017D0000000000000000000000000000000000009
:1017E00000000000000000000000000000000000F9
:1017F00000000000000003C0000FF0001C3800389B
:101800001C00300C00300C00300C00381C001C3860
:10181000000FF00003C00000000000000000000006
:1018200000000000000000000000000000000000B8
:1018300000000000000000000000000000007BE04D
:10184000007FF8001C1800180C00180C00180C0081
:10185000180C00180C001C18001FF8001BE00018E2
:1018600000001800001800007F00007F000000004A
:101870000000000000000000000000000000000068
:1018800000000000000007DE001FFE0018380030D6
:1018900018003018003018003018003018001838C0
:1018A000001FF80007D800001800001800001800FA
:1018B00000FE0000FE00000000000000000000002C
:1018C00000000000000000000000000000003E7862
:1018D000003EFC0007CC00070000060000060000E8
:1018E0000600000600000600003FF0003FF0000088
:1018F00000000000000000000000000000000000E8
:1019000000000000000000000000000000000000D7
:1019100000000000000007F8000FF8001818001879
:1019200018001F80000FF00000F800181800183889
:10193000001FF0001FE00000000000000000000099
:101940000000000000000000000000000000000097
:1019500000000C00000C00000C00000C00003FF028
:10196000003FF0000C00000C00000C00000C000018
:101970000C00000C00000C1C0007FC0003F0000031
:101980000000000000000000000000000000000057
:101990000000000000000000000000000000000047
:1019A000000000000000787800787800181800180F
:1019B00018001818001818001818001818001838FF
:1019C000000FFE0007DE0000000000000000000025
:1019D0000000000000000000000000000000000007
:1019E00000000000000000000000000000007C3E3D
:1019F000007C3E001818001818000C30000C300055
:101A000006600006600007E00003C00003C000009D
:101A100000000000000000000000000000000000C6
:101A200000000000000000000000000000000000B6
:101A3000000000000000783C00783C0031180033C2
:101A400098003398001AB0001EF0001EF0001C60D1
:101A5000000C60000C6000000000000000000000AE
:101A60000000000000000000000000000000000076
:101A700000000000000000000000000000003E7CAC
:101A8000003E7C000C300006600003C000018000B6
:101A900003C0000660000C30003E7C003E7C00006D
:101AA0000000000000000000000000000000000036
:101AB0000000000000000000000000000000000026
:101AC0000000000000007E1F007E1F00180C000CAC
:101AD00018000C180006300006300003600003E018
:101AE0000001C00000C00001800001800003000070
:101AF0003FC0003FC00000000000000000000000E8
:101B000000000000000000000000000000001FF8BE
:101B1000001FF80018300018600000C000018000AD
:101B20000300000618000C18001FF8001FF8000042
:101B300000000000000000000000000000000000A5
:101B40000000000000000000000000E00001E000D4
:101B500001800001800001800001800001800001FF
:101B600080000380000700000380000180000180E6
:101B70000001800001800001800001E00000E00021
:101B80000000000000000000000000000000000055
:101B900000000180000180000180000180000180C0
:101BA00000018000018000018000018000018000B0
:101BB000018000018000018000018000018000019F
:101BC0008000018000018000000000000000000093
:101BD0000000000000000000000007000007800077
:101BE000018000018000018000018000018000016F
:101BF000800001C00000E00001C000018000018001
:101C000000018000018000018000078000070000C3
:101C100000000000000000000000000000000000C4
:101C200000000000000000000000000000000000B4
:101C3000000000000E00001F18003BB80031F0004B
:101C400000E00000000000000000000000000000B4
:101C50000000000000000000000000000000000084
:101C60000000000000000000000000000000000074
:101C70000000000000000000000000000000000064
:101C80000000000000000C000C000C000C000C0018
:101C90000C000C000C0000000C0000000000000014
:101CA00000000000000000001DC01DC0088008806A
:101CB000088000000000000000000000000000009C
:101CC0000000000000000D800D800D800D803FC0E1
:101CD0001B003FC01B001B001B001B00000000007E
:101CE0000000000004001F803180318038001E0099
:101CF0000F000380318031803F00040004000000A9
:101D000000000000000018002400240018C0078014
:101D10001E003180024002400180000000000000EF
:101D200000000000000000000F001800180018005C
:101D30000C001D80370033001D80000000000000F3
:101D40000000000000000000070007000200020081
:101D50000200000000000000000000000000000081
:101D60000000000000000300030006000E000C004D
:101D70000C000C000C000E00060003000300000025
:101D8000000000000000180018000C00060006000B
:101D900006000600060006000C001C0018000000EB
:101DA000000000000000060006003FC03FC00F001A
:101DB0001F801980000000000000000000000000EB
:101DC0000000000000000000000004000400040007
:101DD0003F80040004000400000000000000000038
:101DE00000000000000000000000000000000000F3
:101DF000000000000000060004000C0008000800BD
:101E000000000000000000000000000000000000D2
:101E10003F80000000000000000000000000000003
:101E200000000000000000000000000000000000B2
:101E30000000000000000C000C000000000000008A
:101E40000000000000C000C001800180030003000A
:101E500006000C000C0018001800300030000000D4
:101E60000000000000000E001B0031803180318036
:101E70003180318031801B000E0000000000000026
:101E800000000000000006003E00060006000600FC
:101E900006000600060006003FC00000000000002B
:101EA0000000000000000F00198031803180030025
:101EB00006000C00180030003F8000000000000009
:101EC0000000000000003F006180018003001F004F
:101ED00003800180018061803F000000000000005D
:101EE000000000000000070007000F000B001B00AF
:101EF000130033003F8003000F800000000000004B
:101F00000000000000001F801800180018001F00CB
:101F100011800180018021801F000000000000006E
:101F200000000000000007801C001800300037008F
:101F300039803180318019800F00000000000000DE
:101F40000000000000007F004300030006000600C0
:101F5000060006000C000C000C0000000000000051
:101F60000000000000001F003180318031801F0020
:101F700031803180318031801F000000000000007E
:101F80000000000000001E003300318031803380EB
:101F90001D800180030007003C00000000000000DD
:101FA0000000000000000000000000000C000C0019
:101FB0000000000000000C000C0000000000000009
:101FC000000000000000000000000000030003000B
:101FD00000000000000006000400080008000000E7
:101FE000000000000000000000C003000400180012
:101FF000600018000400030000C0000000000000A2
:1020000000000000000000000000000000007FC091
:1020100000007FC000000000000000000000000081
:102020000000000000000000600018000400030031
:1020300000C0030004001800600000000000000061
:1020400000000000000000001F003180318001808E
:1020500007000C000C0000000C0000000000000055
:102060000000000000000E001100210021002700E8
:10207000290029002700200011000E0000000000A8
:1020800000000000000000003F000F000900198060
:1020900019801F8030C030C079E0000000000000CF
:1020A00000000000000000007F003180318031809E
:1020B0003F003180318031807F000000000000004F
:1020C00000000000000000001F4030C060406000C1
:1020D00060006000604030801F00000000000000D1
:1020E00000000000000000007F00318030C030C0E0
:1020F00030C030C030C031807F00000000000000E0
:1021000000000000000000007F803080308032003E
:102110003E003200308030807F80000000000000F0
:1021200000000000000000007FC03040304032005E
:102130003E003200300030007C0000000000000053
:1021400000000000000000001E8031806080600000
:10215000600067C0618031801F0000000000000047
:1021600000000000000000007BC031803180318021
:102170003F803180318031807BC000000000000052
:1021800000000000000000003FC00600060006003E
:1021900006000600060006003FC000000000000028
:1021A00000000000000000001FC003000300030047
:1021B00003006300630063003E00000000000000B5
:1021C00000000000000000007BC0318033003600BA
:1021D0003C003E003300318079C000000000000068
:1021E00000000000000000007E0018001800180029
:1021F00018001840184018407FC000000000000080
:102200000000000000000000E0E060C071C07BC082
:102210006AC06EC064C060C0FBE000000000000047
:10222000000000000000000073C0318039803D8054
:1022300035803780338031807980000000000000D5
:1022400000000000000000001F00318060C060C07E
:1022500060C060C060C031801F000000000000004E
:1022600000000000000000007F00318031803180DC
:1022700031803F00300030007E0000000000000090
:1022800000000000000000001F00318060C060C03E
:1022900060C060C060C031801F000CC01F800000A3
:1022A00000000000000000007F003180318031809C
:1022B0003E003300318031807CE0000000000000EF
:1022C00000000000000000001F80318031803800D5
:1022D0001F000380318031803F00000000000000BB
:1022E00000000000000000007F804C804C804C808B
:1022F0000C000C000C000C003F000000000000006F
:1023000000000000000000007BC03180318031807F
:1023100031803180318031801F00000000000000DA
:1023200000000000000000007BC0318031801B00F5
:102330001B001B000A000E000E0000000000000041
:102340000000000000000000FBE060C064C06EC040
:102350006EC02A803B803B8031800000000000007E
:1023600000000000000000007BC031801B000E0058
:102370000E000E001B0031807BC00000000000003A
:10238000000000000000000079E030C019800F005C
:1023900006000600060006001F8000000000000086
:1023A00000000000000000003F80218023000600A4
:1023B00004000C00188030803F8000000000000006
:1023C000000000000000078006000600060006006E
:1023D0000600060006000600060006000780000052
:1023E0000000000030003000180018000C000C0045
:1023F0000600030003000180018000C000C000004F
:102400000000000000001E00060006000600060096
:102410000600060006000600060006001E0000007A
:102420000000000004000A000A0011002080208043
:10243000000000000000000000000000000000009C
:10244000000000000000000000000000000000008C
:10245000000000000000000000000000000000007C
:102460000000FFE00800040002000000000000007F
:10247000000000000000000000000000000000005C
:102480000000000000000000000000001F000180AC
:1024900001801F80318033801DC0000000000000DB
:1024A000000000000000700030003000370039806C
:1024B00030C030C030C0398077000000000000001C
:1024C0000000000000000000000000001E803180BD
:1024D00060806000608031801F000000000000000C
:1024E0000000000000000380018001801D80338017
:1024F00061806180618033801DC0000000000000A9
:102500000000000000000000000000001F003180FB
:1025100060C07FC0600030C01F800000000000006D
:1025200000000000000007E00C000C003F800C00E1
:102530000C000C000C000C003F80000000000000AC
:102540000000000000000000000000001DC03380FB
:1025500061806180618033801D80018001801F0067
:1025600000000000000070003000300037003980AB
:1025700031803180318031807BC00000000000005C
:102580000000000000000600060000001E0006001B
:1025900006000600060006003FC000000000000024
:1025A0000000000000000600060000003F000300DD
:1025B00003000300030003000300030003003E00C8
:1025C000000000000000700030003000378036004E
:1025D0003C003C003600330077C0000000000000E3
:1025E0000000000000001E000600060006000600B5
:1025F00006000600060006003FC0000000000000C4
:102600000000000000000000000000007F8036C0D5
:1026100036C036C036C036C076E00000000000008C
:10262000000000000000000000000000770039807A
:1026300031803180318031807BC00000000000009B
:102640000000000000000000000000001F003180BA
:1026500060C060C060C031801F000000000000004A
:10266000000000000000000000000000770039803A
:1026700030C030C030C039803700300030007C00BE
:102680000000000000000000000000001DC03380BA
:1026900061806180618033801D800180018007C07E
:1026A0000000000000000000000000007B801CC053
:1026B00018001800180018007F000000000000003B
:1026C0000000000000000000000000001F803180BA
:1026D0003C001F00038031803F000000000000002C
:1026E0000000000000001800180018007F0018000B
:1026F00018001800180018800F00000000000000EB
:102700000000000000000000000000007380318025
:1027100031803180318033801DC000000000000016
:102720000000000000000000000000007BC03180BD
:1027300031801B001B000E000E0000000000000096
:10274000000000000000000000000000F1E060C098
:1027500064C06EC03B803B80318000000000000000
:102760000000000000000000000000007BC01B0013
:102770000E000E000E001B007BC0000000000000D9
:1027800000000000000000000000000079E030C000
:10279000198019800B000F00060006000C003E0097
:1027A0000000000000000000000000003F802180C9
:1027B00003000E00180030803F8000000000000081
:1027C00000000000000006000C000C000C000C00D3
:1027D0000C0018000C000C000C000C00060000009F
:1027E00000000000000006000600060006000600CB
:1027F00006000600060006000600060006000000AF
:102800000000000000000C000600060006000600A4
:102810000600030006000600060006000C0000008B
:102820000000000000000000000000000000180090
:1028300024800300000000000000000000000000F1
:102840000000000000000000000000000000000088
:10285000001010101010000010000000006C48481C
:102860000000000000000000001414287C287C28D0
:1028700050500000001038404038487010100000E0
:10288000002050200C700814080000000000001800
:1028900020205448340000000010101010000000E8
:1028A00000000000000808101010101010080800A8
:1028B00000202010101010101020200000107C109C
:1028C00028280000000000000000101010FE10106A
:1028D0001000000000000000000000181030200070
:1028E00000000000007C000000000000000000006C
:1028F0000000003030000000000404080810102020
:10290000204000000038444444444444380000005F
:1029100000301010101010107C000000003844042B
:10292000081020447C0000000038440418040444CB
:1029300038000000000C141424447E040E00000033
:10294000003C20203804044438000000001C2040D3
:102950007844444438000000007C4404080808100F
:10296000100000000038444438444444380000005B
:1029700000384444443C040870000000000000306B
:10298000300000303000000000000018180000186F
:102990003020000000000C10608060100C0000006F
:1029A000000000007C007C00000000000000C0204F
:1029B00018041820C00000000000182404081000AB
:1029C000300000003844444C54544C40443800001B
:1029D0000030102828287C44EE00000000F8444411
:1029E00078444444F8000000003C444040404044E7
:1029F0003800000000F0484444444448F00000001F
:102A000000FC445070504044FC000000007E22282E
:102A10003828202070000000003C4440404E4444D0
:102A20003800000000EE44447C444444EE000000C2
:102A3000007C1010101010107C000000003C0808F2
:102A4000084848483000000000EE444850704844B0
:102A5000E600000000702020202024247C000000DC
:102A600000EE6C6C54544444EE00000000EE6464CC
:102A70005454544CEC000000003844444444444452
:102A80003800000000782424243820207000000042
:102A90000038444444444444381C000000F8444492
:102AA00044784844E200000000344C403804046498
:102AB0005800000000FE92101010101038000000A6
:102AC00000EE4444444444443800000000EE4444D2
:102AD000282828101000000000EE44445454545498
:102AE0002800000000C6442810102844C60000003A
:102AF00000EE44282810101038000000007C440824
:102B0000101020447C0000000038202020202020CD
:102B10002020380000402020201010080808000065
:102B200000380808080808080808380000101028AD
:102B30004400000000000000000000000000000051
:102B4000000000FE0010080000000000000000006F
:102B500000000038443C44443E00000000C040589F
:102B600064444444F80000000000003C44404044F9
:102B700038000000000C04344C4444443E00000083
:102B800000000038447C40403C000000001C207CD9
:102B9000202020207C000000000000364C444444EB
:102BA0003C04380000C0405864444444EE00000037
:102BB00000100070101010107C0000000010007851
:102BC000080808080808700000C0405C48705048B9
:102BD000DC00000000301010101010107C0000000D
:102BE000000000E854545454FE000000000000D8D7
:102BF00064444444EE00000000000038444444446F
:102C000038000000000000D8644444447840E000EC
:102C1000000000364C4444443C040E000000006CAC
:102C2000302020207C0000000000003C4438044498
:102C3000780000000000207C202020221C000000E2
:102C4000000000CC4444444C36000000000000EE7C
:102C50004444282810000000000000EE445454545E
:102C600028000000000000CC48303048CC000000B4
:102C7000000000EE44242818101078000000007CAA
:102C8000481020447C000000000810101010201094
:102C9000101008000010101010101010101000007C
:102CA000002010101010081010102000000000006C
:102CB0000024580000000000000000000000000098
:102CC0000000000000000000000000000000000004
:102CD00000000000000000000000000000000000F4
:102CE00000000018180000181818181818181818DC
:102CF000181818181818180000000000000000002C
:102D0000000000000020002000200020004007C03C
:102D10001FF038F030B8709061006100610062000F
:102D2000621872183C303C701FE00F8008000800E9
:102D30001000100010000000000000000000000063
:102D40000000000007C00FE01C7038383018300059
:102D5000300030003000FF80FF801800180018009D
:102D60001800300020007F08FFFC60F80000000021
:102D70000000000000000000000000000000000053
:102D8000000000000000000000000000200877DCC8
:102D90003FF81C70383830183018301838381C702C
:102DA0003FF877DC20080000000000000000000071
:102DB0000000000000000000000000000000000013
:102DC00000000000C00C601860183030303018600F
:102DD0000CC00CC007807FF87FF8030003007FF869
:102DE0007FF803000300030003000300000000005D
:102DF0000000000000000000000000000000303073
:102E000030303030303030300000000000303030B2
:102E10003030303030303000000000000000000062
:102E20000000000007C01FE038303038301838008C
:102E30001C000F003FC061E060F8603C601C380C73
:102E40003E0C0F9803F001F000700038301838186D
:102E50001C380FF007C00000000000000000000058
:102E60000000000066006600000000000000000096
:102E70000000000000000000000000000000000052
:102E80000000000000000000000000000000000042
:102E90000000000000000000000000000000000032
:102EA0000000000000000000000001F80007FE0024
:102EB0001E07803801C030F8C061FC60638E60C7B7
:102EC0000030C60030C60030C60030C60030C7062D
:102ED00030630C6061FC6030F0C03801C01E0780B8
:102EE00007FE0001F80000000000000000000000E4
:102EF00000000000000000000000000000000000D2
:102F0000000000003E003F00630003001F007B0044
:102F1000630067007F003B0000000000000000002D
:102F200000000000000000000000000000000000A1
:102F30000000000000000000000000000000000091
:102F40000000000000000000000000000000000081
:102F50000000031806300C600C6018C0318031800E
:102F600018C00C600C600630031800000000000060
:102F70000000000000000000000000000000000051
:102F80000000000000000000000000000000000041
:102F90007FFC7FFC000C000C000C000C000C000CF3
:102FA0000000000000000000000000000000000021
:102FB0000000000000000000000000000000000011
:102FC0000000000000000000000000000000000001
:102FD0000000000000000000000000007F007F00F3
:102FE00000000000000000000000000000000000E1
:102FF00000000000000000000000000000000000D1
:103000000000000000000000000001F80007FE00C2
:103010001E07803801C033F8C063F860630C60C3DA
:103020000C30C30C30C3FC30C3F830C33030C3188D
:1030300030630C60630C603306C03801C01E07802B
:1030400007FE0001F8000000000000000000000082
:103050000000000000000000000000000000FFFE73
:10306000FFFE000000000000000000000000000063
:103070000000000000000000000000000000000050
:103080000000000000000000000000000000000040
:103090000000000000000000000000000000000030
:1030A000000000000E001100208020802080110010
:1030B0000E00000000000000000000000000000002
:1030C0000000000000000000000000000000000000
:1030D00000000000000000000000000000000000F0
:1030E00000000000000000000000000003000300DA
:1030F0000300030003007FF87FF8030003000300D0
:1031000003000300000000007FF87FF800000000CB
:1031100000000000000000000000000000000000AF
:10312000000000003E007F00C300030006000C000A
:10313000180030007F00FF000000000000000000C9
:10314000000000000000000000000000000000007F
:10315000000000000000000000000000000000006F
:10316000000000003E007F00C30003000C000300CD
:103170000300C7007E003C000000000000000000CB
:10318000000000000000000000000000000000003F
:10319000000000000000000000000000000000002F
:1031A0000000000007000E000C00180000000000E6
:1031B000000000000000000000000000000000000F
:1031C00000000000000000000000000000000000FF
:1031D00000000000000000000000000000000000EF
:1031E0000000000000000000000000000000300CA3
:1031F000300C300C300C300C300C300C300C300CEF
:10320000300C300C381C3C3C3FFC37CC30003000DC
:10321000300030003000000000000000000000001E
:10322000000000001FFE3FFE7F18FF18FF18FF1868
:10323000FF18FF187F183F181F18031803180318EA
:1032400003180318031803180318031803180318A6
:10325000031803180318000000000000000000001D
:1032600000000000000000003030000000000000FE
:10327000000000000000000000000000000000004E
:10328000000000000000000000000000000000003E
:10329000000000000000000000000000000000002E
:1032A00000000000000000000000000018003800CE
:1032B0000C000C00FC00F800000000000000000002
:1032C0000000000006001E003E002600060006006A
:1032D00006000600060006000000000000000000D6
:1032E00000000000000000000000000000000000DE
:1032F00000000000000000000000000000000000CE
:10330000000000001E003F007380618061806180CA
:10331000618073803F001E0000000000000000007C
:10332000000000000000000000000000000000009D
:10333000000000000000000000000000000000008D
:10334000000000000000000000000000000000007D
:103350000000318018C00C600C60063003180318A0
:1033600006300C600C6018C03180000000000000C6
:10337000000000000000000000000000000000004D
:10338000000000000000000000000600301E006089
:103390003E00C02601C006018006030006070006A5
:1033A0000E00060C000618000038180030380060C7
:1033B0007800C07801C0D80181980303180603FC87
:1033C0000E00180C001800000000000000000000B3
:1033D00000000000000000000000000000000000ED
:1033E000000000000000000000000600301E006029
:1033F0003E00C02601C00601800603000606000646
:103400000E00060C000618000030F80071FC006386
:103410000C00C00C0180180380300300600601809E
:103420000C01FC1C03FC0000000000000000000078
:10343000000000000000000000000000000000008C
:10344000000000000000000000003E00307F00602F
:10345000C300E00300C00C0180030300030700C7A2
:1034600006007E0C003C1800003818003038006060
:103470007800C0F801C0D80181980303180703FC45
:103480000600180C001800000000000000000000FA
:10349000000000000000000000000000000000002C
:1034A000000000000000000000000000000000001C
:1034B000000000000000000000018000018000000A
:1034C00000000000000180000180000180000380F6
:1034D000000700000600000C000018000038000083
:1034E000300000300600300600380C001C1C000FB5
:1034F000F80003E00000000003800001C00000C0ED
:103500000000600000000000000001C00001C000D9
:103510000360000360000770000630000630000EF4
:1035200038000C18000C1800180C00180C001FFCB8
:10353000003FFE00300600700700600300600300DB
:10354000C00180C0018000000000000000000000F9
:10355000000000000000000000700000E00000C05B
:103560000001800000000000000001C00001C00058
:103570000360000360000770000630000630000E94
:1035800038000C18000C1800180C00180C001FFC58
:10359000003FFE003006007007006003006003007B
:1035A000C00180C001800000000000000000000099
:1035B000000000000000000001800003C000066061
:1035C0000006600000000000000001C00001C00013
:1035D0000360000360000770000630000630000E34
:1035E00038000C18000C1800180C00180C001FFCF8
:1035F000003FFE003006007007006003006003001B
:10360000C00180C001800000000000000000000038
:10361000000000000000000000000003980007F810
:103620000006700000000000000001C00001C000A2
:103630000360000360000770000630000630000ED3
:1036400038000C18000C1800180C00180C001FFC97
:10365000003FFE00300600700700600300600300BA
:10366000C00180C0018000000000000000000000D8
:103670000000000000000000000000000000033017
:103680000003300000000000000001C00001C00085
:103690000360000360000770000630000630000E73
:1036A00038000C18000C1800180C00180C001FFC37
:1036B000003FFE003006007007006003006003005A
:1036C000C00180C001800000000000000000000078
:1036D000000000000000000000000000000001C029
:1036E0000002200002200002200001C00001C000F2
:1036F0000360000360000770000630000630000E13
:1037000038000C18000C1800180C00180C001FFCD6
:10371000003FFE00300600700700600300600300F9
:10372000C00180C001800000000000000000000017
:103730000000000000000000000000000000000089
:103740000000000000000000000000000000000079
:10375000007FFFC0007FFFC000C6000000C6000061
:103760000186000001860000030600000306000039
:10377000060600000607FF800C07FF800C0600000D
:103780001FFE00001FFE0000300600003006000093
:103790006006000060060000C007FFC0C007FFC051
:1037A0000000000000000000000000000000000019
:1037B0000000000000000000000000000000000009
:1037C0000000000000000000000001FC0007FF00F6
:1037D0000F03801C01C03800E03000607000006002
:1037E00000006000006000006000006000006000F9
:1037F000003000603000E03800C01C01C00E0780BF
:1038000007FF0001FC0000600000E0000030000045
:10381000300003F00003E00001C00000E0000060A1
:10382000000030000000000000003FFF803FFF80EC
:103830003000003000003000003000003000003068
:1038400000003000003FFF003FFF0030000030006C
:103850000030000030000030000030000030000078
:103860003FFF803FFF8000000000000000000000DC
:103870000000000000000000003800007000006040
:103880000000C0000000000000003FFF803FFF80FC
:103890003000003000003000003000003000003008
:1038A00000003000003FFF003FFF0030000030000C
:1038B0000030000030000030000030000030000018
:1038C0003FFF803FFF80000000000000000000007C
:1038D000000000000000000000600000F0000198FF
:1038E000000198000000000000003FFF803FFF80C3
:1038F00030000030000030000030000030000030A8
:1039000000003000003FFF003FFF003000003000AB
:1039100000300000300000300000300000300000B7
:103920003FFF803FFF80000000000000000000001B
:1039300000000000000000000000000000000198EE
:10394000000198000000000000003FFF803FFF8062
:103950003000003000003000003000003000003047
:1039600000003000003FFF003FFF0030000030004B
:103970000030000030000030000030000030000057
:103980003FFF803FFF8000000000000000000000BB
:1039900000000000000000007038180C000018182B
:1039A0001818181818181818181818181818181897
:1039B00018180000000000000E1C18300000181835
:1039C0001818181818181818181818181818181877
:1039D0001818000000000000183C66660000181867
:1039E0001818181818181818181818181818181857
:1039F000181800000000000000006666000018189B
:103A00001818181818181818181818181818181836
:103A10001818000000000000000000000000000076
:103A2000000000000000000000003FFC003FFE001E
:103A30003007803001803000C03000C0300060307E
:103A40000060300060FFC060FFC060300060300088
:103A5000603000603000C03000C03001803007802E
:103A60003FFE003FF80000000000000000000000E2
:103A7000000000000000000000000001CC0003FC7A
:103A80000003380000000000000038018038018089
:103A90003C01803C0180360180330180330180315C
:103AA000818030C18030C1803061803061803031B0
:103AB00080301980301980300D80300780300780C9
:103AC0003003803003800000000000000000000090
:103AD000000000000000000000E000007000003066
:103AE0000000180000000000000001FC0007FF00BB
:103AF0000F07801C01C03800E0300060700070606B
:103B000000306000306000306000306000306000E5
:103B1000307000703000603800E01C01C00F07807A
:103B200007FF0001FC000000000000000000000092
:103B30000000000000000000001C00003800003001
:103B40000000600000000000000001FC0007FF0012
:103B50000F07801C01C03800E0300060700070600A
:103B60000030600030600030600030600030600085
:103B7000307000703000603800E01C01C00F07801A
:103B800007FF0001FC000000000000000000000032
:103B9000000000000000000000300000780000CCB1
:103BA0000000CC0000000000000001FC0007FF0046
:103BB0000F07801C01C03800E030006070007060AA
:103BC0000030600030600030600030600030600025
:103BD000307000703000603800E01C01C00F0780BA
:103BE00007FF0001FC0000000000000000000000D2
:103BF000000000000000000000000001CC0003FCF9
:103C00000003380000000000000001FC0007FF0076
:103C10000F07801C01C03800E03000607000706049
:103C200000306000306000306000306000306000C4
:103C3000307000703000603800E01C01C00F078059
:103C400007FF0001FC000000000000000000000071
:103C5000000000000000000000000000000000CC98
:103C60000000CC0000000000000001FC0007FF0085
:103C70000F07801C01C03800E030006070007060E9
:103C80000030600030600030600030600030600064
:103C9000307000703000603800E01C01C00F0780F9
:103CA00007FF0001FC000000000000000000000011
:103CB0000000000000000000000000000000000004
:103CC0000000000000000000000000000000180CD0
:103CD0001C1C0E38077003E001C003E007700E38AB
:103CE0001C1C180C00000000000000000000000078
:103CF00000000000000000000000000000000000C4
:103D00000000000000000000000001FC3007FE7011
:103D10000F07E01C01C03801C0300360300660604E
:103D20000E30601C3060383060703060E03060C051
:103D3000307180703300603E00E01C01C01F0780BE
:103D40003FFF0071FC0020000000000000000000A8
:103D5000000000000000000003800001C00000C05F
:103D60000000600000000000000030018030018091
:103D7000300180300180300180300180300180309E
:103D800001803001803001803001803001803001BD
:103D9000803001803001803803801803001E0F003E
:103DA0000FFE0003F800000000000000000000000B
:103DB00000000000000000000038000070000060FB
:103DC0000000C000000000000000300180300180D1
:103DD000300180300180300180300180300180303E
:103DE000018030018030018030018030018030015D
:103DF000803001803001803803801803001E0F00DE
:103E00000FFE0003F80000000000000000000000AA
:103E1000000000000000000000600000F0000198B9
:103E20000001980000000000000030018030018097
:103E300030018030018030018030018030018030DD
:103E400001803001803001803001803001803001FC
:103E5000803001803001803803801803001E0F007D
:103E60000FFE0003F800000000000000000000004A
:103E700000000000000000000000000000000198A9
:103E80000001980000000000000030018030018037
:103E9000300180300180300180300180300180307D
:103EA000018030018030018030018030018030019C
:103EB000803001803001803803801803001E0F001D
:103EC0000FFE0003F80000000000000000000000EA
:103ED000000000000000000000700000E00000C0D2
:103EE0000001800000000000000060038030070037
:103EF000180600180E000C0C000E1C0007380003FA
:103F0000300003300001E00001E00000C00000C00C
:103F10000000C00000C00000C00000C00000C000E1
:103F200000C00000C0000000000000000000000011
:103F30000000000000000000000000000000000081
:103F40000000000000000000000030000030000011
:103F50003000003000003FF8003FFE003007003026
:103F600003803001803001803001803001803003D7
:103F7000003007003FFE003FF80030000030000036
:103F800030000030000000000000000000000000D1
:103F90000000000000000000000000000000000021
:103FA0000000000000000000000007E0000FF0002B
:103FB0001C3800381800301800301800303000303D
:103FC0003000306000306000307000303800301E4B
:103FD0000030060030030030030031830033C70097
:103FE00031FE00307C0000000000000000000000F6
:103FF00000000000000000000000000000000000C1
:104000000000000007000380018000C000000FE0F6
:104010003FF030386018001800F80FF83F9830185B
:1040200060186018603870F83FD81F8C00000000DE
:104030000000000000000000000000000000000080
:104040000000000000E001C00180030000000FE05C
:104050003FF030386018001800F80FF83F9830181B
:1040600060186018603870F83FD81F8C000000009E
:104070000000000000000000000000000000000040
:1040800000000000030007800CC00CC000000FE01F
:104090003FF030386018001800F80FF83F983018DB
:1040A00060186018603870F83FD81F8C000000005E
:1040B0000000000000000000000000000000000000
:1040C0000000000000000E601FE019C000000FE0BB
:1040D0003FF030386018001800F80FF83F9830189B
:1040E00060186018603870F83FD81F8C000000001E
:1040F00000000000000000000000000000000000C0
:1041000000000000000000000660066000000FE0F4
:104110003FF030386018001800F80FF83F9830185A
:1041200060186018603870F83FD81F8C00000000DD
:10413000000000000000000000000000000000007F
:1041400000000380044004400440038000000FE0AE
:104150003FF030386018001800F80FF83F9830181A
:1041600060186018603870F83FD81F8C000000009D
:10417000000000000000000000000000000000003F
:10418000000000000000000000000000000000002F
:104190000000000000000000000FC3E03FFFF83007
:1041A0003E1C601C0C0018060078060FFFFE3F9FA7
:1041B000FE301800601800601806603C0C706E1C21
:1041C0003FC7F81F03E000000000000000000000EF
:1041D00000000000000000000000000000000000DF
:1041E000000000000000000000000000000007C008
:1041F0001FE03870303860186000600060006000B8
:1042000060186018303038701FE007C003000700E6
:10421000018001801F801F000000000000000000DE
:104220000000000007000380018000C0000007C0FC
:104230001FF038383018600C600C7FFC7FFC600089
:1042400060007000300C3C381FF007E000000000F8
:10425000000000000000000000000000000000005E
:104260000000000000E001C001800300000007C062
:104270001FF038383018600C600C7FFC7FFC600049
:1042800060007000300C3C381FF007E000000000B8
:10429000000000000000000000000000000000001E
:1042A00000000000018003C006600660000007C037
:1042B0001FF038383018600C600C7FFC7FFC600009
:1042C00060007000300C3C381FF007E00000000078
:1042D00000000000000000000000000000000000DE
:1042E000000000000000000006600660000007C03B
:1042F0001FF038383018600C600C7FFC7FFC6000C9
:1043000060007000300C3C381FF007E00000000037
:104310000000000000000000000000000000E0704D
:1043200030180030303030303030303030303030D5
:1043300030300000000000000000000000001C38C9
:10434000306000303030303030303030303030306D
:104350003030000000000000000000000000307855
:10436000CCCC003030303030303030303030303045
:1043700030300000000000000000000000000000DD
:10438000CCCC003030303030303030303030303025
:1043900030300000000000000000000000000000BD
:1043A000000000000F1003F003C00EE0087007B01B
:1043B0001FF838383018701C600C600C600C600CF2
:1043C000600C701C301838381FF007C00000000067
:1043D00000000000000000000000000000000000DD
:1043E00000000000000007300FF00CE0000033E098
:1043F0003FF03C3838183018301830183018301862
:1044000030183018301830183018301800000000FC
:10441000000000000000000000000000000000009C
:104420000000000007000380018000C0000007C0FA
:104430001FF038383018701C600C600C600C600C79
:10444000600C701C301838381FF007C000000000E6
:10445000000000000000000000000000000000005C
:104460000000000000E001C001800300000007C060
:104470001FF038383018701C600C600C600C600C39
:10448000600C701C301838381FF007C000000000A6
:10449000000000000000000000000000000000001C
:1044A00000000000018003C006600660000007C035
:1044B0001FF038383018701C600C600C600C600CF9
:1044C000600C701C301838381FF007C00000000066
:1044D00000000000000000000000000000000000DC
:1044E00000000000000007300FF00CE0000007C0E3
:1044F0001FF038383018701C600C600C600C600CB9
:10450000600C701C301838381FF007C00000000025
:10451000000000000000000000000000000000009B
:10452000000000000000000006600660000007C0F8
:104530001FF038383018701C600C600C600C600C78
:10454000600C701C301838381FF007C000000000E5
:10455000000000000000000000000000000000005B
:104560000000000000000000000000000000030048
:104570000300000000007FF87FF800000000030047
:104580000300000000000000000000000000000028
:10459000000000000000000000000000000000001B
:1045A000000000000000000000000000000000000B
:1045B00000000000000000040007FE001FFC00389F
:1045C0003C00301C00703E0060760060E60061C672
:1045D000006386006706006E0E007C0C00383C000D
:1045E0003FF8006FE0002000000000000000000025
:1045F00000000000000000000000000000000000BB
:10460000000000000E0007000300018000003018C9
:10461000301830183018301830183018301830185A
:1046200030183018303838781FD80F980000000044
:10463000000000000000000000000000000000007A
:104640000000000000E001C00180030000003018FD
:10465000301830183018301830183018301830181A
:1046600030183018303838781FD80F980000000004
:10467000000000000000000000000000000000003A
:1046800000000000018003C00660066000003018D2
:1046900030183018301830183018301830183018DA
:1046A00030183018303838781FD80F9800000000C4
:1046B00000000000000000000000000000000000FA
:1046C00000000000000000000CC00CC0000030180A
:1046D000301830183018301830183018301830189A
:1046E00030183018303838781FD80F980000000084
:1046F00000000000000000000000000000000000BA
:104700000000000001C003800300060000006018E4
:104710006018303030303830186018600C600CC0D1
:104720000CC006C00780078003800300030006005A
:1047300006003C00380000000000000000000000FF
:10474000000000003000300030003000300033C086
:104750003FF03C383818300C300C300C300C300C3A
:10476000300C301C38183C383FF033C0300030007B
:1047700030003000300000000000000000000000A9
:1047800000000000000000000CC00CC00000601819
:104790006018303030303830186018600C600CC051
:1047A0000CC006C0078007800380030003000600DA
:1047B00006003C003800000008080100B82C000882
:1047C00008080100D82C00080F0F0200F82C000880
:1047D0000F0F0200382D00080F0F0200782D00087F
:1047E0000F0F0200B82D000806060100F82D000882
:1047F0000F0F0200182E000809090200582E0008A9
:1048000014140300982E00080A0A0200F82E00086B
:104810000F0F0200382F000810100200782F000838
:1048200009090200B82F000814140300F82F00082B
:104830000F0F0200583000080B0B020098300008E0
:104840000F0F0200D83000080909020018310008D3
:1048500009090200583100080909020098310008CE
:1048600010100200D83100080F0F020018320008A3
:1048700008080100583200080909020078320008CF
:1048800009090200B83200080A0A0200F8320008DA
:104890000F0F0200383300081717030078330008A1
:1048A00017170300D833000817170300383400081F
:1048B000111103009834000812120300F8340008A4
:1048C000121203005835000812120300B835000810
:1048D000121203001836000812120300783600087E
:1048E00012120300D83600081B1B040038370008DA
:1048F00014140300B8370008121203001838000817
:10490000121203007838000812120300D838000889
:10491000121203003839000808080100983900080D
:1049200008080100B839000808080100D839000853
:1049300008080100F839000814140300183A0008A8
:1049400013130300783A000815150300D83A00083D
:1049500015150300383B000815150300983B0008A7
:1049600015150300F83B000815150300583C000816
:1049700010100200B83C000815150300F83C0008B0
:1049800013130300583D000813130300B83D00083B
:1049900013130300183E000813130300783E0008A9
:1049A00012120300D83E000812120300383F00081C
:1049B00011110300983F00080F0F0200F83F000894
:1049C0000F0F0200384000080F0F02007840000867
:1049D0000F0F0200B84000080F0F0200F840000857
:1049E0000F0F020038410008181803007841000832
:1049F0000E0E0200D84100080F0F020018420008F6
:104A00000F0F0200584200080F0F020098420008E2
:104A10000F0F0200D84200080606010018430008E4
:104A20000606010038430008060601005843000846
:104A300006060100784300080F0F020098430008A3
:104A40000F0F0200D84300080F0F0200184400089F
:104A50000F0F0200584400080F0F0200984400088E
:104A60000F0F0200D84400080F0F0200184500087D
:104A70000F0F020058450008111103009845000867
:104A80000F0F0200F84500080F0F0200384600081B
:104A90000F0F0200784600080F0F0200B84600080A
:104AA0000E0E0200F84600080F0F020038470008FB
:104AB0000E0E020078470008A000FF00B84700086B
:104AC000B0AD0108B102020879030208B50302087B
:104AD000BB030208000000000000000020200101CC
:104AE000B84A00081A0F14000068DFF8741A8842E8
:104AF00007D1DFF8F00B816C4165C16C8165016DF8
:104B0000C165704730B5A3B001F036FE00F0F2F891
:104B100000F05AFB00F040FB00F027FA00F074FAB6
:104B200000F0C1FA00F001FB00F0FAF900F0C4F95E
:104B300000F0E3F900F054F900F0ABF9DFF8A84B0E
:104B40000021204601F070FE0021204602F02CF9E1
:104B50000421204601F068FE0421204602F024F9D9
:104B6000DFF84C5B0021284601F05EFE002128465C
:104B700002F01AF90821284601F056FE08212846BD
:104B800002F012F9DFF8645B0421284601F04CFEC4
:104B90000421284602F008F9002002F079F90120EA
:104BA00002F076F90121002002F087F902F0FCFB07
:104BB000054602F0F7FB294689B280B203F078F887
:104BC00003F0FAFD03F005FE1EA80FF29C0114226B
:104BD00003F036FE00211EA803F0A4FEE06319A82E
:104BE0000FF29801142203F02BFE002119A803F004
:104BF00099FE206414A80FF29801142203F020FEFD
:104C0000002114A803F08EFE60640FA80FF2940137
:104C1000142203F015FE00210FA803F083FEA06408
:104C20000AA80FF29401142203F00AFE00210AA838
:104C300003F078FEE06405A80FF29001142203F05F
:104C4000FFFD002105A803F06DFE206568460FF208
:104C50009001142203F0F4FD0021684603F062FE87
:104C6000606503F04DFEFEE7F40D0208C75600082C
:104C7000FEFF00000000000000010000000E02081E
:104C80002157000802000000000000008000000022
:104C90000C0E0208755B0008FFFF0000000000001A
:104CA00080000000180E0208E55B0008010000000B
:104CB0000000000080000000240E0208616000086F
:104CC000000000000000000080000000340E020818
:104CD000D561000800000000000000008000000016
:104CE0003C0E020849620008FEFF000000000000C0
:104CF0000001000010B59EB000200090DFF8F80918
:104D0000016841F080510160006800F0805000901F
:104D1000009800200090DFF8E409016841F4404168
:104D20000160006800F4404000900098012012905B
:104D30004FF480341394022018904FF4800019909F
:104D400004201A90A8201B9002201C9007201D9080
:104D500012A803F089FE002805D04FF4DE710FF28F
:104D6000084001F0CDFC0F200190022002900020AD
:104D700003904FF4A05004904FF48050059005210B
:104D800001A803F0FBFF002805D04FF4E5710FF2F6
:104D9000D83001F0B5FC0820069054200A90072076
:104DA0000C900F9406A804F0E3F8002805D040F218
:104DB000D3110FF2B43001F0A3FC04F067F84FF404
:104DC0007A71B0FBF1F004F05DFA042004F05BFAB4
:104DD00000220F214FF0FF3004F044FA1EB010BD46
:104DE0001FB5DFF80049DFF8780720604FF4803006
:104DF00060600020A06001202061A061002020628E
:104E0000E062DFF8FC08A0620020E0600320E061BF
:104E1000012020636061204604F04EFA002805D08E
:104E20004FF4FC710FF2403001F06AFC0D2000904D
:104E30000120019002906946204604F0EFFA002814
:104E400005D040F202210FF2203001F059FCDFF8CA
:104E5000B4080090022001906946204604F0DEFA72
:104E6000002805D040F20B210FF2FC2001F048FC95
:104E700011200090032001906946204604F0CEFAEC
:104E8000002805D04FF405710FF2DC2001F038FC4A
:104E90001FBD80B5DFF87008DFF87018016004F0FE
:104EA0003AFC002807D04FF408710FF2BC20BDE88F
:104EB000044001F025BC01BD80B5DFF85408DFF8DF
:104EC00054180160DFF8881C416000218160C160D6
:104ED0004FF480410161002141618161C161016242
:104EE00004F02CFC002807D04FF40D710FF278204D
:104EF000BDE8044001F004BC01BD80B5DFF818082E
:104F0000DFF8581C016005F007F9002807D04FF4BE
:104F100010710FF25420BDE8044001F0F1BB01BD57
:104F200080B5DFF8F807DFF8801C01604FF482716C
:104F3000416000218160C160016141614FF40071F5
:104F400081610021C1610162416281620A21C16205
:104F500005F0FAF8002807D04FF416710FF2082078
:104F6000BDE8044001F0CCBB01BD18B589B0DFF845
:104F700078474FF0804020600D2060600020A060E6
:104F80004EF66020E06000202061204601F033FCF6
:104F9000002805D040F26B210FF2CC1001F0B0FBDD
:104FA0000020009001906946204601F00FFF002884
:104FB00005D040F272210FF2B01001F0A1FB602089
:104FC00002900020039004900690024602A9204619
:104FD00001F0F7FC002805D040F27B210FF2881089
:104FE00001F08EFB042202A9204601F0EAFC002811
:104FF00005D04FF420710FF2701001F081FB2046B4
:1050000005F097FB0AB010BD18B589B0DFF8A046CF
:10501000DFF8980B20600D2060600020A0604EF645
:105020006020E06000202061204601F0E4FB0028C1
:1050300005D040F295210FF2301001F061FB002005
:10504000009001906946204601F0C0FE002805D07E
:105050004FF427710FF2101001F052FB6020029004
:105060000020039004900690024602A9204601F019
:10507000A8FC002805D040F2A5210FF2EC0001F0B9
:105080003FFB082202A9204601F09BFC002805D026
:1050900040F2AA210FF2D00001F032FB204605F0C9
:1050A00048FB0AB010BD18B589B0DFF84046DFF8FC
:1050B000000B20600D2060600020A0604EF6602094
:1050C000E06000202061204601F095FB002805D01B
:1050D00040F2BF210FF2900001F012FB002000907F
:1050E00001906946204601F071FE002805D040F28B
:1050F000C6210FF2740001F003FB60200290002033
:10510000039004900690042202A9204601F059FC65
:10511000002805D040F2CF210FF24C0001F0F0FA48
:10512000204605F006FB0AB010BD80B5DFF8840A02
:10513000DFF8841A01604FF4E131416000218160A1
:10514000C16001610C21416100218161C16105F0F3
:10515000BBFB002807D04FF439710FF20C00BDE8FB
:10516000044001F0CDBA01BD433A5C4749545C525A
:105170006F626F7441726D326B31375C53544D33D3
:105180003246345C526F626F7441726D5C5372636D
:105190005C6D61696E2E630080B500200090DFF8C1
:1051A0001C0A016841F480010160006800F480007D
:1051B00000900098002211463C2004F053F83C2057
:1051C000BDE8024004F05DB82DE9F04186B0002052
:1051D0000590DFF8E809016841F004010160016809
:1051E00001F004010591059900210591016841F044
:1051F00020010160016801F020010591059900215D
:105200000591016841F080010160016801F08001B1
:105210000591059900210591016841F001010160A6
:10522000016801F0010105910599002105910168CE
:1052300041F002010160016801F002010591059948
:1052400000210591016841F040010160016801F011
:1052500040010591059900210591016841F0100177
:105260000160016801F01001059105990021059187
:10527000016841F008010160006800F00800059035
:105280000598DFF83C4900221621204605F017FE5C
:10529000DFF8305900228021284605F010FEDFF8A3
:1052A000286900224FF44051304605F008FEDFF82F
:1052B0001C7900224FF4C041384605F000FE16204C
:1052C0000090012001900020029003906946204642
:1052D00005F06AFC48F207000090DFF8F488CDF88A
:1052E0000480002002906946284605F05DFC80207D
:1052F000009001200190002002900390694628460A
:1053000005F052FC20200090CDF80480002002908F
:105310006946204605F048FC0420009000200190DA
:1053200002906946DFF8AC0805F03EFC4FF40060DF
:1053300000900020019002906946304605F034FC50
:105340004FF4405000900120019000200290039003
:105350006946304605F028FC4FF4C040009001201B
:1053600001900020029003906946384605F01CFC2D
:1053700006B0BDE8F08190ED001AB4EE401AF1EEEF
:1053800010FA02D5B0EE401A06E0F4EE410AF1EE52
:1053900010FA01D5B0EE601A80ED001A7047B5EE34
:1053A000400AF1EE10FA03D5FFEE000A20EE200AC3
:1053B000704780B510EE100A05F0BAFDDFF8182826
:1053C000DFF8183805F0D8FD0022DFF8743C05F04E
:1053D000A7FE05F0C9FF00EE100A01BD80B5DFEDA4
:1053E0005F0A20EE200A10EE100A05F0A1FDDFF89A
:1053F000E827DFF8E83705F093FE05F0B5FF00EE8B
:10540000100A01BDDFED550A30EEC00ADFF8D00703
:10541000D0ED000A80EE200A70470000F0EE400A4E
:10542000DFF8BC0790ED001A9FED4C0A00EEC10AB0
:10543000704780B510EE100A05F07AFD00224FF09B
:105440007F5305F099FD0022DFF8F83B05F0C0FF1F
:105450004FF06632DFF8F03B05F0BAFF05F084FF4D
:1054600000EE100A01BD80B5B1EE400A10EE100A40
:1054700005F05EFD0022DFF8D43B05F051FE00226E
:10548000DFF8C03B05F0A4FF4FF03332DFF8C03B3C
:1054900005F09EFF05F068FF00EE100A01BD80B523
:1054A00010EE100A05F044FD0022DFF8A83B05F0DD
:1054B0008FFF0022DFF8A03B05F05EFD05F054FFF2
:1054C00000EE100A01BD38B52DED068BB0EE409A06
:1054D000F0EE608AB0EE418ADFF8804BD4ED039A9B
:1054E000B0EE680AFFF765FF06F01AF969EE809AD8
:1054F00094ED02AAB0EE480AFFF75BFFDFF8D05C3C
:1055000006F00EF94AEE009AC5ED019AD4ED039A21
:10551000B0EE680AFFF74DFF06F004F969EE808AE5
:10552000D4ED029AB0EE480AFFF743FF06F0FAF80E
:1055300049EEC08AC5ED028AB0EE490AFFF739FF8D
:1055400006F0F2F8D5ED010A20EE200A85ED000AFA
:1055500095EC030ABDEC068B31BD0000000034431E
:105560000020014038B52DED048BB0EE409AB0EE2E
:10557000608AF0EE418ADFF8A84C84ED039A84ED4E
:10558000048A89EE080A06F0ADF9FFF727FF84EDDB
:10559000000A28EE080A09EE090A06F0C7F984EDA8
:1055A000050A20EE000A08EEA80A06F0BFF9B0EEE0
:1055B000409A84ED069A88EE890A06F0C7F9F0EE63
:1055C000409AC4ED079ADFF8945A95ED030AD5ED99
:1055D000030A95ED021AD5ED021A29EE098AF0EEBA
:1055E000008AB0EE482A00EE202A01EE612A95EDED
:1055F000030A20EE280A20EE090A82EE000A06F0CD
:10560000D3F984ED080A39EE809AB0EE490AFFF723
:10561000E5FE84ED020A95ED030AD5ED030A95ED4A
:10562000021AD5ED021A95ED032A20EE200A01EEAA
:10563000210A30EE480A62EE280A95ED021A60EE61
:10564000810A80EE200A06F0AFF9B0EE408A84EDC0
:10565000098ADFED278AB0EE490AFFF7BFFE38EE70
:10566000C00A84ED0A0A38EEC00A84ED0B0ADFEDA9
:10567000210A70EEC08AB0EE480AFFF7AFFE38EE9E
:10568000C00A84ED0C0A206B606094EC030ABDEC48
:10569000048B31BD80B506F0B9F90022DFF8883BF4
:1056A00005F03EFD05F060FE00EE100A01BD0000B1
:1056B000E40B02200246002000E0401C80B2115C96
:1056C0000029FAD1704780B506F0AEF906F0C8F9A6
:1056D0004FF4FA7003F03FF9DFF8540B0168491CEE
:1056E0000160F5E7C0080220DC090220200C02203E
:1056F0000000B442000034434038024000700040D3
:105700000100000F12000010800D02200030024046
:105710008C0A0220005C0040480D0220840902200F
:10572000F8B52DED048B82B0DFF8084B04F140058D
:10573000DFF8046B42E022460FF2244104F15000EE
:1057400006F0BEF904F15000FFF7B4FF014604F182
:10575000500006F027FA28E04428ECD16078592858
:10576000E9D1A0784E28E6D120790D28E3D1E07860
:10577000303800B206F034FADFF8C02ADFF8C03A59
:1057800005F0FAFB05F0F0FD686022460FF2DC310F
:1057900004F1500006F094F904F15000FFF78AFF7D
:1057A000014604F1500006F0FDF9002028704FF486
:1057B0007A7003F0D0F8E868401CE860002001F03F
:1057C00072FB28780128F2D12078502840F09B8184
:1057D00021793B2940F09781217A3B2940F0938140
:1057E000217B0D2940F08F81306E002840F07A81B6
:1057F000DFF8500A0A216422637A13FB02F3A77AC6
:1058000017FB0133E77ADB19C3181BB200EE103A1D
:10581000B8EEC00ADFEDCF0A30EE200AF2EE040A3D
:1058200080EE200ADFEDCC0A80EE201A637913FBAC
:1058300002F3A77917FB0133E779DB19C3181BB211
:1058400000EE103AB8EEC00AF2EE040A80EE200A2A
:10585000DFEDC10AC0EE200A637813FB02F2A378E1
:1058600013FB0121E2788918401800B200EE100AFB
:10587000B8EEC00ADFEDCB1A30EE210AF2EE041AC0
:1058800080EE210ADFEDB41A80EE210AFFF76AFEEE
:10589000B0EE408AF0EE608AB0EE419AB0EE490A6E
:1058A000FFF7B0FD86ED0D0AB0EE680AFFF7AAFD1E
:1058B00086ED0C0AB0EE480AFFF7BBFD86ED0B0A39
:1058C000B0EE480AFFF7CFFD86ED0E0A96ED0C0A02
:1058D000D6ED100A30EE600AFFF761FDB0EE408AA7
:1058E00096ED0D0AD6ED110A30EE600AFFF757FD6E
:1058F000B4EE408AF1EE10FA51D596ED0B0AD6EDD2
:105900000F0A30EE600AFFF74AFDB0EE408A96EDCE
:105910000D0AD6ED110A30EE600AFFF740FDB4EE35
:10592000408AF1EE10FA3AD56868706596ED0D0A76
:10593000D6ED110A30EE600AFFF731FDD5ED010A10
:1059400080EE200A85ED020A96ED0C0AD6ED100ACB
:1059500030EE600AFFF723FDD5ED020A80EE200A43
:1059600086ED140A96ED0B0AD6ED0F0A30EE600AAA
:10597000FFF715FDD5ED020A80EE200A86ED130A29
:1059800096ED0E0AD6ED120A30EE600AFFF707FD1B
:10599000D5ED020A80EE200A86ED160AA2E096ED09
:1059A0000D0AD6ED110A30EE600AFFF7F8FCB0EEF2
:1059B000408A96ED0C0AD6ED100A30EE600AFFF729
:1059C000EEFCB4EE408AF1EE10FA51D596ED0B0ADA
:1059D000D6ED0F0A30EE600AFFF7E1FCB0EE408A28
:1059E00096ED0C0AD6ED100A30EE600AFFF7D7FCF0
:1059F000B4EE408AF1EE10FA3AD56868306596ED5B
:105A00000C0AD6ED100A30EE600AFFF7C8FCD5ED9F
:105A1000010A80EE200A85ED020A96ED0D0AD6ED08
:105A2000110A30EE600AFFF7BAFCD5ED020A80EEEB
:105A3000200A86ED150A96ED0B0AD6ED0F0A30EE18
:105A4000600AFFF7ACFCD5ED020A80EE200A86ED75
:105A5000130A96ED0E0AD6ED120A30EE600AFFF731
:105A60009EFCD5ED020A80EE200A86ED160A39E08A
:105A70006868F06496ED0B0AD6ED0F0A30EE600A06
:105A8000FFF78DFCD5ED010A80EE200A85ED020AB4
:105A900096ED0D0AD6ED110A30EE600AFFF77FFC95
:105AA000D5ED020A80EE200A86ED150A96ED0C0A65
:105AB000D6ED100A30EE600AFFF771FCD5ED020A50
:105AC00080EE200A86ED140A96ED0E0AD6ED120A33
:105AD00030EE600AFFF763FCD5ED020A80EE200A83
