:020000040800F2
:1000000040540020ADB90008D1B90008D5B90008A6
:10001000D9B90008DDB90008E1B900080000000006
:100020000000000000000000000000009D96000895
:10003000E5B9000800000000459600085DB9000819
:10004000E9B90008EDB90008F1B90008F5B90008F0
:10005000F9B90008FDB9000875B9000801BA00082F
:1000600005BA000809BA00080DBA000811BA00085C
:1000700015BA000819BA00081DBA000821BA00080C
:1000800025BA000829BA00082DBA000831BA0008BC
:1000900035BA000839BA00083DBA000841BA00086C
:1000A00045BA000849BA00084DBA000851BA00081C
:1000B00055BA000859BA00085DBA000861BA0008CC
:1000C00065BA000869BA00086DBA000871BA00087C
:1000D00075BA000879BA00087DBA000881BA00082C
:1000E00085BA000889BA00088DBA000891BA0008DC
:1000F00095BA000899BA00089DBA0008A1BA00088C
:10010000A5BA0008A9BA0008ADBA0008B1BA00083B
:10011000B5BA0008B9BA000861B90008BDBA00084C
:10012000C1BA0008C5BA0008C9BA0008CDBA0008AB
:10013000D1BA0008D5BA0008D9BA0008DDBA00085B
:10014000E1BA0008E5BA0008E9BA0008EDBA00080B
:10015000F1BA0008F5BA0008F9BA0008FDBA0008BB
:1001600001BB000805BB000809BB00080DBB000867
:1001700011BB000867B9000815BB000800000000AB
:1001800019BB00081DBB000821BB000825BB0008E7
:1001900029BB00082DBB000831BB000835BB000897
:1001A00039BB00083DBB000841BB0008000000004F
:1001B000000000000000000000000000000000003F
:1001C000000000000000000000000000000000002F
:1001D000000000000000000000000000000000001F
:1001E000000000000000000000000000000000000F
:1001F00000000000000000000000038000038000F9
:10020000038000038000038000038000038000035C
:1002100080000380000100000100000000000000D9
:1002200000038000038000000000000000000000C8
:1002300000000000000000000000000000000000BE
:1002400000000000000E70000E70000E7000042010
:100250000004200004200004200000000000000032
:10026000000000000000000000000000000000008E
:10027000000000000000000000000000000000007E
:1002800000000000000000000000066000066000A2
:100290000660000660000660003FF8003FF80006B8
:1002A00060000CC0003FF8003FF8000CC0000CC01C
:1002B000000CC0000CC0000CC000000000000000DA
:1002C000000000000000000000000000000000012D
:1002D000800001800007B0000FF000187000187057
:1002E000001C00000F800007E00000F00018300044
:1002F0001C30001C70001FE0001BC00001800001CA
:10030000800001800001800000000000000000006B
:10031000000000000000000000000780000FC00087
:100320001CE0001860001860001CE0000FF80007D7
:10033000E0001FF000073800061800061800073814
:100340000003F00001E000000000000000000000D9
:10035000000000000000000000000000000000009D
:10036000000000000000000003F00007F0000C6037
:10037000000C00000C00000600000700000F9C00AD
:100380001DFC0018F0001870000FFC0007DC0000D6
:10039000000000000000000000000000000000005D
:1003A00000000000000000000000000000038000CA
:1003B0000380000380000100000100000100000133
:1003C000000000000000000000000000000000002D
:1003D000000000000000000000000000000000001D
:1003E000000000000000000000000000000000000D
:1003F000000000180000380000700000F00000E06D
:100400000000E00001C00001C00001C00001C00008
:1004100001C00001C00000E00000E000007000002A
:10042000700000380000180000000000000000000C
:10043000000000000000000000001800001C000088
:100440000E00000E000007000007000003800003FC
:100450008000038000038000038000038000070009
:10046000000700000F00000E00001C000018000034
:10047000000000000000000000000000000000007C
:1004800000000180000180000180001DB8001FF8FD
:100490000007E00003C00003C00006600006600023
:1004A000000000000000000000000000000000004C
:1004B000000000000000000000000000000000003C
:1004C000000000000000000000000000000000002C
:1004D0000180000180000180000180000180003F58
:1004E000FC003FFC000180000180000180000180D1
:1004F000000180000000000000000000000000007B
:1005000000000000000000000000000000000000EB
:1005100000000000000000000000000000000000DB
:1005200000000000000000000000000000000000CB
:1005300000000000000000E00000C00001C0000159
:1005400080000180000300000300000000000000A4
:10055000000000000000000000000000000000009B
:100560000000000000000000000000000000001F6C
:10057000F8001FF80000000000000000000000006C
:10058000000000000000000000000000000000006B
:10059000000000000000000000000000000000005B
:1005A000000000000000000000000000000000004B
:1005B000000000000000000000000000000000003B
:1005C00000000000000003C00003C00003C00000E2
:1005D000000000000000000000000000000000001B
:1005E0000000000000180000180000380000300073
:1005F00000700000600000600000C00000C000014A
:1006000080000180000300000300000600000600D7
:10061000000E00000C00001C000018000018000074
:1006200000000000000000000000000000000000CA
:10063000000003C00007E0000C30000C3000181868
:1006400000181800181800181800181800181800BA
:100650001818000C30000C300007E00003C0000048
:10066000000000000000000000000000000000008A
:100670000000000000000000000000800007800073
:100680001F80001D800001800001800001800001AA
:100690008000018000018000018000018000018055
:1006A000001FF8001FF8000000000000000000001C
:1006B000000000000000000000000000000000003A
:1006C000000007C0001FF00038300030180030185C
:1006D0000000180000300000600001C0000380002E
:1006E0000600000C00001800003FF8003FF8000072
:1006F00000000000000000000000000000000000FA
:100700000000000000000000000003C0000FE00037
:100710000C700000300000300000600003C00003D7
:10072000E0000070000018000018000018001838E1
:10073000001FF0000FC000000000000000000000DB
:1007400000000000000000000000000000000000A9
:10075000000000E00001E00001E00003600006602E
:10076000000660000C60000C600018600030600043
:100770003FF8003FF80000600003F80003F80000B5
:100780000000000000000000000000000000000069
:10079000000000000000000000001FF0001FF0003B
:1007A0001800001800001800001BC0001FF0001CFB
:1007B0003000001800001800001800001800303049
:1007C000003FF0000FC0000000000000000000002B
:1007D0000000000000000000000000000000000019
:1007E000000000F80003F8000700000E00000C00F5
:1007F000001800001BC0001FF0001C30001818007B
:100800001818001818000C38000FF00003E0000062
:1008100000000000000000000000000000000000D8
:10082000000000000000000000001FF8001FF8009A
:100830001818001838000030000030000070000068
:10084000600000600000E00000C00000C00001C0C7
:100850000001800001800000000000000000000096
:100860000000000000000000000000000000000088
:10087000000007E0000FF0001C38001818001818DE
:10088000000C300007E00007E0000C3000181800F2
:100890001818001818001C38000FF00007E00000BE
:1008A0000000000000000000000000000000000048
:1008B0000000000000000000000007C0000FF00072
:1008C0001C30001818001818001818000C38000FF9
:1008D000F80003D80000180000300000700000E0AD
:1008E000001FC0001F00000000000000000000000A
:1008F00000000000000000000000000000000000F8
:10090000000000000000000000000000000003C024
:100910000003C00003C00000000000000000000051
:1009200000000000000003C00003C00003C000007E
:1009300000000000000000000000000000000000B7
:1009400000000000000000000000000000000000A7
:1009500000000000000000F00000F00000F00000C7
:10096000000000000000000000000000E00001C0E6
:100970000001800001800003000002000000000070
:100980000000000000000000000000000000000067
:100990000000000000000000001C00003C0000F00F
:1009A0000003C0000F00003C0000F000003C00000D
:1009B0000F000003C00000F000003C00001C00001D
:1009C0000000000000000000000000000000000027
:1009D0000000000000000000000000000000000017
:1009E0000000000000000000007FFC007FFC000011
:1009F00000000000007FFC007FFC00000000000001
:100A000000000000000000000000000000000000E6
:100A100000000000000000000000000000000000D6
:100A200000000000000000007000007800001E00C0
:100A30000007800001E000007800001E0000780040
:100A400001E0000780001E00007800007000000038
:100A50000000000000000000000000000000000096
:100A60000000000000000000000000000007C000BF
:100A70000FE00018700018300018300000700000FF
:100A8000E00003C00003800003000000000000003D
:100A90000007000007000000000000000000000048
:100AA0000000000000000000000000000000000046
:100AB000000003E00007F0000E38000C1800187862
:100AC0000018F80019D80019980019980019980012
:100AD00018F8001878001800000C00000E18000725
:100AE000F80003E00000000000000000000000002B
:100AF000000000000000000000000000001F800057
:100B00001FC00001C0000360000360000630000643
:100B100030000C30000FF8001FF800180C00300CEB
:100B200000FC7F00FC7F00000000000000000000CF
:100B300000000000000000000000000000000000B5
:100B400000000000007FE0007FF000183800181857
:100B5000001818001838001FF0001FF800181C00BB
:100B6000180C00180C00180C007FF8007FF0000033
:100B70000000000000000000000000000000000075
:100B80000000000000000000000000000003EC0076
:100B90000FFC001C1C00180C00300C003000003052
:100BA0000000300000300000300000180C001C1C59
:100BB000000FF80003F0000000000000000000003B
:100BC0000000000000000000000000000000000025
:100BD00000000000007FC0007FF0001838001818E7
:100BE00000180C00180C00180C00180C00180C0051
:100BF000180C001818001838007FF0007FE0000083
:100C000000000000000000000000000000000000E4
:100C1000000000000000000000000000007FF8005D
:100C20007FF8001818001818001998001980001F84
:100C300080001F80001980001998001818001818EB
:100C4000007FF8007FF800000000000000000000B6
:100C50000000000000000000000000000000000094
:100C600000000000003FFC003FFC000C0C000C0CDE
:100C7000000CCC000CC0000FC0000FC0000CC00066
:100C80000CC0000C00000C00003FC0003FC0000082
:100C90000000000000000000000000000000000054
:100CA0000000000000000000000000000003EC0055
:100CB0000FFC001C1C00180C00300C003000003031
:100CC000000030FE0030FE00300C00380C001C1C10
:100CD000000FFC0003F00000000000000000000016
:100CE0000000000000000000000000000000000004
:100CF00000000000007E7E007E7E0018180018189C
:100D0000001818001818001FF8001FF80018180025
:100D10001818001818001818007E7E007E7E00004B
:100D200000000000000000000000000000000000C3
:100D3000000000000000000000000000001FF8009C
:100D40001FF8000180000180000180000180000187
:100D5000800001800001800001800001800001808E
:100D6000001FF8001FF80000000000000000000055
:100D70000000000000000000000000000000000073
:100D8000000000000007FE0007FE000030000030F9
:100D90000000300000300000300030300030300003
:100DA0003030003030003060003FE0000F80000045
:100DB0000000000000000000000000000000000033
:100DC000000000000000000000000000007F3E0066
:100DD0007F3E0018300018600018C0001980001B0A
:100DE00080001FC0001CE000187000183000183888
:100DF000007F1F007F1F00000000000000000000B7
:100E000000000000000000000000000000000000E2
:100E100000000000007F80007F80000C00000C00BC
:100E2000000C00000C00000C00000C00000C0C007A
:100E30000C0C000C0C000C0C007FFC007FFC000074
:100E400000000000000000000000000000000000A2
:100E500000000000000000000000000000F00F0093
:100E6000F81F00381C003C3C003C3C00366C00364F
:100E70006C0033CC0033CC00318C00300C00300CD3
:100E800000FE7F00FE7F0000000000000000000068
:100E90000000000000000000000000000000000052
:100EA000000000000078FE0078FE001C18001E18EC
:100EB000001F18001B18001B980019D80018D80034
:100EC00018F8001878001838007F18007F18000004
:100ED0000000000000000000000000000000000012
:100EE0000000000000000000000000000003C0003F
:100EF0000FF0001C3800181800381C00300C0030AF
:100F00000C00300C00300C00381C001818001C3885
:100F1000000FF00003C0000000000000000000000F
:100F200000000000000000000000000000000000C1
:100F300000000000003FF0003FF8000C1C000C0C0B
:100F4000000C0C000C0C000C18000FF8000FE00057
:100F50000C00000C00000C00003FC0003FC000006F
:100F60000000000000000000000000000000000081
:100F70000000000000000000000000000003C000AE
:100F80000FF0001C3800181800381C00300C00301E
:100F90000C00300C00300C00381C001818001C38F5
:100FA000000FF00007C00007CC000FFC000C380059
:100FB0000000000000000000000000000000000031
:100FC00000000000007FE0007FF0001838001818D3
:100FD000001818001838001FF0001FC00018E000AB
:100FE0001870001830001838007F1E007F0E0000B7
:100FF00000000000000000000000000000000000F1
:101000000000000000000000000000000007D80001
:101010000FF8001C38001818001818001E00000FE8
:10102000C00003F0000078001818001818001C38E1
:10103000001FF0001BE000000000000000000000A6
:1010400000000000000000000000000000000000A0
:1010500000000000003FFC003FFC00318C00318CA0
:1010600000318C00318C0001800001800001800083
:101070000180000180000180000FF0000FF00000EF
:101080000000000000000000000000000000000060
:10109000000000000000000000000000007E7E0054
:1010A0007E7E00181800181800181800181800186C
:1010B00018001818001818001818001818000C301C
:1010C000000FF00003C0000000000000000000005E
:1010D0000000000000000000000000000000000010
:1010E00000000000007F7F007F7F00180C000C18BC
:1010F000000C18000C1800063000063000036000D9
:1011000003600003600001C00001C0000080000017
:1011100000000000000000000000000000000000CF
:1011200000000000000000000000000000FE3F8002
:10113000FE3F8030060030060030860019CC0019D2
:10114000CC001B6C001B6C001E7C000E38000E389F
:10115000000C18000C180000000000000000000047
:10116000000000000000000000000000000000007F
:1011700000000000007E7E007E7E001818000C300B
:101180000006600003C00001800001800003C00071
:101190000660000C30001818007E7E007E7E000085
:1011A000000000000000000000000000000000003F
:1011B000000000000000000000000000007C7E0035
:1011C0007C7E001818000C300006600006600003EA
:1011D000C0000180000180000180000180000180CA
:1011E000000FF0000FF00000000000000000000001
:1011F00000000000000000000000000000000000EF
:1012000000000000001FF8001FF800181800183038
:101210000018600018C000018000030000061800DC
:101220000C18001818003018003FF8003FF80000B4
:1012300000000000000000000000000000000000AE
:101240000000000000000000000001F00001F000BC
:101250000180000180000180000180000180000108
:101260008000018000018000018000018000018079
:101270000001800001800001800001F00001F00009
:10128000000000000000000000000000180000182E
:1012900000001C00000C00000E000006000006000C
:1012A0000003000003000001800001800000C00076
:1012B00000C000006000006000007000003000000E
:1012C00038000018000018000000000000000000B6
:1012D000000000000000000000000F80000F8000F0
:1012E0000180000180000180000180000180000178
:1012F00080000180000180000180000180000180E9
:10130000000180000180000180000F80000F80003C
:1013100000000000000000000000000000000000CD
:10132000800001C00003E0000770000630000C18C8
:1013300000180C0010040000000000000000000075
:10134000000000000000000000000000000000009D
:10135000000000000000000000000000000000008D
:10136000000000000000000000000000000000007D
:10137000000000000000000000000000000000006D
:10138000000000000000000000000000000000005D
:10139000000000000000000000000000000000004D
:1013A000000000000000FFFF00FFFF00000000033E
:1013B000000003800000E00000600000000000006A
:1013C000000000000000000000000000000000001D
:1013D000000000000000000000000000000000000D
:1013E00000000000000000000000000000000000FD
:1013F00000000000000000000000000000000000ED
:101400000000000000000FC0001FE00000300000DE
:10141000300007F0001FF00038300030300030702E
:10142000001FFC000FBC00000000000000000000D6
:1014300000000000000000000000000000000000AC
:1014400000007800007800001800001800001BE081
:10145000001FF8001C1800180C00180C00180C00D5
:10146000180C00180C001C18007FF8007BE000002E
:10147000000000000000000000000000000000006C
:10148000000000000000000000000000000000005C
:1014900000000000000003EC000FFC001C1C0038E2
:1014A0000C00300C00300000300000380C001C1C18
:1014B000000FF80003F00000000000000000000032
:1014C000000000000000000000000000000000001C
:1014D000000000780000780000180000180007D80D
:1014E000001FF800183800301800301800301800BD
:1014F0003018003018001838001FFE0007DE00000A
:1015000000000000000000000000000000000000DB
:1015100000000000000000000000000000000000CB
:1015200000000000000007E0001FF800181800305D
:101530000C003FFC003FFC00300000300000180CA5
:10154000001FFC0007F00000000000000000000089
:10155000000000000000000000000000000000008B
:10156000000001FC0003FC000600000600003FF83C
:10157000003FF8000600000600000600000600001C
:101580000600000600000600003FF0003FF00000EB
:10159000000000000000000000000000000000004B
:1015A000000000000000000000000000000000003B
:1015B00000000000000007DE001FFE0018380030A9
:1015C0001800301800301800301800301800183893
:1015D000001FF80007D800001800001800003800AD
:1015E0000FF0000FC000000000000000000000002D
:1015F00000007800007800001800001800001BE0D0
:10160000001FF0001C3800181800181800181800E7
:101610001818001818001818007E7E007E7E000042
:1016200000000000000000000000000000000000BA
:1016300000000000000000000000018000018000A8
:101640000000000000001F80001F800001800001DA
:101650008000018000018000018000018000018085
:10166000003FFC003FFC0000000000000000000004
:10167000000000000000000000000000000000006A
:10168000000000C00000C0000000000000001FF0CB
:10169000001FF0000030000030000030000030007B
:1016A000003000003000003000003000003000004A
:1016B00030000030000070001FE0001F80000000BC
:1016C000000000000000000000003C00003C0000A2
:1016D0000C00000C00000CF8000CF8000CC0000D11
:1016E00080000F80000F00000F80000DC0000CE094
:1016F000003C7C003C7C000000000000000000007A
:1017000000000000000000000000000000000000D9
:1017100000001F80001F8000018000018000018008
:101720000001800001800001800001800001800034
:101730000180000180000180003FFC003FFC0000B0
:101740000000000000000000000000000000000099
:101750000000000000000000000000000000000089
:10176000000000000000F77800FFFC0039CC0031D9
:101770008C00318C00318C00318C00318C00318C2C
:1017800000FDEF00FDEF0000000000000000000081
:101790000000000000000000000000000000000049
:1017A00000000000000000000000000000007BE0DE
:1017B000007FF0001C3800181800181800181800D6
:1017C0001818001818001818007E7E007E7E000091
:1017D0000000000000000000000000000000000009
:1017E00000000000000000000000000000000000F9
:1017F00000000000000003C0000FF0001C3800389B
:101800001C00300C00300C00300C00381C001C3860
:10181000000FF00003C00000000000000000000006
:1018200000000000000000000000000000000000B8
:1018300000000000000000000000000000007BE04D
:10184000007FF8001C1800180C00180C00180C0081
:10185000180C00180C001C18001FF8001BE00018E2
:1018600000001800001800007F00007F000000004A
:101870000000000000000000000000000000000068
:1018800000000000000007DE001FFE0018380030D6
:1018900018003018003018003018003018001838C0
:1018A000001FF80007D800001800001800001800FA
:1018B00000FE0000FE00000000000000000000002C
:1018C00000000000000000000000000000003E7862
:1018D000003EFC0007CC00070000060000060000E8
:1018E0000600000600000600003FF0003FF0000088
:1018F00000000000000000000000000000000000E8
:1019000000000000000000000000000000000000D7
:1019100000000000000007F8000FF8001818001879
:1019200018001F80000FF00000F800181800183889
:10193000001FF0001FE00000000000000000000099
:101940000000000000000000000000000000000097
:1019500000000C00000C00000C00000C00003FF028
:10196000003FF0000C00000C00000C00000C000018
:101970000C00000C00000C1C0007FC0003F0000031
:101980000000000000000000000000000000000057
:101990000000000000000000000000000000000047
:1019A000000000000000787800787800181800180F
:1019B00018001818001818001818001818001838FF
:1019C000000FFE0007DE0000000000000000000025
:1019D0000000000000000000000000000000000007
:1019E00000000000000000000000000000007C3E3D
:1019F000007C3E001818001818000C30000C300055
:101A000006600006600007E00003C00003C000009D
:101A100000000000000000000000000000000000C6
:101A200000000000000000000000000000000000B6
:101A3000000000000000783C00783C0031180033C2
:101A400098003398001AB0001EF0001EF0001C60D1
:101A5000000C60000C6000000000000000000000AE
:101A60000000000000000000000000000000000076
:101A700000000000000000000000000000003E7CAC
:101A8000003E7C000C300006600003C000018000B6
:101A900003C0000660000C30003E7C003E7C00006D
:101AA0000000000000000000000000000000000036
:101AB0000000000000000000000000000000000026
:101AC0000000000000007E1F007E1F00180C000CAC
:101AD00018000C180006300006300003600003E018
:101AE0000001C00000C00001800001800003000070
:101AF0003FC0003FC00000000000000000000000E8
:101B000000000000000000000000000000001FF8BE
:101B1000001FF80018300018600000C000018000AD
:101B20000300000618000C18001FF8001FF8000042
:101B300000000000000000000000000000000000A5
:101B40000000000000000000000000E00001E000D4
:101B500001800001800001800001800001800001FF
:101B600080000380000700000380000180000180E6
:101B70000001800001800001800001E00000E00021
:101B80000000000000000000000000000000000055
:101B900000000180000180000180000180000180C0
:101BA00000018000018000018000018000018000B0
:101BB000018000018000018000018000018000019F
:101BC0008000018000018000000000000000000093
:101BD0000000000000000000000007000007800077
:101BE000018000018000018000018000018000016F
:101BF000800001C00000E00001C000018000018001
:101C000000018000018000018000078000070000C3
:101C100000000000000000000000000000000000C4
:101C200000000000000000000000000000000000B4
:101C3000000000000E00001F18003BB80031F0004B
:101C400000E00000000000000000000000000000B4
:101C50000000000000000000000000000000000084
:101C60000000000000000000000000000000000074
:101C70000000000000000000000000000000000064
:101C80000000000000000C000C000C000C000C0018
:101C90000C000C000C0000000C0000000000000014
:101CA00000000000000000001DC01DC0088008806A
:101CB000088000000000000000000000000000009C
:101CC0000000000000000D800D800D800D803FC0E1
:101CD0001B003FC01B001B001B001B00000000007E
:101CE0000000000004001F803180318038001E0099
:101CF0000F000380318031803F00040004000000A9
:101D000000000000000018002400240018C0078014
:101D10001E003180024002400180000000000000EF
:101D200000000000000000000F001800180018005C
:101D30000C001D80370033001D80000000000000F3
:101D40000000000000000000070007000200020081
:101D50000200000000000000000000000000000081
:101D60000000000000000300030006000E000C004D
:101D70000C000C000C000E00060003000300000025
:101D8000000000000000180018000C00060006000B
:101D900006000600060006000C001C0018000000EB
:101DA000000000000000060006003FC03FC00F001A
:101DB0001F801980000000000000000000000000EB
:101DC0000000000000000000000004000400040007
:101DD0003F80040004000400000000000000000038
:101DE00000000000000000000000000000000000F3
:101DF000000000000000060004000C0008000800BD
:101E000000000000000000000000000000000000D2
:101E10003F80000000000000000000000000000003
:101E200000000000000000000000000000000000B2
:101E30000000000000000C000C000000000000008A
:101E40000000000000C000C001800180030003000A
:101E500006000C000C0018001800300030000000D4
:101E60000000000000000E001B0031803180318036
:101E70003180318031801B000E0000000000000026
:101E800000000000000006003E00060006000600FC
:101E900006000600060006003FC00000000000002B
:101EA0000000000000000F00198031803180030025
:101EB00006000C00180030003F8000000000000009
:101EC0000000000000003F006180018003001F004F
:101ED00003800180018061803F000000000000005D
:101EE000000000000000070007000F000B001B00AF
:101EF000130033003F8003000F800000000000004B
:101F00000000000000001F801800180018001F00CB
:101F100011800180018021801F000000000000006E
:101F200000000000000007801C001800300037008F
:101F300039803180318019800F00000000000000DE
:101F40000000000000007F004300030006000600C0
:101F5000060006000C000C000C0000000000000051
:101F60000000000000001F003180318031801F0020
:101F700031803180318031801F000000000000007E
:101F80000000000000001E003300318031803380EB
:101F90001D800180030007003C00000000000000DD
:101FA0000000000000000000000000000C000C0019
:101FB0000000000000000C000C0000000000000009
:101FC000000000000000000000000000030003000B
:101FD00000000000000006000400080008000000E7
:101FE000000000000000000000C003000400180012
:101FF000600018000400030000C0000000000000A2
:1020000000000000000000000000000000007FC091
:1020100000007FC000000000000000000000000081
:102020000000000000000000600018000400030031
:1020300000C0030004001800600000000000000061
:1020400000000000000000001F003180318001808E
:1020500007000C000C0000000C0000000000000055
:102060000000000000000E001100210021002700E8
:10207000290029002700200011000E0000000000A8
:1020800000000000000000003F000F000900198060
:1020900019801F8030C030C079E0000000000000CF
:1020A00000000000000000007F003180318031809E
:1020B0003F003180318031807F000000000000004F
:1020C00000000000000000001F4030C060406000C1
:1020D00060006000604030801F00000000000000D1
:1020E00000000000000000007F00318030C030C0E0
:1020F00030C030C030C031807F00000000000000E0
:1021000000000000000000007F803080308032003E
:102110003E003200308030807F80000000000000F0
:1021200000000000000000007FC03040304032005E
:102130003E003200300030007C0000000000000053
:1021400000000000000000001E8031806080600000
:10215000600067C0618031801F0000000000000047
:1021600000000000000000007BC031803180318021
:102170003F803180318031807BC000000000000052
:1021800000000000000000003FC00600060006003E
:1021900006000600060006003FC000000000000028
:1021A00000000000000000001FC003000300030047
:1021B00003006300630063003E00000000000000B5
:1021C00000000000000000007BC0318033003600BA
:1021D0003C003E003300318079C000000000000068
:1021E00000000000000000007E0018001800180029
:1021F00018001840184018407FC000000000000080
:102200000000000000000000E0E060C071C07BC082
:102210006AC06EC064C060C0FBE000000000000047
:10222000000000000000000073C0318039803D8054
:1022300035803780338031807980000000000000D5
:1022400000000000000000001F00318060C060C07E
:1022500060C060C060C031801F000000000000004E
:1022600000000000000000007F00318031803180DC
:1022700031803F00300030007E0000000000000090
:1022800000000000000000001F00318060C060C03E
:1022900060C060C060C031801F000CC01F800000A3
:1022A00000000000000000007F003180318031809C
:1022B0003E003300318031807CE0000000000000EF
:1022C00000000000000000001F80318031803800D5
:1022D0001F000380318031803F00000000000000BB
:1022E00000000000000000007F804C804C804C808B
:1022F0000C000C000C000C003F000000000000006F
:1023000000000000000000007BC03180318031807F
:1023100031803180318031801F00000000000000DA
:1023200000000000000000007BC0318031801B00F5
:102330001B001B000A000E000E0000000000000041
:102340000000000000000000FBE060C064C06EC040
:102350006EC02A803B803B8031800000000000007E
:1023600000000000000000007BC031801B000E0058
:102370000E000E001B0031807BC00000000000003A
:10238000000000000000000079E030C019800F005C
:1023900006000600060006001F8000000000000086
:1023A00000000000000000003F80218023000600A4
:1023B00004000C00188030803F8000000000000006
:1023C000000000000000078006000600060006006E
:1023D0000600060006000600060006000780000052
:1023E0000000000030003000180018000C000C0045
:1023F0000600030003000180018000C000C000004F
:102400000000000000001E00060006000600060096
:102410000600060006000600060006001E0000007A
:102420000000000004000A000A0011002080208043
:10243000000000000000000000000000000000009C
:10244000000000000000000000000000000000008C
:10245000000000000000000000000000000000007C
:102460000000FFE00800040002000000000000007F
:10247000000000000000000000000000000000005C
:102480000000000000000000000000001F000180AC
:1024900001801F80318033801DC0000000000000DB
:1024A000000000000000700030003000370039806C
:1024B00030C030C030C0398077000000000000001C
:1024C0000000000000000000000000001E803180BD
:1024D00060806000608031801F000000000000000C
:1024E0000000000000000380018001801D80338017
:1024F00061806180618033801DC0000000000000A9
:102500000000000000000000000000001F003180FB
:1025100060C07FC0600030C01F800000000000006D
:1025200000000000000007E00C000C003F800C00E1
:102530000C000C000C000C003F80000000000000AC
:102540000000000000000000000000001DC03380FB
:1025500061806180618033801D80018001801F0067
:1025600000000000000070003000300037003980AB
:1025700031803180318031807BC00000000000005C
:102580000000000000000600060000001E0006001B
:1025900006000600060006003FC000000000000024
:1025A0000000000000000600060000003F000300DD
:1025B00003000300030003000300030003003E00C8
:1025C000000000000000700030003000378036004E
:1025D0003C003C003600330077C0000000000000E3
:1025E0000000000000001E000600060006000600B5
:1025F00006000600060006003FC0000000000000C4
:102600000000000000000000000000007F8036C0D5
:1026100036C036C036C036C076E00000000000008C
:10262000000000000000000000000000770039807A
:1026300031803180318031807BC00000000000009B
:102640000000000000000000000000001F003180BA
:1026500060C060C060C031801F000000000000004A
:10266000000000000000000000000000770039803A
:1026700030C030C030C039803700300030007C00BE
:102680000000000000000000000000001DC03380BA
:1026900061806180618033801D800180018007C07E
:1026A0000000000000000000000000007B801CC053
:1026B00018001800180018007F000000000000003B
:1026C0000000000000000000000000001F803180BA
:1026D0003C001F00038031803F000000000000002C
:1026E0000000000000001800180018007F0018000B
:1026F00018001800180018800F00000000000000EB
:102700000000000000000000000000007380318025
:1027100031803180318033801DC000000000000016
:102720000000000000000000000000007BC03180BD
:1027300031801B001B000E000E0000000000000096
:10274000000000000000000000000000F1E060C098
:1027500064C06EC03B803B80318000000000000000
:102760000000000000000000000000007BC01B0013
:102770000E000E000E001B007BC0000000000000D9
:1027800000000000000000000000000079E030C000
:10279000198019800B000F00060006000C003E0097
:1027A0000000000000000000000000003F802180C9
:1027B00003000E00180030803F8000000000000081
:1027C00000000000000006000C000C000C000C00D3
:1027D0000C0018000C000C000C000C00060000009F
:1027E00000000000000006000600060006000600CB
:1027F00006000600060006000600060006000000AF
:102800000000000000000C000600060006000600A4
:102810000600030006000600060006000C0000008B
:102820000000000000000000000000000000180090
:1028300024800300000000000000000000000000F1
:102840000000000000F5E0700268914203D3436885
:102850009A18914202D380680028F5D17047DFF8BA
:102860005807016891B94FF4803181604FF480516D
:1028700041604FF0FF31C16001610421DFF83C2766
:102880004161C2F8BC11DFF83817016001207047C0
:1028900001F1080313F0070305D001F10803C3F1A8
:1028A000080303F007035918D21A8161C26042F08D
:1028B00001034B60511828234B60DFF8FC160969AF
:1028C000C16170472DE9F84F064601F1080010F08C
:1028D000070008BF884607D001F10800C0F10800D2
:1028E00000F0070000EB010802F1080010F00700FB
:1028F00006D002F10800C0F1080000F007008218BD
:102900001546A5EB0800A0EB030903EB080B43F009
:102910000300C8F80400AB4528BF01F01BFA287972
:10292000C00758BF01F016FAB9F1100F38BF01F017
:1029300011FAB069854209D1F0684844F060C6F8E0
:1029400018B040F00100CBF804006DE170698542D9
:102950000BD1B0684844B060C6F814B040F0010133
:10296000CBF8041040F80B005EE1686800F003014A
:10297000012940F0AD80C008C0000190C0082028A7
:102980003AD2D5F808A0EF680090BD4208BF01F028
:10299000E1F9554508BF01F0DDF968680099C00804
:1029A000C000B0EBC10F18BF01F0D4F9009806EBDE
:1029B000C00000F128018A4507D031698A45C0F07E
:1029C0008280DAF80C10A9427DD1574506D1009AD1
:1029D0003068012191408843306076E0283087429A
:1029E00005D0306987426ED3B868A8426BD1CAF867
:1029F0000C70C7F808A068E0EF68D5F818A0AF42DF
:102A00000CD0A8683169884223D3C168A94204BFA9
:102A1000B968A9421DD1C760B8601CE005F1140077
:102A2000076837B905F110000768A7B101E008464B
:102A3000076807F114010A68002A02BF07F11001B4
:102A40000A68002AF3D13169884202D3002101606B
:102A500001E001F07FF9BAF1000F36D0E86906EB2A
:102A6000800000F5987001688D4208D10760A7B911
:102A7000EA697068012191408843706025E03069FF
:102A8000824508D3DAF81000A84214BFCAF81470BF
:102A9000CAF8107001E001F05DF9B7B13069874202
:102AA00011D3C7F818A0296929B1814226BF39611D
:102AB0008F6101F04FF9686938B13169884202D3FA
:102AC0007861876101E001F045F901984519814479
:102AD00068684008400068604FEAD90549F0010085
:102AE000CBF8040049F80B90202D23D206EBC5004B
:102AF00000F12807BA46B9F1100F38BF01F02AF9E2
:102B0000306820FA05F1C90704D40121A94008431F
:102B1000306006E0B868316988422CBF824601F017
:102B200019F9C7F808B0CAF80CB0CBF808A0CBF870
:102B30000C7079E05FEA192108BF002023D0B1F5BD
:102B4000803F28BF1F201ED2A1F58070000C00F02E
:102B500008008140A1F58052120C02F0040291405D
:102B6000A1F580431B0CC0F10E0003F00203801A94
:102B7000C01A994000EBD130C11D29FA01F202F0D0
:102B8000010101EB4000CBF81C000022CBF814201F
:102B9000CBF8102006EB8001726822FA00F3DB0705
:102BA00001F5987107D4012303FA00F01043706017
:102BB000C1F800B01DE01F2809680EBF00204008C2
:102BC000C0F1190009FA00F000E011464A68D20885
:102BD000D2004A4514D0C20F01EB820202F1100369
:102BE00040001A68002AF0D1306983421AD3C3F832
:102BF00000B0CBF81810CBF80CB0CBF808B013E04D
:102C000032698868914228BF90420BD3C0F80CB05B
:102C1000C1F808B0CBF80800CBF80C100020CBF8B6
:102C2000180001E001F096F808F10800BDE8E68F11
:102C30002DE9FA4D0546DFF88003006884B008B935
:102C4000FFF70DFEDFF870030499806841182F31FB
:102C5000401E21EA00000499814280F0A88105F518
:102C6000D876B16839B132688018824280F09F818D
:102C70008142C0F09C8101F071F800281EBF04461B
:102C8000D0F8008014F1010F00F091813068716874
:102C900040448142306038BF01467160A86980BB02
:102CA000286908B1844200D22C610020F0613461AF
:102CB000C6F8148005F12801BF48006868624FF02B
:102CC000FF302862002001F10802C9601160801CF9
:102CD00010312028D2609260F5D3B848854203D1E4
:102CE000A8F12802214629E055F8040CC00805EB9C
:102CF000C000A0F1080108EB0400401AA0F128026E
:102D00001CE005F5E071084600E08068D0B102687B
:102D100043689A189442F8D1027B120712D4AA6928
:102D200003689A420ED347683B449A420AD208EBA2
:102D300007014160E868A96908EB00022846FFF72F
:102D4000A7FD1EE128698442084638BF2C6108EBC4
:102D5000040100E0806880B102688A42FAD1017BF8
:102D600009070AD404604168414441602146049B3C
:102D7000284606B0BDE8F04DA4E5AF6939462846BF
:102D8000FFF760FD01684068401802902F3800F19D
:102D9000080111F0070105D000F10801C1F1080197
:102DA00001F00701081807F11001884234BF0097AD
:102DB000009000980830019004F10801009800F19B
:102DC000180A11F007014FF0000BA8F1280005D0F8
:102DD00004F10801C1F1080101F007010A19401AC4
:102DE000AA61E86040F0010151608018282141602B
:102DF00071480069E861019810F0070018BF00F001
:102E0000A9FF00991B20486005F5E071B1E80C505E
:102E10000198A0E80C503461C6F81480C6F81CB0C4
:102E20000198B061029800E08A460722CAF804209F
:102E30000AF104010A1D82420BF1010BF4D3BBF12C
:102E4000020FB8BF00F086FF0098B84200F09980EA
:102E5000C01BC119C4084A68520852004A6040F0B9
:102E600001017960C051202C20D205EBC40101F191
:102E70002806B046102838BF00F06CFF286820FAFA
:102E800004F1C90704D40121A1400843286006E0E9
:102E9000B068296988422CBF804600F05BFFB760AC
:102EA000C8F80C70C7F80880FE606AE0010A08BF25
:102EB000002223D0B1F5803F28BF1F221ED2A1F5EA
:102EC0008072120C02F008029140A1F580531B0C95
:102ED00003F004039940A1F58044240CC2F10E02D2
:102EE00004F00204D21A121BA14002EBD131CA1D18
:102EF00020FA02F303F0010202EB4102FA6100231F
:102F00007B613B6105EB82016B6823FA02F4E40705
:102F100001F5987105D401209040184368600F6056
:102F20001CE01F2A09680EBF00225208C2F11902D4
:102F300000FA02F200E019464B68DB08DB0083422E
:102F400010D0D30F01EB830303F110045200236868
:102F5000002BF0D12869844211D32760B961FF604A
:102F6000BF600EE02A698868914228BF904206D36C
:102F7000C7608F60B860F9600020B86101E000F0C0
:102F8000E9FEE8680499814211D2401AE860A96913
:102F9000049A5218AA6140F001005060049840F071
:102FA0000300486006B001F10800BDE8F08D002084
:102FB00006B0BDE8F08D0000F84F00204C4800201E
:102FC0006859883C2DE9F04D0446002688465FEAA2
:102FD0001820C8F1000B08BF002123D0B0F5803FB6
:102FE00028BF1F211ED2A0F58071090C01F0080135
:102FF0008840A0F58052120C02F004029040A0F527
:1030000080431B0CC1F10E0103F00203891AC91A97
:10301000984001EBD030C11D28FA01F202F0010105
:1030200001EB400104EB8100D0F8300130B31F29DF
:103030000EBF00224A08C2F1190208FA02F2002368
:1030400000E052004768FF08FF00A7EB08075F4554
:1030500003D25FEA070B06460CD047694FEAD27EDF
:1030600000EB8E00002F00691CBF87423B46002802
:10307000E7D1184600283CD1002E3CD101208840E1
:103080004000414208436168084000F067814142C6
:103090000840411E080B00F0100021FA00F251090F
:1030A00001F0080122FA01F39A0802F00407FB403C
:1030B0005A0802F00205081823FA05F23844C2F350
:1030C00040032818181822FA03F1081804EB8000AE
:1030D000D0F830010DE008464168C908C900A1EBED
:1030E000080159453CBF8B46064601690029F2D1CB
:1030F00040690028F0D1002E00F03081A068A0EBDC
:103100000800834580F02A8120698642C0F024812E
:103110007068C008C00008EB0B0108EB0605884288
:1031200018BF00F017FEAE4280F01681F768D6F89F
:1031300018A0B7420CD0B0682169884223D3C16877
:10314000B14204BFB968B1421DD1C760B8601CE08C
:1031500006F11400076837B906F110000768A7B137
:1031600001E00846076807F114010A68002A02BF57
:1031700007F110010A68002AF3D12169884202D3BD
:103180000021016001E000F0E5FDBAF1000F38D048
:10319000F06904EB800000F5987001688E4209D157
:1031A0000760380014D1F2696068012191408843BA
:1031B000606026E02069824508D3DAF81000B0424A
:1031C00014BFCAF81470CAF8107001E000F0C2FD14
:1031D000BFB12069874212D3C7F818A0306930B157
:1031E0002169884226BF3861876100F0B3FD7069AC
:1031F00038B12169884202D37861876101E000F02B
:10320000A9FDBBF1100F0CD208EB0B0040F003003E
:10321000706008EB0B008019416841F001014160CA
:1032200096E048F0030070604BF0010068604FEAE0
:10323000DB004BF805B020281DD204EBC00101F1E2
:103240002807216821FA00F2D207BB4605D40122E3
:1032500002FA00F00843206006E0B868216988425D
:103260002CBF834600F076FDBD60CBF80C50C5F84E
:1032700008B0EF606CE05FEA1B2108BF002023D09C
:10328000B1F5803F28BF1F201ED2A1F58070000C31
:1032900000F008008140A1F58052120C02F00402F7
:1032A0009140A1F580431B0CC0F10E0003F0020316
:1032B000801AC01A994000EBD130C11D2BFA01F2DF
:1032C00002F0010101EB4000E86100226A612A611D
:1032D00004EB8001626822FA00F3DB0701F59871C4
:1032E00006D4012303FA00F0104360600D601CE077
:1032F0001F2809680EBF00204008C0F119000BFA12
:1033000000F000E011464A68D208D2005A4510D0B9
:10331000C20F01EB820202F1100340001A68002A7A
:10332000F0D12069834211D31D60A961ED60AD60C9
:103330000EE022698868914228BF904206D3C5609A
:103340008D60A860E9600020A86101E000F002FD46
:1033500006F10800BDE8F08D00F0FCFC0020BDE89F
:10336000F08D2DE9F84F04468846606841420840D8
:10337000411E080B00F0100021FA00F2510901F083
:10338000080122FA01F39A0802F0040223FA02F576
:103390006B0803F00203081825FA03F61018C6F3A9
:1033A00040051818284426FA05F1081804EB800097
:1033B000D0F830014168C908C9000646A1EB080AE7
:1033C00009E008464168C908C900A1EB0801514558
:1033D0003CBF8A46064601690029F2D140690028AF
:1033E000F0D120698642C0F0C4807068C00808EB44
:1033F0000A09C00008EB060B484518BF00F0AAFCFC
:103400005E4580F0B680F768B569B7420CD0B06809
:103410002169884223D3C168B14204BFB968B1426F
:103420001DD1C760B8601CE006F11400076837B909
:1034300006F110000768A7B101E00846076807F128
:1034400014010A68002A02BF07F110010A68002A65
:10345000F3D12169884202D30021016001E000F02C
:1034600079FC002D34D0F06904EB800000F59870F1
:1034700001688E4209D10760380011D1F269606895
:10348000012191408843606022E02069854205D394
:103490002869B04214BF6F612F6101E000F05AFC4F
:1034A000B7B12069874211D3BD61306930B121695C
:1034B000884226BF3861876100F04CFC706938B1E2
:1034C0002169884202D37861876101E000F042FC03
:1034D000BAF1100F09D249F00300706009EB060041
:1034E000416841F0010141603FE048F00300706035
:1034F0004AF00100CBF804004AF80BA0D4F8088089
:103500004FEAD805202D28BF00F024FCB8F1000FA9
:1035100027D0D4F81490009504EBC50000F12805DD
:103520002F46B8F1100F38BF00F014FC2068009946
:1035300020FA01F2D10705D4009A012191400843F5
:10354000206006E0A868216988422CBF074600F089
:1035500001FCC5F80890C7F80C90C9F80870C9F8C4
:103560000C50C4F808A0C4F814B006F10800BDE877
:10357000F28F00F0EFFB0020BDE8F28F2DE9F04F55
:1035800083B00546C046C046F52DDFF8C04780F041
:1035900007810B2D31BF102705F10B00C708FF0075
:1035A0002168FE0821FA06F010F0030F42D0C04354
:1035B00000F00100861904EBC60000F12808F700AE
:1035C000D8F808506868C008C000B84218BF00F0BA
:1035D000C1FBD5F80890454508BF00F0BBFB4D4541
:1035E00008BF00F0B7FB6868C008C000B84218BF49
:1035F00000F0B0FBC84505D120680121B1408843E7
:1036000020600DE02069814508D3D9F80C00A8425C
:1036100004D1C8F80890C9F80C8001E000F09AFBCA
:1036200047F00300686078190835416841F00101EE
:103630004160FDE0A168B94280F0C480002800F03C
:10364000A680012505FA06F149004A42B04011431F
:10365000084041420840411E080B00F0100021FACA
:1036600000F2510901F0080322FA03F18A0802F07E
:10367000040221FA02F6710801F00208181826FA6D
:1036800008F11018C1F340064044301821FA06F240
:1036900002EB000804EBC80000F128094FEAC80A51
:1036A000D9F808607068C008C000504518BF00F025
:1036B00051FBD6F808B04E4508BF00F04BFB5E4505
:1036C00008BF00F047FB7068C008C000504518BF35
:1036D00000F040FBD94505D1206805FA08F1884380
:1036E00020600DE02069834508D3DBF80C00B04270
:1036F00004D1C9F808B0CBF80C9001E000F02AFB27
:1037000047F003007060AAEB0708B819019048F071
:10371000010001994860019848F80080A7684FEAC5
:10372000D70ABAF1200F28BF00F014FB47B3CDF839
:1037300000A004EBCA00D4F8149000F1280AD34684
:10374000102F38BF00F006FB2068009920FA01F224
:10375000D10705D4009905FA01F10843206007E07C
:10376000DAF80800216988422CBF834600F0F2FA9B
:10377000CAF80890CBF80C90C9F808B0C9F80CA0AA
:10378000C4F8088006F108050198606150E060689F
:10379000C0B339462046FFF7E4FD050012D047E0EC
:1037A00015F1400F28BF4FF0FF370BD205F10B008A
:1037B000C7086068FF0028B139462046FFF702FCC1
:1037C000050035D1A068B8421CD3C11B626910291D
:1037D0000AD3B8186061A16041F001034360095049
:1037E00047F0030050600AE00021A160616140F0F1
:1037F000030151608018416841F00101416002F10C
:10380000080515E0E06887420DD2C01BA169E060A1
:103810007A18A26140F00100506001F1080547F0FC
:103820000300486004E039462046FFF701FA0546E8
:10383000C046C046284603B0BDE8F08F00B97047C7
:103840002DE9F047A0F10804C046C046DFF8FC545B
:1038500028698442C0F07482616801F00302012A81
:1038600000F06E82CA084FEAC208CA0708EB0409D2
:1038700036D4226811F0030F00F06482A41A844247
:103880009044C0F05D8269698C4200F0D880D6080F
:10389000202E70D2D4F80CA0A768544508BF00F0C1
:1038A00059FABC4208BF00F055FA6068C008C00071
:1038B000B0EBC60F18BF00F04DFA05EBC60000F1E3
:1038C00028018F4205D029698F4251D3F968A1425E
:1038D0004ED1BA453DD128680121B14088432860C6
:1038E0004C4580F02D82D9F80400C10740F12882B0
:1038F000810700F17A81A969894540F0B580E868BF
:10390000AC614044E86040F00101616069698C424B
:1039100002D100216961A960E969814280F01282C7
:10392000DFF82C04006808B9FEF799FFA96900299F
:1039300000F00882E868292824BF2846FEF782FFA5
:10394000E869E968884280F0FD814FF0FF30E86166
:10395000F8E12830824506D02869824508D3DAF894
:103960000800A04204D1C7F80CA0CAF80870B7E755
:1039700000F0F0F9B4E7E768A669A7420BD0A168A8
:10398000814222D3C868A04204BFB868A0421CD1BB
:10399000CF60B9601BE004F114010F6837B904F17E
:1039A00010010F689FB101E011460F6807F1140282
:1039B0001368002B02BF07F110021368002BF3D12C
:1039C000814202D30020086001E000F0C3F9002E1C
:1039D00086D0E06905EB800000F5987001688C42A4
:1039E00009D10760380011D1E2696868012191406E
:1039F0008843686074E72869864205D33069A0422D
:103A000014BF7761376101E000F0A4F9002F3FF4A3
:103A100067AF28698742ABD3BE61216929B1814272
:103A200026BF39618F6100F095F9606900283FF485
:103A300057AF296988429BD37861876150E799F82D
:103A4000040000F0030003287FF44AAFC5F80880A3
:103A5000D9F8040040084000C9F8040048F001000B
:103A6000606048F804806DE16969894508D1A868FB
:103A70006C614044A86040F001016160005161E167
:103A8000C008C0004FEAD00ABAF1200F804436D2F5
:103A9000D9F80C70D9F80860B94508BF00F05AF998
:103AA000B14508BF00F056F9D9F80400C008C000BD
:103AB000B0EBCA0F18BF00F04DF905EBCA0000F1DA
:103AC00028018E4206D029698E42C0F08180F168BB
:103AD00049457DD1B74206D12868012101FA0AF192
:103AE0008843286076E02830874205D028698742DD
:103AF0006ED3B86848456BD1F760BE606AE0D9F80C
:103B00000C70D9F818604F450DD0D9F80800296914
:103B1000884223D3C168494504BFB96849451DD1CE
:103B2000C760B8601CE009F11400076837B909F1F3
:103B300010000768A7B101E00846076807F1140103
:103B40000A68002A02BF07F110010A68002AF3D1AF
:103B50002969884202D30021016001E000F0FAF8EF
:103B6000002E37D0D9F81C0005EB800000F59870C6
:103B7000016889450AD10760380012D1D9F81C20A4
:103B80006868012191408843686023E02869864283
:103B900005D33069484514BF7761376101E000F013
:103BA000D9F8BFB12869874212D3BE61D9F8101085
:103BB00029B1814226BF39618F6100F0CBF8D9F875
:103BC000140038B12969884202D37861876101E025
:103BD00000F0C0F848F00100606048F804806869AF
:103BE00084420BD1C5F80880ACE040084000C9F819
:103BF000040048F00100606048F804804FEAD807EC
:103C0000202F22D205EBC70000F128094E46B8F15B
:103C1000100F38BF00F09EF8286820FA07F1C90796
:103C200004D40121B9400843286007E0D9F808000E
:103C3000296988422CBF064600F08CF8C9F8084074
:103C4000F460A660C4F80C907CE05FEA182008BF1E
:103C5000002123D0B0F5803F28BF1F211ED2A0F540
:103C60008071090C01F008018840A0F58052120C07
:103C700002F004029040A0F580431B0CC1F10E013C
:103C800003F00203891AC91A984001EBD030C11D14
:103C900028FA01F202F0010101EB40010022626109
:103CA0002261E16105EB81006A6822FA01F3DB071A
:103CB00000F5987006D4012303FA01F111436960FD
:103CC00004601CE01F2900680EBF00214908C1F1F3
:103CD000190108FA01F100E010464268D208D2004A
:103CE000424510D0CA0F00EB820202F110034900D6
:103CF0001A68002AF0D129698B4211D31C60A06197
:103D0000E460A4600EE02A698168904228BF914275
:103D100006D3CC608460E060A1600020A06101E077
:103D200000F018F8286A401E28620BD1D5F8C801A7
:103D300000E080680028FCD14FF0FF30286201E0ED
:103D400000F008F8C046C046BDE8F0874C480020A7
:103D5000F84F0020012000F017B80000074908685C
:103D600008B1002070470648C008C0000860054937
:103D7000C908C900091A0160704700BF305000200F
:103D800047540020405C002080B5C046C046024A2F
:103D900011001820ABBEFBE72600020070B5A6B0EC
:103DA00000F07AFE00F04DF900F07AFA00F013FA14
:103DB00000F024FA00F05EFADFF8A84BDFF8A80B59
:103DC00004F5907528604FF4E13068600020A86029
:103DD000E86028610C2068610020A861E86128463D
:103DE00000F08EFE00B1FEE7DFF8800B20644FF498
:103DF000827060640020A064E064206560654FF418
:103E00000070A0650020E06520666066A0660A205C
:103E1000E06604F1400000F069FF00B1FEE704F144
:103E20009806DFF84C0B7063DFF8480BB063002096
:103E3000F06330644FF4804070640020B064F0643C
:103E40003065706504F1CC0001F02EFA00B1FEE798
:103E500000F05CF9DFF8200B206000206060022099
:103E6000A0600020E060A0620220E06200202063E9
:103E70006063204601F018FE00B1FEE701212046F4
:103E800001F0D2FE00B1FEE7DFF8F00A306000A9D1
:103E9000012070600020B0600420F06010203061CC
:103EA000402070618020B0610020F061306270625B
:103EB000B062102000900190029003900490059051
:103EC0000690304601F046FF00B1FEE7DFF8B00A89
:103ED000286404F5B07001F088FF00B1FEE7DFF858
:103EE000A44A00F0AAF800F0A4F8042100F0A6F813
:103EF000042100F09FF8DFF8904A00F09EF800F0EF
:103F000098F8082100F09AF8082100F093F8DFF8FB
:103F10007C4A042100F092F8042100F08BF8002084
:103F200001F082FF012001F07FFF0121002001F05C
:103F300086FF02F0C9F9DFF8581A002002F012FAE1
:103F4000002002F04FFA4FF07F4002F067FA4FF086
:103F50007F4002F053FA6FF47F0002F047FADFF877
:103F6000340A02F053FA40F23F13EF2200210020FE
:103F700002F011FB03230FF688220821052002F02E
:103F80007EFADFF8140A02F031FA00F0D6FCDFF80E
:103F90000C0A02F03BFA02F0E0F9044602F0D8F90C
:103FA000A1B280B202F01AFD20A80FF674211422EB
:103FB00002F088FD002120A802F0BBFDE864142275
:103FC0001BA80FF6702102F07DFD00211BA802F056
:103FD000B0FD2865142216A80FF66C2102F072FDC0
:103FE000002116A802F0A5FD6865142211A80FF69D
:103FF0006C2102F067FD002111A802F09AFDA8656E
:1040000014220CA80FF6682102F05CFD00210CA818
:1040100002F08FFDE865142207A80FF6682102F070
:1040200051FD002107A802F084FD286602F07CFD06
:10403000FEE70021204602F0A5BD0021204602F047
:1040400026BE10B59EB0002000904FF48034DFF8FB
:104050005009016841F080510160006800F0805013
:104060000090009800200090DFF83809016821F4E2
:10407000404141F480410160006800F440400090FC
:104080000098139401201290022018904FF48000A1
:10409000199008201A90C0201B9004201C901D909D
:1040A00012A803F02FF800B1FEE70F2001900121C4
:1040B00002200290002003904FF4A05004904FF48F
:1040C0008050059001A803F062F900B1FEE70820D6
:1040D00006900F9464200A9004200C9006A803F028
:1040E0005FFA00B1FEE703F012FA4FF47A71B0FB09
:1040F000F1F003F098FB042003F0A9FB00220F214C
:104100004FF0FF3003F068FB1EB010BDDFF89808D9
:1041100030B5DFF89848206000206060A060E06063
:1041200020610021092060619BB00120A0611D2059
:10413000E0610320206240F20D10606240F2431003
:10414000A06240F21710E06240F24710206304F1D1
:10415000340001808170204603F090FB00B1FEE73F
:104160000D900E9000210EA800F02FF84FF48065FE
:104170000521C1618561002101624162816219A846
:104180008DF864104170817000220DA9204603F063
:10419000E8FB00B1FEE700900190002101A800F0CB
:1041A00014F885610521C16101220021016241628B
:1041B00081620CA8ADF830108170204600A903F090
:1041C000D0FB00B1FEE71BB030BD41608160C16033
:1041D0000161416170474FF0804010B5DFF8A4479E
:1041E00020600A2060608AB000F03AF800F030F8F1
:1041F00000F021F800B1FEE7042211E0DFF8B0077B
:1042000010B5DFF8844720600A2060608AB000F0B3
:1042100027F800F01DF800F00EF800B1FEE70822C4
:1042200002A9204602F0EFFD00B1FEE7204603F0B0
:10423000B9FD0AB010BD00B1FEE760200290002277
:10424000002003900490069002A9204602F0DBBDF6
:1042500000B1FEE70090019000A9204602F0A4BC46
:104260000020A06045F2E470E0600020206120465C
:1042700002F0FCBCDFF83C0710B5DFF81047206007
:104280000A2060608AB0FFF7EBFFFFF7E1FF00B1A3
:10429000FEE760200290042200F0B8F80690BFE725
:1042A0002DE9F04186B0002000900022DFF80807D9
:1042B000DFF808470168DFF80857DFF80867DFF81C
:1042C0000887DFF8087741F004010160016801F018
:1042D000040100F085F841F020010160016801F05F
:1042E000200100F07DF841F080010160016801F0DB
:1042F000800100F075F841F001010160016801F0F2
:10430000010100F06DF841F002010160016801F067
:10431000020100F065F841F040010160016801F020
:10432000400100F05DF841F010010160016801F00A
:10433000100100F055F841F00801016016210068F5
:1043400000F0080000900098204603F08DFF002246
:104350008021284603F088FF00224FF44051304668
:1043600003F082FF00224FF4C041404603F07CFF7F
:10437000162000F047F8204603F0FCFD48F2070045
:1043800000F03AF8284603F0F5FD802000F03AF8F6
:10439000284603F0EFFD202000F02EF8204603F021
:1043A000E9FD042000F022F8DFF8240603F0E2FD26
:1043B0004FF4006000F01AF8304603F0DBFD4FF4D4
:1043C000405000F01FF8304603F0D4FD4FF4C040D9
:1043D00000F018F8404603F0CDFD06B0BDE8F081CE
:1043E000009100990021009101687047019001A996
:1043F00000200290039070470190029700200390E4
:1044000001A97047019001A90120029000200390AA
:104410000490704790ED001AB4EE401AF1EE10FAD5
:1044200048BFB0EE401A06D4F4EE410AF1EE10FA9D
:1044300048BFB0EE601A80ED001A704710B503F067
:104440003FFF002405E0642C00DA641C642002F0C5
:1044500087FB002001F030FD0128F4D10B2CF2DBAA
:10446000DFF87005C16F81F00101C1671E21C06FC7
:1044700000F13002D2B2142001F0E9FF0024E4E799
:1044800038B5DFF854450FF29051072204F11000BF
:1044900002F018FBDFF83C55207B012814D10020E6
:1044A00020730A21207810FB01F061784018A0F5F4
:1044B000047080B200EE100AB8EE400AF2EE040A70
:1044C00080EE200A85ED000A4FF47A7002F048FB76
:1044D000E2E780B50A2002F043FBFBE700000000A2
:1044E00070B52DED028BDFF8F444DFF8F454DFF8FB
:1044F000E4649FED9A8A30E030697062DFED980ADB
:1045000096ED050ADFF8DC0400F04FF985ED000AAE
:1045100096ED060A00F049F985ED010A96ED070AC5
:1045200000F043F984ED000A96ED080A00F03DF929
:1045300084ED020A96ED090A00F037F980ED000AD1
:104540007069B062B069F062F0693063306A7063BC
:10455000706AB0630A2002F003FBD6ED140A96EDF0
:104560000F0A3046FFF756FFD6ED150A96ED100AF2
:10457000301DFFF74FFFD6ED160A96ED110A06F132
:104580000800FFF747FFD6ED170A96ED120A06F16D
:104590000C00FFF73FFFD6ED180A96ED130A06F15F
:1045A0001000FFF737FF96ED0A0AD6ED000A00F07B
:1045B00005F909D500F0F2F8D6ED000A00F0FEF892
:1045C0001BD500F0EBF815E096ED000AD6ED0A0ACF
:1045D00000F0F4F813D596ED000AD6ED0A0A96ED30
:1045E000191A00F0E9F808D596ED0A0AD6ED190A6D
:1045F00030EE600A86ED050A01E03068706196EDE4
:104600000B0AD6ED010A00F0D9F809D500F0BFF881
:10461000D6ED010A00F0D2F81BD500F0B8F815E08D
:1046200096ED010AD6ED0B0A00F0C8F813D596ED09
:10463000010AD6ED0B0A96ED1A1A00F0BDF808D55E
:1046400096ED0B0AD6ED1A0A30EE600A86ED060AE0
:1046500001E07068B06196ED0C0AD6ED020A00F038
:10466000ADF809D500F08CF8D6ED020A00F0A6F8F6
:104670001BD500F085F815E096ED020AD6ED0C0A80
:1046800000F09CF813D596ED020AD6ED0C0A96EDD3
:104690001B1A00F091F808D596ED0C0AD6ED1B0A0E
:1046A00030EE600A86ED070A01E0B068F06196ED31
:1046B0000D0AD6ED030A00F081F809D500F059F88B
:1046C000D6ED030A00F07AF81BD500F052F815E099
:1046D00096ED030AD6ED0D0A00F070F813D596EDAD
:1046E000030AD6ED0D0A96ED1C1A00F065F808D500
:1046F00096ED0D0AD6ED1C0A30EE600A86ED080A2A
:1047000001E0F068306296ED0E0AD6ED040A00F082
:1047100055F80BD500F026F8D6ED040A00F04EF857
:1047200013D500F01FF886ED090AE7E696ED040AB6
:10473000D6ED0E0A00F042F8F7D596ED040AD6ED54
:104740000E0A96ED1D1A00F037F87FF5D5AE96EDFE
:104750000E0AD6ED1D0A30EE600AE4E700C82F47C6
:104760000000C84296ED0E0AD6ED1D0A30EE200A72
:10477000704796ED0D0AD6ED1C0A30EE200A704700
:1047800096ED0C0AD6ED1B0A30EE200A704796ED26
:104790000B0AD6ED1A0A30EE200A704796ED0A0A87
:1047A000D6ED190A30EE200A704720EE080A80EE96
:1047B000200ABDEEC00A704770EEC10AB4EE600A6E
:1047C000F1EE10FA704700002DE9F8432DED088B4B
:1047D0004FF47A74002725469FED5E8ADFED5E8AEE
:1047E00040F2DC589FED5D9AF0EE089A4FF4FA69BA
:1047F000B1EE0EAAF1EE08AA9FED59BAF2EE00BA98
:10480000744E06E086ED02BA07464FF4FA7002F0E5
:10481000A7F9B16F01EBD1725210781CA1EB4201E4
:1048200001290AD107EBD7714910B7EB41010EBF3F
:10483000C6ED01BA6C497160E4E7F16F0129E4D17A
:104840000C2197FBF1F10C2202FB117121B986EDCD
:1048500002BAC6ED03AA37E0012902D163497160AB
:1048600032E0022908BF86ED00AA37D0032904D11F
:10487000C6ED009A86ED019A30E0042932D0052970
:1048800002D15B49F1602FE006290CD186ED00AA28
:10489000C6ED018A86ED02BA86ED1A8A86ED1B8A7C
:1048A00040F6C4152AE0072908D1C6ED018AC6EDF5
:1048B00002BA86ED1A8A4FF4FA751FE0082905D16D
:1048C000C6ED018A86ED02BA254617E0092907D10F
:1048D000C6ED009A86ED019A86ED1A8A4D460DE0E6
:1048E0000A2903D14349B160454607E00B2905D1A8
:1048F00086ED1A8AC6ED03AA47F2305507462846C8
:1049000085E700B583B007E0234801F06FFD00F0B4
:1049100014F80A2002F024F900A802F077F8BDF894
:1049200000000028F0D0BDF80410BDF802000322FA
:1049300001F04AFE4FF0FF20E7E75022A021782047
:1049400001F0BDBE00682C49884208BF00F0BCB829
:10495000704700008FC2F53C33332B413333CB40DB
:104960009A99D940244A002000500040005001404C
:10497000005C0040A086010000B00240400100A0A1
:1049800000080650B84E0020F44E0020304F0020A2
:10499000000013D00C0400200000FFFFA80000203E
:1049A000403802400070004000680140A84B0020E1
:1049B0000004004000080040303802400008024077
:1049C00000000240000C02400018024000001210DB
:1049D00000040240B0000020DC4F002034040040FE
:1049E0003400004038080040000020410000104121
:1049F000333313410000144100100040FEE7000073
:104A0000526F626F746B61722076657A65726C6545
:104A100073207631000000006563686F3A0D000076
:104A20005CB800083D440008FEFF000000000000E4
:104A30008000000068B80008814400080000000001
:104A4000000000008000000074B80008D344000893
:104A500001000000000000008000000080B8000895
:104A6000E144000801000000000000008000000098
:104A70008CB80008C94700080000000000000000D2
:104A8000800000009CB800080349000800000000F6
:104A9000000000008000000080B51748016841F464
:104AA00000710160016841F480610160016841F4B6
:104AB00080710160032002F082FE002003F01CFCE4
:104AC00003F014F8002002BD0C480168491C016085
:104AD00070470A480068704731B5FFF7FAFF009D3C
:104AE00015F1010F044618BF6D1CFFF7F2FF001B04
:104AF000A842FAD331BD0000003C024028500020FB
:104B000038B5050001D1012032BD05F138046078C7
:104B100018B92070284603F086F900F017F800F065
:104B20000DF821F02A01FFE74161286800F019F82B
:104B3000606020206070A070002032BD286801698C
:104B400021F4904101612868416970472420607018
:104B50002868C16821F40051C160284600F007B8F8
:104B60002068C16841F40051C160002070472DE900
:104B7000F0470446642520680169E26821F4405149
:104B8000114301611926C168474A1140A2681143C7
:104B90002269114362691143E2691143C1604169AD
:104BA000A26921F4407111434161E3693F49404AE0
:104BB000B3F5004F3AD1904218BF88420ED102F0AF
:104BC000B1FC074602F0AEFC804602F0ABFC814629
:104BD00002F0A8FC824602F0A5FC0DE002F09AFC6F
:104BE000074602F097FC804602F094FC814602F0F2
:104BF00091FC824602F08EFC06FB08F361684900D6
:104C000000F058F8DB003233B3FBF5F3B2FBF1F2FE
:104C100003F0F803B2FBF5F25B0000F058F8C000B7
:104C20003230B0FBF5F000F0070038E0904218BFDA
:104C300088420ED102F076FC074602F073FC8046F3
:104C400002F070FC814602F06DFC824602F06AFCC4
:104C50000DE002F05FFC074602F05CFC804602F0CB
:104C600059FC814602F056FC824602F053FC06FBDA
:104C700008F36168890000F01DF81B013233B2FBB4
:104C8000F1F2B3FBF5F3B2FBF5F203F0F00300F041
:104C90001EF800013230B0FBF5F000F00F00216883
:104CA00080188860BDE8F087F369FFFF00140140B9
:104CB00000100140B3FBF1F306FB07F206FB09F716
:104CC000B7FBF1F7B7FBF5F705FB1733704703EBBD
:104CD0000212704306FB0AF3B0FBF1F0B3FBF1F3F1
:104CE000B0FBF5F005FB10307047000038B504004C
:104CF00001D1012032BD0020A06204F15005687886
:104D000018B92870204602F0F9FF0220687000F000
:104D100067FA6068A1680843E168084321690843AD
:104D200061690843A16901F400710843E16908431E
:104D3000216A0843A16A084321680860A069616A82
:104D4000000C00F004000843216848602068C16935
:104D500021F40061C16100206860012068700020BA
:104D600032BD10B508B9012010BD00F15004022178
:104D7000617000F03EFA02F0D9FF002060606070C0
:104D8000207010BD2DE9F04700F012FA82B089467C
:104D90009246984608BF022000F0828001202870C9
:104DA000FFF797FE07466878012818BF022475D1DF
:104DB000B9F1000F18BFBAF1000F6ED00320687070
:104DC0006C60C6F83090A6F834A0A6F836A0B4639C
:104DD000B487F4877464346400F0F1F900F0E4F906
:104DE00001D400F0DCF9F068B0F5006F70681FD1F5
:104DF00000281CBFF08E012809D1316839F8020B58
:104E0000C86002E039F8021BC16000F0ACF9F08E16
:104E100070B300F0B0F9F5D4B8F1000F2DD018F14F
:104E2000010FF4D0FFF755FEC01B4045EFD324E03F
:104E300000281CBFF08E012809D1316819F8010B38
:104E4000087302E019F8011B017300F08CF9F08E71
:104E500070B100F090F9F5D4B8F1000F0DD018F151
:104E6000010FF4D0FFF735FEC01B4045EFD304E03F
:104E70000097434600F071F908B103240EE03A466A
:104E80004146304600F000FA18B120200124686045
:104E900004E000F074F9686800B1012400F079F9C9
:104EA000BDE8F6872DE9F047002582B00646884622
:104EB0007068B0F5827F04BFB068002892461F4634
:104EC00006F1500408D10420607000975346424612
:104ED000304600F076F872E02078012808BF022002
:104EE0006DD001202070FFF7F4FD81466078012825
:104EF00018BF02255ED1B8F1000F18BFBAF1000F3C
:104F000057D0042060706560C6F83880A6F83CA0D1
:104F1000A6F83EA03563B586F58635647564B0683D
:104F2000B0F5004F00F055F900F03EF901D400F063
:104F300036F9F068D0B904E0007B08F8010B00F006
:104F400008F9F08F18B300F012F9F5D4EFB117F1AA
:104F5000010FF6D0FFF7BDFDA0EB0900B842F0D37A
:104F600013E0C06828F8020B00F0F3F8F08F70B17E
:104F700000F0FDF8F5D447B117F1010FF6D0FFF7B7
:104F8000A8FDA0EB0900B842F0D3032512E0706839
:104F9000B0F5827F0BD1B068B0F5004F18BFB0F507
:104FA000806F04D13068016821F0400101606068C1
:104FB00000B1012501206070002020702846BDE866
:104FC000F6872DE9F84F064606F1500501272878A7
:104FD00000240128894690469B4608BF022000F025
:104FE000B5802F70FFF775FD82466878012809D0DB
:104FF0007168B1F5827F02BFB1680029042801D031
:105000000224A1E0B9F1000F1CBFB8F1000FBBF101
:10501000000F01D1012497E06878012804BF052022
:1050200068706C60C6F83880A6F83EB0A6F83CB050
:10503000C6F83090A6F836B0A6F834B0346474647C
:1050400000F0B2F801D400F0AAF8F068DDF828B05A
:10505000B0F5006F706831D100281CBFF08E0128B8
:1050600005D1316839F8020BC86000F07CF8F08E89
:10507000002804BFF08F002852D0002F1CBFF08EF4
:10508000002807D000F077F804D539F8021BC1607A
:1050900000F068F8F08F38B100F069F804D5C06806
:1050A00028F8020B00F054F81BF1010FDFD0FFF7D6
:1050B00010FDA0EB0A005845D9D337E000281CBFEB
:1050C000F08E012805D1316819F8010B087300F042
:1050D0004AF8F08E002804BFF08F002820D0002F5F
:1050E0001CBFF08E002807D000F045F804D519F851
:1050F000011B017300F036F8F08F38B100F037F87B
:1051000004D5C06808F8010B00F022F81BF1010F6C
:10511000DFD0FFF7DEFCA0EB0A005845D9D305E04D
:10512000CDF800A05B4600F018F808B103240BE0AE
:1051300052465946304600F0A7F818B12020012405
:10514000686001E000F01BF800F023F8BDE8F28F82
:105150000127F08F401EF087704701220221304660
:1051600000F04DB80027F08E401EF0867047306882
:105170008168C90770473068816889077047B068DF
:1051800030B900903068C168009180680090009844
:105190007047012068700020287020467047016821
:1051A00041F040010160704730680168490670476E
:1051B000064606F150050024287801287047B0689B
:1051C000B0F5004F04D13068016841F480410160BE
:1051D000704704D13068016821F480410160704754
:1051E0002068016821F040010160704790F851008B
:1051F000704701680A6822F040020A6070472DE992
:10520000F041069E04460D4690461F462068806881
:105210002840A8420CBF01200020404531D017F1A2
:10522000010FF3D027B1FFF754FC801BB842EDD338
:105230002068416821F0E00141606068B0F5827F3C
:1052400008D1A068B0F5004F18BFB0F5806F01D14C
:10525000FFF7C6FFA06AB0F5005F0AD120680168B9
:105260004DF6FF72114001602068016841F4005161
:10527000016004F150000121417000210170032000
:1052800000E00020BDE8F08110B582B00B4600922E
:10529000044600228021FFF7B2FF20B1606D40F08C
:1052A00020006065032016BD38B5040001D101203F
:1052B00032BD04F13C05687818B92870204602F028
:1052C0005AFC00F064F802F025F92268DFF81C119E
:1052D000B0FBF1F151606368DFF81421934206D30B
:1052E0004FF4967359434FF47A73B1FBF3F123688B
:1052F000491C19626168914208D24900B0FBF1F083
:105300000105090D042913D2042011E0A26822B975
:1053100001EB4101B0FBF1F005E019225143B0FB74
:10532000F1F040F4804001050CBF012040F4004042
:105330002168C861E069216A084321680860206922
:10534000E1680843216888606069A16908432168B1
:10535000C860206800F0E6F90020686020206870CE
:1053600000202063A87032BD38B5040001D10120AF
:1053700032BD04F13C0500F00AF8204602F029FC99
:105380000020686068702063A870287032BD2420F7
:1053900068702068016849084900016070470095FD
:1053A00019230122DFF8281170473246294620468A
:1053B00000F038BB0120387020680168C90703D4A9
:1053C000016841F0010101607047606A411C61623F
:1053D000216809690170208D401E2085608D401E66
:1053E00060852068416949077047000040420F000E
:1053F000A18601002DE9FC4700F052F900F071F898
:1054000058D1FFF7CCFF00F0ACF9002852D130782A
:1054100001284FD000F088F8534600F068F84A465B
:105420004020B0704146002070600A9860620B987E
:10543000608500F047F80C9F0195009700F0A5F9F2
:1054400078B17068042802D1002030702BE0002071
:1054500030702AE0606A421C62620078086100F0E5
:1054600039F8208DB8B12A46394600F05AF8A8B963
:10547000606A411C6162216800780861208D401ECD
:105480002085618D491E618521684A695207E8D5EA
:1054900080B20028DED100F010F840B17068042816
:1054A00003D100F061F9012005E0032003E000F0E2
:1054B00026F800E00220BDE8F6872A463946204655
:1054C00000F089BA9348E062608D208520467047DD
:1054D00002001000208D401E2085608D401E6085DA
:1054E000704704F13C060546707820287047206814
:1054F000016821F40061016021207070704720680C
:10550000016841F400710160202070700020B070CB
:105510003070704720684169009141468069009071
:105520000098204600F03EBA0120307020680168E3
:10553000C90703D4016841F00101016070472DE9FA
:10554000FC4700F0ADF800F08DF87CD10096FFF735
:1055500027FF00F006F9002875D13878012872D0AD
:10556000FFF728FF534600F0AFF84A464020B870D6
:10557000414600F0D1F800F088F8608D2085019652
:1055800020460C9D009500F049F940B17868042848
:1055900002D1002038704BE00020387046E0208DAA
:1055A00020B12168012804D100F056F800F094F8E9
:1055B00015E0022807D1086800F07DF8002000F00F
:1055C00075F8806904E000200090486900908869BF
:1055D0000090009803E000F051F8FFF77BFF208D6A
:1055E00000282DD004281BD2012804D1FFF7DDFEAE
:1055F0000028F0D017E000F029F808D10022414639
:1056000000F0AFF8002811D100F072F8E3E70022B3
:10561000414600F0A6F848B900F08EF830B9F3E73B
:10562000FFF7C3FE30B17868202801D103200BE0DA
:10563000012009E0FFF7C9FED1D500F019F8CCE749
:1056400000F028F800E00220BDE8F6870228DFF825
:105650002C8100962B467047086820F48060086013
:105660000020704704F13C070646787820287047F0
:10567000616A4A1C6262006908707047606A411C76
:105680006162216809690170704760852148E062A4
:1056900070470000202078700020B8703870704784
:1056A0000446884691469A46FFF713BA0090206850
:1056B00041690091704720F48060086020680168AB
:1056C00041F40061016070472068016821F40061C5
:1056D0000160222078707047009020684169009135
:1056E000816900910099016841F40071016070477F
:1056F0002068016841F400710160606A411C6162C8
:10570000216809690170208D401E2085608D401E32
:10571000608570470000FFFF002078600A98606293
:105720000B987047016841F0010101607047016802
:1057300041F40071016070472068016821F48061C4
:1057400001602B46606A411C616200222168096980
:1057500001704146208D401E2085608D401E608571
:105760000096204600F0B7B82068016841F4007147
:105770000160704790F83D00704700000400010090
:10578000434600224FF0011170472DE9F8430446CB
:10579000894600F037F8DDF82080099F15461E463F
:1057A0000097FFF7EDFFFFF7DCFF18BB216809F05A
:1057B000FE0008613B464246424900F02DF818B110
:1057C000206C042816D113E000903A46FFF7A2FEA1
:1057D00048B9012E10D02168280A08613A4641468E
:1057E000FFF79FFE40B1206C042803D1FFF7BCFFF8
:1057F000012005E0032003E02068EDB205610020F0
:10580000BDE8F2832068016841F48071016070474F
:1058100008612B4642465146204685E02DE9F04777
:10582000044682B020688946016841F480610160C5
:105830001646FFF7E7FFDDF828800B9D00951F4611
:10584000FFF79EFFFFF78DFF002838D12168DFF8B2
:1058500074A009F0FE00FFF7DBFF00282AD10090BA
:105860002A46FFF757FE88B9012F07D02168300A72
:1058700008612A464146FFF754FE38B92068F6B25F
:1058800006612A464146FFF74CFE28B1206C0428E9
:1058900015D1FFF769FF10E000F016F8FFF770FF71
:1058A000FFF75FFF58B9216849F00100C0B2FFF768
:1058B000AFFF28B1206C042801D1012000E00320B3
:1058C000BDE8F687020001002068016841F480719C
:1058D0000160009570472DE9F041069E04460D4693
:1058E00090461F4629022068090E01290CBF406915
:1058F0008069284080B2A9B288420CBF01200020F4
:1059000040450ED117F1010FECD027B1FFF7E1F8B8
:10591000801B8742E6D200F03DF8817001700320C1
:1059200000E00020BDE8F081F8B500F06DF81F46FA
:105930002902090E2068012916D14169294089B23E
:10594000AAB2914216D04169490515D5FFF7EFFE7D
:105950006FF480602168486104F13C0004214160DB
:10596000002100F07EF8F2BD8169294089B2AAB217
:105970009142E8D10020F2BD16F1010FD8D026B136
:10598000FFF7A7F8C01B8642D2D200F003F80170DF
:105990000320F2BD00202063202104F13C0041706F
:1059A0000021704770B500F02FF8206840690006AC
:1059B0000FD4204600F063F808B1012070BD15F146
:1059C000010FF2D025B1FFF784F8801B8542ECD29D
:1059D0001EE0002070BD70B500F016F82068406928
:1059E00040070FD4204600F04AF808B1012070BDEE
:1059F00015F1010FF2D025B1FFF76BF8801B85423E
:105A0000ECD205E0002070BD04460D4616467047F6
:105A100000F02EF800212163202141700021017047
:105A2000032070BD70B5FFF7EFFF2068416949069C
:105A300015D44169C90609D56FF01001416104F11F
:105A40003C000021416000F00CF870BD25B1FFF76B
:105A500040F8801B8542E8D200F00AF8DCE700201D
:105A600070BD216320214170002101700120704729
:105A700004F13C00416841F0200141607047016839
:105A80004A6952050DD56FF480624A6100F13C010C
:105A900004224A6000220263202048700A7001201C
:105AA000704700207047000038B5040001D1012084
:105AB00032BD04F13805687818B92870204602F024
:105AC00045F80220687020680168626821F440315E
:105AD000114301602068416BA268C90842EAC10114
