:020000040800F2
:10000000D8570020450101086F010108730101085C
:10001000770101087B0101087F0101080000000051
:100020000000000000000000000000004DC40008B7
:100030008301010800000000F5C30008F100010879
:10004000870101088B0101088F0101089301010854
:10005000970101089B010108090101089F0101089E
:10006000A3010108A7010108AB010108AF010108C4
:10007000B3010108B7010108BB010108BF01010874
:10008000C3010108C7010108CB010108CF01010824
:10009000D3010108D7010108DB010108DF010108D4
:1000A000E3010108E7010108EB010108EF01010884
:1000B000F3010108F7010108FB010108FF01010834
:1000C00003020108070201080B0201080F020108E0
:1000D00013020108170201081B0201081F02010890
:1000E00023020108270201082B0201082F02010840
:1000F00033020108370201083B0201083F020108F0
:1001000043020108470201084B0201084F0201089F
:100110005302010857020108F50001085B020108BB
:100120005F02010863020108670201086B0201080F
:100130006F02010873020108770201087B020108BF
:100140007F02010883020108870201088B0201086F
:100150008F02010893020108970201089B0201081F
:100160009F020108A3020108A7020108AB020108CF
:10017000AF020108FB000108B30201080000000003
:10018000B7020108BB020108BF020108C30201084F
:10019000C7020108CB020108CF020108D3020108FF
:1001A000D7020108DB020108DF020108000000009D
:1001B000000000000000000000000000000000003F
:1001C000000000000000000000000000000000002F
:1001D000000000000000000000000000000000001F
:1001E000000000000000000000000000000000000F
:1001F00000000000000000000000038000038000F9
:10020000038000038000038000038000038000035C
:1002100080000380000100000100000000000000D9
:1002200000038000038000000000000000000000C8
:1002300000000000000000000000000000000000BE
:1002400000000000000E70000E70000E7000042010
:100250000004200004200004200000000000000032
:10026000000000000000000000000000000000008E
:10027000000000000000000000000000000000007E
:1002800000000000000000000000066000066000A2
:100290000660000660000660003FF8003FF80006B8
:1002A00060000CC0003FF8003FF8000CC0000CC01C
:1002B000000CC0000CC0000CC000000000000000DA
:1002C000000000000000000000000000000000012D
:1002D000800001800007B0000FF000187000187057
:1002E000001C00000F800007E00000F00018300044
:1002F0001C30001C70001FE0001BC00001800001CA
:10030000800001800001800000000000000000006B
:10031000000000000000000000000780000FC00087
:100320001CE0001860001860001CE0000FF80007D7
:10033000E0001FF000073800061800061800073814
:100340000003F00001E000000000000000000000D9
:10035000000000000000000000000000000000009D
:10036000000000000000000003F00007F0000C6037
:10037000000C00000C00000600000700000F9C00AD
:100380001DFC0018F0001870000FFC0007DC0000D6
:10039000000000000000000000000000000000005D
:1003A00000000000000000000000000000038000CA
:1003B0000380000380000100000100000100000133
:1003C000000000000000000000000000000000002D
:1003D000000000000000000000000000000000001D
:1003E000000000000000000000000000000000000D
:1003F000000000180000380000700000F00000E06D
:100400000000E00001C00001C00001C00001C00008
:1004100001C00001C00000E00000E000007000002A
:10042000700000380000180000000000000000000C
:10043000000000000000000000001800001C000088
:100440000E00000E000007000007000003800003FC
:100450008000038000038000038000038000070009
:10046000000700000F00000E00001C000018000034
:10047000000000000000000000000000000000007C
:1004800000000180000180000180001DB8001FF8FD
:100490000007E00003C00003C00006600006600023
:1004A000000000000000000000000000000000004C
:1004B000000000000000000000000000000000003C
:1004C000000000000000000000000000000000002C
:1004D0000180000180000180000180000180003F58
:1004E000FC003FFC000180000180000180000180D1
:1004F000000180000000000000000000000000007B
:1005000000000000000000000000000000000000EB
:1005100000000000000000000000000000000000DB
:1005200000000000000000000000000000000000CB
:1005300000000000000000E00000C00001C0000159
:1005400080000180000300000300000000000000A4
:10055000000000000000000000000000000000009B
:100560000000000000000000000000000000001F6C
:10057000F8001FF80000000000000000000000006C
:10058000000000000000000000000000000000006B
:10059000000000000000000000000000000000005B
:1005A000000000000000000000000000000000004B
:1005B000000000000000000000000000000000003B
:1005C00000000000000003C00003C00003C00000E2
:1005D000000000000000000000000000000000001B
:1005E0000000000000180000180000380000300073
:1005F00000700000600000600000C00000C000014A
:1006000080000180000300000300000600000600D7
:10061000000E00000C00001C000018000018000074
:1006200000000000000000000000000000000000CA
:10063000000003C00007E0000C30000C3000181868
:1006400000181800181800181800181800181800BA
:100650001818000C30000C300007E00003C0000048
:10066000000000000000000000000000000000008A
:100670000000000000000000000000800007800073
:100680001F80001D800001800001800001800001AA
:100690008000018000018000018000018000018055
:1006A000001FF8001FF8000000000000000000001C
:1006B000000000000000000000000000000000003A
:1006C000000007C0001FF00038300030180030185C
:1006D0000000180000300000600001C0000380002E
:1006E0000600000C00001800003FF8003FF8000072
:1006F00000000000000000000000000000000000FA
:100700000000000000000000000003C0000FE00037
:100710000C700000300000300000600003C00003D7
:10072000E0000070000018000018000018001838E1
:10073000001FF0000FC000000000000000000000DB
:1007400000000000000000000000000000000000A9
:10075000000000E00001E00001E00003600006602E
:10076000000660000C60000C600018600030600043
:100770003FF8003FF80000600003F80003F80000B5
:100780000000000000000000000000000000000069
:10079000000000000000000000001FF0001FF0003B
:1007A0001800001800001800001BC0001FF0001CFB
:1007B0003000001800001800001800001800303049
:1007C000003FF0000FC0000000000000000000002B
:1007D0000000000000000000000000000000000019
:1007E000000000F80003F8000700000E00000C00F5
:1007F000001800001BC0001FF0001C30001818007B
:100800001818001818000C38000FF00003E0000062
:1008100000000000000000000000000000000000D8
:10082000000000000000000000001FF8001FF8009A
:100830001818001838000030000030000070000068
:10084000600000600000E00000C00000C00001C0C7
:100850000001800001800000000000000000000096
:100860000000000000000000000000000000000088
:10087000000007E0000FF0001C38001818001818DE
:10088000000C300007E00007E0000C3000181800F2
:100890001818001818001C38000FF00007E00000BE
:1008A0000000000000000000000000000000000048
:1008B0000000000000000000000007C0000FF00072
:1008C0001C30001818001818001818000C38000FF9
:1008D000F80003D80000180000300000700000E0AD
:1008E000001FC0001F00000000000000000000000A
:1008F00000000000000000000000000000000000F8
:10090000000000000000000000000000000003C024
:100910000003C00003C00000000000000000000051
:1009200000000000000003C00003C00003C000007E
:1009300000000000000000000000000000000000B7
:1009400000000000000000000000000000000000A7
:1009500000000000000000F00000F00000F00000C7
:10096000000000000000000000000000E00001C0E6
:100970000001800001800003000002000000000070
:100980000000000000000000000000000000000067
:100990000000000000000000001C00003C0000F00F
:1009A0000003C0000F00003C0000F000003C00000D
:1009B0000F000003C00000F000003C00001C00001D
:1009C0000000000000000000000000000000000027
:1009D0000000000000000000000000000000000017
:1009E0000000000000000000007FFC007FFC000011
:1009F00000000000007FFC007FFC00000000000001
:100A000000000000000000000000000000000000E6
:100A100000000000000000000000000000000000D6
:100A200000000000000000007000007800001E00C0
:100A30000007800001E000007800001E0000780040
:100A400001E0000780001E00007800007000000038
:100A50000000000000000000000000000000000096
:100A60000000000000000000000000000007C000BF
:100A70000FE00018700018300018300000700000FF
:100A8000E00003C00003800003000000000000003D
:100A90000007000007000000000000000000000048
:100AA0000000000000000000000000000000000046
:100AB000000003E00007F0000E38000C1800187862
:100AC0000018F80019D80019980019980019980012
:100AD00018F8001878001800000C00000E18000725
:100AE000F80003E00000000000000000000000002B
:100AF000000000000000000000000000001F800057
:100B00001FC00001C0000360000360000630000643
:100B100030000C30000FF8001FF800180C00300CEB
:100B200000FC7F00FC7F00000000000000000000CF
:100B300000000000000000000000000000000000B5
:100B400000000000007FE0007FF000183800181857
:100B5000001818001838001FF0001FF800181C00BB
:100B6000180C00180C00180C007FF8007FF0000033
:100B70000000000000000000000000000000000075
:100B80000000000000000000000000000003EC0076
:100B90000FFC001C1C00180C00300C003000003052
:100BA0000000300000300000300000180C001C1C59
:100BB000000FF80003F0000000000000000000003B
:100BC0000000000000000000000000000000000025
:100BD00000000000007FC0007FF0001838001818E7
:100BE00000180C00180C00180C00180C00180C0051
:100BF000180C001818001838007FF0007FE0000083
:100C000000000000000000000000000000000000E4
:100C1000000000000000000000000000007FF8005D
:100C20007FF8001818001818001998001980001F84
:100C300080001F80001980001998001818001818EB
:100C4000007FF8007FF800000000000000000000B6
:100C50000000000000000000000000000000000094
:100C600000000000003FFC003FFC000C0C000C0CDE
:100C7000000CCC000CC0000FC0000FC0000CC00066
:100C80000CC0000C00000C00003FC0003FC0000082
:100C90000000000000000000000000000000000054
:100CA0000000000000000000000000000003EC0055
:100CB0000FFC001C1C00180C00300C003000003031
:100CC000000030FE0030FE00300C00380C001C1C10
:100CD000000FFC0003F00000000000000000000016
:100CE0000000000000000000000000000000000004
:100CF00000000000007E7E007E7E0018180018189C
:100D0000001818001818001FF8001FF80018180025
:100D10001818001818001818007E7E007E7E00004B
:100D200000000000000000000000000000000000C3
:100D3000000000000000000000000000001FF8009C
:100D40001FF8000180000180000180000180000187
:100D5000800001800001800001800001800001808E
:100D6000001FF8001FF80000000000000000000055
:100D70000000000000000000000000000000000073
:100D8000000000000007FE0007FE000030000030F9
:100D90000000300000300000300030300030300003
:100DA0003030003030003060003FE0000F80000045
:100DB0000000000000000000000000000000000033
:100DC000000000000000000000000000007F3E0066
:100DD0007F3E0018300018600018C0001980001B0A
:100DE00080001FC0001CE000187000183000183888
:100DF000007F1F007F1F00000000000000000000B7
:100E000000000000000000000000000000000000E2
:100E100000000000007F80007F80000C00000C00BC
:100E2000000C00000C00000C00000C00000C0C007A
:100E30000C0C000C0C000C0C007FFC007FFC000074
:100E400000000000000000000000000000000000A2
:100E500000000000000000000000000000F00F0093
:100E6000F81F00381C003C3C003C3C00366C00364F
:100E70006C0033CC0033CC00318C00300C00300CD3
:100E800000FE7F00FE7F0000000000000000000068
:100E90000000000000000000000000000000000052
:100EA000000000000078FE0078FE001C18001E18EC
:100EB000001F18001B18001B980019D80018D80034
:100EC00018F8001878001838007F18007F18000004
:100ED0000000000000000000000000000000000012
:100EE0000000000000000000000000000003C0003F
:100EF0000FF0001C3800181800381C00300C0030AF
:100F00000C00300C00300C00381C001818001C3885
:100F1000000FF00003C0000000000000000000000F
:100F200000000000000000000000000000000000C1
:100F300000000000003FF0003FF8000C1C000C0C0B
:100F4000000C0C000C0C000C18000FF8000FE00057
:100F50000C00000C00000C00003FC0003FC000006F
:100F60000000000000000000000000000000000081
:100F70000000000000000000000000000003C000AE
:100F80000FF0001C3800181800381C00300C00301E
:100F90000C00300C00300C00381C001818001C38F5
:100FA000000FF00007C00007CC000FFC000C380059
:100FB0000000000000000000000000000000000031
:100FC00000000000007FE0007FF0001838001818D3
:100FD000001818001838001FF0001FC00018E000AB
:100FE0001870001830001838007F1E007F0E0000B7
:100FF00000000000000000000000000000000000F1
:101000000000000000000000000000000007D80001
:101010000FF8001C38001818001818001E00000FE8
:10102000C00003F0000078001818001818001C38E1
:10103000001FF0001BE000000000000000000000A6
:1010400000000000000000000000000000000000A0
:1010500000000000003FFC003FFC00318C00318CA0
:1010600000318C00318C0001800001800001800083
:101070000180000180000180000FF0000FF00000EF
:101080000000000000000000000000000000000060
:10109000000000000000000000000000007E7E0054
:1010A0007E7E00181800181800181800181800186C
:1010B00018001818001818001818001818000C301C
:1010C000000FF00003C0000000000000000000005E
:1010D0000000000000000000000000000000000010
:1010E00000000000007F7F007F7F00180C000C18BC
:1010F000000C18000C1800063000063000036000D9
:1011000003600003600001C00001C0000080000017
:1011100000000000000000000000000000000000CF
:1011200000000000000000000000000000FE3F8002
:10113000FE3F8030060030060030860019CC0019D2
:10114000CC001B6C001B6C001E7C000E38000E389F
:10115000000C18000C180000000000000000000047
:10116000000000000000000000000000000000007F
:1011700000000000007E7E007E7E001818000C300B
:101180000006600003C00001800001800003C00071
:101190000660000C30001818007E7E007E7E000085
:1011A000000000000000000000000000000000003F
:1011B000000000000000000000000000007C7E0035
:1011C0007C7E001818000C300006600006600003EA
:1011D000C0000180000180000180000180000180CA
:1011E000000FF0000FF00000000000000000000001
:1011F00000000000000000000000000000000000EF
:1012000000000000001FF8001FF800181800183038
:101210000018600018C000018000030000061800DC
:101220000C18001818003018003FF8003FF80000B4
:1012300000000000000000000000000000000000AE
:101240000000000000000000000001F00001F000BC
:101250000180000180000180000180000180000108
:101260008000018000018000018000018000018079
:101270000001800001800001800001F00001F00009
:10128000000000000000000000000000180000182E
:1012900000001C00000C00000E000006000006000C
:1012A0000003000003000001800001800000C00076
:1012B00000C000006000006000007000003000000E
:1012C00038000018000018000000000000000000B6
:1012D000000000000000000000000F80000F8000F0
:1012E0000180000180000180000180000180000178
:1012F00080000180000180000180000180000180E9
:10130000000180000180000180000F80000F80003C
:1013100000000000000000000000000000000000CD
:10132000800001C00003E0000770000630000C18C8
:1013300000180C0010040000000000000000000075
:10134000000000000000000000000000000000009D
:10135000000000000000000000000000000000008D
:10136000000000000000000000000000000000007D
:10137000000000000000000000000000000000006D
:10138000000000000000000000000000000000005D
:10139000000000000000000000000000000000004D
:1013A000000000000000FFFF00FFFF00000000033E
:1013B000000003800000E00000600000000000006A
:1013C000000000000000000000000000000000001D
:1013D000000000000000000000000000000000000D
:1013E00000000000000000000000000000000000FD
:1013F00000000000000000000000000000000000ED
:101400000000000000000FC0001FE00000300000DE
:10141000300007F0001FF00038300030300030702E
:10142000001FFC000FBC00000000000000000000D6
:1014300000000000000000000000000000000000AC
:1014400000007800007800001800001800001BE081
:10145000001FF8001C1800180C00180C00180C00D5
:10146000180C00180C001C18007FF8007BE000002E
:10147000000000000000000000000000000000006C
:10148000000000000000000000000000000000005C
:1014900000000000000003EC000FFC001C1C0038E2
:1014A0000C00300C00300000300000380C001C1C18
:1014B000000FF80003F00000000000000000000032
:1014C000000000000000000000000000000000001C
:1014D000000000780000780000180000180007D80D
:1014E000001FF800183800301800301800301800BD
:1014F0003018003018001838001FFE0007DE00000A
:1015000000000000000000000000000000000000DB
:1015100000000000000000000000000000000000CB
:1015200000000000000007E0001FF800181800305D
:101530000C003FFC003FFC00300000300000180CA5
:10154000001FFC0007F00000000000000000000089
:10155000000000000000000000000000000000008B
:10156000000001FC0003FC000600000600003FF83C
:10157000003FF8000600000600000600000600001C
:101580000600000600000600003FF0003FF00000EB
:10159000000000000000000000000000000000004B
:1015A000000000000000000000000000000000003B
:1015B00000000000000007DE001FFE0018380030A9
:1015C0001800301800301800301800301800183893
:1015D000001FF80007D800001800001800003800AD
:1015E0000FF0000FC000000000000000000000002D
:1015F00000007800007800001800001800001BE0D0
:10160000001FF0001C3800181800181800181800E7
:101610001818001818001818007E7E007E7E000042
:1016200000000000000000000000000000000000BA
:1016300000000000000000000000018000018000A8
:101640000000000000001F80001F800001800001DA
:101650008000018000018000018000018000018085
:10166000003FFC003FFC0000000000000000000004
:10167000000000000000000000000000000000006A
:10168000000000C00000C0000000000000001FF0CB
:10169000001FF0000030000030000030000030007B
:1016A000003000003000003000003000003000004A
:1016B00030000030000070001FE0001F80000000BC
:1016C000000000000000000000003C00003C0000A2
:1016D0000C00000C00000CF8000CF8000CC0000D11
:1016E00080000F80000F00000F80000DC0000CE094
:1016F000003C7C003C7C000000000000000000007A
:1017000000000000000000000000000000000000D9
:1017100000001F80001F8000018000018000018008
:101720000001800001800001800001800001800034
:101730000180000180000180003FFC003FFC0000B0
:101740000000000000000000000000000000000099
:101750000000000000000000000000000000000089
:10176000000000000000F77800FFFC0039CC0031D9
:101770008C00318C00318C00318C00318C00318C2C
:1017800000FDEF00FDEF0000000000000000000081
:101790000000000000000000000000000000000049
:1017A00000000000000000000000000000007BE0DE
:1017B000007FF0001C3800181800181800181800D6
:1017C0001818001818001818007E7E007E7E000091
:1017D0000000000000000000000000000000000009
:1017E00000000000000000000000000000000000F9
:1017F00000000000000003C0000FF0001C3800389B
:101800001C00300C00300C00300C00381C001C3860
:10181000000FF00003C00000000000000000000006
:1018200000000000000000000000000000000000B8
:1018300000000000000000000000000000007BE04D
:10184000007FF8001C1800180C00180C00180C0081
:10185000180C00180C001C18001FF8001BE00018E2
:1018600000001800001800007F00007F000000004A
:101870000000000000000000000000000000000068
:1018800000000000000007DE001FFE0018380030D6
:1018900018003018003018003018003018001838C0
:1018A000001FF80007D800001800001800001800FA
:1018B00000FE0000FE00000000000000000000002C
:1018C00000000000000000000000000000003E7862
:1018D000003EFC0007CC00070000060000060000E8
:1018E0000600000600000600003FF0003FF0000088
:1018F00000000000000000000000000000000000E8
:1019000000000000000000000000000000000000D7
:1019100000000000000007F8000FF8001818001879
:1019200018001F80000FF00000F800181800183889
:10193000001FF0001FE00000000000000000000099
:101940000000000000000000000000000000000097
:1019500000000C00000C00000C00000C00003FF028
:10196000003FF0000C00000C00000C00000C000018
:101970000C00000C00000C1C0007FC0003F0000031
:101980000000000000000000000000000000000057
:101990000000000000000000000000000000000047
:1019A000000000000000787800787800181800180F
:1019B00018001818001818001818001818001838FF
:1019C000000FFE0007DE0000000000000000000025
:1019D0000000000000000000000000000000000007
:1019E00000000000000000000000000000007C3E3D
:1019F000007C3E001818001818000C30000C300055
:101A000006600006600007E00003C00003C000009D
:101A100000000000000000000000000000000000C6
:101A200000000000000000000000000000000000B6
:101A3000000000000000783C00783C0031180033C2
:101A400098003398001AB0001EF0001EF0001C60D1
:101A5000000C60000C6000000000000000000000AE
:101A60000000000000000000000000000000000076
:101A700000000000000000000000000000003E7CAC
:101A8000003E7C000C300006600003C000018000B6
:101A900003C0000660000C30003E7C003E7C00006D
:101AA0000000000000000000000000000000000036
:101AB0000000000000000000000000000000000026
:101AC0000000000000007E1F007E1F00180C000CAC
:101AD00018000C180006300006300003600003E018
:101AE0000001C00000C00001800001800003000070
:101AF0003FC0003FC00000000000000000000000E8
:101B000000000000000000000000000000001FF8BE
:101B1000001FF80018300018600000C000018000AD
:101B20000300000618000C18001FF8001FF8000042
:101B300000000000000000000000000000000000A5
:101B40000000000000000000000000E00001E000D4
:101B500001800001800001800001800001800001FF
:101B600080000380000700000380000180000180E6
:101B70000001800001800001800001E00000E00021
:101B80000000000000000000000000000000000055
:101B900000000180000180000180000180000180C0
:101BA00000018000018000018000018000018000B0
:101BB000018000018000018000018000018000019F
:101BC0008000018000018000000000000000000093
:101BD0000000000000000000000007000007800077
:101BE000018000018000018000018000018000016F
:101BF000800001C00000E00001C000018000018001
:101C000000018000018000018000078000070000C3
:101C100000000000000000000000000000000000C4
:101C200000000000000000000000000000000000B4
:101C3000000000000E00001F18003BB80031F0004B
:101C400000E00000000000000000000000000000B4
:101C50000000000000000000000000000000000084
:101C60000000000000000000000000000000000074
:101C70000000000000000000000000000000000064
:101C80000000000000000C000C000C000C000C0018
:101C90000C000C000C0000000C0000000000000014
:101CA00000000000000000001DC01DC0088008806A
:101CB000088000000000000000000000000000009C
:101CC0000000000000000D800D800D800D803FC0E1
:101CD0001B003FC01B001B001B001B00000000007E
:101CE0000000000004001F803180318038001E0099
:101CF0000F000380318031803F00040004000000A9
:101D000000000000000018002400240018C0078014
:101D10001E003180024002400180000000000000EF
:101D200000000000000000000F001800180018005C
:101D30000C001D80370033001D80000000000000F3
:101D40000000000000000000070007000200020081
:101D50000200000000000000000000000000000081
:101D60000000000000000300030006000E000C004D
:101D70000C000C000C000E00060003000300000025
:101D8000000000000000180018000C00060006000B
:101D900006000600060006000C001C0018000000EB
:101DA000000000000000060006003FC03FC00F001A
:101DB0001F801980000000000000000000000000EB
:101DC0000000000000000000000004000400040007
:101DD0003F80040004000400000000000000000038
:101DE00000000000000000000000000000000000F3
:101DF000000000000000060004000C0008000800BD
:101E000000000000000000000000000000000000D2
:101E10003F80000000000000000000000000000003
:101E200000000000000000000000000000000000B2
:101E30000000000000000C000C000000000000008A
:101E40000000000000C000C001800180030003000A
:101E500006000C000C0018001800300030000000D4
:101E60000000000000000E001B0031803180318036
:101E70003180318031801B000E0000000000000026
:101E800000000000000006003E00060006000600FC
:101E900006000600060006003FC00000000000002B
:101EA0000000000000000F00198031803180030025
:101EB00006000C00180030003F8000000000000009
:101EC0000000000000003F006180018003001F004F
:101ED00003800180018061803F000000000000005D
:101EE000000000000000070007000F000B001B00AF
:101EF000130033003F8003000F800000000000004B
:101F00000000000000001F801800180018001F00CB
:101F100011800180018021801F000000000000006E
:101F200000000000000007801C001800300037008F
:101F300039803180318019800F00000000000000DE
:101F40000000000000007F004300030006000600C0
:101F5000060006000C000C000C0000000000000051
:101F60000000000000001F003180318031801F0020
:101F700031803180318031801F000000000000007E
:101F80000000000000001E003300318031803380EB
:101F90001D800180030007003C00000000000000DD
:101FA0000000000000000000000000000C000C0019
:101FB0000000000000000C000C0000000000000009
:101FC000000000000000000000000000030003000B
:101FD00000000000000006000400080008000000E7
:101FE000000000000000000000C003000400180012
:101FF000600018000400030000C0000000000000A2
:1020000000000000000000000000000000007FC091
:1020100000007FC000000000000000000000000081
:102020000000000000000000600018000400030031
:1020300000C0030004001800600000000000000061
:1020400000000000000000001F003180318001808E
:1020500007000C000C0000000C0000000000000055
:102060000000000000000E001100210021002700E8
:10207000290029002700200011000E0000000000A8
:1020800000000000000000003F000F000900198060
:1020900019801F8030C030C079E0000000000000CF
:1020A00000000000000000007F003180318031809E
:1020B0003F003180318031807F000000000000004F
:1020C00000000000000000001F4030C060406000C1
:1020D00060006000604030801F00000000000000D1
:1020E00000000000000000007F00318030C030C0E0
:1020F00030C030C030C031807F00000000000000E0
:1021000000000000000000007F803080308032003E
:102110003E003200308030807F80000000000000F0
:1021200000000000000000007FC03040304032005E
:102130003E003200300030007C0000000000000053
:1021400000000000000000001E8031806080600000
:10215000600067C0618031801F0000000000000047
:1021600000000000000000007BC031803180318021
:102170003F803180318031807BC000000000000052
:1021800000000000000000003FC00600060006003E
:1021900006000600060006003FC000000000000028
:1021A00000000000000000001FC003000300030047
:1021B00003006300630063003E00000000000000B5
:1021C00000000000000000007BC0318033003600BA
:1021D0003C003E003300318079C000000000000068
:1021E00000000000000000007E0018001800180029
:1021F00018001840184018407FC000000000000080
:102200000000000000000000E0E060C071C07BC082
:102210006AC06EC064C060C0FBE000000000000047
:10222000000000000000000073C0318039803D8054
:1022300035803780338031807980000000000000D5
:1022400000000000000000001F00318060C060C07E
:1022500060C060C060C031801F000000000000004E
:1022600000000000000000007F00318031803180DC
:1022700031803F00300030007E0000000000000090
:1022800000000000000000001F00318060C060C03E
:1022900060C060C060C031801F000CC01F800000A3
:1022A00000000000000000007F003180318031809C
:1022B0003E003300318031807CE0000000000000EF
:1022C00000000000000000001F80318031803800D5
:1022D0001F000380318031803F00000000000000BB
:1022E00000000000000000007F804C804C804C808B
:1022F0000C000C000C000C003F000000000000006F
:1023000000000000000000007BC03180318031807F
:1023100031803180318031801F00000000000000DA
:1023200000000000000000007BC0318031801B00F5
:102330001B001B000A000E000E0000000000000041
:102340000000000000000000FBE060C064C06EC040
:102350006EC02A803B803B8031800000000000007E
:1023600000000000000000007BC031801B000E0058
:102370000E000E001B0031807BC00000000000003A
:10238000000000000000000079E030C019800F005C
:1023900006000600060006001F8000000000000086
:1023A00000000000000000003F80218023000600A4
:1023B00004000C00188030803F8000000000000006
:1023C000000000000000078006000600060006006E
:1023D0000600060006000600060006000780000052
:1023E0000000000030003000180018000C000C0045
:1023F0000600030003000180018000C000C000004F
:102400000000000000001E00060006000600060096
:102410000600060006000600060006001E0000007A
:102420000000000004000A000A0011002080208043
:10243000000000000000000000000000000000009C
:10244000000000000000000000000000000000008C
:10245000000000000000000000000000000000007C
:102460000000FFE00800040002000000000000007F
:10247000000000000000000000000000000000005C
:102480000000000000000000000000001F000180AC
:1024900001801F80318033801DC0000000000000DB
:1024A000000000000000700030003000370039806C
:1024B00030C030C030C0398077000000000000001C
:1024C0000000000000000000000000001E803180BD
:1024D00060806000608031801F000000000000000C
:1024E0000000000000000380018001801D80338017
:1024F00061806180618033801DC0000000000000A9
:102500000000000000000000000000001F003180FB
:1025100060C07FC0600030C01F800000000000006D
:1025200000000000000007E00C000C003F800C00E1
:102530000C000C000C000C003F80000000000000AC
:102540000000000000000000000000001DC03380FB
:1025500061806180618033801D80018001801F0067
:1025600000000000000070003000300037003980AB
:1025700031803180318031807BC00000000000005C
:102580000000000000000600060000001E0006001B
:1025900006000600060006003FC000000000000024
:1025A0000000000000000600060000003F000300DD
:1025B00003000300030003000300030003003E00C8
:1025C000000000000000700030003000378036004E
:1025D0003C003C003600330077C0000000000000E3
:1025E0000000000000001E000600060006000600B5
:1025F00006000600060006003FC0000000000000C4
:102600000000000000000000000000007F8036C0D5
:1026100036C036C036C036C076E00000000000008C
:10262000000000000000000000000000770039807A
:1026300031803180318031807BC00000000000009B
:102640000000000000000000000000001F003180BA
:1026500060C060C060C031801F000000000000004A
:10266000000000000000000000000000770039803A
:1026700030C030C030C039803700300030007C00BE
:102680000000000000000000000000001DC03380BA
:1026900061806180618033801D800180018007C07E
:1026A0000000000000000000000000007B801CC053
:1026B00018001800180018007F000000000000003B
:1026C0000000000000000000000000001F803180BA
:1026D0003C001F00038031803F000000000000002C
:1026E0000000000000001800180018007F0018000B
:1026F00018001800180018800F00000000000000EB
:102700000000000000000000000000007380318025
:1027100031803180318033801DC000000000000016
:102720000000000000000000000000007BC03180BD
:1027300031801B001B000E000E0000000000000096
:10274000000000000000000000000000F1E060C098
:1027500064C06EC03B803B80318000000000000000
:102760000000000000000000000000007BC01B0013
:102770000E000E000E001B007BC0000000000000D9
:1027800000000000000000000000000079E030C000
:10279000198019800B000F00060006000C003E0097
:1027A0000000000000000000000000003F802180C9
:1027B00003000E00180030803F8000000000000081
:1027C00000000000000006000C000C000C000C00D3
:1027D0000C0018000C000C000C000C00060000009F
:1027E00000000000000006000600060006000600CB
:1027F00006000600060006000600060006000000AF
:102800000000000000000C000600060006000600A4
:102810000600030006000600060006000C0000008B
:102820000000000000000000000000000000180090
:1028300024800300000000000000000000000000F1
:102840000000000000000000000000000000000088
:10285000001010101010000010000000006C48481C
:102860000000000000000000001414287C287C28D0
:1028700050500000001038404038487010100000E0
:10288000002050200C700814080000000000001800
:1028900020205448340000000010101010000000E8
:1028A00000000000000808101010101010080800A8
:1028B00000202010101010101020200000107C109C
:1028C00028280000000000000000101010FE10106A
:1028D0001000000000000000000000181030200070
:1028E00000000000007C000000000000000000006C
:1028F0000000003030000000000404080810102020
:10290000204000000038444444444444380000005F
:1029100000301010101010107C000000003844042B
:10292000081020447C0000000038440418040444CB
:1029300038000000000C141424447E040E00000033
:10294000003C20203804044438000000001C2040D3
:102950007844444438000000007C4404080808100F
:10296000100000000038444438444444380000005B
:1029700000384444443C040870000000000000306B
:10298000300000303000000000000018180000186F
:102990003020000000000C10608060100C0000006F
:1029A000000000007C007C00000000000000C0204F
:1029B00018041820C00000000000182404081000AB
:1029C000300000003844444C54544C40443800001B
:1029D0000030102828287C44EE00000000F8444411
:1029E00078444444F8000000003C444040404044E7
:1029F0003800000000F0484444444448F00000001F
:102A000000FC445070504044FC000000007E22282E
:102A10003828202070000000003C4440404E4444D0
:102A20003800000000EE44447C444444EE000000C2
:102A3000007C1010101010107C000000003C0808F2
:102A4000084848483000000000EE444850704844B0
:102A5000E600000000702020202024247C000000DC
:102A600000EE6C6C54544444EE00000000EE6464CC
:102A70005454544CEC000000003844444444444452
:102A80003800000000782424243820207000000042
:102A90000038444444444444381C000000F8444492
:102AA00044784844E200000000344C403804046498
:102AB0005800000000FE92101010101038000000A6
:102AC00000EE4444444444443800000000EE4444D2
:102AD000282828101000000000EE44445454545498
:102AE0002800000000C6442810102844C60000003A
:102AF00000EE44282810101038000000007C440824
:102B0000101020447C0000000038202020202020CD
:102B10002020380000402020201010080808000065
:102B200000380808080808080808380000101028AD
:102B30004400000000000000000000000000000051
:102B4000000000FE0010080000000000000000006F
:102B500000000038443C44443E00000000C040589F
:102B600064444444F80000000000003C44404044F9
:102B700038000000000C04344C4444443E00000083
:102B800000000038447C40403C000000001C207CD9
:102B9000202020207C000000000000364C444444EB
:102BA0003C04380000C0405864444444EE00000037
:102BB00000100070101010107C0000000010007851
:102BC000080808080808700000C0405C48705048B9
:102BD000DC00000000301010101010107C0000000D
:102BE000000000E854545454FE000000000000D8D7
:102BF00064444444EE00000000000038444444446F
:102C000038000000000000D8644444447840E000EC
:102C1000000000364C4444443C040E000000006CAC
:102C2000302020207C0000000000003C4438044498
:102C3000780000000000207C202020221C000000E2
:102C4000000000CC4444444C36000000000000EE7C
:102C50004444282810000000000000EE445454545E
:102C600028000000000000CC48303048CC000000B4
:102C7000000000EE44242818101078000000007CAA
:102C8000481020447C000000000810101010201094
:102C9000101008000010101010101010101000007C
:102CA000002010101010081010102000000000006C
:102CB000002458000000000038B59EB001F024FF49
:102CC00000F012F900F0C8FB00F081FA00F0CEFA33
:102CD00000F01BFB00F05BFB00F054FA00F0A7F9DA
:102CE00000F0C6F900F077F900F070FB00F037FA59
:102CF000DFF8144D0021204601F05EFF0021204640
:102D000002F01AFA0421204601F056FF0421204661
:102D100002F012FADFF8F45C0021284601F04CFFC3
:102D20000021284602F008FA0821284601F044FF55
:102D30000821284602F000FADFF8D45C0421284676
:102D400001F03AFF0421284602F0F6F9002002F0D3
:102D500047FA012002F044FA0121002002F04BFA68
:102D600002F0E8FCDFF8AC1C002002F031FD00208E
:102D700002F06EFD4FF07F4002F088FD4FF07F4083
:102D800002F072FD6FF47F0002F066FDDFF88C0C3C
:102D900002F073FD40F23F13EF220021084602F0DB
:102DA000B6FE03230FF2B0020821052002F09FFDBA
:102DB000DFF86C0C02F050FD02F005FD054602F054
:102DC000FDFC294689B280B203F076FA19A80FF209
:102DD000A001142203F004FB002119A803F050FB0A
:102DE000E06314A80FF29C01142203F0F9FA002109
:102DF00014A803F045FB20640FA80FF29C011422D5
:102E000003F0EEFA00210FA803F03AFB60640AA871
:102E10000FF29801142203F0E3FA00210AA803F04C
:102E20002FFBA06405A80FF29801142203F0D8FA32
:102E3000002105A803F024FBE06468460FF294012A
:102E4000142203F0CDFA0021684603F019FB206537
:102E500003F011FBFEE70000526F626F7441726D68
:102E600020436F6E74726F6C20322E3000000000B1
:102E7000FCFF0008593A0008FEFF000000000000B7
:102E80000001000008000108FD3E000802000000EB
:102E900000000000800000001400010885450008C3
:102EA000FFFF00000000000080000000200001087B
:102EB00091450008010000000000000080000000B3
:102EC0002C00010839490008000000000000000043
:102ED000800000003C0001087B4A00080000000060
:102EE000000000008000000010B59EB0002000909F
:102EF000DFF8340B016841F080510160006800F098
:102F000080500090009800200090DFF8200B0168AE
:102F100021F4404141F480410160006800F44040E8
:102F200000900098012012904FF4803413940220F6
:102F300018904FF48000199008201A90C0201B9020
:102F400004201C901D9012A803F0C4FA002805D09C
:102F500040F28B110FF2D04001F0CAFD0F2001901A
:102F600002200290002003904FF4A05004904FF4F0
:102F700080500590012101A803F036FC002805D0FF
:102F800040F299110FF2A04001F0B2FD0820069026
:102F900064200A9004200C900F9406A803F01EFDF4
:102FA000002805D04FF4D1710FF27C4001F0A0FD54
:102FB00003F0A2FC4FF47A71B0FBF1F003F098FE3D
:102FC000042003F096FE00220F214FF0FF3003F0A3
:102FD0007FFE1EB010BD1CB5DFF8544ADFF8540A5E
:102FE0002060002060600220A0600020E060A062FD
:102FF0000220E062002020636063204603F092FE1E
:10300000002805D040F2BF110FF21C4001F070FD06
:103010000121204603F065FF002807D04FF4E2713C
:103020000FF20440BDE81C4001F062BD13BD80B545
:10303000DFF8040ADFF8041A0160DFF8381E416087
:1030400000218160C1604FF4804101610021416134
:103050008161C161016203F0E1FF002807D04FF4F4
:10306000EC710FF2C430BDE8044001F041BD01BD78
:1030700038B59AB0DFF8C849DFF8FC0D20600020B1
:103080006060A060E0602061092060610120A061B3
:103090001D20E0610320206240F20D10606240F2CA
:1030A0004310A06240F21710E06240F24710206324
:1030B00004F13400002101808170204604F09CFC62
:1030C000002805D04FF4FB710FF25C3001F010FDC9
:1030D00000200D900E900F90109011901290139070
:1030E0004FF48065149505201590002016901790D8
:1030F00018908DF8640019A80021417081700A466B
:103100000DA9204604F0EDFC002805D040F20A216C
:103110000FF2143001F0ECFC0020009001900290BE
:1031200003900490059006900795052008900020D4
:1031300009900A900B90ADF830000CA80021817026
:1031400001226946204604F0CCFC002805D040F25C
:103150001E210FF2D42001F0CBFC1BB030BD80B596
:10316000DFF8C40CDFF8141D016004F0B3FD002883
:1031700007D040F22A210FF2B020BDE8044001F050
:10318000B7BC01BD80B5DFF8A40CDFF8F41C01600A
:103190004FF48271416000218160C1600161416131
:1031A0004FF4007181610021C1610162416281625D
:1031B0000A21C16204F0A6FD002807D040F2422196
:1031C0000FF26420BDE8044001F092BC01BD18B5C7
:1031D00089B0DFF834484FF0804020600320606001
:1031E0000020A0604EF66020E060002020612046B4
:1031F00001F0C9FC002805D040F255210FF228202B
:1032000001F076FC0020009001906946204601F014
:10321000A5FF002805D04FF417710FF20C2001F024
:1032200067FC602002900020039004900690024604
:1032300002A9204601F08DFD002805D040F265214D
:103240000FF2E41001F054FC042202A9204601F020
:1032500080FD002805D040F26A210FF2CC1001F069
:1032600047FC204605F016FA0AB010BD18B589B023
:10327000DFF89847DFF80C0C206003206060002026
:10328000A0604EF66020E06000202061204601F042
:103290007AFC002805D040F27F210FF28C1001F05B
:1032A00027FC0020009001906946204601F056FF5F
:1032B000002805D040F286210FF26C1001F018FCB6
:1032C000602002900020039004900690024602A91C
:1032D000204601F03EFD002805D040F28F210FF27C
:1032E000481001F005FC082202A9204601F031FD3A
:1032F000002805D04FF425710FF22C1001F0F8FBD7
:10330000204605F0C7F90AB010BD18B589B0DFF83E
:103310000047DFF8740B2060032060600020A0608D
:103320004EF66020E06000202061204601F02BFC7A
:10333000002805D040F2A9210FF2EC0001F0D8FBE3
:103340000020009001906946204601F007FF002808
:1033500005D04FF42C710FF2D00001F0C9FB6020B2
:1033600002900020039004900690042202A92046B7
:1033700001F0EFFC002805D040F2B9210FF2A800BF
:1033800001F0B6FB204605F085F90AB010BD80B506
:10339000DFF89C0ADFF8F41A01604FF4E131416074
:1033A00000218160C16001610C21416100218161C6
:1033B000C16105F08DFA002807D040F2CE210FF24E
:1033C0006800BDE8044001F093BB01BD00B587B0C3
:1033D000DFF8600ADFF8B81A0160012141600021BE
:1033E00081600421C160102101614021416180217F
:1033F00081610021C16101624162816210210091FD
:10340000019102910391049105910691694605F09D
:10341000CFFB002805D040F2F1210FF20C0001F0A3
:1034200067FB07B000BD0000433A5C4749545C525B
:103430006F626F7441726D326B31375C53544D3330
:103440003246345C526F626F7441726D5C537263CA
:103450005C6D61696E2E63002DE9F04186B000203D
:103460000590DFF8D409016841F0040101600168AA
:1034700001F004010591059900210591016841F0D1
:1034800020010160016801F02001059105990021EA
:103490000591016841F080010160016801F080013F
:1034A0000591059900210591016841F00101016034
:1034B000016801F00101059105990021059101685C
:1034C00041F002010160016801F0020105910599D6
:1034D00000210591016841F040010160016801F09F
:1034E00040010591059900210591016841F0100105
:1034F0000160016801F01001059105990021059115
:10350000016841F008010160006800F008000590C2
:103510000598DFF8284900221621204605F021FDF4
:10352000DFF81C5900228021284605F01AFDDFF83B
:10353000146900224FF44051304605F012FDDFF8C7
:10354000087900224FF4C041384605F00AFD1620E4
:1035500000900120019000200290039069462046CF
:1035600005F074FB48F207000090DFF8E088CDF822
:103570000480002002906946284605F067FB802001
:103580000090012001900020029003906946284697
:1035900005F05CFB20200090CDF804800020029014
:1035A0006946204605F052FB04200090002001905F
:1035B00002906946DFF8DC0805F048FB4FF4006034
:1035C00000900020019002906946304605F03EFBD5
:1035D0004FF4405000900120019000200290039091
:1035E0006946304605F032FB4FF4C04000900120A0
:1035F00001900020029003906946384605F026FBB2
:1036000006B0BDE8F08190ED001AB4EE401AF1EE7C
:1036100010FA02D5B0EE401A06E0F4EE410AF1EEDF
:1036200010FA01D5B0EE601A80ED001A7047B5EEC1
:10363000400AF1EE10FA03D5FFEE000A20EE200A50
:10364000704780B510EE100A05F0BCFCDFF80028CA
:10365000DFF8003805F0DAFC0022DFF83C3805F02E
:10366000A7FD05F0C9FE00EE100A01BD80B5DFED33
:10367000990A20EE200A10EE100A05F0A3FCDFF8EC
:10368000D027DFF8D03705F093FD05F0B5FE00EE4A
:10369000100A01BDDFED8F0A30EEC00ADFF8B8076F
:1036A000D0ED000A80EE200A70470000F0EE400ADC
:1036B000DFF8A40790ED001A9FED860A00EEC10A1C
:1036C000704780B505F0CCFE0022DFF8903705F09A
:1036D0006FFD0022DFF8783E05F0D0FE05F08CFE8D
:1036E00000EE100A01BD80B510EE100A05F06AFC6C
:1036F00000224FF07F5305F089FC0022DFF8543E92
:1037000005F0BCFE05F078FE00EE100A01BD80B5A4
:1037100010EE100A05F056FC0022DFF83C3E05F0E2
:10372000ADFE0022DFF8343E05F070FC05F064FECB
:1037300000EE100A01BD80B505F092FE0022DFF810
:10374000203E05F063FC0022DFF8183E05F096FEEF
:1037500005F052FE00EE100A01BD38B52DED048BC8
:10376000F0EE408AB0EE608ADFF8FC4D94ED039AEB
:10377000FFF767FF06F02AF829EE009AD4ED029AC7
:10378000B0EE480AFFF75DFFDFF8E05D06F01EF8D7
:1037900009EE809A85ED009A94ED039AB0EE680ADE
:1037A000FFF74FFF06F014F869EE008A94ED029AD5
:1037B000B0EE480AFFF745FF06F00AF849EE408AE6
:1037C000C5ED018A95EC020ABDEC048B31BD000009
:1037D00010B52DED048BB0EE608ADFF88C4D84EDD2
:1037E000040A84ED058A20EE000A08EE080A05F0B6
:1037F000F1FFB0EE409A84ED069A88EE090A05F0D2
:10380000F9FFF0EE409AC4ED079A94ED030AD4ED67
:10381000030A94ED021AD4ED021A29EE098AF0EE99
:10382000008AB0EE482A00EE202A01EE612A94EDCB
:10383000030A20EE280A20EE090A82EE000A06F0AA
:1038400007F884ED080A39EE809AB0EE490AFFF7CE
:103850000DFF84ED000A94ED030AD4ED030A94ED04
:10386000021AD4ED021A94ED032A20EE200A01EE8A
:10387000210A30EE480A62EE280A94ED021A60EE40
:10388000810A80EE200A05F0E3FFB0EE408A84ED65
:10389000098ADFED618AB0EE490AFFF7E7FE38EEEC
:1038A000C00A84ED0A0A38EEC00A84ED0B0ADFED87
:1038B000090A70EEC08AB0EE480AFFF7D7FE38EE6C
:1038C000C00A84ED0C0A206B606094EC020ABDEC27
:1038D000048B10BD0000344338B52DED048BB0EEE1
:1038E000409AB0EE608AF0EE418ADFF88C4C84EDAD
:1038F000039A84ED048A89EE080A05F0DBFFFFF7DE
:10390000B5FE84ED000A28EE080A09EE090A05F062
:1039100061FF84ED050A20EE000A08EEA80A05F012
:1039200059FFB0EE409A84ED069A88EE890A05F0B8
:1039300061FFF0EE409AC4ED079ADFF82C5C95ED3C
:10394000030AD5ED030A95ED021AD5ED021A29EE08
:10395000098AF0EE008AB0EE482A00EE202A01EE35
:10396000612A95ED030A20EE280A20EE090A82EE6C
:10397000000A05F06DFF84ED080A39EE809AB0EE7A
:10398000490AFFF773FE84ED020A95ED030AD5EDAF
:10399000030A95ED021AD5ED021A95ED032A20EEE1
:1039A000200A01EE210A30EE480A62EE280A95ED5F
:1039B000021A60EE810A80EE200A05F049FFB0EE9F
:1039C000408A84ED098ADFED148AB0EE490AFFF7D8
:1039D0004DFE38EEC00A84ED0A0A38EEC00A84EDC6
:1039E0000B0ADFED100A70EEC08AB0EE480AFFF74E
:1039F0003DFE38EEC00A84ED0C0A206B606094EC4A
:103A0000030ABDEC048B31BDF84E00200C500020A1
:103A100048500020000013D00000B44214030020DE
:103A200000A5FFFF00003443403802400070004012
:103A30004C4F002000B00240A44E0020005C00402B
:103A4000984B00200246002000E0401C80B2115C30
:103A50000029FAD1704700002DE9F8432DED088BBD
:103A600088B005F04BFF00249FED049ADFED039A28
:103A70009FED02AADFF8045B30E000BF0000000009
:103A800005F0A0FA02460B460FF21441684605F015
:103A900051FF10E0DFEDE30AB4EE600AF1EE10FA38
:103AA000A86AEDDB05F08EFA02460B460FF2F831FC
:103AB000684605F03FFFDFF8C80A01F0DEFE032389
:103AC0006A464FF496710F2001F011FFDFF8540E93
:103AD00001F0D3FE4FF4FA7002F0E9FC002001F08F
:103AE000D2FB01280FD10A2C0DDDDFF83C0EC16F8F
:103AF00081F00101C167C26F3032D2B219210520B5
:103B000001F0DCFE0024642C00DA641CDFF8186E7F
:103B100096ED0C0AFFF7CAFD85ED090A96ED0B0A32
:103B2000FFF7C4FD85ED080A96ED0A0AFFF7EFFDE1
:103B300085ED0A0A686A05F045FA02460B460FF25F
:103B40007031684605F0F6FE03236A462D210520F4
:103B500001F0CDFE286A05F035FA02460B460FF259
:103B60006431684605F0E6FE03236A463C210520E1
:103B700001F0BDFED5ED080A95ED090AFFF7EDFD50
:103B8000B0EE408AF0EE608ADFEDB5AA28EE2A0A90
:103B900010EE100A05F016FA02460B460FF2383105
:103BA000684605F0C7FE03236A464B21052001F055
:103BB0009EFE28EEAA0A10EE100A05F003FA02464D
:103BC0000B460FF22031684605F0B4FE03236A4627
:103BD0005A21052001F08BFE95ED090AB4EE409ABA
:103BE000F1EE10FA0ED195ED080AF4EE409AF1EEDE
:103BF00010FA07D195ED0A0AB4EE40AAF1EE10FAD8
:103C00003FF468AFE86A00283FF464AF4FF07F40AC
:103C100001F022FEB423E6228721052002F028F8D5
:103C2000DFF8086D304601F017FE95ED099AD5EDE5
:103C3000089A95ED0AAA2D202880FA20688037205E
:103C4000A880FA20E88095ED090AFFF7FAFC9FEDBD
:103C5000858B05F0BBFD10EE100A05F0B3F953ECAF
:103C6000182B05F0D3F90022DFF8C43C05F006FC60
:103C700005F080FEA88195ED090AFFF7E2FC05F04A
:103C8000A7FD10EE100A05F09DF953EC182B05F076
:103C9000BDF902460B460020DFF8981C05F088FEAF
:103CA00005F068FEE881B5F80C8008F10A08A5F86F
:103CB0000880B5F90E706F81A5F810806F82A5F8A5
:103CC000148007F10A00E88295ED080AFFF7B9FCB5
:103CD000B0EE408A9FED65BB0FFA88F8404605F0CC
:103CE000D9FE80468946B0EE480A05F06FFD10EE19
:103CF000100A05F067F953EC1B2B05F087F94246D3
:103D00004B4605F0BBFB05F035FEA88395ED080A90
:103D1000FFF797FCB0EE408A384605F0BBFE8046C0
:103D20008946B0EE480A05F053FD10EE100A05F082
:103D300049F953EC1B2B05F069F942464B4605F057
:103D40009DFB05F017FEE883A88B2883E88B0A30DB
:103D5000688328231A46FA211E2001F089FF0421D6
:103D6000284602F088F8042105F1100002F083F8DB
:103D70000A231E22E88B0146A88B01F079FF0A2254
:103D8000FA21322001F0A0FF0A22B5F90E10491DD8
:103D900089B2B5F90C00401D80B201F095FF0A22EE
:103DA000B5F91E10491D89B2A88B01F08DFF4FF0A7
:103DB0007F4001F051FD0522FA21322001F084FFFD
:103DC0000522B5F90E10491D89B2B5F90C00401D48
:103DD00080B201F079FF0522B5F91E10491D89B2A4
:103DE000A88B01F071FF304601F036FD95ED0A0A0F
:103DF000DFED2A0AB4EE600AF1EE10FA95ED0A0A38
:103E00007FF548AEFFEE000A20EE200A10EE100A01
:103E100005F0D8F802460B460FF2D401684605F0CB
:103E200089FD48E6CDCCCC3DA05100204C4E002071
:103E30008C4F0020C0500020303802400008024063
:103E400000000240000C0240001802400000121066
:103E500097D17E5AFB2109409C000020000034408D
:103E60000000C84200000000009052400000000026
:103E700000A05440A08601000068014000080650E0
:103E80000050014000040040000800400050004085
:103E9000400100A00004024000806640CCCCCCBDB4
:103EA000202020252E3166003C2D20252E31660055
:103EB00056206A6F696E743A20252E32662064653A
:103EC0006700000048206A6F696E743A20252E3220
:103ED0006620646567000000583A20252E31662070
:103EE000636D0000593A20252E316620636D000075
:103EF000202020252E3166202D3E00002DE9F8439C
:103F00002DED028B82B0DFF8A45B05F12106DFF80E
:103F1000189A52E005F114020FF6E03105F158004D
:103F200005F008FD05F15800FFF78CFD014605F18D
:103F3000580005F013FE3AE098ED058A87ED198ADE
:103F400097ED000AD7ED0A0A30EE600AFFF76FFB23
:103F500080EE080A88ED060A97ED020A98ED068AB7
:103F6000D7ED0C0A30EE600AFFF761FB80EE080A1D
:103F700087ED1B0A97ED010AD7ED0B0A30EE600AB8
:103F8000FFF755FB80EE080A87ED1A0A05F11402C7
:103F90000FF6603105F1580005F0CCFC05F1580032
:103FA000FFF750FD014605F1580005F0D7FD002050
:103FB000F0714FF47A7002F07AFAF0790128F8D1B2
:103FC000287D532840F06881297E3B2940F0648198
:103FD000297F3B2940F0608195F820103B2940F073
:103FE0005B81F1780D2940F057816420DFF8C44AE5
:103FF0000A216A7D12FB00F2AB7D13FB0122EB7DEF
:10400000D718E71905F12A0217806B7E13FB00F31E
:1040100095F81AC01CFB013395F81BC06344E318E4
:10402000538095F81DC01CFB00FC95F81EE01EFB9C
:1040300001CC95F81FE0F444A444A2F804C096F81B
:1040400000E01EFB00F096F801E01EFB0100B178D5
:1040500040182418D4801BB200EE103AB8EEC00A03
:10406000F2EE040A80EE200A05F13C0888ED000A11
:104070000FFA8CFC00EE90CAF8EEE00A9FEDBD1A34
:1040800070EE810AB2EE041AC0EE810AC8ED010A90
:10409000D9F87C0000287FF479AF9FED3C1AC0EE80
:1040A000810A80EE010AFFF793FB85EC020AFFF715
:1040B000F1FA89ED020A95ED010AFFF7EBFA89EDB5
:1040C000010A384680B2FFF7FCFA89ED000A204663
:1040D00080B2FFF730FB89ED030A99ED010AD9EDB3
:1040E0000B0A30EE600AFFF7A2FAB0EE408A99EDB3
:1040F000020AD9ED0C0A30EE600AFFF798FAB4EE26
:10410000408AF1EE10FA43D599ED000AD9ED0A0A7A
:1041100030EE600AFFF78BFAB0EE408A99ED020AA2
:10412000D9ED0C0A30EE600AFFF781FAB4EE408A4E
:10413000F1EE10FA2CD598ED058A89ED1B8A99EDE0
:10414000020AD9ED0C0A30EE600AFFF770FA80EE31
:10415000080A88ED060A99ED010A98ED068AD9ED5C
:104160000B0A30EE600AFFF762FA80EE080A89ED6A
:104170001A0A99ED000AD9ED0A0A30EE600AFFF733
:1041800056FA80EE080A89ED190AFFE60000C842D7
:1041900099ED020AD9ED0C0A30EE600AFFF747FAF2
:1041A000B0EE408A99ED010AD9ED0B0A30EE600AB3
:1041B000FFF73DFAB4EE408AF1EE10FA41D599EDE1
:1041C000000AD9ED0A0A30EE600AFFF730FAB0EEC5
:1041D000408A99ED010AD9ED0B0A30EE600AFFF72B
:1041E00026FAB4EE408AF1EE10FA2AD598ED058A47
:1041F00089ED1A8A99ED010AD9ED0B0A30EE600AB1
:10420000FFF715FA80EE080A88ED060A99ED020A12
:1042100098ED068AD9ED0C0A30EE600AFFF707FA2E
:1042200080EE080A89ED1B0A99ED000AD9ED0A0A09
:1042300030EE600AFFF7FBF980EE080A89ED190AF3
:10424000A4E698ED058A89ED198A99ED000AD9ED61
:104250000A0A30EE600AFFF7EAF980EE080A88EDF4
:10426000060A99ED020A98ED068AD9ED0C0A30EE9D
:10427000600AFFF7DCF980EE080A89ED1B0A99ED68
:10428000010AD9ED0B0A30EE600AFFF7D0F980EE93
:10429000080A89ED1A0A79E650287FF43BAE287E99
:1042A0003B287FF437AE287F3B287FF433AE95F868
:1042B00020003B287FF42EAEF0780D287FF42AAE44
:1042C0006420DFF8F0470A216A7D12FB00F2AB7D23
:1042D00013FB0122EB7DD218A21805F12A031A81E3
:1042E0006F7E17FB00F795F81AC01CFB017795F855
:1042F0001BC06744E7195F8195F81DC01CFB00FCDB
:1043000095F81EE01EFB01CC95F81FE0F444A44490
:10431000A3F80CC096F800E01EFB00F096F801E050
:104320001EFB0100B17840182418DC8112B200EEA7
:10433000102AB8EEC00ADFED8E0A30EE200AF2EE47
:10434000040AC0EE201A05F13C08C8ED021A3FB27B
:1043500000EE107AB8EEC00A80EE200A88ED030A5B
:104360000FFA8CFC00EE90CAF8EEE00A9FED011AFD
:1043700002E000BF000048C270EE810AB2EE041AEB
:10438000C0EE810AC8ED040A4F46F86F00287FF49A
:10439000FDAD9FED781A80EE811ADFED760AC0EE52
:1043A000200A9FED740A81EE800AFFF795FA05F165
:1043B000080080EC030A95ED040AFFF76BF987ED1E
:1043C000020A95ED030AFFF765F987ED010A95EDFD
:1043D000020AFFF788F987ED000A204680B2FFF74E
:1043E000AAF987ED030A97ED010AD7ED0B0A30EE23
:1043F000600AFFF71CF9B0EE408A97ED020AD7ED8C
:104400000C0A30EE600AFFF712F9B4EE408AF1EEC2
:1044100010FA41D597ED000AD7ED0A0A30EE600A8E
:10442000FFF705F9B0EE408A97ED020AD7ED0C0AC6
:1044300030EE600AFFF7FBF8B4EE408AF1EE10FAB6
:104440002AD598ED058A87ED1B8A97ED020AD7EDEC
:104450000C0A30EE600AFFF7EAF880EE080A88EDF1
:10446000060A97ED010A98ED068AD7ED0B0A30EEA1
:10447000600AFFF7DCF880EE080A87ED1A0A97ED6C
:10448000000AD7ED0A0A30EE600AFFF7D0F880EE96
:10449000080A87ED190A79E597ED020AD7ED0C0AAB
:1044A00030EE600AFFF7C3F8B0EE408A97ED010ADC
:1044B000D7ED0B0A30EE600AFFF7B9F8B4EE408A88
:1044C000F1EE10FA7FF538AD97ED000AD7ED0A0A44
:1044D00030EE600AFFF7ABF8B0EE408A97ED010AC4
:1044E000D7ED0B0A30EE600AFFF7A1F8B4EE408A70
:1044F000F1EE10FA7FF520AD98ED058A87ED1A8A66
:1045000097ED010AD7ED0B0A30EE600AFFF78FF83E
:1045100080EE080A88ED060A97ED020A98ED068AF1
:10452000D7ED0C0A30EE600AFFF781F880EE080A3A
:1045300087ED1B0A97ED000AD7ED0A0A30EE600AF4
:10454000FFF775F880EE080A87ED190A1EE50000EE
:104550000000044000001E4000001EC00000224079
:104560000000B03F0000144038000020AC51002093
:104570000000C8C20000C842F45000206C000020B7
:104580001C03002080B50A2001F091FFFBE700002A
:1045900010B5DFF894436BE0206960621DE094ED94
:1045A000040AD4ED0E0AB4EE600AF1EE10FA14D546
:1045B00094ED040AD4ED0E0A94ED1D1A70EEC10AB2
:1045C000B4EE600AF1EE10FAE6D594ED0E0AD4EDE1
:1045D0001D0A30EE600A84ED090ADFF8DC049FED65
:1045E000CF0AD4ED050A60EE800A9FEDCD1AC0EE29
:1045F000810AFDEEE00AC0ED000AD4ED060A60EE85
:10460000800AC0EE810AFDEEE00AC0ED010ADFF883
:10461000AC04D4ED070A60EE800AC0EE810AFDEE1C
:10462000E00AC0ED000AD4ED080A60EE800AC0EE90
:10463000810AFDEEE00AC0ED020AD4ED090A20EE7F
:10464000800ADFEDB70A80EE200ABDEEC00ADFF86F
:10465000700480ED000A6069A062A069E062E06910
:104660002063206A6063606AA0630A2001F01FFF74
:10467000D4ED140A94ED0F0A2046FEF7C4FFD4EDE2
:10468000150A94ED100A201DFEF7BDFFD4ED160AA1
:1046900094ED110A04F10800FEF7B5FFD4ED170AF6
:1046A00094ED120A04F10C00FEF7ADFFD4ED180AE8
:1046B00094ED130A04F11000FEF7A5FF94ED0A0A29
:1046C000D4ED000AB4EE600AF1EE10FA18D594EDBC
:1046D0000A0AD4ED190A30EE200AD4ED000AB4EE2D
:1046E000600AF1EE10FA08D594ED0A0AD4ED190A21
:1046F00030EE200A84ED050A23E02068606120E0A6
:1047000094ED000AD4ED0A0AB4EE600AF1EE10FA54
:1047100017D594ED000AD4ED0A0A94ED191A70EE3B
:10472000C10AB4EE600AF1EE10FA08D594ED0A0A57
:10473000D4ED190A30EE600A84ED050A01E0206824
:10474000606194ED0B0AD4ED010AB4EE600AF1EE5B
:1047500010FA18D594ED0B0AD4ED1A0A30EE200A9F
:10476000D4ED010AB4EE600AF1EE10FA08D594ED2A
:104770000B0AD4ED1A0A30EE200A84ED060A23E073
:104780006068A06120E094ED010AD4ED0B0AB4EE5C
:10479000600AF1EE10FA17D594ED010AD4ED0B0A78
:1047A00094ED1A1A70EEC10AB4EE600AF1EE10FA36
:1047B00008D594ED0B0AD4ED1A0A30EE600A84EDA8
:1047C000060A01E06068A06194ED0C0AD4ED020ACB
:1047D000B4EE600AF1EE10FA18D594ED0C0AD4ED9F
:1047E0001B0A30EE200AD4ED020AB4EE600AF1EEA4
:1047F00010FA08D594ED0C0AD4ED1B0A30EE200A0D
:1048000084ED070A23E0A068E06120E094ED020A4D
:10481000D4ED0C0AB4EE600AF1EE10FA17D594ED5F
:10482000020AD4ED0C0A94ED1B1A70EEC10AB4EE24
:10483000600AF1EE10FA08D594ED0C0AD4ED1B0ACB
:1048400030EE600A84ED070A01E0A068E06194EDB3
:104850000D0AD4ED030AB4EE600AF1EE10FA18D591
:1048600094ED0D0AD4ED1C0A30EE200AD4ED030AB3
:10487000B4EE600AF1EE10FA08D594ED0D0AD4ED0D
:104880001C0A30EE200A84ED080A23E0E06820626A
:1048900020E094ED030AD4ED0D0AB4EE600AF1EEC7
:1048A00010FA17D594ED030AD4ED0D0A94ED1C1AF5
:1048B00070EEC10AB4EE600AF1EE10FA08D594ED7C
:1048C0000D0AD4ED1C0A30EE600A84ED080A01E0FE
:1048D000E068206294ED0E0AD4ED040AB4EE600A9A
:1048E000F1EE10FA7FF55BAE94ED0E0AD4ED1D0AE1
:1048F00030EE200AD4ED040AB4EE600AF1EE10FAAC
:1049000008D594ED0E0AD4ED1D0A30EE200A84ED90
:10491000090A62E6206960625FE600000060EA471B
:104920000000C84214030020A000002000A5FFFFE3
:104930000080464000406F407CB500254FF47A74FB
:10494000264608E05F48486081ED020A6D1C4FF47E
:10495000FA7001F0ACFD5C49886F00EBD072521028
:10496000A0EB420001280DD19FED4F0A05EBD57059
:104970004010B5EB4000E5D14FF08240486081ED3A
:10498000020AE3E7C86F012872D10C2095FBF0F012
:1049900000EB4002B5EB820007D1434888604B48EA
:1049A000C8604348486626465DE0012803D1484870
:1049B0004860264657E0022804D1464808604FF474
:1049C000FA6650E0032806D1434808604148486031
:1049D0004FF4FA6647E0042838D0052804D13F4850
:1049E000C86040F2DC563EE006280ED13948086027
:1049F0003B4848602C4888609FED2D0A81ED1A0ADB
:104A000081ED1B0A40F6C4162DE0072809D1344871
:104A100048604FF082408860254888664FF4FA76F7
:104A200021E0082805D12E4848601F4888602646A6
:104A300019E0092808D128480860264848601C4821
:104A400088664FF4FA660EE00A2804D1254888608B
:104A500040F2DC5607E00B2805D1154888661B4854
:104A6000C86047F230566D1C304601F020FD72E7F9
:104A70004FF4FA7001F01BFD6DE7E0B5684601F0F8
:104A800036FC1948BDF802100160BDF80410416001
:104A90000A2001F00CFDF1E700681449884201D1B9
:104AA00005F07AB8704700009A99D940200100209B
:104AB0008FC2F53C30EBFFFF34000040340400406F
:104AC0003808004000002041A00000200000C04045
:104AD000000010410000F04000004040333313411B
:104AE00033332B4100001441B4510020001000402A
:104AF000FEE700004F4B3A2025730D004552523A15
:104B00002025730D0000000080B50B48016841F4BA
:104B100000710160016841F480610160016841F445
:104B200080710160032002F0D2F8002005F03CF80B
:104B300003F00EFC002002BD003C024038B504002A
:104B400001D1012032BD04F138056878002804D174
:104B500000202870204600F0B1FA02206870211D64
:104B6000206800F05FF901206870002032BD016804
:104B7000CA6842F00102CA600068016841F00101A0
:104B800001600020704738B5040001D1012032BD1A
:104B900004F138056878002804D1002028702046E8
:104BA00003F045FD02206870211D206800F03AF9ED
:104BB00001206870002032BD10B504460122206833
:104BC00000F0D0F92068DFF83010884203D0DFF819
:104BD0002C10884201D1012100E00021002903D0DE
:104BE000416C41F4004141642068016841F00101D9
:104BF0000160002010BD00000000014000040140E1
:104C000010B5044620680169890717D5C16889076E
:104C100014D56FF0020101610120207620688069BF
:104C200010F0030F204602D004F0FEFF04E004F071
:104C3000FCFF204604F0FAFF00202076206801697E
:104C4000490717D5C168490714D56FF00401016100
:104C5000022020762068806910F4407F204602D030
:104C600004F0E2FF04E004F0E0FF204604F0DEFF81
:104C70000020207620680169090717D5C168090757
:104C800014D56FF008010161042020762068C06906
:104C900010F0030F204602D004F0C6FF04E004F039
:104CA000C4FF204604F0C2FF00202076206801697E
:104CB000C90617D5C168C90614D56FF01001016186
:104CC000082020762068C06910F4407F204602D07A
:104CD00004F0AAFF04E004F0A8FF204604F0A6FFB9
:104CE0000020207620680169C90708D5C168C90776
:104CF00005D56FF0010101612046FFF7CDFE206868
:104D00000169090608D5C168090605D56FF080015B
:104D10000161204604F08BFF20680169490608D52F
:104D2000C168490605D56FF040010161204604F0D5
:104D30007FFF2068016989060AD5C168890607D501
:104D40006FF0200101612046BDE8104004F071BF02
:104D500010BD70B506460D4606F1380420780128CE
:104D600001D1022070BD0120207002206070002A55
:104D700006D0042A17D0082A29D00C2A3AD04CE0B1
:104D8000306800F0FDF83068816941F00801816108
:104D90003068816921F00401816131688A6928697C
:104DA00002438A6139E0306800F0A9F8306881690F
:104DB00041F4006181613068816921F48061816121
:104DC000306881692A6941EA0221816125E0306801
:104DD00000F004F93068C16941F00801C161306830
:104DE000C16921F00401C1613168CA6928690243BF
:104DF000CA6112E0306800F022F93068C16941F4FC
:104E00000061C1613068C16921F48061C1613068AD
:104E1000C1692A6941EA0221C16101206070002054
:104E2000207070BD18B40468DFF86432984212D064
:104E3000B0F1804F0FD0DFF85C2290420BD0DFF84A
:104E40005822904207D0DFF85422904203D0DFF876
:104E50005022904201D1012200E00022002A03D01A
:104E600024F070044A68144398422AD0B0F1804F6D
:104E700027D0DFF82022904223D0DFF81C22904276
:104E80001FD0DFF8182290421BD0DFF81422904286
:104E900017D0DFF81022904213D0DFF80C22904296
:104EA0000FD0DFF8082290420BD0DFF804229042A6
:104EB00007D0DFF80022904203D0DFF8FC219042B7
:104EC00001D1012200E00022002A03D024F4407422
:104ED000CA68144304608A68C2620A68826298429F
:104EE00002D06F4A904201D1012200E00022002A44
:104EF00001D0096901630121416111BC704770B49F
:104F0000026A22F010020262036A4468856925F48D
:104F1000E6450A6845EA022523F020038A6843EA49
:104F200002135B4A904202D05D4A904201D10122B5
:104F300000E00022002A0DD023F08003CA6843EA73
:104F4000021323F0400324F440644E698A69164337
:104F500044EA86044460856149688163036270BCE9
:104F60007047000010B4036A01248C40A34303621D
:104F7000036A02FA01F11943016210BC7047000094
:104F800030B4026A520852000262036A44688569BA
:104F900025F073050A68154323F002038A6813435A
:104FA0003B4A904202D03E4A904201D1012200E0A9
:104FB0000022002A0BD023F00803CA68134323F011
:104FC000040324F440744A6914438A691443446016
:104FD000856149684163036230BC704770B4026AFE
:104FE00022F480720262036A4468C56925F0730581
:104FF0000A68154323F400738A6843EA0223244AAB
:10500000904202D0264A904201D1012200E00022C3
:10501000002A0DD023F40063CA6843EA022323F474
:10502000806324F440544E698A69164344EA0614A6
:105030004460C5614968C163036270BC704730B4A5
:10504000026A22F480520262026A4368C46924F44C
:10505000E6440D6844EA052422F400528D6842EAD1
:1050600005320B4DA84202D00D4DA84201D10125B9
:1050700000E00025002D04D023F480434D6943EA6D
:1050800085134360C46149680164026230BC7047A3
:10509000000001400004004000080040000C0040F7
:1050A000000401400040014000440140004801402C
:1050B00000180040001C0040002000407047F0B481
:1050C0000246106895681318506803EB5004C00737
:1050D00021D54D441FE0F0BC02F10C00704713F8DD
:1050E000017B05F8017B491EF9D1A0B1B60813F880
:1050F000011B06F00306032E08BF13F8016B01EB3A
:1051000006214942801C294405D011F8016B05F89D
:10511000016B401EF9D1A342DDD013F8016B16F0EC
:10512000030104BF13F8011BC91C30090F28DAD191
:1051300013F8010B0F30D6E710B50446042220689F
:1051400000F032F82068416C41F40041416420686D
:10515000016841F001010160002010BD30B400F190
:1051600038031A78012A01D102201BE001221A70AB
:1051700002225A700268546824F070045460046873
:1051800065680A68154365600268946824F08004C5
:1051900094600268946848680443946001205870E1
:1051A0000020187030BC704710B4036A04248C408F
:1051B000A3430362036A02FA01F11943016210BCBE
:1051C0007047B1F5807F02D34FF0FF307047017018
:1051D000012070470078401E8041C043C00F7047D7
:1051E00001220FF23C5131F81010DFF8F83453F877
:1051F000200003F0B6BE38B586B004460D46200048
:105200000CD100200090DFF8D804016841F00101C2
:105210000160006800F0010000900098280010D1A3
:105220000FF2005030F8140001900020029002208C
:105230000390049001A9DFF8B00450F8240003F0B3
:1052400005FD012D1DD10FF2DC4030F81400019056
:1052500000200390DFF89404029001A9DFF888048D
:1052600050F8240003F0F2FC0FF2BC40045D002271
:105270000F21204640B201F02BFD204640B201F044
:1052800036FD07B030BD0FF29C4131F81010DFF849
:10529000582452F8200003F05CBE0068DFF8501478
:1052A000884200D0704710B586B000200090DFF82B
:1052B0004444206940F004002061206900F00400AB
:1052C0000090009800200090206940F001002061CB
:1052D000206900F00100009000984FF48070019068
:1052E00012200290002003900220049004200590D8
:1052F00001A9DFF8040403F0A9FC4FF40070019049
:1053000001A9DFF8F80303F0A1FC00200090206A57
:1053100040F400002062206A00F400000090009831
:10532000206840F400002060206820F40000206025
:1053300000220F21482001F0CBFC482001F0D7FCCF
:1053400000220F21492001F0C3FC492001F0CFFCCD
:1053500006B010BD10B5DFF8A843204602F00EF9E4
:10536000002818D1DFF888032060DFF89803606018
:105370000020A060E0604FF4804020610020606168
:10538000A061E06120622046FFF787FF2046BDE86C
:10539000104001F043BE10BD80B586B000200090E3
:1053A000DFF83C03016841F001010160006800F092
:1053B0000100009000984FF40040019001200390FC
:1053C00000200490DFF84003029001A9DFF82803D1
:1053D00003F03CFC00220F21282001F079FC28205A
:1053E00001F085FC07B000BD14B583B00A46DFF8B4
:1053F0001043616D02910121019103A900910123E4
:105400000146204601F0A2FE002801D000F030F84D
:105410001FBD1FB50A4600218DF80C10DFF8E042D1
:10542000616D02910121019103A9009101230146BF
:10543000204601F03BFF002801D000F019F89DF84C
:105440000C0004B010BD3EB5DFF8B442656D0295A6
:105450000193009201230A460146204601F026FFEF
:10546000002801D100203EBD00F002F801203EBD21
:1054700080B5DFF88C0201F04CFEBDE8014069E721
:1054800010B5DFF88842204602F000FF00281ED148
:10549000DFF87C0220601820E0610020A0606061DD
:1054A0002061A0620720E0620020E06020624FF4EB
:1054B0000070A061002060624FF48270606020463E
:1054C00000F026F82046BDE8104002F01BBC10BDDD
:1054D00080B502468D48836D694602F042FD002882
:1054E00001D000F00EF8009802BD01B58748836D29
:1054F0000122694602F05BFC002801D000F001F8AF
:1055000001BD80B5814802F03DFCBDE80140B7E730
:1055100080B586B0002000907148416941F4801147
:105520004161416901F480110091009900210091CD
:10553000016841F020010160006800F02000009047
:1055400000984FF4607001900220029003900120B7
:1055500004900520059001A96E4803F077FB07B081
:1055600000BD6D490878002800D0704738B586B076
:105570000120087000200090594C206840F008007D
:105580002060206800F00800009000984FF4005060
:1055900001900120029000200390022004905F4DB2
:1055A00001A9284603F052FB00200090206840F03B
:1055B00008002060206800F00800009000984FF478
:1055C000805001900120029000200390022004905E
:1055D00001A9284603F03AFB00200090206840F023
:1055E00004002060206800F004000090009804206F
:1055F00001900120029000200390022004903F4C73
:1056000001A9204603F022FB00220421204603F0DA
:10561000A8FC01220421204603F0A3FCFFF730FF81
:1056200007B030BD38B5044601224FF400513B4865
:1056300003F097FC314D00220421284603F091FC31
:105640002046FFF752FF012204212846BDE83840DA
:1056500003F087BC38B5044600224FF400512F48B0
:1056600003F07FFC254D00220421284603F079FC3D
:105670002046FFF73AFF012204212846BDE83840C2
:1056800003F06FBCF8B504460D461C4E0022042101
:10569000304603F066FC214F00224FF4005138469B
:1056A00003F05FFC2046FFF720FF2846FFF710FFBE
:1056B000044601224FF40051384603F052FC012207
:1056C0000421304603F04DFC2046F2BD04F0B2BA8E
:1056D00040E661E688E69CE6B5E604F0ABBA000079
:1056E00030380240A4010020AC010020000011105D
:1056F000005C0040203802400000024000080240E8
:10570000B0010020A0860100000021100802002046
:105710000050014000140240D2510020000C024011
:10572000002000400100000006000268531C0360D6
:105730001170704738B5DFF85C46DFF85C06206012
:10574000092060610120A0611D20E061032020622A
:1057500040F20D10606240F24310A06240F2171058
:10576000E06240F24710206304F1340000218170B0
:105770000180DFF8285608202860322028610420A4
:10578000A8614FF480306862284601F027F90020B4
:105790006060A060E060206100F0E0FC204602F064
:1057A0002BF9DFF8540828630068804704F056FAA4
:1057B00004F1A80000F061F8002032BDDFF8DC053C
:1057C000006B806A0047DFF8D405006BC06A0047B1
:1057D00030B58DB004460D4600200090FFF7EEFF77
:1057E000019000200290FFF7EEFF0390002004904C
:1057F0000995FF20059000200690ADF830000CA818
:10580000002181704FF4C060079007200890FFF7D7
:10581000D5FF0A90FFF7D7FF0B90DFF878552246A7
:105820006946284602F05DF9DFF8F80704EB440109
:1058300000EB81004FF0FF31416005F1A80181606C
:105840004FF07F410160284602F06DF90DB030BD88
:10585000DFF8D01788617047DFF8F4188A6902EB27
:1058600042039A0088507047DFF8E4188A6902EB17
:10587000420301EB830148607047DFF8D4188A695E
:1058800002EB420301EB8301886070473EB504469A
:10589000FFF799FF0546FFF791FF0246DFF88407FF
:1058A00080690194002100912B46DFF8A018342470
:1058B00044432144C96D00F01CFC37BD30B4DFF80F
:1058C00064379C6904EB440503EB85039B689C8863
:1058D000E41D1D68203ADB885A4323469B1004EBE5
:1058E0005374E41062432A4430BC00F09DBB2DE9A0
:1058F000F84F82460E46154699460024A346284690
:1059000001E00BF1010B10F8011B0029F9D1FFF7A1
:1059100055FFDFF810774FF00C0807F10801BA695E
:1059200008FB02F289588988B0FBF1F0B9F1010F48
:1059300003D0B9F1020F07D01CE0A0EB0B0B01FB69
:105940000BFB0AEB5B0A15E0A0EB0B0B01FB0BFB5F
:10595000DA440FE015F8012B3146504680B2FFF7CC
:10596000ADFF07F10800B96908FB01F140588088D4
:105970008244641C2878B0F1010969EB09096FEAD7
:1059800009094FEAD979FFF719FF07F10801BA6948
:1059900008FB02F289588988A4B201FB140080B286
:1059A00088428041C043494611EAD07FD2D1BDE848
:1059B000F18FFEB504460D461646FFF7FFFE024680
:1059C000DFF860369869DFF8841734274743394495
:1059D000C96D05FB024401EB840100EB400292001B
:1059E0009A580192002200920123324600F081FB76
:1059F000F7BD2DE9FC4106460F461446FFF7DEFED3
:105A0000DFF82056DFF84427AB6934214B43D11827
:105A1000D1F85C8007FB006608EB8608FFF7CEFE36
:105A20000146A86900EB40029200AA580192491E63
:105A3000009123460122414600F05BFBBDE8F38163
:105A40002DE9FE4F0746084600243D46511B00291C
:105A500002DDA2EB070C01E0A7EB020C0646991B46
:105A6000002902DDA3EB000B01E0A0EB030BBA421F
:105A700002D30122114602E04FF0FF310A46834271
:105A800002D30120074602E04FF0FF3007460FFA2D
:105A90008BFB0FFA8CFC6346DE46F4450CDB22469A
:105AA0001746984603EBD3794FEA6909DA469B46D5
:105AB00002920191009025E021460846D8460BEB62
:105AC000DB794FEA69099A46F2E7DFF884068169D3
:105AD00001EB4102910042583046014689B2284606
