:020000040800F2
:10000000C057002055EC000879EC00087DEC000892
:1000100081EC000885EC000889EC00080000000075
:1000200000000000000000000000000099C500086A
:100030008DEC00080000000041C5000805EC000838
:1000400091EC000895EC000899EC00089DEC000884
:10005000A1EC0008A5EC00081DEC0008A9EC0008C4
:10006000ADEC0008B1EC0008B5EC0008B9EC0008F4
:10007000BDEC0008C1EC0008C5EC0008C9EC0008A4
:10008000CDEC0008D1EC0008D5EC0008D9EC000854
:10009000DDEC0008E1EC0008E5EC0008E9EC000804
:1000A000EDEC0008F1EC0008F5EC0008F9EC0008B4
:1000B000FDEC000801ED000805ED000809ED000861
:1000C0000DED000811ED000815ED000819ED000810
:1000D0001DED000821ED000825ED000829ED0008C0
:1000E0002DED000831ED000835ED000839ED000870
:1000F0003DED000841ED000845ED000849ED000820
:100100004DED000851ED000855ED000859ED0008CF
:100110005DED000861ED000809EC000865ED0008E0
:1001200069ED00086DED000871ED000875ED00083F
:1001300079ED00087DED000881ED000885ED0008EF
:1001400089ED00088DED000891ED000895ED00089F
:1001500099ED00089DED0008A1ED0008A5ED00084F
:10016000A9ED0008ADED0008B1ED0008B5ED0008FF
:10017000B9ED00080FEC0008BDED0008000000001C
:10018000C1ED0008C5ED0008C9ED0008CDED00087F
:10019000D1ED0008D5ED0008D9ED0008DDED00082F
:1001A000E1ED0008E5ED0008E9ED000800000000C1
:1001B000000000000000000000000000000000003F
:1001C000000000000000000000000000000000002F
:1001D000000000000000000000000000000000001F
:1001E000000000000000000000000000000000000F
:1001F00000000000000000000000038000038000F9
:10020000038000038000038000038000038000035C
:1002100080000380000100000100000000000000D9
:1002200000038000038000000000000000000000C8
:1002300000000000000000000000000000000000BE
:1002400000000000000E70000E70000E7000042010
:100250000004200004200004200000000000000032
:10026000000000000000000000000000000000008E
:10027000000000000000000000000000000000007E
:1002800000000000000000000000066000066000A2
:100290000660000660000660003FF8003FF80006B8
:1002A00060000CC0003FF8003FF8000CC0000CC01C
:1002B000000CC0000CC0000CC000000000000000DA
:1002C000000000000000000000000000000000012D
:1002D000800001800007B0000FF000187000187057
:1002E000001C00000F800007E00000F00018300044
:1002F0001C30001C70001FE0001BC00001800001CA
:10030000800001800001800000000000000000006B
:10031000000000000000000000000780000FC00087
:100320001CE0001860001860001CE0000FF80007D7
:10033000E0001FF000073800061800061800073814
:100340000003F00001E000000000000000000000D9
:10035000000000000000000000000000000000009D
:10036000000000000000000003F00007F0000C6037
:10037000000C00000C00000600000700000F9C00AD
:100380001DFC0018F0001870000FFC0007DC0000D6
:10039000000000000000000000000000000000005D
:1003A00000000000000000000000000000038000CA
:1003B0000380000380000100000100000100000133
:1003C000000000000000000000000000000000002D
:1003D000000000000000000000000000000000001D
:1003E000000000000000000000000000000000000D
:1003F000000000180000380000700000F00000E06D
:100400000000E00001C00001C00001C00001C00008
:1004100001C00001C00000E00000E000007000002A
:10042000700000380000180000000000000000000C
:10043000000000000000000000001800001C000088
:100440000E00000E000007000007000003800003FC
:100450008000038000038000038000038000070009
:10046000000700000F00000E00001C000018000034
:10047000000000000000000000000000000000007C
:1004800000000180000180000180001DB8001FF8FD
:100490000007E00003C00003C00006600006600023
:1004A000000000000000000000000000000000004C
:1004B000000000000000000000000000000000003C
:1004C000000000000000000000000000000000002C
:1004D0000180000180000180000180000180003F58
:1004E000FC003FFC000180000180000180000180D1
:1004F000000180000000000000000000000000007B
:1005000000000000000000000000000000000000EB
:1005100000000000000000000000000000000000DB
:1005200000000000000000000000000000000000CB
:1005300000000000000000E00000C00001C0000159
:1005400080000180000300000300000000000000A4
:10055000000000000000000000000000000000009B
:100560000000000000000000000000000000001F6C
:10057000F8001FF80000000000000000000000006C
:10058000000000000000000000000000000000006B
:10059000000000000000000000000000000000005B
:1005A000000000000000000000000000000000004B
:1005B000000000000000000000000000000000003B
:1005C00000000000000003C00003C00003C00000E2
:1005D000000000000000000000000000000000001B
:1005E0000000000000180000180000380000300073
:1005F00000700000600000600000C00000C000014A
:1006000080000180000300000300000600000600D7
:10061000000E00000C00001C000018000018000074
:1006200000000000000000000000000000000000CA
:10063000000003C00007E0000C30000C3000181868
:1006400000181800181800181800181800181800BA
:100650001818000C30000C300007E00003C0000048
:10066000000000000000000000000000000000008A
:100670000000000000000000000000800007800073
:100680001F80001D800001800001800001800001AA
:100690008000018000018000018000018000018055
:1006A000001FF8001FF8000000000000000000001C
:1006B000000000000000000000000000000000003A
:1006C000000007C0001FF00038300030180030185C
:1006D0000000180000300000600001C0000380002E
:1006E0000600000C00001800003FF8003FF8000072
:1006F00000000000000000000000000000000000FA
:100700000000000000000000000003C0000FE00037
:100710000C700000300000300000600003C00003D7
:10072000E0000070000018000018000018001838E1
:10073000001FF0000FC000000000000000000000DB
:1007400000000000000000000000000000000000A9
:10075000000000E00001E00001E00003600006602E
:10076000000660000C60000C600018600030600043
:100770003FF8003FF80000600003F80003F80000B5
:100780000000000000000000000000000000000069
:10079000000000000000000000001FF0001FF0003B
:1007A0001800001800001800001BC0001FF0001CFB
:1007B0003000001800001800001800001800303049
:1007C000003FF0000FC0000000000000000000002B
:1007D0000000000000000000000000000000000019
:1007E000000000F80003F8000700000E00000C00F5
:1007F000001800001BC0001FF0001C30001818007B
:100800001818001818000C38000FF00003E0000062
:1008100000000000000000000000000000000000D8
:10082000000000000000000000001FF8001FF8009A
:100830001818001838000030000030000070000068
:10084000600000600000E00000C00000C00001C0C7
:100850000001800001800000000000000000000096
:100860000000000000000000000000000000000088
:10087000000007E0000FF0001C38001818001818DE
:10088000000C300007E00007E0000C3000181800F2
:100890001818001818001C38000FF00007E00000BE
:1008A0000000000000000000000000000000000048
:1008B0000000000000000000000007C0000FF00072
:1008C0001C30001818001818001818000C38000FF9
:1008D000F80003D80000180000300000700000E0AD
:1008E000001FC0001F00000000000000000000000A
:1008F00000000000000000000000000000000000F8
:10090000000000000000000000000000000003C024
:100910000003C00003C00000000000000000000051
:1009200000000000000003C00003C00003C000007E
:1009300000000000000000000000000000000000B7
:1009400000000000000000000000000000000000A7
:1009500000000000000000F00000F00000F00000C7
:10096000000000000000000000000000E00001C0E6
:100970000001800001800003000002000000000070
:100980000000000000000000000000000000000067
:100990000000000000000000001C00003C0000F00F
:1009A0000003C0000F00003C0000F000003C00000D
:1009B0000F000003C00000F000003C00001C00001D
:1009C0000000000000000000000000000000000027
:1009D0000000000000000000000000000000000017
:1009E0000000000000000000007FFC007FFC000011
:1009F00000000000007FFC007FFC00000000000001
:100A000000000000000000000000000000000000E6
:100A100000000000000000000000000000000000D6
:100A200000000000000000007000007800001E00C0
:100A30000007800001E000007800001E0000780040
:100A400001E0000780001E00007800007000000038
:100A50000000000000000000000000000000000096
:100A60000000000000000000000000000007C000BF
:100A70000FE00018700018300018300000700000FF
:100A8000E00003C00003800003000000000000003D
:100A90000007000007000000000000000000000048
:100AA0000000000000000000000000000000000046
:100AB000000003E00007F0000E38000C1800187862
:100AC0000018F80019D80019980019980019980012
:100AD00018F8001878001800000C00000E18000725
:100AE000F80003E00000000000000000000000002B
:100AF000000000000000000000000000001F800057
:100B00001FC00001C0000360000360000630000643
:100B100030000C30000FF8001FF800180C00300CEB
:100B200000FC7F00FC7F00000000000000000000CF
:100B300000000000000000000000000000000000B5
:100B400000000000007FE0007FF000183800181857
:100B5000001818001838001FF0001FF800181C00BB
:100B6000180C00180C00180C007FF8007FF0000033
:100B70000000000000000000000000000000000075
:100B80000000000000000000000000000003EC0076
:100B90000FFC001C1C00180C00300C003000003052
:100BA0000000300000300000300000180C001C1C59
:100BB000000FF80003F0000000000000000000003B
:100BC0000000000000000000000000000000000025
:100BD00000000000007FC0007FF0001838001818E7
:100BE00000180C00180C00180C00180C00180C0051
:100BF000180C001818001838007FF0007FE0000083
:100C000000000000000000000000000000000000E4
:100C1000000000000000000000000000007FF8005D
:100C20007FF8001818001818001998001980001F84
:100C300080001F80001980001998001818001818EB
:100C4000007FF8007FF800000000000000000000B6
:100C50000000000000000000000000000000000094
:100C600000000000003FFC003FFC000C0C000C0CDE
:100C7000000CCC000CC0000FC0000FC0000CC00066
:100C80000CC0000C00000C00003FC0003FC0000082
:100C90000000000000000000000000000000000054
:100CA0000000000000000000000000000003EC0055
:100CB0000FFC001C1C00180C00300C003000003031
:100CC000000030FE0030FE00300C00380C001C1C10
:100CD000000FFC0003F00000000000000000000016
:100CE0000000000000000000000000000000000004
:100CF00000000000007E7E007E7E0018180018189C
:100D0000001818001818001FF8001FF80018180025
:100D10001818001818001818007E7E007E7E00004B
:100D200000000000000000000000000000000000C3
:100D3000000000000000000000000000001FF8009C
:100D40001FF8000180000180000180000180000187
:100D5000800001800001800001800001800001808E
:100D6000001FF8001FF80000000000000000000055
:100D70000000000000000000000000000000000073
:100D8000000000000007FE0007FE000030000030F9
:100D90000000300000300000300030300030300003
:100DA0003030003030003060003FE0000F80000045
:100DB0000000000000000000000000000000000033
:100DC000000000000000000000000000007F3E0066
:100DD0007F3E0018300018600018C0001980001B0A
:100DE00080001FC0001CE000187000183000183888
:100DF000007F1F007F1F00000000000000000000B7
:100E000000000000000000000000000000000000E2
:100E100000000000007F80007F80000C00000C00BC
:100E2000000C00000C00000C00000C00000C0C007A
:100E30000C0C000C0C000C0C007FFC007FFC000074
:100E400000000000000000000000000000000000A2
:100E500000000000000000000000000000F00F0093
:100E6000F81F00381C003C3C003C3C00366C00364F
:100E70006C0033CC0033CC00318C00300C00300CD3
:100E800000FE7F00FE7F0000000000000000000068
:100E90000000000000000000000000000000000052
:100EA000000000000078FE0078FE001C18001E18EC
:100EB000001F18001B18001B980019D80018D80034
:100EC00018F8001878001838007F18007F18000004
:100ED0000000000000000000000000000000000012
:100EE0000000000000000000000000000003C0003F
:100EF0000FF0001C3800181800381C00300C0030AF
:100F00000C00300C00300C00381C001818001C3885
:100F1000000FF00003C0000000000000000000000F
:100F200000000000000000000000000000000000C1
:100F300000000000003FF0003FF8000C1C000C0C0B
:100F4000000C0C000C0C000C18000FF8000FE00057
:100F50000C00000C00000C00003FC0003FC000006F
:100F60000000000000000000000000000000000081
:100F70000000000000000000000000000003C000AE
:100F80000FF0001C3800181800381C00300C00301E
:100F90000C00300C00300C00381C001818001C38F5
:100FA000000FF00007C00007CC000FFC000C380059
:100FB0000000000000000000000000000000000031
:100FC00000000000007FE0007FF0001838001818D3
:100FD000001818001838001FF0001FC00018E000AB
:100FE0001870001830001838007F1E007F0E0000B7
:100FF00000000000000000000000000000000000F1
:101000000000000000000000000000000007D80001
:101010000FF8001C38001818001818001E00000FE8
:10102000C00003F0000078001818001818001C38E1
:10103000001FF0001BE000000000000000000000A6
:1010400000000000000000000000000000000000A0
:1010500000000000003FFC003FFC00318C00318CA0
:1010600000318C00318C0001800001800001800083
:101070000180000180000180000FF0000FF00000EF
:101080000000000000000000000000000000000060
:10109000000000000000000000000000007E7E0054
:1010A0007E7E00181800181800181800181800186C
:1010B00018001818001818001818001818000C301C
:1010C000000FF00003C0000000000000000000005E
:1010D0000000000000000000000000000000000010
:1010E00000000000007F7F007F7F00180C000C18BC
:1010F000000C18000C1800063000063000036000D9
:1011000003600003600001C00001C0000080000017
:1011100000000000000000000000000000000000CF
:1011200000000000000000000000000000FE3F8002
:10113000FE3F8030060030060030860019CC0019D2
:10114000CC001B6C001B6C001E7C000E38000E389F
:10115000000C18000C180000000000000000000047
:10116000000000000000000000000000000000007F
:1011700000000000007E7E007E7E001818000C300B
:101180000006600003C00001800001800003C00071
:101190000660000C30001818007E7E007E7E000085
:1011A000000000000000000000000000000000003F
:1011B000000000000000000000000000007C7E0035
:1011C0007C7E001818000C300006600006600003EA
:1011D000C0000180000180000180000180000180CA
:1011E000000FF0000FF00000000000000000000001
:1011F00000000000000000000000000000000000EF
:1012000000000000001FF8001FF800181800183038
:101210000018600018C000018000030000061800DC
:101220000C18001818003018003FF8003FF80000B4
:1012300000000000000000000000000000000000AE
:101240000000000000000000000001F00001F000BC
:101250000180000180000180000180000180000108
:101260008000018000018000018000018000018079
:101270000001800001800001800001F00001F00009
:10128000000000000000000000000000180000182E
:1012900000001C00000C00000E000006000006000C
:1012A0000003000003000001800001800000C00076
:1012B00000C000006000006000007000003000000E
:1012C00038000018000018000000000000000000B6
:1012D000000000000000000000000F80000F8000F0
:1012E0000180000180000180000180000180000178
:1012F00080000180000180000180000180000180E9
:10130000000180000180000180000F80000F80003C
:1013100000000000000000000000000000000000CD
:10132000800001C00003E0000770000630000C18C8
:1013300000180C0010040000000000000000000075
:10134000000000000000000000000000000000009D
:10135000000000000000000000000000000000008D
:10136000000000000000000000000000000000007D
:10137000000000000000000000000000000000006D
:10138000000000000000000000000000000000005D
:10139000000000000000000000000000000000004D
:1013A000000000000000FFFF00FFFF00000000033E
:1013B000000003800000E00000600000000000006A
:1013C000000000000000000000000000000000001D
:1013D000000000000000000000000000000000000D
:1013E00000000000000000000000000000000000FD
:1013F00000000000000000000000000000000000ED
:101400000000000000000FC0001FE00000300000DE
:10141000300007F0001FF00038300030300030702E
:10142000001FFC000FBC00000000000000000000D6
:1014300000000000000000000000000000000000AC
:1014400000007800007800001800001800001BE081
:10145000001FF8001C1800180C00180C00180C00D5
:10146000180C00180C001C18007FF8007BE000002E
:10147000000000000000000000000000000000006C
:10148000000000000000000000000000000000005C
:1014900000000000000003EC000FFC001C1C0038E2
:1014A0000C00300C00300000300000380C001C1C18
:1014B000000FF80003F00000000000000000000032
:1014C000000000000000000000000000000000001C
:1014D000000000780000780000180000180007D80D
:1014E000001FF800183800301800301800301800BD
:1014F0003018003018001838001FFE0007DE00000A
:1015000000000000000000000000000000000000DB
:1015100000000000000000000000000000000000CB
:1015200000000000000007E0001FF800181800305D
:101530000C003FFC003FFC00300000300000180CA5
:10154000001FFC0007F00000000000000000000089
:10155000000000000000000000000000000000008B
:10156000000001FC0003FC000600000600003FF83C
:10157000003FF8000600000600000600000600001C
:101580000600000600000600003FF0003FF00000EB
:10159000000000000000000000000000000000004B
:1015A000000000000000000000000000000000003B
:1015B00000000000000007DE001FFE0018380030A9
:1015C0001800301800301800301800301800183893
:1015D000001FF80007D800001800001800003800AD
:1015E0000FF0000FC000000000000000000000002D
:1015F00000007800007800001800001800001BE0D0
:10160000001FF0001C3800181800181800181800E7
:101610001818001818001818007E7E007E7E000042
:1016200000000000000000000000000000000000BA
:1016300000000000000000000000018000018000A8
:101640000000000000001F80001F800001800001DA
:101650008000018000018000018000018000018085
:10166000003FFC003FFC0000000000000000000004
:10167000000000000000000000000000000000006A
:10168000000000C00000C0000000000000001FF0CB
:10169000001FF0000030000030000030000030007B
:1016A000003000003000003000003000003000004A
:1016B00030000030000070001FE0001F80000000BC
:1016C000000000000000000000003C00003C0000A2
:1016D0000C00000C00000CF8000CF8000CC0000D11
:1016E00080000F80000F00000F80000DC0000CE094
:1016F000003C7C003C7C000000000000000000007A
:1017000000000000000000000000000000000000D9
:1017100000001F80001F8000018000018000018008
:101720000001800001800001800001800001800034
:101730000180000180000180003FFC003FFC0000B0
:101740000000000000000000000000000000000099
:101750000000000000000000000000000000000089
:10176000000000000000F77800FFFC0039CC0031D9
:101770008C00318C00318C00318C00318C00318C2C
:1017800000FDEF00FDEF0000000000000000000081
:101790000000000000000000000000000000000049
:1017A00000000000000000000000000000007BE0DE
:1017B000007FF0001C3800181800181800181800D6
:1017C0001818001818001818007E7E007E7E000091
:1017D0000000000000000000000000000000000009
:1017E00000000000000000000000000000000000F9
:1017F00000000000000003C0000FF0001C3800389B
:101800001C00300C00300C00300C00381C001C3860
:10181000000FF00003C00000000000000000000006
:1018200000000000000000000000000000000000B8
:1018300000000000000000000000000000007BE04D
:10184000007FF8001C1800180C00180C00180C0081
:10185000180C00180C001C18001FF8001BE00018E2
:1018600000001800001800007F00007F000000004A
:101870000000000000000000000000000000000068
:1018800000000000000007DE001FFE0018380030D6
:1018900018003018003018003018003018001838C0
:1018A000001FF80007D800001800001800001800FA
:1018B00000FE0000FE00000000000000000000002C
:1018C00000000000000000000000000000003E7862
:1018D000003EFC0007CC00070000060000060000E8
:1018E0000600000600000600003FF0003FF0000088
:1018F00000000000000000000000000000000000E8
:1019000000000000000000000000000000000000D7
:1019100000000000000007F8000FF8001818001879
:1019200018001F80000FF00000F800181800183889
:10193000001FF0001FE00000000000000000000099
:101940000000000000000000000000000000000097
:1019500000000C00000C00000C00000C00003FF028
:10196000003FF0000C00000C00000C00000C000018
:101970000C00000C00000C1C0007FC0003F0000031
:101980000000000000000000000000000000000057
:101990000000000000000000000000000000000047
:1019A000000000000000787800787800181800180F
:1019B00018001818001818001818001818001838FF
:1019C000000FFE0007DE0000000000000000000025
:1019D0000000000000000000000000000000000007
:1019E00000000000000000000000000000007C3E3D
:1019F000007C3E001818001818000C30000C300055
:101A000006600006600007E00003C00003C000009D
:101A100000000000000000000000000000000000C6
:101A200000000000000000000000000000000000B6
:101A3000000000000000783C00783C0031180033C2
:101A400098003398001AB0001EF0001EF0001C60D1
:101A5000000C60000C6000000000000000000000AE
:101A60000000000000000000000000000000000076
:101A700000000000000000000000000000003E7CAC
:101A8000003E7C000C300006600003C000018000B6
:101A900003C0000660000C30003E7C003E7C00006D
:101AA0000000000000000000000000000000000036
:101AB0000000000000000000000000000000000026
:101AC0000000000000007E1F007E1F00180C000CAC
:101AD00018000C180006300006300003600003E018
:101AE0000001C00000C00001800001800003000070
:101AF0003FC0003FC00000000000000000000000E8
:101B000000000000000000000000000000001FF8BE
:101B1000001FF80018300018600000C000018000AD
:101B20000300000618000C18001FF8001FF8000042
:101B300000000000000000000000000000000000A5
:101B40000000000000000000000000E00001E000D4
:101B500001800001800001800001800001800001FF
:101B600080000380000700000380000180000180E6
:101B70000001800001800001800001E00000E00021
:101B80000000000000000000000000000000000055
:101B900000000180000180000180000180000180C0
:101BA00000018000018000018000018000018000B0
:101BB000018000018000018000018000018000019F
:101BC0008000018000018000000000000000000093
:101BD0000000000000000000000007000007800077
:101BE000018000018000018000018000018000016F
:101BF000800001C00000E00001C000018000018001
:101C000000018000018000018000078000070000C3
:101C100000000000000000000000000000000000C4
:101C200000000000000000000000000000000000B4
:101C3000000000000E00001F18003BB80031F0004B
:101C400000E00000000000000000000000000000B4
:101C50000000000000000000000000000000000084
:101C60000000000000000000000000000000000074
:101C70000000000000000000000000000000000064
:101C80000000000000000C000C000C000C000C0018
:101C90000C000C000C0000000C0000000000000014
:101CA00000000000000000001DC01DC0088008806A
:101CB000088000000000000000000000000000009C
:101CC0000000000000000D800D800D800D803FC0E1
:101CD0001B003FC01B001B001B001B00000000007E
:101CE0000000000004001F803180318038001E0099
:101CF0000F000380318031803F00040004000000A9
:101D000000000000000018002400240018C0078014
:101D10001E003180024002400180000000000000EF
:101D200000000000000000000F001800180018005C
:101D30000C001D80370033001D80000000000000F3
:101D40000000000000000000070007000200020081
:101D50000200000000000000000000000000000081
:101D60000000000000000300030006000E000C004D
:101D70000C000C000C000E00060003000300000025
:101D8000000000000000180018000C00060006000B
:101D900006000600060006000C001C0018000000EB
:101DA000000000000000060006003FC03FC00F001A
:101DB0001F801980000000000000000000000000EB
:101DC0000000000000000000000004000400040007
:101DD0003F80040004000400000000000000000038
:101DE00000000000000000000000000000000000F3
:101DF000000000000000060004000C0008000800BD
:101E000000000000000000000000000000000000D2
:101E10003F80000000000000000000000000000003
:101E200000000000000000000000000000000000B2
:101E30000000000000000C000C000000000000008A
:101E40000000000000C000C001800180030003000A
:101E500006000C000C0018001800300030000000D4
:101E60000000000000000E001B0031803180318036
:101E70003180318031801B000E0000000000000026
:101E800000000000000006003E00060006000600FC
:101E900006000600060006003FC00000000000002B
:101EA0000000000000000F00198031803180030025
:101EB00006000C00180030003F8000000000000009
:101EC0000000000000003F006180018003001F004F
:101ED00003800180018061803F000000000000005D
:101EE000000000000000070007000F000B001B00AF
:101EF000130033003F8003000F800000000000004B
:101F00000000000000001F801800180018001F00CB
:101F100011800180018021801F000000000000006E
:101F200000000000000007801C001800300037008F
:101F300039803180318019800F00000000000000DE
:101F40000000000000007F004300030006000600C0
:101F5000060006000C000C000C0000000000000051
:101F60000000000000001F003180318031801F0020
:101F700031803180318031801F000000000000007E
:101F80000000000000001E003300318031803380EB
:101F90001D800180030007003C00000000000000DD
:101FA0000000000000000000000000000C000C0019
:101FB0000000000000000C000C0000000000000009
:101FC000000000000000000000000000030003000B
:101FD00000000000000006000400080008000000E7
:101FE000000000000000000000C003000400180012
:101FF000600018000400030000C0000000000000A2
:1020000000000000000000000000000000007FC091
:1020100000007FC000000000000000000000000081
:102020000000000000000000600018000400030031
:1020300000C0030004001800600000000000000061
:1020400000000000000000001F003180318001808E
:1020500007000C000C0000000C0000000000000055
:102060000000000000000E001100210021002700E8
:10207000290029002700200011000E0000000000A8
:1020800000000000000000003F000F000900198060
:1020900019801F8030C030C079E0000000000000CF
:1020A00000000000000000007F003180318031809E
:1020B0003F003180318031807F000000000000004F
:1020C00000000000000000001F4030C060406000C1
:1020D00060006000604030801F00000000000000D1
:1020E00000000000000000007F00318030C030C0E0
:1020F00030C030C030C031807F00000000000000E0
:1021000000000000000000007F803080308032003E
:102110003E003200308030807F80000000000000F0
:1021200000000000000000007FC03040304032005E
:102130003E003200300030007C0000000000000053
:1021400000000000000000001E8031806080600000
:10215000600067C0618031801F0000000000000047
:1021600000000000000000007BC031803180318021
:102170003F803180318031807BC000000000000052
:1021800000000000000000003FC00600060006003E
:1021900006000600060006003FC000000000000028
:1021A00000000000000000001FC003000300030047
:1021B00003006300630063003E00000000000000B5
:1021C00000000000000000007BC0318033003600BA
:1021D0003C003E003300318079C000000000000068
:1021E00000000000000000007E0018001800180029
:1021F00018001840184018407FC000000000000080
:102200000000000000000000E0E060C071C07BC082
:102210006AC06EC064C060C0FBE000000000000047
:10222000000000000000000073C0318039803D8054
:1022300035803780338031807980000000000000D5
:1022400000000000000000001F00318060C060C07E
:1022500060C060C060C031801F000000000000004E
:1022600000000000000000007F00318031803180DC
:1022700031803F00300030007E0000000000000090
:1022800000000000000000001F00318060C060C03E
:1022900060C060C060C031801F000CC01F800000A3
:1022A00000000000000000007F003180318031809C
:1022B0003E003300318031807CE0000000000000EF
:1022C00000000000000000001F80318031803800D5
:1022D0001F000380318031803F00000000000000BB
:1022E00000000000000000007F804C804C804C808B
:1022F0000C000C000C000C003F000000000000006F
:1023000000000000000000007BC03180318031807F
:1023100031803180318031801F00000000000000DA
:1023200000000000000000007BC0318031801B00F5
:102330001B001B000A000E000E0000000000000041
:102340000000000000000000FBE060C064C06EC040
:102350006EC02A803B803B8031800000000000007E
:1023600000000000000000007BC031801B000E0058
:102370000E000E001B0031807BC00000000000003A
:10238000000000000000000079E030C019800F005C
:1023900006000600060006001F8000000000000086
:1023A00000000000000000003F80218023000600A4
:1023B00004000C00188030803F8000000000000006
:1023C000000000000000078006000600060006006E
:1023D0000600060006000600060006000780000052
:1023E0000000000030003000180018000C000C0045
:1023F0000600030003000180018000C000C000004F
:102400000000000000001E00060006000600060096
:102410000600060006000600060006001E0000007A
:102420000000000004000A000A0011002080208043
:10243000000000000000000000000000000000009C
:10244000000000000000000000000000000000008C
:10245000000000000000000000000000000000007C
:102460000000FFE00800040002000000000000007F
:10247000000000000000000000000000000000005C
:102480000000000000000000000000001F000180AC
:1024900001801F80318033801DC0000000000000DB
:1024A000000000000000700030003000370039806C
:1024B00030C030C030C0398077000000000000001C
:1024C0000000000000000000000000001E803180BD
:1024D00060806000608031801F000000000000000C
:1024E0000000000000000380018001801D80338017
:1024F00061806180618033801DC0000000000000A9
:102500000000000000000000000000001F003180FB
:1025100060C07FC0600030C01F800000000000006D
:1025200000000000000007E00C000C003F800C00E1
:102530000C000C000C000C003F80000000000000AC
:102540000000000000000000000000001DC03380FB
:1025500061806180618033801D80018001801F0067
:1025600000000000000070003000300037003980AB
:1025700031803180318031807BC00000000000005C
:102580000000000000000600060000001E0006001B
:1025900006000600060006003FC000000000000024
:1025A0000000000000000600060000003F000300DD
:1025B00003000300030003000300030003003E00C8
:1025C000000000000000700030003000378036004E
:1025D0003C003C003600330077C0000000000000E3
:1025E0000000000000001E000600060006000600B5
:1025F00006000600060006003FC0000000000000C4
:102600000000000000000000000000007F8036C0D5
:1026100036C036C036C036C076E00000000000008C
:10262000000000000000000000000000770039807A
:1026300031803180318031807BC00000000000009B
:102640000000000000000000000000001F003180BA
:1026500060C060C060C031801F000000000000004A
:10266000000000000000000000000000770039803A
:1026700030C030C030C039803700300030007C00BE
:102680000000000000000000000000001DC03380BA
:1026900061806180618033801D800180018007C07E
:1026A0000000000000000000000000007B801CC053
:1026B00018001800180018007F000000000000003B
:1026C0000000000000000000000000001F803180BA
:1026D0003C001F00038031803F000000000000002C
:1026E0000000000000001800180018007F0018000B
:1026F00018001800180018800F00000000000000EB
:102700000000000000000000000000007380318025
:1027100031803180318033801DC000000000000016
:102720000000000000000000000000007BC03180BD
:1027300031801B001B000E000E0000000000000096
:10274000000000000000000000000000F1E060C098
:1027500064C06EC03B803B80318000000000000000
:102760000000000000000000000000007BC01B0013
:102770000E000E000E001B007BC0000000000000D9
:1027800000000000000000000000000079E030C000
:10279000198019800B000F00060006000C003E0097
:1027A0000000000000000000000000003F802180C9
:1027B00003000E00180030803F8000000000000081
:1027C00000000000000006000C000C000C000C00D3
:1027D0000C0018000C000C000C000C00060000009F
:1027E00000000000000006000600060006000600CB
:1027F00006000600060006000600060006000000AF
:102800000000000000000C000600060006000600A4
:102810000600030006000600060006000C0000008B
:102820000000000000000000000000000000180090
:1028300024800300000000000000000000000000F1
:102840000000000000000000000000000000000088
:10285000001010101010000010000000006C48481C
:102860000000000000000000001414287C287C28D0
:1028700050500000001038404038487010100000E0
:10288000002050200C700814080000000000001800
:1028900020205448340000000010101010000000E8
:1028A00000000000000808101010101010080800A8
:1028B00000202010101010101020200000107C109C
:1028C00028280000000000000000101010FE10106A
:1028D0001000000000000000000000181030200070
:1028E00000000000007C000000000000000000006C
:1028F0000000003030000000000404080810102020
:10290000204000000038444444444444380000005F
:1029100000301010101010107C000000003844042B
:10292000081020447C0000000038440418040444CB
:1029300038000000000C141424447E040E00000033
:10294000003C20203804044438000000001C2040D3
:102950007844444438000000007C4404080808100F
:10296000100000000038444438444444380000005B
:1029700000384444443C040870000000000000306B
:10298000300000303000000000000018180000186F
:102990003020000000000C10608060100C0000006F
:1029A000000000007C007C00000000000000C0204F
:1029B00018041820C00000000000182404081000AB
:1029C000300000003844444C54544C40443800001B
:1029D0000030102828287C44EE00000000F8444411
:1029E00078444444F8000000003C444040404044E7
:1029F0003800000000F0484444444448F00000001F
:102A000000FC445070504044FC000000007E22282E
:102A10003828202070000000003C4440404E4444D0
:102A20003800000000EE44447C444444EE000000C2
:102A3000007C1010101010107C000000003C0808F2
:102A4000084848483000000000EE444850704844B0
:102A5000E600000000702020202024247C000000DC
:102A600000EE6C6C54544444EE00000000EE6464CC
:102A70005454544CEC000000003844444444444452
:102A80003800000000782424243820207000000042
:102A90000038444444444444381C000000F8444492
:102AA00044784844E200000000344C403804046498
:102AB0005800000000FE92101010101038000000A6
:102AC00000EE4444444444443800000000EE4444D2
:102AD000282828101000000000EE44445454545498
:102AE0002800000000C6442810102844C60000003A
:102AF00000EE44282810101038000000007C440824
:102B0000101020447C0000000038202020202020CD
:102B10002020380000402020201010080808000065
:102B200000380808080808080808380000101028AD
:102B30004400000000000000000000000000000051
:102B4000000000FE0010080000000000000000006F
:102B500000000038443C44443E00000000C040589F
:102B600064444444F80000000000003C44404044F9
:102B700038000000000C04344C4444443E00000083
:102B800000000038447C40403C000000001C207CD9
:102B9000202020207C000000000000364C444444EB
:102BA0003C04380000C0405864444444EE00000037
:102BB00000100070101010107C0000000010007851
:102BC000080808080808700000C0405C48705048B9
:102BD000DC00000000301010101010107C0000000D
:102BE000000000E854545454FE000000000000D8D7
:102BF00064444444EE00000000000038444444446F
:102C000038000000000000D8644444447840E000EC
:102C1000000000364C4444443C040E000000006CAC
:102C2000302020207C0000000000003C4438044498
:102C3000780000000000207C202020221C000000E2
:102C4000000000CC4444444C36000000000000EE7C
:102C50004444282810000000000000EE445454545E
:102C600028000000000000CC48303048CC000000B4
:102C7000000000EE44242818101078000000007CAA
:102C8000481020447C000000000810101010201094
:102C9000101008000010101010101010101000007C
:102CA000002010101010081010102000000000006C
:102CB000002458000000000000F5E0700268914216
:102CC00003D343689A18914202D380680028F5D153
:102CD0007047DFF85807016891B94FF4803181607F
:102CE0004FF4805141604FF0FF31C1600161042118
:102CF000DFF83C274161C2F8BC11DFF838170160EA
:102D00000120704701F1080313F0070305D001F11A
:102D10000803C3F1080303F007035918D21A8161AD
:102D2000C26042F001034B60511828234B60DFF86A
:102D3000FC160969C16170472DE9F84F064601F19B
:102D4000080010F0070008BF884607D001F108000E
:102D5000C0F1080000F0070000EB010802F10800D4
:102D600010F0070006D002F10800C0F1080000F0E2
:102D7000070082181546A5EB0800A0EB030903EB3A
:102D8000080B43F00300C8F80400AB4528BF01F06E
:102D90001BFA2879C00758BF01F016FAB9F1100FD5
:102DA00038BF01F011FAB069854209D1F068484492
:102DB000F060C6F818B040F00100CBF804006DE1F7
:102DC000706985420BD1B0684844B060C6F814B051
:102DD00040F00101CBF8041040F80B005EE1686898
:102DE00000F00301012940F0AD80C008C00001904F
:102DF000C00820283AD2D5F808A0EF680090BD425C
:102E000008BF01F0E1F9554508BF01F0DDF9686838
:102E10000099C008C000B0EBC10F18BF01F0D4F991
:102E2000009806EBC00000F128018A4507D03169FF
:102E30008A45C0F08280DAF80C10A9427DD157454E
:102E400006D1009A3068012191408843306076E0D5
:102E50002830874205D0306987426ED3B868A842CF
:102E60006BD1CAF80C70C7F808A068E0EF68D5F815
:102E700018A0AF420CD0A8683169884223D3C1683A
:102E8000A94204BFB968A9421DD1C760B8601CE05F
:102E900005F11400076837B905F110000768A7B1FC
:102EA00001E00846076807F114010A68002A02BF1A
:102EB00007F110010A68002AF3D13169884202D370
:102EC0000021016001E001F07FF9BAF1000F36D076
:102ED000E86906EB800000F5987001688D4208D122
:102EE0000760A7B9EA697068012191408843706062
:102EF00025E03069824508D3DAF81000A84214BFF3
:102F0000CAF81470CAF8107001E001F05DF9B7B1A9
:102F10003069874211D3C7F818A0296929B18142C5
:102F200026BF39618F6101F04FF9686938B13169A5
:102F3000884202D37861876101E001F045F9019888
:102F40004519814468684008400068604FEAD90527
:102F500049F00100CBF8040049F80B90202D23D252
:102F600006EBC50000F12807BA46B9F1100F38BFCB
:102F700001F02AF9306820FA05F1C90704D40121CB
:102F8000A9400843306006E0B868316988422CBF28
:102F9000824601F019F9C7F808B0CAF80CB0CBF8AE
:102FA00008A0CBF80C7079E05FEA192108BF002077
:102FB00023D0B1F5803F28BF1F201ED2A1F580701D
:102FC000000C00F008008140A1F58052120C02F0C4
:102FD00004029140A1F580431B0CC0F10E0003F0E8
:102FE0000203801AC01A994000EBD130C11D29FAA2
:102FF00001F202F0010101EB4000CBF81C000022BD
:10300000CBF81420CBF8102006EB8001726822FA6E
:1030100000F3DB0701F5987107D4012303FA00F0F0
:1030200010437060C1F800B01DE01F2809680EBF92
:1030300000204008C0F1190009FA00F000E0114634
:103040004A68D208D2004A4514D0C20F01EB82026E
:1030500002F1100340001A68002AF0D1306983425F
:103060001AD3C3F800B0CBF81810CBF80CB0CBF8DB
:1030700008B013E032698868914228BF90420BD3B0
:10308000C0F80CB0C1F808B0CBF80800CBF80C10B1
:103090000020CBF8180001E001F096F808F10800D4
:1030A000BDE8E68F2DE9FA4D0546DFF8800300689C
:1030B00084B008B9FFF70DFEDFF87003049980684B
:1030C00041182F31401E21EA00000499814280F00E
:1030D000A88105F5D876B16839B132688018824286
:1030E00080F09F818142C0F09C8101F075F800283A
:1030F0001EBF0446D0F8008014F1010F00F091814A
:103100003068716840448142306038BF0146716068
:10311000A86980BB286908B1844200D22C610020D4
:10312000F0613461C6F8148005F12801BF480068D9
:1031300068624FF0FF302862002001F10802C96088
:103140001160801C10312028D2609260F5D3B848FD
:10315000854203D1A8F12802214629E055F8040C44
:10316000C00805EBC000A0F1080108EB0400401AFC
:10317000A0F128021CE005F5E071084600E0806837
:10318000D0B1026843689A189442F8D1027B1207C2
:1031900012D4AA6903689A420ED347683B449A4204
:1031A0000AD208EB07014160E868A96908EB000250
:1031B0002846FFF7A7FD1EE128698442084638BF6C
:1031C0002C6108EB040100E0806880B102688A424B
:1031D000FAD1017B09070AD4046041684144416087
:1031E0002146049B284606B0BDE8F04DA4E5AF6932
:1031F00039462846FFF760FD016840684018029094
:103200002F3800F1080111F0070105D000F1080185
:10321000C1F1080101F00701081807F11001884207
:1032200034BF0097009000980830019004F1080125
:10323000009800F1180A11F007014FF0000BA8F1F7
:10324000280005D004F10801C1F1080101F00701CF
:103250000A19401AAA61E86040F001015160801823
:103260002821416071480069E861019810F0070069
:1032700018BF00F0A9FF00991B20486005F5E07118
:10328000B1E80C500198A0E80C503461C6F81480E5
:10329000C6F81CB00198B061029800E08A46072287
:1032A000CAF804200AF104010A1D82420BF1010B45
:1032B000F4D3BBF1020FB8BF00F086FF0098B8420C
:1032C00000F09980C01BC119C4084A685208520016
:1032D0004A6040F001017960C051202C20D205EBFA
:1032E000C40101F12806B046102838BF00F06CFF79
:1032F000286820FA04F1C90704D40121A140084339
:10330000286006E0B068296988422CBF804600F03A
:103310005BFFB760C8F80C70C7F80880FE606AE011
:10332000010A08BF002223D0B1F5803F28BF1F2229
:103330001ED2A1F58072120C02F008029140A1F594
:1033400080531B0C03F004039940A1F58044240C26
:10335000C2F10E0204F00204D21A121BA14002EBC9
:10336000D131CA1D20FA02F303F0010202EB41023F
:10337000FA6100237B613B6105EB82016B6823FAF4
:1033800002F4E40701F5987105D401209040184338
:1033900068600F601CE01F2A09680EBF00225208F7
:1033A000C2F1190200FA02F200E019464B68DB088C
:1033B000DB00834210D0D30F01EB830303F1100431
:1033C00052002368002BF0D12869844211D3276072
:1033D000B961FF60BF600EE02A698868914228BF2A
:1033E000904206D3C7608F60B860F9600020B86172
:1033F00001E000F0E9FEE8680499814211D2401A28
:10340000E860A969049A5218AA6140F0010050606E
:10341000049840F00300486006B001F10800BDE8E0
:10342000F08D002006B0BDE8F08D00007051002046
:10343000E04900206859883C2DE9F04D04460026FB
:1034400088465FEA1820C8F1000B08BF002123D08E
:10345000B0F5803F28BF1F211ED2A0F58071090C56
:1034600001F008018840A0F58052120C02F004021D
:103470009040A0F580431B0CC1F10E0103F0020344
:10348000891AC91A984001EBD030C11D28FA01F2FF
:1034900002F0010101EB400104EB8100D0F83001A2
:1034A00030B31F290EBF00224A08C2F1190208FAE0
:1034B00002F2002300E052004768FF08FF00A7EB7C
:1034C00008075F4503D25FEA070B06460CD0476941
:1034D0004FEAD27E00EB8E00002F00691CBF8742AE
:1034E0003B460028E7D1184600283CD1002E3CD1AD
:1034F000012088404000414208436168084000F0D4
:10350000678141420840411E080B00F0100021FA7B
:1035100000F2510901F0080122FA01F39A0802F0C1
:103520000407FB405A0802F00205081823FA05F2C6
:103530003844C2F340032818181822FA03F1081877
:1035400004EB8000D0F830010DE008464168C9085E
:10355000C900A1EB080159453CBF8B4606460169ED
:103560000029F2D140690028F0D1002E00F030810E
:10357000A068A0EB0800834580F02A81206986427C
:10358000C0F024817068C008C00008EB0B0108EB94
:103590000605884218BF00F017FEAE4280F0168183
:1035A000F768D6F818A0B7420CD0B06821698842F5
:1035B00023D3C168B14204BFB968B1421DD1C7600D
:1035C000B8601CE006F11400076837B906F1100076
:1035D0000768A7B101E00846076807F114010A6807
:1035E000002A02BF07F110010A68002AF3D12169FD
:1035F000884202D30021016001E000F0E5FDBAF14C
:10360000000F38D0F06904EB800000F59870016875
:103610008E4209D10760380014D1F2696068012137
:1036200091408843606026E02069824508D3DAF83B
:103630001000B04214BFCAF81470CAF8107001E04C
:1036400000F0C2FDBFB12069874212D3C7F818A0AD
:10365000306930B12169884226BF3861876100F046
:10366000B3FD706938B12169884202D378618761FE
:1036700001E000F0A9FDBBF1100F0CD208EB0B002C
:1036800040F00300706008EB0B008019416841F0C6
:103690000101416096E048F0030070604BF00100CA
:1036A00068604FEADB004BF805B020281DD204EB20
:1036B000C00101F12807216821FA00F2D207BB46B8
:1036C00005D4012202FA00F00843206006E0B86841
:1036D000216988422CBF834600F076FDBD60CBF89F
:1036E0000C50C5F808B0EF606CE05FEA1B2108BF22
:1036F000002023D0B1F5803F28BF1F201ED2A1F5A6
:103700008070000C00F008008140A1F58052120C7E
:1037100002F004029140A1F580431B0CC0F10E00A1
:1037200003F00203801AC01A994000EBD130C11D8A
:103730002BFA01F202F0010101EB4000E8610022E6
:103740006A612A6104EB8001626822FA00F3DB07F8
:1037500001F5987106D4012303FA00F0104360606C
:103760000D601CE01F2809680EBF00204008C0F152
:1037700019000BFA00F000E011464A68D208D200A6
:103780005A4510D0C20F01EB820202F11003400033
:103790001A68002AF0D12069834211D31D60A96103
:1037A000ED60AD600EE022698868914228BF9042CA
:1037B00006D3C5608D60A860E9600020A86101E0C3
:1037C00000F002FD06F10800BDE8F08D00F0FCFC01
:1037D0000020BDE8F08D2DE9F84F0446884660686A
:1037E00041420840411E080B00F0100021FA00F28F
:1037F000510901F0080122FA01F39A0802F00402CB
:1038000023FA02F56B0803F00203081825FA03F601
:103810001018C6F340051818284426FA05F10818B0
:1038200004EB8000D0F830014168C908C9000646A1
:10383000A1EB080A09E008464168C908C900A1EBE4
:10384000080151453CBF8A46064601690029F2D16C
:1038500040690028F0D120698642C0F0C4807068B9
:10386000C00808EB0A09C00008EB060B484518BF62
:1038700000F0AAFC5E4580F0B680F768B569B742F3
:103880000CD0B0682169884223D3C168B14204BF1B
:10389000B968B1421DD1C760B8601CE006F11400E0
:1038A000076837B906F110000768A7B101E00846BC
:1038B000076807F114010A68002A02BF07F1100126
:1038C0000A68002AF3D12169884202D300210160ED
:1038D00001E000F079FC002D34D0F06904EB8000A9
:1038E00000F5987001688E4209D10760380011D147
:1038F000F2696068012191408843606022E020699C
:10390000854205D32869B04214BF6F612F6101E081
:1039100000F05AFCB7B12069874211D3BD6130690C
:1039200030B12169884226BF3861876100F04CFCC4
:10393000706938B12169884202D37861876101E0FA
:1039400000F042FCBAF1100F09D249F00300706098
:1039500009EB0600416841F0010141603FE048F099
:10396000030070604AF00100CBF804004AF80BA095
:10397000D4F808804FEAD805202D28BF00F024FC99
:10398000B8F1000F27D0D4F81490009504EBC500CF
:1039900000F128052F46B8F1100F38BF00F014FCD5
:1039A0002068009920FA01F2D10705D4009A01217C
:1039B00091400843206006E0A868216988422CBF36
:1039C000074600F001FCC5F80890C7F80C90C9F84C
:1039D0000870C9F80C50C4F808A0C4F814B006F177
:1039E0000800BDE8F28F00F0EFFB0020BDE8F28F89
:1039F0002DE9F04F83B00546C046C046F52DDFF8EF
:103A0000C04780F007810B2D31BF102705F10B0057
:103A1000C708FF002168FE0821FA06F010F0030F26
:103A200042D0C04300F00100861904EBC60000F14B
:103A30002808F700D8F808506868C008C000B842E5
:103A400018BF00F0C1FBD5F80890454508BF00F04D
:103A5000BBFB4D4508BF00F0B7FB6868C008C0005D
:103A6000B84218BF00F0B0FBC84505D1206801215D
:103A7000B140884320600DE02069814508D3D9F822
:103A80000C00A84204D1C8F80890C9F80C8001E0E5
:103A900000F09AFB47F00300686078190835416828
:103AA00041F001014160FDE0A168B94280F0C480AD
:103AB000002800F0A680012505FA06F149004A42D7
:103AC000B0401143084041420840411E080B00F03D
:103AD000100021FA00F2510901F0080322FA03F163
:103AE0008A0802F0040221FA02F6710801F00208C5
:103AF000181826FA08F11018C1F34006404430188F
:103B000021FA06F202EB000804EBC80000F12809D4
:103B10004FEAC80AD9F808607068C008C00050456C
:103B200018BF00F051FBD6F808B04E4508BF00F0B2
:103B30004BFB5E4508BF00F047FB7068C008C00043
:103B4000504518BF00F040FBD94505D1206805FA63
:103B500008F1884320600DE02069834508D3DBF835
:103B60000C00B04204D1C9F808B0CBF80C9001E0C9
:103B700000F02AFB47F003007060AAEB0708B819B1
:103B8000019048F0010001994860019848F80080D0
:103B9000A7684FEAD70ABAF1200F28BF00F014FB3C
:103BA00047B3CDF800A004EBCA00D4F8149000F19C
:103BB000280AD346102F38BF00F006FB2068009972
:103BC00020FA01F2D10705D4009905FA01F1084362
:103BD000206007E0DAF80800216988422CBF83469C
:103BE00000F0F2FACAF80890CBF80C90C9F808B0C7
:103BF000C9F80CA0C4F8088006F1080501986061B6
:103C000050E06068C0B339462046FFF7E4FD050088
:103C100012D047E015F1400F28BF4FF0FF370BD20D
:103C200005F10B00C7086068FF0028B1394620463F
:103C3000FFF702FC050035D1A068B8421CD3C11BB8
:103C4000626910290AD3B8186061A16041F00103CC
:103C50004360095047F0030050600AE00021A16072
:103C6000616140F0030151608018416841F0010139
:103C7000416002F1080515E0E06887420DD2C01BE3
:103C8000A169E0607A18A26140F00100506001F182
:103C9000080547F00300486004E039462046FFF776
:103CA00001FA0546C046C046284603B0BDE8F08F7D
:103CB00000B970472DE9F047A0F10804C046C0469E
:103CC000DFF8FC5428698442C0F07482616801F016
:103CD0000302012A00F06E82CA084FEAC208CA072E
:103CE00008EB040936D4226811F0030F00F0648257
:103CF000A41A84429044C0F05D8269698C4200F04D
:103D0000D880D608202E70D2D4F80CA0A7685445CD
:103D100008BF00F059FABC4208BF00F055FA6068CD
:103D2000C008C000B0EBC60F18BF00F04DFA05EB9D
:103D3000C60000F128018F4205D029698F4251D376
:103D4000F968A1424ED1BA453DD128680121B14060
:103D5000884328604C4580F02D82D9F80400C107C3
:103D600040F12882810700F17A81A969894540F0F4
:103D7000B580E868AC614044E86040F001016160F2
:103D800069698C4202D100216961A960E9698142B7
:103D900080F01282DFF82C04006808B9FEF799FF62
:103DA000A969002900F00882E868292824BF28466C
:103DB000FEF782FFE869E968884280F0FD814FF0F4
:103DC000FF30E861F8E12830824506D02869824555
:103DD00008D3DAF80800A04204D1C7F80CA0CAF84A
:103DE0000870B7E700F0F0F9B4E7E768A669A74202
:103DF0000BD0A168814222D3C868A04204BFB86832
:103E0000A0421CD1CF60B9601BE004F114010F681F
:103E100037B904F110010F689FB101E011460F6836
:103E200007F114021368002B02BF07F11002136898
:103E3000002BF3D1814202D30020086001E000F0A2
:103E4000C3F9002E86D0E06905EB800000F598707C
:103E500001688C4209D10760380011D1E2696868B5
:103E6000012191408843686074E72869864205D340
:103E70003069A04214BF7761376101E000F0A4F916
:103E8000002F3FF467AF28698742ABD3BE61216939
:103E900029B1814226BF39618F6100F095F96069CF
:103EA00000283FF457AF296988429BD37861876126
:103EB00050E799F8040000F0030003287FF44AAFAC
:103EC000C5F80880D9F8040040084000C9F804008B
:103ED00048F00100606048F804806DE16969894537
:103EE00008D1A8686C614044A86040F0010161609D
:103EF000005161E1C008C0004FEAD00ABAF1200FBA
:103F0000804436D2D9F80C70D9F80860B94508BF9A
:103F100000F05AF9B14508BF00F056F9D9F804008D
:103F2000C008C000B0EBCA0F18BF00F04DF905EB98
:103F3000CA0000F128018E4206D029698E42C0F0E5
:103F40008180F16849457DD1B74206D128680121B9
:103F500001FA0AF18843286076E02830874205D0CC
:103F6000286987426ED3B86848456BD1F760BE6058
:103F70006AE0D9F80C70D9F818604F450DD0D9F81F
:103F800008002969884223D3C168494504BFB9683C
:103F900049451DD1C760B8601CE009F114000768ED
:103FA00037B909F110000768A7B101E008460768B2
:103FB00007F114010A68002A02BF07F110010A681C
:103FC000002AF3D12969884202D30021016001E06F
:103FD00000F0FAF8002E37D0D9F81C0005EB80006D
:103FE00000F59870016889450AD10760380012D140
:103FF000D9F81C206868012191408843686023E05B
:104000002869864205D33069484514BF7761376116
:1040100001E000F0D9F8BFB12869874212D3BE6130
:10402000D9F8101029B1814226BF39618F6100F0A3
:10403000CBF8D9F8140038B12969884202D37861E5
:10404000876101E000F0C0F848F00100606048F8C6
:104050000480686984420BD1C5F80880ACE0400850
:104060004000C9F8040048F00100606048F804808E
:104070004FEAD807202F22D205EBC70000F128090C
:104080004E46B8F1100F38BF00F09EF8286820FAAD
:1040900007F1C90704D40121B9400843286007E0AB
:1040A000D9F80800296988422CBF064600F08CF830
:1040B000C9F80840F460A660C4F80C907CE05FEAA0
:1040C000182008BF002123D0B0F5803F28BF1F2152
:1040D0001ED2A0F58071090C01F008018840A0F5FE
:1040E0008052120C02F004029040A0F580431B0C99
:1040F000C1F10E0103F00203891AC91A984001EBBD
:10410000D030C11D28FA01F202F0010101EB40019B
:10411000002262612261E16105EB81006A6822FA96
:1041200001F3DB0700F5987006D4012303FA01F1CF
:104130001143696004601CE01F2900680EBF002164
:104140004908C1F1190108FA01F100E0104642687E
:10415000D208D200424510D0CA0F00EB820202F111
:10416000100349001A68002AF0D129698B4211D343
:104170001C60A061E460A4600EE02A69816890423E
:1041800028BF914206D3CC608460E060A16000202B
:10419000A06101E000F018F8286A401E28620BD1E7
:1041A000D5F8C80100E080680028FCD14FF0FF304E
:1041B000286201E000F008F8C046C046BDE8F0877C
:1041C000E049002070510020012000F01BB8026877
:1041D000531C0360117070470749086808B100203C
:1041E00070470648C008C00008600549C908C900F2
:1041F000091A0160704700BFB0510020C757002066
:10420000C067002080B5C046C046024A1100182091
:10421000ABBEFBE72600020070B5A6B001F07CFA49
:1042200000F090F900F0BDFA00F056FA00F067FADD
:1042300000F0A1FADFF8AC4CDFF8AC0C04F5907597
:1042400028604FF4E13068600020A860E8602861D1
:104250000C2068610020A861E861284601F090FA0E
:1042600000B1FEE7DFF8840C20644FF482706064D4
:104270000020A064E064206560654FF40070A065D4
:104280000020E06520666066A0660A20E06604F112
:10429000400001F06BFB00B1FEE704F19806DFF887
:1042A000500C7063DFF84C0CB0630020F063306496
:1042B0004FF4804070640020B064F0643065706535
:1042C00004F1CC0001F030FE00B1FEE700F09FF9F0
:1042D000DFF8240C2060002060600220A060002035
:1042E000E060A0620220E06200202063606320465C
:1042F00002F01AFA00B1FEE70121204602F0D4FADA
:1043000000B1FEE7DFF8F40B306000A90120706017
:104310000020B0600420F060102030614020706107
:104320008020B0610020F06130627062B0621020C5
:104330000090019002900390049005900690304602
:1043400002F048FB00B1FEE7DFF8B40B286404F587
:10435000B07002F08AFB00B1FEE7DFF8D44D00F048
:10436000EDF800F0E7F8042100F0E9F8042100F08E
:10437000E2F8DFF8984B00F0E1F800F0DBF80821F4
:1043800000F0DDF8082100F0D6F8DFF8A84D042190
:1043900000F0D5F8042100F0CEF8002002F07CFBFC
:1043A000012002F079FB0121002002F080FB02F0E5
:1043B000C3FDDFF8501B002002F00CFE002002F0CD
:1043C00049FE4FF07F4002F061FE4FF07F4002F067
:1043D0004DFE6FF47F0002F041FEDFF82C0B02F07F
:1043E0004DFE40F23F13EF220021002002F062FF59
:1043F00003230FF2B0020821052002F078FEDFF857
:10440000400D02F02BFE02F0E0FD044602F0D8FD64
:10441000A1B280B203F08AFA20A80FF2A001142200
:1044200003F008FB002120A803F03BFBE864142202
:104430001BA80FF29C0103F0FDFA00211BA803F05A
:1044400030FB2865142216A80FF2980103F0F2FA47
:10445000002116A803F025FB6865142211A80FF2AD
:10446000980103F0E7FA002111A803F01AFBA865F0
:1044700014220CA80FF2940103F0DCFA00210CA81E
:1044800003F00FFBE865142207A80FF2940103F074
:10449000D1FA002107A803F004FB286603F0FCFA18
:1044A000FEE70000526F626F7441726D20436F6EC1
:1044B00074726F6C20322E300000000004EB000894
:1044C000654B0008FEFF0000000000000001000036
:1044D00010EB0008554F000802000000000000002B
:1044E000800000001CEB0008BB510008FFFF00002B
:1044F000000000008000000028EB0008C551000803
:1045000001000000000000008000000034EB000803
:10451000D5540008000000000000000080000000EA
:1045200044EB00080F5600080000000000000000E7
:10453000800000000021204603F0DCBA0021204664
:1045400003F05DBB10B59EB0002000904FF48034A6
:10455000DFF8FC0B016841F080510160006800F059
:1045600080500090009800200090DFF8EC0B01686C
:1045700021F4404141F480410160006800F4404072
:1045800000900098139401201290022018904FF48C
:104590008000199008201A90C0201B9004201C90C5
:1045A0001D9012A803F066FD00B1FEE70F200190F8
:1045B000012102200290002003904FF4A0500490AB
:1045C0004FF48050059001A803F09AFE00B1FEE779
:1045D000082006900F9464200A9004200C9006A8EE
:1045E00003F080FF00B1FEE703F034FF4FF47A716F
:1045F000B0FBF1F004F0BBF8042004F0CCF800228A
:104600000F214FF0FF3004F08BF81EB010BDDFF823
:104610004C0B30B5DFF8484B206000206060A06094
:10462000E06020610021092060619BB00120A06151
:104630001D20E0610320206240F20D10606240F214
:104640004310A06240F21710E06240F2471020636E
:1046500004F1340001808170204604F0B3F800B109
:10466000FEE70D900E9000210EA800F02FF84FF4F9
:1046700080650521C161856100210162416281621D
:1046800019A88DF864104170817000220DA9204690
:1046900004F00BF900B1FEE700900190002101A8A1
:1046A00000F014F885610521C16101220021016239
:1046B000416281620CA8ADF830108170204600A9DB
:1046C00004F0F3F800B1FEE71BB030BD416081603B
:1046D000C1600161416170474FF0804010B5DFF863
:1046E000504A2060032060608AB000F03AF800F081
:1046F00030F800F021F800B1FEE7042211E0DFF805
:10470000640A10B5DFF804482060032060608AB0B6
:1047100000F027F800F01DF800F00EF800B1FEE7F9
:10472000082202A9204603F026FB00B1FEE720463E
:1047300004F0DCFA0AB010BD00B1FEE76020029080
:104740000022002003900490069002A9204603F066
:1047500012BB00B1FEE70090019000A9204603F0D3
:10476000DBB90020A0604EF66020E06000202061F0
:10477000204603F033BADFF8DC0C10B5DFF8B4499B
:104780002060032060608AB0FFF7EBFFFFF7E1FFD6
:1047900000B1FEE760200290042200F0B8F8069015
:1047A000BFE72DE9F04186B0002000900022DFF83D
:1047B000A80CDFF8A84C0168DFF8A45CDFF8A46C53
:1047C000DFF8A48CDFF8A47C41F0040101600168EB
:1047D00001F0040100F085F841F02001016001685A
:1047E00001F0200100F07DF841F0800101600168D6
:1047F00001F0800100F075F841F0010101600168ED
:1048000001F0010100F06DF841F002010160016862
:1048100001F0020100F065F841F04001016001681B
:1048200001F0400100F05DF841F010010160016805
:1048300001F0100100F055F841F008010160162167
:10484000006800F0080000900098204604F0B0FCDA
:1048500000228021284604F0ABFC00224FF4405196
:10486000304604F0A5FC00224FF4C041404604F05D
:104870009FFC162000F047F8204604F01FFB48F28A
:10488000070000F03AF8284604F018FB802000F0FA
:104890003AF8284604F012FB202000F02EF82046BB
:1048A00004F00CFB042000F022F8DFF8840D04F083
:1048B00005FB4FF4006000F01AF8304604F0FEFAF1
:1048C0004FF4405000F01FF8304604F0F7FA4FF470
:1048D000C04000F018F8404604F0F0FA06B0BDE819
:1048E000F0810091009900210091016870470190CA
:1048F00001A90020029003907047019002970020C8
:10490000039001A97047019001A9012002900020A5
:1049100003900490704790ED001AB4EE401AF1EE47
:1049200010FA48BFB0EE401A06D4F4EE410AF1EE98
:1049300010FA48BFB0EE601A80ED001A7047B5EE6D
:10494000400AF1EE10FA44BFFFEE000A20EE200A02
:10495000704780B500F0F6FADFF8D82CDFF8D83CC5
:1049600004F052FC0022DFF8D43C09E02DE980403D
:10497000DFED710A00F0E4FADFF8B82CDFF8B83C9C
:1049800004F014FD04F03EFE00EE100A01BD00002C
:1049900080B504F089FE0022DFF8A83C04F006FD93
:1049A0000022DFF8A43C04F08DFEEBE780B500F0B8
:1049B000C9FA0022DFF8943C04F084FE0022DFF8FC
:1049C000903C04F021FCDDE780B504F06DFE002290
:1049D000DFF8843C04F018FC0022DFF8843C04F08B
:1049E00071FECFE738B5DFF8804CDFF8805C2DED45
:1049F000068BF0EE408AB0EE608A94ED039AFFF7E2
:104A0000A8FF012004F0D2FEF0EE409A94ED02AA35
:104A1000B0EE480AFFF79DFF012004F0C7FE29EE23
:104A2000299A0AEE009A85ED009AB0EE680A94ED94
:104A3000039AFFF78EFF002004F0B8FEF0EE408AE4
:104A4000D4ED029AB0EE480AFFF783FF002004F08D
:104A5000ADFE29EE288A09EEC08A85ED018ABDECFB
:104A6000068B95EC020A31BD0000000010B5DFF89E
:104A7000F84B2DED048BB0EE608A84ED040A20EE35
:104A8000000A84ED058A08EE080A04F045FFF0EEFE
:104A9000408A88EE280A04F04DFFF0EE409A00F0BC
:104AA0004FF828EEA88AB0EE009AB0EE482A00EE41
:104AB000202A94ED030A20EE090A01EE612A20EE75
:104AC000280A82EE000A04F063FF79EE809AB0EEC5
:104AD000690AFFF74BFF84ED000A00F031F820EE81
:104AE000200AD4ED030A01EE210A60EE890A30EEB5
:104AF000480A60EEA80A80EE200A04F049FFB0EEF2
:104B0000408AB0EE690AFFF731FFDFED0C0A30EEA4
:104B1000C00A30EEC00ADFED080A70EEC08AB0EEBF
:104B2000480AFFF723FF38EEC00A84ED010ABDEC06
:104B3000048B94EC020A10BD000034430000B44220
:104B400094ED030AD4ED030A94ED021AD4ED021A8F
:104B50007047002100E0491C89B20A5C002AFAD1A2
:104B6000084670472DE9F84F2DED0C8B88B004F006
:104B700041FF00269FEDE8CADFEDE7CA9FEDE6DAC8
:104B80009FEDE69B9FEDE7ABDFF8B4850FF62C3B7E
:104B90000FF6143ADFF8A85A9FEDDDBADFEDDDBA63
:104BA00019E004F043FF0B4602460FF6503100F0C7
:104BB000C4F9DFF8BC0A02F061FA032300AA4FF43B
:104BC00096710F2002F093FACF4802F057FA4FF493
:104BD000FA7002F07DFF002001F0A6FF01280FD13E
:104BE0000B2E0DDBE86F80F00100E8671921E86FFC
:104BF00000F13002D2B2052002F061FA002601E095
:104C0000642E00DA761C95ED1A0AD5ED130AB0EE83
:104C10006B1A00EE601A85ED111AB0EE6B1A95ED65
:104C2000190AD5ED130A00EE601A85ED101A95EDFC
:104C3000180AFFF7BBFE85ED120A686C04F0F6FE59
:104C400002460B46514600F078F9032300AA2D21B5
:104C500000F07CF9286C04F0E9FE02460B46594648
:104C600000F06BF9032300AA3C2100F06FF9D5EDA9
:104C7000100A95ED110AFFF7B5FE20EE0B0AF0EED3
:104C8000608A00F05FF902460B460FF6442100F0FF
:104C900054F9032300AA4B2100F058F9B0EE680A3A
:104CA00020EE0B0A00F04EF902460B460FF62C21BF
:104CB00000F043F9032300AA5A2100F047F995EDCB
:104CC000110AB4EE40CAF1EE10FA02BF95ED100AD7
:104CD000F4EE40CAF1EE10FA02BF95ED120AB4EEFE
:104CE00040DAF1EE10FA02D0D5F8800000283FF447
:104CF0006EAF4FF07F4002F0B1F9B423E622872176
:104D0000052002F06BFB404602F0A8F995ED11CAB0
:104D1000D5ED10CA95ED12DA2D202884FA2068848A
:104D20003720A884FA20E88495ED110AFFF711FED8
:104D3000012004F03BFD00F005F953EC1A2B04F0C0
:104D400063FA0022DFF82C3904F0BCFC04F096FE74
:104D5000A88595ED110AFFF7FCFD002004F026FD63
:104D600000F0F0F853EC1A2B04F04EFA02460B4612
:104D70000020DFF8041904F0ADFE04F07FFEE885A2
:104D8000A88D00F10A042C85B5F92E706F852C864C
:104D90006F86AC8607F10A00E88695ED100AFFF7EA
:104DA000D8FDB0EE408A20B204F074FC0446894677
:104DB0000120B0EE480A04F0F9FC00F0C3F853EC0F
:104DC000192B04F021FA22464B4604F07BFC04F038
:104DD00055FEA88795ED100AFFF7BBFDB0EE408A9F
:104DE000384604F057FC04460F460020B0EE480A4F
:104DF00004F0DCFC00F0A6F853EC192B04F004FAE4
:104E000022463B4604F05EFC04F038FEE887282387
:104E1000A88F28872822E88F0A306887FA211E2069
:104E200002F0DCFA042105F1200002F0A6FB0421C7
:104E300005F1300002F0A1FBE98FA88F0A231E22A2
:104E400002F0CCFA0A22FA21322002F0F1FA00F044
:104E50006DF80A2289B280B202F0EAFAB5F93E0092
:104E6000411DA88F0A2289B202F0E2FA4FF07F407A
:104E700002F0F4F80522FA21322002F0D9FA00F00B
:104E800055F8052289B280B202F0D2FAB5F93E0097
:104E9000411DA88F052289B202F0CAFA404602F0ED
:104EA000DDF895ED120ADFEDA40A00F006FB95EDA2
:104EB000120A08D5FFEE000A00F042F80B4602463F
:104EC0000FF6240173E6DFED9D0A00F0F6FAA86CF8
:104ED000FFF667AE04F0AAFD0B4602460FF614017A
:104EE00065E60000B84B0020005000400050014033
:104EF000005C0040A086010000B00240400100A01C
:104F000000080650000013D09405002088500020AF
:104F10000000C84200003443000000000000000010
:104F200000A054400000000000905240B5F92E004F
:104F3000411DB5F92C00401D704700A804F08ABE41
:104F400020EE200A10EE100A04F070BD052002F0D9
:104F5000CEB800002DE9F0472DED048BDFF8E046D8
:104F60000FF2A8790FF29C7ADFF8105704F1840849
:104F70009FED748ADFED748A12E004F1080249465D
:104F8000404604F067FE4046FFF7E3FD0146404619
:104F900004F0CAFE002020774FF47A7002F098FDEA
:104FA000207F0128F8D1207A532804BF207B3B289A
:104FB000E3D1207C3B2801BF207D3B28207E0D28AB
:104FC000DBD1627AA37A64200A2100F0F1F8E37A57
:104FD000D218AE18627DA37D00F0EAF8E37DD21806
:104FE000AF18E26F002A40F09E80627CA37C00F044
:104FF000DFF8E37CD218AA1812B200EE102A627B06
:1050000012FB00F0A27BB8EEC00ADFED500A12FBE3
:10501000010030EE200AE17BF2EE040A80EE200A65
:105020004018DFED4C0A2818C0EE200A00B200EE4E
:10503000100AB8EEC00AB2EE041A80EE010A9FED23
:10504000451A80EE010AFFF711FD84EC020A38EEE2
:10505000C00AD4ED130A80EE200A84ED160AB0B21D
:1050600094ED010AD4ED130A38EEC00A80EE200A4E
:1050700084ED150AFFF78CFC84ED140AB8B2FFF733
:10508000A3FC84ED170A00F08BF8B0EE409A00F014
:105090007DF800F069F817D500F06BF8B0EE409A93
:1050A00000F074F800F060F80ED584ED1D8A00F071
:1050B0006DF8DFED240A80EE209A00F071F880EEA2
:1050C000090A84ED1C0A17E000F060F800F066F8A9
:1050D00000F04AF817D500F04CF800F05FF800F047
:1050E00043F810D584ED1C8A00F05AF800F04AF815
:1050F00080EE090A84ED1D0A00F03BF880EE090AF3
:1051000084ED1B0A0FE084ED1B8A00F032F800F0FA
:1051100039F880EE090A84ED1D0A00F041F880EEAE
:10512000090A84ED1C0A04F10802514628E7000030
:105130004C500020C4500020CCCCCCBDCDCCCC3DBC
:1051400000A5FFFFA69BC43C00003443000048C2FA
:10515000403802400000C842007000400068014032
:105160003C4D002000040040B4EE409AF1EE10FAED
:10517000704794ED140AD4ED180A30EE600AFFF778
:10518000DEBB0000DFEDB00A80EE209A94ED160A37
:10519000D4ED1A0A30EE600AFFF7D1BBB0EE409AA8
:1051A00094ED150AD4ED190A30EE600AFFF7C7BB7B
:1051B00012FB00F213FB0122704780B50A2002F0B7
:1051C00087FCFBE7F8B52DED028BDFF8B444DFF880
:1051D000B454DFF8B464DFF868749FED9C8A30E063
:1051E00030687061DFED9A0A96ED010ADFF89C04E1
:1051F00000F068F985ED000A96ED020A00F062F908
:1052000085ED010A96ED030A00F05CF984ED000AD1
:1052100096ED040A00F056F984ED020A96ED050AAF
:1052200000F050F980ED000A70683866B068786662
:10523000F068B8663069B0617069F0610A2002F008
:1052400047FCD6ED0D0A96ED080A07F15000FFF76E
:1052500062FBD6ED0E0A96ED090A07F15400FFF73E
:105260005AFBD6ED0F0A96ED0A0A07F15800FFF730
:1052700052FBD6ED100A96ED0B0A07F15C00FFF722
:105280004AFBD6ED110A96ED0C0A3046FFF743FBB8
:1052900097ED180AD7ED140A00F00FF909D500F0C0
:1052A00003F9D7ED140A00F008F91BD500F0FCF85B
:1052B00015E097ED140AD7ED180A00F0FEF813D5A3
:1052C00097ED140AD7ED180A97ED1B1A00F0F3F8C2
:1052D00008D597ED180AD7ED1B0A30EE600A86ED67
:1052E000010A01E0386D706097ED190AD7ED150AD3
:1052F00000F0E3F809D500F0D0F8D7ED150A00F07A
:10530000DCF81BD500F0C9F815E097ED150AD7EDCC
:10531000190A00F0D2F813D597ED150AD7ED190A3E
:1053200097ED1C1A00F0C7F808D597ED190AD7EDCC
:105330001C0A30EE600A86ED020A01E0786DB0606A
:1053400097ED1A0AD7ED160A00F0B7F809D500F064
:105350009DF8D7ED160A00F0B0F81BD500F096F8CE
:1053600015E097ED160AD7ED1A0A00F0A6F813D546
:1053700097ED160AD7ED1A0A97ED1D1A00F09BF863
:1053800008D597ED1A0AD7ED1D0A30EE600A86EDB2
:10539000030A01E0B86DF06096ED060AD7ED170A32
:1053A00000F08BF809D500F06AF8D7ED170A00F085
:1053B00084F81BD500F063F815E097ED170AD6EDD9
:1053C000060A00F07AF813D597ED170AD6ED060A0B
:1053D00096ED121A00F06FF808D596ED060AD6ED94
:1053E000120A30EE600A86ED040A01E0F86D3061C1
:1053F00096ED070AD6ED000A00F05FF80BD500F035
:1054000037F8D6ED000A00F058F813D500F030F860
:1054100086ED050AE6E696ED000AD6ED070A00F0ED
:105420004CF8F7D596ED000AD6ED070A96ED131A5B
:1054300000F041F87FF5D4AE96ED070AD6ED130AD9
:1054400030EE600AE4E70000A69BC43C0060EA4737
:105450000000C84200080040303802400008024006
:1054600000000240000C0240001802400000121030
:1054700096ED070AD6ED130A30EE200A704796ED36
:10548000060AD6ED120A30EE200A704797ED1A0A86
:10549000D7ED1D0A30EE200A704797ED190AD7EDB7
:1054A0001C0A30EE200A704797ED180AD7ED1B0A48
:1054B00030EE200A704770EEC10AB4EE600AF1EED9
:1054C00010FA704720EE080A80EE200ABDEEC00AEE
:1054D000704700002DE9F0412DED088B4FF47A74F0
:1054E000002725469FED5B8A40F2DC56F0EE088AE5
:1054F0004FF4FA68B1EE0E9ADFED589AB1EE08AAB1
:10550000DFED58AAB2EE00BA06E0C0ED16AA0F46CB
:105510004FF4FA7002F0DCFA4948826F02EBD27362
:105520005B10791CA2EB4302012A0AD107EBD77268
:105530005210B7EB42020EBF80ED15BA544A4265D5
:10554000E3E7C26F012AE3D10C2297FBF2F20C23AE
:1055500003FB127232B9C0ED16AA80ED17AAC0ED96
:105560001B9A37E0012A02D14A4A426532E0022AF8
:1055700008BF80ED149A37D0032A04D1C0ED148AF5
:1055800080ED159A30E0042A32D0052A02D1424A31
:10559000C2652FE0062A0CD180ED149A80ED158AA1
:1055A000C0ED16AAC0ED1C9AC0ED1D9A40F6C415B8
:1055B0002AE0072A08D180ED158A80ED16BAC0EDE1
:1055C0001C9A4FF4FA751FE0082A05D180ED158A60
:1055D000C0ED16AA254617E0092A07D1C0ED148AA6
:1055E00080ED159AC0ED1C9A45460DE00A2A03D1BC
:1055F0002A4A8265354607E00B2A05D1C0ED1C9A80
:1056000080ED17AA47F230550F46284682E700B5CD
:1056100083B000A802F0A2F90A2002F059FAF8E7D4
:1056200000681F49884208BF00F08EB8704700002C
:105630000004024097D17E5AFB2109400080664059
:10564000B0000020000034400000044000001EC0F4
:105650000000224033332B410000B03F8FC2F53CA5
:10566000000014409A99D940380500209851002034
:105670009C0500200080464000406F4030EBFFFF5B
:105680003404004034000040680300203808004023
:105690000000204100001041333313410000144149
:1056A00000100040FEE7000056206A6F696E743AF1
:1056B00020252E32662064656700000048206A6F4E
:1056C000696E743A20252E326620646567000000FA
:1056D000583A20252E316620636D0000593A202566
:1056E0002E316620636D0000202020252E3166209B
:1056F0002D3E00003C2D20252E3166002020202547
:105700002E3166004F4B3A2025730D004552523A18
:105710002025730D0000000080B51748016841F492
:1057200000710160016841F480610160016841F429
:1057300080710160032002F0E6FF002004F012FBFC
:1057400003F078F9002002BD0C480168491C016093
:1057500070470A480068704731B5FFF7FAFF009DAF
:1057600015F1010F044618BF6D1CFFF7F2FF001B77
:10577000A842FAD331BD0000003C0240A8510020ED
:1057800038B5050001D1012032BD05F1380460783B
:1057900018B92070284603F0EAFA00F017F800F074
:1057A0000DF821F02A01FFE74161286800F019F89F
:1057B000606020206070A070002032BD2868016900
:1057C00021F490410161286841697047242060708C
:1057D0002868C16821F40051C160284600F007B86C
:1057E0002068C16841F40051C160002070472DE974
:1057F000F0470446642520680169E26821F44051BD
:10580000114301611926C168474A1140A26811433A
:105810002269114362691143E2691143C160416920
:10582000A26921F4407111434161E3693F49404A53
:10583000B3F5004F3AD1904218BF88420ED102F022
:1058400014FE074602F011FE804602F00EFE81466D
:1058500002F00BFE824602F008FE0DE002F0FDFDB4
:10586000074602F0FAFD804602F0F7FD814602F09D
:10587000F4FD824602F0F1FD06FB08F36168490081
:1058800000F058F8DB003233B3FBF5F3B2FBF1F272
:1058900003F0F803B2FBF5F25B0000F058F8C0002B
:1058A0003230B0FBF5F000F0070038E0904218BF4E
:1058B00088420ED102F0D9FD074602F0D6FD80469F
:1058C00002F0D3FD814602F0D0FD824602F0CDFD0C
:1058D0000DE002F0C2FD074602F0BFFD804602F077
:1058E000BCFD814602F0B9FD824602F0B6FD06FB22
:1058F00008F36168890000F01DF81B013233B2FB28
:10590000F1F2B3FBF5F3B2FBF5F203F0F00300F0B4
:105910001EF800013230B0FBF5F000F00F002168F6
:1059200080188860BDE8F087F369FFFF001401402C
:1059300000100140B3FBF1F306FB07F206FB09F789
:10594000B7FBF1F7B7FBF5F705FB1733704703EB30
:105950000212704306FB0AF3B0FBF1F0B3FBF1F364
:10596000B0FBF5F005FB10307047000038B50400BF
:1059700001D1012032BD0020A06204F150056878F9
:1059800018B92870204603F05DF90220687000F015
:1059900067FA6068A1680843E16808432169084321
:1059A00061690843A16901F400710843E169084392
:1059B000216A0843A16A084321680860A069616AF6
:1059C000000C00F004000843216848602068C169A9
:1059D00021F40061C161002068600120687000202E
:1059E00032BD10B508B9012010BD00F150040221EC
:1059F000617000F03EFA03F03DF9002060606070D5
:105A0000207010BD2DE9F04700F012FA82B08946EF
:105A10009246984608BF022000F08280012028703C
:105A2000FFF797FE07466878012818BF022475D152
:105A3000B9F1000F18BFBAF1000F6ED003206870E3
:105A40006C60C6F83090A6F834A0A6F836A0B4630F
:105A5000B487F4877464346400F0F1F900F0E4F979
:105A600001D400F0DCF9F068B0F5006F70681FD168
:105A700000281CBFF08E012809D1316839F8020BCB
:105A8000C86002E039F8021BC16000F0ACF9F08E8A
:105A900070B300F0B0F9F5D4B8F1000F2DD018F1C3
:105AA000010FF4D0FFF755FEC01B4045EFD324E0B3
:105AB00000281CBFF08E012809D1316819F8010BAC
:105AC000087302E019F8011B017300F08CF9F08EE5
:105AD00070B100F090F9F5D4B8F1000F0DD018F1C5
